:020000040800F2
:10000000F8090020CD010008F1350008F33500089B
:10001000F7350008FB350008FF3500080000000038
:10002000000000000000000000000000033600088F
:1000300005360008000000000736000833380008C5
:10004000E7010008E7010008E7010008E7010008F0
:10005000E7010008E701000845380008E70100084B
:10006000E7010008E7010008E7010008E7010008D0
:10007000E7010008E7010008E70100086F38000801
:10008000E7010008E7010008E7010008E7010008B0
:1000900099380008E7010008E70100085738000810
:1000A000E7010008E7010008E7010008E701000890
:1000B0000936000841360008E7010008E70100089A
:1000C000E7010008E7010008E7010008E701000870
:1000D000E70100085B36000885360008E7010008E4
:1000E000E7010008E7010008E7010008E701000850
:1000F000E7010008E7010008E7010008E701000840
:10010000E70100086D380008E7010008E701000872
:10011000E7010008E7010008E7010008E70100081F
:10012000E7010008E7010008E7010008E70100080F
:1001300000F002F800F03AF80AA090E8000C8244BF
:100140008344AAF10107DA4501D100F02FF8AFF29C
:10015000090EBAE80F0013F0010F18BFFB1A43F0A5
:100160000103184780630000A0630000103A24BF19
:1001700078C878C1FAD8520724BF30C830C144BF0C
:1001800004680C607047000000230024002500264E
:10019000103A28BF78C1FBD8520728BF30C148BFEA
:1001A0000B6070471FB51FBD10B510BD05F0C2F93B
:1001B0001146FFF7F7FF03F054F905F0E0F903B437
:1001C000FFF7F2FF03BC05F0E3F9000009488047A0
:1001D00009480047FEE7FEE7FEE7FEE7FEE7FEE729
:1001E000FEE7FEE7FEE7FEE704480549054A064B41
:1001F00070470000EB02000831010008F8030020FE
:10020000F8090020F8050020F80500200CB50020B2
:10021000019000906C48006840F480306A490860A2
:1002200000BF6948006800F4003000900198401C4D
:100230000190009818B90198B0F5A06FF1D162480B
:10024000006800F4003010B10120009001E00020AF
:1002500000900098012843D15C48006840F01000ED
:100260005A4908600846006820F003000860084604
:10027000006840F0020008605348406852494860F6
:100280000846406848600846406840F4806048601E
:100290000846406820F47C1048600846406840F4F6
:1002A000E81048600846006840F08070086000BFB1
:1002B0004548006800F000700028F9D042484068C6
:1002C00020F00300404948600846406840F00200C2
:1002D000486000BF3C48406800F00C000828F9D195
:1002E0000CBD10B5FFF792FF10BD10B53648006881
:1002F00040F001003449086008464068344908402D
:100300003149486008460068324908402E49086073
:100310000846006820F4802008600846406820F401
:10032000FE0048604FF41F008860FFF7DAFF4FF0CF
:1003300000602949086010BD10B50021002000228E
:10034000214B5B6803F00C0121B1042906D0082978
:1003500028D107E0214B224C236027E01F4B204C83
:10036000236023E0184B5B6803F47010164B5B6846
:1003700003F48032022303EB904022B9194B43432C
:10038000174C23600DE0104B5B6803F4003323B17E
:10039000144B4343124C236003E0104B4343104C77
:1003A000236003E00D4B0E4C236000BF00BF064BE3
:1003B0005B68C3F303130C4CE15C094B1B68CB4037
:1003C000074C236010BD00000010024000200240D6
:1003D0000000FFF8FFFFF6FE08ED00E000127A00D3
:1003E0000000002000093D000400002031490143C5
:1003F000314A1160704770B5002100230F22C47884
:1004000004B32D4C246804F4E064C4F5E064210ACC
:10041000C1F10403CA40447804FA03F1847814401B
:1004200021430901254C0678A155047804F01F05E5
:100430000124AC4005786D11AD0005F1E025C5F84B
:10044000004109E0047804F01F050124AC401C4D74
:100450000678761145F8264070BD1A4A0A400243D4
:10046000154B1B1F1A60704739B1134A121D1268D1
:100470000243114B1B1D1A6006E00F4A121D126841
:1004800082430D4B1B1D1A607047042808D14FF0A2
:10049000E021096941F004014FF0E022116107E019
:1004A0004FF0E021096921F004014FF0E0221161D1
:1004B000704700000000FA050CED00E000E400E0E9
:1004C00080E100E080FFFF1F1AB143690B434361E5
:1004D00002E043698B434361704710B50021837A82
:1004E000012202FA03F1FB4A126842F00102F94BC1
:1004F0001A60F84A1C3212688A43F64B1C331A60A1
:10050000027BCAB9F34A0C3212688A43F14B0C33AE
:100510001A604288C38842EA0343EE4A4032847A32
:1005200042F834300288838842EA0343E94A403281
:10053000847A02EBC4025360027B012A19D1E54A96
:100540000C3212680A43E34B0C331A60428803886A
:1005500042EA0343DF4A4032847A42F83430C288A8
:10056000838842EA0343DB4A4032847A02EBC402C6
:100570005360C27A3AB9D74A121D12688A43D54BE2
:100580001B1D1A6006E0D34A121D12680A43D14BA4
:100590001B1D1A60028932B9CE4A143212688A438E
:1005A000CC4B14331A600289012A06D1C94A14328D
:1005B00012680A43C74B14331A60427B012A06D1E2
:1005C000C44A1C3212680A43C24B1C331A60C14A27
:1005D000126822F00102BF4B1A6010BD30B502460E
:1005E00000200023146824F002041460146844F00E
:1005F0000104146000E05B1C546804F001041CB9A1
:100600004FF6FF74A342F6D1546804F001040CB90C
:1006100000206CE08C79012C04D1146844F0800433
:10062000146003E0146824F080041460CC79012C79
:1006300004D1146844F04004146003E0146824F00A
:10064000400414600C7A012C04D1146844F0200496
:10065000146003E0146824F0200414604C7A012C28
:1006600004D1146844F01004146003E0146824F00A
:10067000100414608C7A012C04D1146844F008042E
:10068000146003E0146824F008041460CC7A012C90
:1006900004D1146844F00404146003E0146824F0E6
:1006A000040414608C78A407CD7844EA05640D79BD
:1006B00044EA05444D7944EA05540D886D1E2C43E7
:1006C000D461146824F001041460002300E05B1C72
:1006D000546804F001041CB14FF6FF74A342F6D134
:1006E000546804F001040CB1002000E0012030BD8A
:1006F00000218171C171017241728172C172817078
:10070000C1700321017102214171012101807047F3
:1007100010B504467048844209D10121480601F011
:10072000DCFA00214FF0007001F0D7FA08E0012157
:10073000880601F0D2FA00214FF0806001F0CDFA76
:1007400010BD10B58AB004460121092001F09EFABF
:100750000121480601F0A7FA01214FF4EA1001F047
:10076000DAF84FF48070ADF8240048208DF82700A7
:1007700003208DF8260009A9584800F00BFE4FF41D
:100780000070ADF8240018208DF8270003208DF8A4
:10079000260009A9514800F0FDFD4FF4E060FFF785
:1007A00025FE14208DF8200000208DF82100042063
:1007B0008DF8220001208DF8230008A8FFF71BFE0A
:1007C0004548FFF7A5FF05A8FFF792FF00208DF829
:1007D0001A0001208DF81B008DF81C0000208DF8F8
:1007E0001D008DF81E008DF81F008DF816000120E9
:1007F0008DF8170005208DF8180002208DF81900DB
:100800000420ADF8140005A93348FFF7E7FE0020E7
:100810008DF80E008DF80F0001208DF81000C4F344
:100820004F30ADF80400042000EBC40080B2ADF8F6
:1008300006004FF6FF70ADF80800ADF80A00002082
:10084000ADF80C0001208DF8110001A8FFF745FE5E
:10085000012202212048FFF737FE0AB010BD10B573
:1008600002460020936803F08063B3F1806F00D1EB
:1008700010E0936803F00063B3F1006F01D1012031
:1008800008E0936803F08053B3F1805F01D1022048
:1008900000E0042004287AD002F5C07303EB0013B3
:1008A0001B6803F0010402F5C07303EB00131C6026
:1008B0000B7AABB94B7A0C8843EA445302F5C07407
:1008C00004EB00142468234302F5C07404EB001405
:1008D000236016E00066004000640040000C014008
:1008E0000B7A4C6843EAC4034C7A234302F5C07484
:1008F00004EB00142468234302F5C07404EB0014D5
:1009000023608B7A03F00F038B7202F5C07303EB45
:1009100000135B6823F00F0402F5C07303EB0013B0
:100920005C6002F5C07303EB00135B688C7A2343B1
:1009300002F5C07404EB001463608B7B1C064B7BD8
:1009400044EA03440B7B44EA0323CC7A234302F5B5
:10095000C07404EB0014A3608B7C1C064B7C44EA3F
:1009600003440B7C44EA0323CC7B234302F5C0748D
:1009700004EB0014E36002F5C07303EB00131B6883
:1009800043F0010402F5C07303EB00131C6010BDBB
:100990002DE9F04185B080460F4614461D460026DD
:1009A000019704208DF8080000208DF809008DF8CB
:1009B0000A5000BF06E021780DF10B008155641C40
:1009C000701CC6B2AE42F6DB69464046FFF747FFF1
:1009D00005B0BDE8F081F749096841F00101F54A29
:1009E00011601146096843F60E729143F14A116095
:1009F0001146096841EA002111601146096821F099
:100A000001011160704721B1026842F48032026036
:100A100003E0026822F4803202607047E1B10268AC
:100A200042F0800202604FF4C272125842F48073A6
:100A30004FF4C27213504FF4CA72125842F48073CA
:100A40004FF4CA7213504FF4D272125842F48073AA
:100A50004FF4D27213501BE0026822F08002026051
:100A60004FF4C272125822F480734FF4C2721350C2
:100A70004FF4CA72125822F480734FF4CA721350A2
:100A80004FF4D272125822F480734FF4D272135082
:100A9000704710B50246002321B1012907D0022971
:100AA0000FD109E09068C44C00EA04030BE09068A1
:100AB000C24C00EA040306E09068C14C00EA04035B
:100AC00001E0002300BF00BFBE4C181BA34216D09C
:100AD00007DC83B16FF08060184470B1022818D130
:100AE00011E0B0F5007F10D0B74C204448B1B0F50C
:100AF000003F0ED10BE002230DE000230BE00023AA
:100B000009E0002307E0012305E0012303E00123BE
:100B100001E0002300BF00BFD8B210BD21B1012900
:100B200007D002290FD109E0826842F0800282607A
:100B30000AE0826842F40042826005E0826842F482
:100B40000002826000E000BF00BF704710B500F5F2
:100B5000D87303EB01131B6803F004031372137AB9
:100B600053B900F5D87303EB01131B6840F2FF740F
:100B700004EA5353136009E000F5D87303EB011343
:100B80001B686FF0604404EAD303536000F5D87328
:100B900003EB01131B6803F00203537200F5D873D3
:100BA00003EB01135B6803F00F03937200F5D87336
:100BB00003EB01135B681B0AD37400F5D87303EBD6
:100BC00001139B68D37200F5D87303EB01139B6884
:100BD0001C0A147300F5D87303EB01139B681C0CFB
:100BE000547300F5D87303EB01139B681B0E9373CA
:100BF00000F5D87303EB0113DB68D37300F5D873EA
:100C000003EB0113DB681C0A147400F5D87303EBC3
:100C10000113DB681C0C547400F5D87303EB01134B
:100C2000DB681B0E937421B9C36843F02003C360D3
:100C300003E0036943F02003036110BD21B9C268DA
:100C400042F02002C26003E0026942F02002026129
:100C500070470246002019B9D36803F0030006E08C
:100C6000012903D1136903F0030000E0002070475D
:100C700010B502460B4600204FF6FF71BBB9146851
:100C800024F0020444F00104146000E0491E54689A
:100C900004F00304012C01D00029F7D1546804F0BA
:100CA0000304012C01D0002032E0012030E0012BB0
:100CB00013D1146824F00304146000E0491E546842
:100CC00004F003040CB10029F8D1546804F00304C3
:100CD0000CB100201CE001201AE0022B17D114688F
:100CE00024F0010444F00204146000E0491E54683A
:100CF00004F00304022C01D00029F7D1546804F059
:100D00000304022C01D0002002E0012000E00020BA
:100D100010BD014600200A6822F0010242F00202E2
:100D20000A604A6802F00302022A00D101207047DB
:100D300001464FF6FF7200200B6823F002030B60A0
:100D400000E0521E4B6803F00203022B01D1002A7F
:100D5000F7D14B6803F00203022B00D0012070474B
:100D6000014600208A6902F07000704701460020A9
:100D70008A69100E7047014600208A69C2F3074055
:100D8000704710B50246002001F4700343B1936927
:100D9000C1F3130423400BB1012039E0002037E0F8
:100DA00001F08073A3B15368C1F3130423406BB106
:100DB00001202DE00066004003000004000300084D
:100DC00000000310000100080001FFF700201FE0F1
:100DD00001F0006343B19368C1F3130423400BB1E6
:100DE000012015E0002013E001F0007343B1D36847
:100DF000C1F3130423400BB1012009E0002007E0F8
:100E00001369C1F3130423400BB1012000E000205B
:100E100010BD0022804B994202D10023836111E072
:100E2000C1F3130201F000730BB1C2600AE001F0DC
:100E300080630BB1026105E001F000630BB18260D9
:100E400000E0426070470246002002EA01030BB155
:100E5000012000E00020704770B504460D460026D2
:100E600060692840002871D0B5F5807F5CD010DC27
:100E7000082D35D006DC012D20D0022D24D0042DE4
:100E800072D127E0102D31D0202D35D0402D6BD1DF
:100E900038E0B5F5004F60D009DCB5F5007F49D0EA
:100EA000B5F5806F4CD0B5F5006F5DD14FE0B5F56D
:100EB000803F2DD0B5F5003F56D12FE0A0685749AF
:100EC000FFF7C1FF064651E0E0680321FFF7BBFFD3
:100ED00006464BE0E0680821FFF7B5FF064645E00F
:100EE000E0681021FFF7AFFF06463FE020690321CD
:100EF000FFF7A9FF064639E020690821FFF7A3FFA5
:100F0000064633E020691021FFF79DFF06462DE0DD
:100F100060680821FFF797FF064627E06068102108
:100F2000FFF791FF064621E0A0690121FFF78BFF43
:100F300006461BE0A0690221FFF785FF064615E083
:100F4000A0690421FFF77FFF06460FE00FE0A069CC
:100F50007021FFF778FF064608E060680421FFF77C
:100F600072FF064602E0FFE7002600BF00E0002611
:100F7000304670BDB1F5007F3AD00FDC202928D073
:100F800006DC01291CD004291DD0082940D11DE010
:100F9000402921D0B1F5807F3AD126E0B1F5004F4C
:100FA00031D006DCB1F5806F25D0B1F5006F2FD1BF
:100FB00024E0B1F5803F12D0B1F5003F28D111E017
:100FC000164A826025E00822C26022E01022C26038
:100FD0001FE0082202611CE01022026119E00822D1
:100FE000426016E01022426013E00422426010E0EA
:100FF000042242600DE0042242600AE00022826185
:101000000422426005E0002282610422426000E086
:1010100000BF00BF704700007000F0300101010008
:1010200001684FF6FE7211400160002101604160CD
:101030008160C1608D49884208D18C49083949686E
:1010400041F00F01894A083A51608AE0874914311A
:10105000884208D185490839496841F0F001834A3E
:10106000083A51607DE081492831884208D17F49A2
:101070000839496841F470617C4A083A516070E06F
:101080007A493C31884208D178490839496841F4A5
:101090007041764A083A516063E0744950318842A1
:1010A00008D172490839496841F470216F4A083AF9
:1010B000516056E06D496431884208D16B49083966
:1010C000496841F47001694A083A516049E067494A
:1010D0007831884208D165490839496841F0706122
:1010E000624A083A51603CE06149884206D1011FDA
:1010F000096841F00F01021F116032E05C491431B0
:10110000884208D15A49091F096841F0F001584A3C
:10111000121F116025E056492831884208D15449F0
:10112000091F096841F47061514A121F116018E0EB
:101130004F493C31884208D14D49091F096841F4A3
:1011400070414B4A121F11600BE0494950318842EF
:1011500007D14749091F096841F47021444A121F09
:101160001160704710B50022026847F6F0739A4389
:101170000C6A8B6823430C6923434C6923438C69B5
:101180002343CC6923434C6A23438C6A23431A4389
:101190000260CB6843600B6883604B68C36010BD1E
:1011A0000021016041608160C16001614161816134
:1011B000C161016241628162704721B1026842F0FF
:1011C0000102026004E002684FF6FE731A400260FA
:1011D00070471AB103680B43036002E003688B4356
:1011E00003607047416070470146486880B27047AD
:1011F00001460020002201F080531BB11C4B083B2C
:101200001A6802E0194B083B1A6802EA01030BB1A5
:10121000012000E00020704700F0805119B114490E
:10122000091F086002E0114908394860704701460B
:101230000020002201F080531BB10D4B083B1A68BF
:1012400002E00A4B083B1A6802EA01030BB10120D5
:1012500000E00020704700F0805119B10449091FD7
:10126000086002E001490839486070470800024000
:1012700008040240002044490860091D0860091D57
:101280000860091D086041483F49143108607047F3
:1012900000213D498279002A3AD00A461268036843
:1012A0009A430B461A600A1D126803689A430B1D85
:1012B0001A60027911440A6803681A430A60324AC4
:1012C0000832126803689A432F4B08331A601A1DBC
:1012D000126803689A432C4B0C331A604279102A27
:1012E0000ED11A1F126803681A43274B08331A607D
:1012F0001A1D126803681A43234B0C331A600DE061
:101300002149427911440A6803681A430A6005E0DA
:10131000027911440A6803689A430A607047002101
:10132000016001710C2141710021817170471649E2
:10133000103109680143144A1032116070470146A8
:101340000020114A143212680A400AB1012000E05C
:10135000002070470C491431086070470146002096
:101360000022094B1B6803EA0102074B14331B6878
:101370000B4013B10AB1012000E000207047024980
:10138000143108607047000000040140FFFF0F00A7
:10139000016170472DE9F04102460025002600203A
:1013A00000230024002791F803C00CF00F0591F8EA
:1013B00003C00CF0100CBCF1000F03D091F802C078
:1013C0004CEA050591F800C0BCF1000F31D014685B
:1013D00000202BE04FF0010C0CFA00F3B1F800C034
:1013E0000CEA03069E4220D183004FF00F0C0CFA4A
:1013F00003F7BC4305FA03FC4CEA040491F803C06C
:10140000BCF1280F06D14FF0010C0CFA00FCC2F819
:1014100014C00AE091F803C0BCF1480F05D14FF0A9
:10142000010C0CFA00FCC2F810C0401C0828D1D3F3
:101430001460B1F800C0BCF1FF0F34DD5468002027
:101440002EE000F1080C4FF0010808FA0CF3B1F897
:1014500000C00CEA03069E4221D183004FF00F0C1E
:101460000CFA03F7BC4305FA03FC4CEA040491F8B8
:1014700003C0BCF1280F05D100F1080C08FA0CF8E4
:10148000C2F8148091F803C0BCF1480F07D100F1F5
:10149000080C4FF0010808FA0CF8C2F81080401C44
:1014A0000828CED35460BDE8F0812DE9F843054605
:1014B0000F4614469846F848854201D104261CE0A0
:1014C000F648854201D1082617E0F548854201D14A
:1014D000102612E0F348854201D120260DE0F248A3
:1014E000854201D1402608E0F048854201D180269E
:1014F00003E0EF48854200D186150121304600F017
:10150000C5FBADF800708DF80340142C05D0102CED
:1015100003D01C2C01D0182C01D18DF80280694613
:101520002846FFF737FF142C05D0102C03D01C2CB5
:1015300001D0182C03D139462846FFF729FFBDE812
:10154000F883C2684A40C260704730B500228B07FA
:101550001C0F0F2303FA04F2D64B8C1053F82430DF
:101560009343D44C8D1044F8253023468C1053F807
:1015700024308C07240F00FA04F42343CD4C8D1043
:1015800044F8253030BD2DE9FF4706460C4691460C
:10159000C148864203D104274FF0000828E0BF4825
:1015A000864203D108274FF0010821E0BC4886425B
:1015B00003D110274FF002081AE0BA48864203D13F
:1015C00020274FF0030813E0B748864203D1402795
:1015D0004FF004080CE0B548864203D180274FF055
:1015E000050805E0B248864202D187154FF006088B
:1015F00047F00100012100F049FB012C06D1062033
:101600008DF8000000250120019094E0022C06D105
:1016100007208DF800000125022001908BE0042CAA
:1016200006D108208DF8000002250420019082E0F8
:10163000082C06D109208DF8000003250820019010
:1016400079E0102C06D10A208DF800000425102026
:10165000019070E0202C06D117208DF800000525A0
:101660002020019067E0402C06D117208DF8000063
:101670000625402001905EE0802C06D117208DF8D1
:10168000000007258020019055E0B4F5807F06D149
:1016900017208DF800000825680101904BE0B4F593
:1016A000007F07D117208DF8000009254FF4007046
:1016B000019040E0B4F5806F07D128208DF800003C
:1016C0000A254FF48060019035E0B4F5006F07D132
:1016D00028208DF800000B254FF4006001902AE0CF
:1016E000B4F5805F07D128208DF800000C254FF459
:1016F000805001901FE0B4F5005F07D128208DF8DD
:1017000000000D254FF40050019014E0B4F5804F17
:1017100007D128208DF800000E254FF4804001905D
:1017200009E0B4F5004F06D128208DF800000F2500
:101730004FF4004001904FF4C060FEF757FE0020C8
:101740008DF801008DF8020001208DF80300684635
:10175000FEF751FEADF80C4048208DF80F0003A9AC
:101760004D48FFF717FE29464046FFF7EEFEB9F158
:10177000000F03D108208DF809000CE0B9F1010F2A
:1017800003D10C208DF8090005E0B9F1020F02D158
:1017900010208DF8090000208DF8080001208DF838
:1017A0000A0001A8FFF774FDBDE8FF8710B50446E5
:1017B0003948844208D10121042000F081FA002137
:1017C000042000F07DFA46E03448844208D101212B
:1017D000082000F075FA0021082000F071FA3AE0C4
:1017E0002F48844208D10121102000F069FA00211D
:1017F000102000F065FA2EE02A48844208D1012129
:10180000202000F05DFA0021202000F059FA22E0AB
:101810002548844208D10121402000F051FA0021DE
:10182000402000F04DFA16E02048844208D1012102
:10183000802000F045FA0021802000F041FA0AE003
:101840001B48844207D10121801500F039FA00219C
:10185000A01500F035FA10BD10B50121084600F0C2
:101860002FFA0021012000F02BFA10BD4FF6FF7176
:101870000180022181700421C1707047024600205E
:1018800093680B400BB1012000E000207047014637
:10189000886880B27047000000080140000C0140D9
:1018A000001001400014014000180140001C0140DC
:1018B000002001400800014002460020D3680B4090
:1018C0000BB1012000E0002070470146C86880B2DB
:1018D0007047416170470AB1016100E041617047A2
:1018E000C16070474FF480320A4382618161826136
:1018F000826982697047024600202B4B18684FF6B8
:101900008073184040EA02100843274B1860704764
:101910002649C8617047F0B50A460023002400211B
:10192000002500F00046B6F1004F02D11E4EF169CD
:1019300001E01D4E7168C0F3034583B200F4401608
:10194000B6F5401F08D121F07061174E766826F079
:101950007066154F7E6012E000F48016B6F5801FA9
:1019600006D1032606FA05F4A14341F0706106E0B2
:10197000460D360103FA06F6B14341F0706122B11B
:10198000460D360103FA06F6314300F00046B6F183
:10199000004F02D1044EF16101E0034E7160F0BDD1
:1019A0000249DC310860704700000140000020421D
:1019B000DF48006840F00100DD49086008464068E3
:1019C000DC490840DA49486008460068DA490840BE
:1019D000D74908600846006820F48020086008465F
:1019E000406820F4FE0048604FF41F008860704794
:1019F000CF49096821F48031CD4A11601146096848
:101A000021F480211160B0F5803F03D0B0F5802F24
:101A10000ED106E0C649096841F48031C44A11601C
:101A200007E0C349096841F4A021C14A116000E000
:101A300000BF00BF704710B5014600220023002000
:101A40004A11012A02D1BA4C236806E0022A02D1C7
:101A5000B74C236A01E0B64C636A01F01F0201240F
:101A600094401C400CB1012000E0002010BD38B5AE
:101A7000002000900024002500BF3120FFF7DBFF8D
:101A800005460098401C00900098B0F5A06F01D06A
:101A9000002DF2D03120FFF7CEFF08B1012400E085
:101AA0000024204638BD01460020A14A106820F0DD
:101AB000F80040EAC10010607047A0490860704714
:101AC000024600209A4B586820F47C1042EA010339
:101AD0001843974B5860704798490866704701460D
:101AE0000020934A506820F003000843506070477C
:101AF0008F48406800F00C007047014600208C4A77
:101B0000506820F0F0000843506070470146002004
:101B1000874A506820F4E0600843506070470146EF
:101B20000020834A506820F4605040EAC1005060B1
:101B3000704729B17E4A527A02437D4B5A7204E0C3
:101B40007B4A527A82437A4B5A7270477B49D8312A
:101B50000860704701460020754A506820F44040F4
:101B60000843506070470021714A20321170704A5A
:101B700082F82010012802D004280AD104E00121B3
:101B80006B4A2032117005E00521694A203211703C
:101B900000E000BF00BF70476949086070476449B2
:101BA000096A0143624A1162704765494439086015
:101BB000704730B500210022002400235C4D6D6881
:101BC00005F00C0121B1042905D0082923D105E035
:101BD0005C4D056022E05B4D05601FE0544D6D6873
:101BE00005F47012524D6D6805F48034022505EB42
:101BF00092421CB9544D554305600BE04C4D6D6845
:101C000005F400351DB1504D5543056002E04D4DC2
:101C10005543056002E04B4D056000BF00BF444DD9
:101C20006D6805F0F0010909484D6B5C0568DD4001
:101C300045603F4D6D6805F4E061090A434D6B5CFA
:101C40004568DD4085603A4D6D6805F46051C90A0C
:101C50003E4D6B5C4568DD40C560354D6D6805F4F3
:101C60004041890B3A4D6B5CC568B5FBF3F50561E6
:101C700030BD29B12E4A526902432D4B5A6104E00E
:101C80002B4A526982432A4B5A61704729B1284A2C
:101C900092690243264B9A6104E0254A9269824385
:101CA000234B9A61704729B1214AD2690243204BE4
:101CB000DA6104E01E4AD26982431D4BDA61704743
:101CC00029B11B4AD2680243194BDA6004E0184A72
:101CD000D2688243164BDA60704729B1144A126900
:101CE0000243134B1A6104E0114A12698243104BFC
:101CF0001A61704712494039086070470F49C8643B
:101D000070470B49C87170470948406A40F08070BD
:101D100007494862704701460020054A92680A4018
:101D20000AB1012000E00020704701498872704725
:101D3000001002400000FFF8FFFFF6FE00004242E4
:101D40008004424200127A0000093D001400002085
:101D50002400002021B1028842F00102028004E048
:101D600002884FF6FE731A40028070471AB18389C9
:101D70000B43838102E083898B4383817047CA438D
:101D80000282704700220288F84B98420ED0F84B2E
:101D900098420BD0B0F1804F08D0F64B984205D056
:101DA000F54B984202D0F54B984204D14FF68F7311
:101DB0001A404B881A43F24B984207D0F14B984295
:101DC00004D04FF6FF431A40CB881A4302808B8819
:101DD00083850B880385E54B98420BD0E44B9842F2
:101DE00008D0E94B984205D0E84B984202D0E84B26
:101DF000984201D10B7A03860123838270477FB515
:101E000004460D46B4F1804F39D14FF4E060FEF73F
:101E1000EDFA1C208DF8000000208DF80100022052
:101E20008DF8020001208DF803006846FEF7E3FA02
:101E300001210846FFF737FF681E80B2ADF80800A1
:101E40004720ADF804000020ADF80A00ADF8060008
:101E500001A94FF08040FFF795FF01218807FFF7A8
:101E60008EFF012211469007FFF780FF01218807AE
:101E7000FFF770FF00210120FFF715FF2DE1BD489E
:101E8000844238D14FF4E060FEF7B0FA1D208DF89F
:101E9000000000208DF8010003208DF802000120D1
:101EA0008DF803006846FEF7A6FA01210220FFF72D
:101EB000FAFE681E80B2ADF808004720ADF80400B5
:101EC0000020ADF80A00ADF8060001A92046FFF792
:101ED00059FF01212046FFF752FF012211462046FB
:101EE000FFF744FF01212046FFF734FF00210220C5
:101EF000FFF7D9FEF1E0A048844238D14FF4E0600A
:101F0000FEF774FA1E208DF8000000208DF8010005
:101F100003208DF8020001208DF803006846FEF7CB
:101F20006AFA01210420FFF7BEFE681E80B2ADF8F8
:101F300008004720ADF804000020ADF80A00ADF815
:101F4000060001A92046FFF71DFF01212046FFF7EB
:101F500016FF012211462046FFF708FF0121204607
:101F6000FFF7F8FE00210420FFF79DFEB5E083484F
:101F7000844238D14FF4E060FEF738FA32208DF811
:101F8000000000208DF8010003208DF802000120E0
:101F90008DF803006846FEF72EFA01210820FFF7AE
:101FA00082FE681E80B2ADF808004720ADF804003C
:101FB0000020ADF80A00ADF8060001A92046FFF7A1
:101FC000E1FE01212046FFF7DAFE012211462046FC
:101FD000FFF7CCFE01212046FFF7BCFE00210820C0
:101FE000FFF761FE79E06648844238D14FF4E06043
:101FF000FEF7FCF936208DF8000000208DF8010076
:1020000003208DF8020001208DF803006846FEF7DA
:10201000F2F901211020FFF746FE681E80B2ADF8EC
:1020200008004720ADF804000020ADF80A00ADF824
:10203000060001A92046FFF7A5FE01212046FFF773
:102040009EFE012211462046FFF790FE0121204608
:10205000FFF780FE00211020FFF725FE3DE04948F4
:10206000844238D14FF4E060FEF7C0F937208DF894
:10207000000000208DF8010003208DF802000120EF
:102080008DF803006846FEF7B6F901212020FFF71E
:102090000AFE681E80B2ADF808004720ADF80400C3
:1020A0000020ADF80A00ADF8060001A92046FFF7B0
:1020B00069FE01212046FFF762FE012211462046FB
:1020C000FFF754FE01212046FFF744FE00212020A7
:1020D000FFF7E9FD01E000BFFEE77FBD10B5044654
:1020E000B4F1804F04D101210846FFF7DCFD29E05F
:1020F0002048844204D101210220FFF7D4FD21E0D1
:102100001D48844204D101210420FFF7CCFD19E0D1
:102110001A48844204D101210820FFF7C4FD11E0D0
:102120001748844204D101211020FFF7BCFD09E0CB
:102130001448844204D101212020FFF7B4FD01E0BE
:1021400000BFFEE710BD10B50446B4F1804F04D1C6
:1021500000210120FFF7A7FD3EE00648844219D187
:1021600000210220FFF79FFD36E00000002C014017
:10217000003401400004004000080040000C004012
:1021800000100040001400400040014000440140A5
:1021900000480140FE48844204D100210420FFF79A
:1021A00082FD19E0FB48844204D100210820FFF79A
:1021B0007AFD11E0F848844204D100211020FFF795
:1021C00072FD09E0F548844204D100212020FFF788
:1021D0006AFD01E000BFFEE710BD10B50446F048FF
:1021E000844208D10121C014FFF76AFD0021E014E8
:1021F000FFF766FDC4E0B4F1804F08D10121084625
:10220000FFF76BFD00210120FFF767FDB8E0E5480F
:10221000844208D101210220FFF75FFD0021022046
:10222000FFF75BFDACE0DA48844208D101210420CD
:10223000FFF753FD00210420FFF74FFDA0E0D54834
:10224000844208D101210820FFF747FD0021082022
:10225000FFF743FD94E0D048844208D101211020CB
:10226000FFF73BFD00211020FFF737FD88E0CB484A
:10227000844208D101212020FFF72FFD00212020DA
:10228000FFF72BFD7CE0C848844208D101214014AF
:10229000FFF716FD00216014FFF712FD70E0C34840
:1022A000844209D10121C804FFF70AFD00214FF43F
:1022B0000020FFF705FD63E0BD48844209D10121FC
:1022C0000805FFF7FDFC00214FF48010FFF7F8FC34
:1022D00056E0B848844209D101214805FFF7F0FCD7
:1022E00000214FF40010FFF7EBFC49E0B2488442B4
:1022F00008D101214020FFF7F0FC00214020FFF72A
:10230000ECFC3DE0AD48844208D101218020FFF77C
:10231000E4FC00218020FFF7E0FC31E0A848844283
:1023200008D101218015FFF7D8FC0021A015FFF787
:10233000D4FC25E0A348844209D101210804FFF719
:10234000BFFC00214FF48030FFF7BAFC18E09E4834
:10235000844209D101214804FFF7B2FC00214FF467
:102360000030FFF7ADFC0BE09848844208D1012112
:102370008804FFF7A5FC00214FF48020FFF7A0FCA4
:1023800010BD70B5002400220023058C4FF6FE76A8
:1023900035400584028C8388048B4FF68F752C4062
:1023A000B51E2C400D882C43751E2A400D892A43EA
:1023B0004D882A437A4DA8420BD07B4DA84208D0C5
:1023C000804DA84205D0804DA84202D07F4DA84242
:1023D00013D14FF6F7752A404D892A434FF6FB7506
:1023E0002A408D882A434FF6FF652B404FF6FF5554
:1023F0002B408D892B43CD892B4383800483CD884B
:102400008586028470BD70B5002400220023058CEF
:102410004FF6EF7635400584028C8388048B48F6AE
:10242000FF752C404FF6FF452C400D884FF6FF7688
:1024300006EA05252C434FF6DF752A400D8906EA8A
:1024400005152A434D8806EA05152A43544DA8422E
:1024500002D0554DA8421DD14FF67F752A404D89B7
:102460004FF6FF7606EA05152A434FF6BF752A4058
:102470008D8806EA05152A434FF6FF352B404FF2AB
:10248000FF752B408D8906EA85052B43CD8906EA29
:1024900085052B4383800483CD880587028470BD26
:1024A00070B5002400220023058C4FF6FF663540EE
:1024B0000584028C8388848B4FF68F752C404FF6F1
:1024C000FC752C400D882C434FF6FF552A400D8992
:1024D0004FF6FF7606EA05252A434D8806EA0525CC
:1024E0002A432F4DA84202D02F4DA8421DD14FF2B2
:1024F000FF752A404D894FF6FF7606EA05252A43E7
:102500004FF6FF352A408D8806EA05252A434EF608
:10251000FF752B404DF6FF752B408D8906EA05159A
:102520002B43CD8906EA05152B4383808483CD8810
:102530008587028470BD70B5002200230024058CBD
:102540004EF6FF7635400584038C8488828B48F6EE
:10255000FF752A404FF6FF452A400D884FF6FF765B
:1025600006EA05252A434DF6FF752B400D8906EA3C
:1025700005352B434D8806EA05352B43084DA84207
:1025800002D0094DA84229D14BF6FF752C401FE01F
:1025900000080040000C0040001000400014004003
:1025A000002C01400004004000340140004C014078
:1025B000005001400054014000180040001C004041
:1025C000002000400040014000440140004801401C
:1025D0008D894FF6FF7606EA85152C438480828329
:1025E000CD88A0F84050038470BD828B4FF2FF333A
:1025F0001A408283828B4FF6FF7303EA01231A434A
:1026000082837047F0B50C46154600220021002653
:10261000078C4EF6FF7C07EA0C070784828B018C3F
:102620004FF6FF7707EA043640F6FF473A404FF689
:10263000FF7707EA05273A434FF6FF7707EA0337A4
:102640003A43F64FB8420ED0F54FB8420BD0B0F136
:10265000804F08D0F34FB84205D0F34FB84202D0B4
:10266000F24FB84206D14DF6FF77394046F4805715
:10267000394305E047F6FF57394044F48057394362
:1026800082830184F0BD828B4FF6F3731A408283FC
:10269000828B0A4382837047F0B50C4615460022B0
:1026A00000210026078C4FF6FF6C07EA0C07078411
:1026B000828B018C4FF6FF7707EA04264FF60C77E2
:1026C0003A404FF6FF7707EA03172F433A43D34FB9
:1026D000B8420ED0D24FB8420BD0B0F1804F08D0E4
:1026E000D04FB84205D0D04FB84202D0CF4FB842F9
:1026F00006D14FF6FF57394046F48077394305E05D
:102700004FF2FF57394044F4807739438283018484
:10271000F0BD028B4FF2FF331A400283028B4FF65B
:10272000FF7303EA01231A4302837047F0B50C4696
:102730001546002200210026078C4FF6EF7C07EAA1
:102740000C070784028B018C4FF6FF7707EA04160B
:1027500040F6FF473A404FF6FF7707EA03373A4320
:102760004FF6FF7707EA05273A43AC4FB8420ED041
:10277000AB4FB8420BD0B0F1804F08D0A94FB84250
:1027800005D0A94FB84202D0A84FB84206D14FF6A3
:10279000DF77394046F01007394305E04FF65F77A1
:1027A000394044F01007394302830184F0BD028BA5
:1027B0004FF6F3731A400283028B0A430283704779
:1027C000F0B50C46154600220021068C4FF6FE7728
:1027D0003E400684028B018C4FF60C7632407E1C04
:1027E00006EA03162E4332438C4EB0420ED08C4E76
:1027F000B0420BD0B0F1804F08D08A4EB04205D025
:10280000894EB04202D0894EB04206D14FF6FD76D5
:10281000314044F00106314305E04FF6F576314092
:1028200044F00106314302830184F0BD70B50546D2
:102830000C467A4885420ED0794885420BD0B5F1D6
:10284000804F08D07748854205D07748854202D02E
:102850007648854200D100E000BF208850B9238926
:10286000A28861882846FFF7ABFFE1882846FFF77A
:102870009EFF25E0208804280AD12389A288618848
:102880002846FFF753FFE1882846FFF742FF17E08D
:10289000208808280AD12389A28861882846FFF762
:1028A000FBFEE1882846FFF7EEFE09E02389A288B7
:1028B00061882846FFF7A6FEE1882846FFF795FEC7
:1028C00070BD2DE9F04105460C46002601276088C1
:1028D00008B9022600E00026A088012801D10227BD
:1028E00000E001272088A0B92389A28861882846B2
:1028F000FFF766FFE1882846FFF759FF23893A462C
:1029000031462846FFF712FFE1882846FFF701FF0E
:1029100013E02389A28861882846FFF707FFE18832
:102920002846FFF7F6FE23893A4631462846FFF748
:1029300047FFE1882846FFF73AFFBDE8F0810A88A3
:102940004B881A438B881A43CB881A430B891A4346
:102950004B891A438B891A43A0F8442070474FF6DD
:10296000FF71818000210180C18041800172704728
:102970000021018041808180C1800181418181816C
:10298000C1817047002101804180012181800021A7
:10299000C180018170470021018041808180C18018
:1029A000018141818181704731B1B0F8442042F406
:1029B0000042A0F8442005E0B0F84420C2F30E0223
:1029C000A0F8442070478182704741EA0203A0F8D2
:1029D000483070471AB183890B43838102E08389B1
:1029E0008B438381704701894FF6F8721140018152
:1029F00070470A46002101894FF68F731940114331
:102A00000181704730B504460D4629462046FFF740
:102A1000F0FF208940F00700208130BD002C0140EC
:102A2000003401400004004000080040000C004059
:102A30002DE9F04104460D4616461F46602D06D18D
:102A40003B46012231462046FFF770FE05E03B463B
:102A5000012231462046FFF7B3FE29462046FFF704
:102A6000C8FF208940F007002081BDE8F08130B523
:102A70000C4600210189C9B24FF6FF7505EA03250E
:102A8000154325432943018130BD2DE9F041054619
:102A90000E4617469846002443463A463146284695
:102AA000FFF7E5FF2C894FF6F870044044F0070467
:102AB0004FF68F70044044F070042C81BDE8F08123
:102AC000F0B504460D4616461F463B46324629469B
:102AD0002046FFF7CCFF208940F480402081F0BDE4
:102AE0000185828270470A46002101884FF68F7364
:102AF0001940114301807047F0B50C4615461E463B
:102B00000021002200230189028B038C4FF6F87705
:102B1000394021434FF6FC473A4040F201173A430F
:102B20004FF6DD773B404FF6FF7707EA06172F4356
:102B30003B43018102830384F0BD0A460021018BDF
:102B40004FF68F7319401143018370470A460021E5
:102B5000018B48F6FF7319404FF6FF7303EA022317
:102B60001943018370470A460021818B4FF68F730A
:102B700019401143818370470A460021818B48F632
:102B8000FF7319404FF6FF7303EA02231943818351
:102B9000704721B1028842F08002028004E002887E
:102BA0004FF67F731A400280704721B1828842F04D
:102BB0000402828004E082884FF6FB731A40828010
:102BC000704721B1828842F00802828004E0828846
:102BD0004FF6F7731A408280704721B1828842F025
:102BE0000102828004E082884FF6FE731A408280E0
:102BF00070470A460021018B4FF6F77319401143C5
:102C0000018370470A460021018B4FF2FF73194080
:102C10004FF6FF7303EA02231943018370470A4604
:102C20000021818B4FF6F773194011438183704760
:102C30000A460021818B4FF2FF7319404FF6FF7354
:102C400003EA02231943818370470A460021018B5E
:102C50004FF6FB7319401143018370470A46002168
:102C6000018B4FF6FF3319404FF6FF7303EA02233F
:102C70001943018370470A460021818B4FF6FB738D
:102C800019401143818370470A460021818B4FF61A
:102C9000FF3319404FF6FF7303EA02231943818380
:102CA00070470A460021018B4FF67F73194011438C
:102CB000018370470A460021018BC1F30E014FF6D4
:102CC000FF7303EA02231943018370470A46002178
:102CD000818B4FF67F7319401143818370470A46F9
:102CE0000021818BC1F30E014FF6FF7303EA02232B
:102CF0001943818370470A460021018C4FF6FD730A
:102D000019401143018470470A460021018C4FF697
:102D1000F77319401143018470470A460021018C62
:102D20004FF6DF7319404FF6FF7303EA021319439E
:102D3000018470470A460021018C4FF67F731940C9
:102D40004FF6FF7303EA02131943018470470A46E2
:102D50000021018C4FF6FF5319404FF6FF7303EA31
:102D600002231943018470470A460021018C4FF267
:102D7000FF7319404FF6FF7303EA022319430184DE
:102D800070470A460021018C4DF6FF7319404FF63B
:102D9000FF7303EA023319430184704730B50023FF
:102DA00001248C40A3B2048C9C430484048C02FA5A
:102DB00001F5ADB22C43048430BD30B500230424AA
:102DC0008C40A3B2048C9C430484048C02FA01F569
:102DD000ADB22C43048430BD70B5034600200024FE
:102DE0001846183001258D40ACB21D8CA5431D84BA
:102DF00009B1082909D100EB6100056825F07005CB
:102E000005600568154305600EE00D1FC5F34E050E
:102E10002844056825F4E045056005684FF6FF760F
:102E200006EA02263543056070BD21B1028842F0F2
:102E30000202028004E002884FF6FD731A4002800D
:102E4000704721B1028842F00402028004E0028847
:102E50004FF6FB731A400280704721B1828842F01E
:102E60008002828004E082884FF67F731A4082805D
:102E7000704702884FF6F7731A40028002880A43AF
:102E80000280704782884FF68F731A408280828852
:102E90000A438280704702894FF6F8731A40028114
:102EA00002890A430281704702894FF67F731A40F4
:102EB000028102890A4302817047818470478185BB
:102EC0007047818670470187704781877047A0F8F7
:102ED0004010704702884FF6FF431A400280028874
:102EE0000A43028070470146888E70470146088F6A
:102EF00070470146888F70470146B1F8400070471F
:102F00000146888C70470146088D704702460020B4
:102F1000138A0B400BB1012000E00020704730B550
:102F20000246002000230024158A05EA0103958942
:102F300005EA010413B10CB1012000E0002030BD0E
:102F4000CA4302827047000010B50446FB48844221
:102F500009D101218803FEF7B3FE00214FF4804020
:102F6000FEF7AEFE32E0F648844209D10121480462
:102F7000FEF7B3FE00214FF40030FEF7AEFE25E071
:102F8000F048844209D101218804FEF7A6FE002101
:102F90004FF48020FEF7A1FE18E0EB48844209D1EF
:102FA0000121C804FEF799FE00214FF40020FEF72E
:102FB00094FE0BE0E548844208D101210805FEF7A4
:102FC0008CFE00214FF48010FEF787FE10BD2DE926
:102FD000F04786B005460E460024A24600BFA14633
:102FE0000027B08900B100BF2F462C8A4CF6FF7035
:102FF0000440F08804432C82AC894EF6F310044060
:10300000B08831890843718908430443AC81AC8A94
:103010004FF6FF400440B0890443AC8201A8FEF79C
:10302000C8FDC648874202D1DDF810A001E0DDF8F6
:103030000CA0A88900F4004040B10AEBCA0000EBE4
:103040000A1031684900B0FBF1F807E00AEBCA004A
:1030500000EB0A1031688900B0FBF1F86420B8FB7E
:10306000F0F004012009642101FB1089A88900F413
:10307000004040B1322000EBC900B0FBF1F000F09D
:103080000700044308E0322000EB09106421B0FB84
:10309000F1F000F00F0004432C8106B0BDE8F0878A
:1030A0004FF41651016000218180C18001810C2103
:1030B000418100218181704710B502460020108AAD
:1030C0004FF2FF0318400B884C8823438C8823431E
:1030D000CC8823431843108210BD00210180418019
:1030E0008180C180704721B1828942F4005282817F
:1030F00004E082894DF6FF731A4082817047F0B573
:103100000346002400260025002040F66A17B94235
:1031100000D100BF1846C1F3421401F01F06012779
:1031200007FA06F5012C01D10C3004E0022C01D184
:10313000103000E014301AB107682F43076002E036
:103140000768AF430760F0BD1AB1838A0B438382DF
:1031500002E0838A8B4383827047028A4FF6F073C2
:103160001A400282028A0A430282704782894FF221
:10317000FF731A40828182890A438281704721B19C
:10318000828942F00202828104E082894FF6FD7357
:103190001A4082817047028A4FF6DF731A4002821A
:1031A000028A0A430282704721B1028A42F48042B5
:1031B000028204E0028A4BF6FF731A4002827047D3
:1031C000C1F308028280704701468888C0F3080076
:1031D0007047818941F0010181817047028BD2B231
:1031E0000283028B42EA012202837047028B02F4BF
:1031F0007F420283028B0A430283704721B1828A95
:1032000042F02002828204E0828A4FF6DF731A4085
:103210008282704721B1828A42F01002828204E0E9
:10322000828A4FF6EF731A408282704721B1828AF8
:1032300042F00802828204E0828A4FF6F7731A4055
:103240008282704721B1828942F40042828103E088
:103250008289C2F30E028281704721B1828A42F4D0
:103260000062828204E0828A4FF2FF731A408282F7
:103270007047828A4FF6FB731A408282828A0A4321
:103280008282704721B1828A42F00202828204E087
:10329000828A4FF6FD731A408282704702460020F0
:1032A000B1F5007F00D100BF13880B400BB10120A6
:1032B00000E00020704701F40072B2F5007F00D1F9
:1032C00000BFCA430280704770B502460024002345
:1032D0000025002040F66A16B14200D100BFC1F3BC
:1032E000421501F01F03012606FA03F3012D02D156
:1032F0009689334006E0022D02D1168A334001E060
:10330000968A33400C12012606FA04F416883440DB
:1033100013B10CB1012000E0002070BD10B50022F7
:10332000002340F66A14A14200D100BF0A12012412
:103330009440A3B2DC43048010BD0000003801407B
:103340000044004000480040004C00400050004055
:1033500070B58E48007A012841D08C48007A032845
:1033600018D18A4B9B8A894CA4881B1B1AB2874BA5
:103370001B8A864C24881B1B03EB430319B2834B27
:103380005B88824C648A1B1B03EB430318B201F079
:103390006AFA65E07D48007A02281AD17B4B9B8A45
:1033A0007A4CA4881B1B5B001AB2784B1B8A774CA3
:1033B00024881B1B03EB830319B2744B5B88734C8B
:1033C000648A1B1B03EB43035B0018B201F04BFA4A
:1033D00046E000221146104601F045FA40E06B48F5
:1033E000007A01283CD16A4890F8250090B36848DB
:1033F0000078F1280ED1664C248A23B2644CA4894B
:1034000022B2634C248921B2614CA48820B201F01D
:10341000FBF925E05E480078F22814D15C49086A7F
:1034200002F066FE04B25A49C86902F061FE05B2B4
:103430005749886902F05CFE06B2224629463046AA
:1034400001F011FA0CE052480078E12808D101F0AF
:10345000ACFF05E0FFE700221146104601F003FA39
:1034600070BD00BF00F054FA012314222021494806
:10347000FEF71BF80123142240214648FEF715F8F9
:1034800001224FF4E131444800F0AFFC43A142482F
:1034900000F01DFE4849494800F074FD00F09AFF15
:1034A00001F08EF900221146104601F0DCF94FF4CC
:1034B0007A71C806FEF7A3FC4FF08040FEF70EFEBF
:1034C0003FA1354800F003FE4BE04348007850B17F
:1034D00000204149087041490860FFF739FF202169
:1034E0002C48FEF72EF83E48007820B100203D49D8
:1034F00008603B4908703C480078B8B100203A4960
:1035000008703A480068142809D140212148FEF784
:1035100018F800203549086001F02BFE06E033481A
:103520000068142802D90020304908602D4800683E
:10353000B0F57A7F05D90020154981F82500294981
:10354000086026480068B0F57A7F0AD905200F493F
:10355000087200202149086000221146104601F03F
:1035600082F9B2E706E041F2883100BF0A1EA1F1FC
:103570000101FBD1021EA0F10100F4D1704700BF90
:10358000011EA0F10100FBD1704700006E00002079
:10359000080300200018014000440040746869736B
:1035A000206973206120746573742070726F6A657E
:1035B0006374A3A1200A0000A08601000038014026
:1035C000496E6974205375636365737366756C2007
:1035D0002E2E2E2E0A0000002E0000203400002087
:1035E0002F00002038000020300000203C00002088
:1035F000704700BFFEE700BFFEE700BFFEE700BF69
:10360000FEE770477047704710B501218807FFF744
:1036100086FCA0B1AA480068401CA9490860A948D6
:103620000068401CA7490860A7480068401CA649DC
:10363000086001F0A3FA01218807FFF781FC10BDA3
:1036400010B50121A148FFF76AFC28B1FFF780FE01
:1036500001219E48FFF774FC10BD10B540F22551C2
:103660009B48FFF731FE38B19948FFF7ADFDC4B272
:103670002146974800F03FFD40F225519448FFF75E
:103680004DFE10BD10B5934800789349087040F284
:1036900025519248FFF718FE60B120218F48FFF7AF
:1036A0000AFE40F225518D48FFF738FE8B48FFF7A0
:1036B0008BFDC4B2874804700078EA2820D1864880
:1036C0000078AE281CD1002085490880012085495A
:1036D000087081480178824802880088401C804B2D
:1036E0001880814881547B480278184601880088F8
:1036F000401C18807C48425401207C4908706EE0D0
:1037000078480078012865D175480088022861DB77
:103710007348008803280ADA6E48017870480288E6
:103720000088401C6E4B18806F48815457E06E48EB
:103730008078801C6A49098888420ADD65480178DA
:10374000674802880088401C654B18806648815491
:1037500045E065488078801C6149098888420ED11F
:103760005C480078EF280AD15A4802785C48018802
:103770000088401C5A4B18805B4842542FE05A483E
:103780008078C01C5649098888421DD1514800786C
:10379000FE2819D14F480178514802880088401C02
:1037A0004F4B188050488154184600885049088073
:1037B000012050490870184601884B4801F0F1FA81
:1037C0000020484908700AE0002046490870444932
:1037D000088004E000204249088042490870012125
:1037E0003E48FFF771FD30B13C48FFF7EDFC012189
:1037F0003A48FFF760FD08213848FFF765FD30B112
:103800003648FFF7E1FC08213448FFF754FD022158
:103810003248FFF759FD30B13048FFF7D5FC02219F
:103820002E48FFF748FD40F225512C48FFF776FD62
:1038300010BD3148006820B12F480068401E2E4955
:103840000860704710B50120FDF788FD10B1012018
:10385000FDF795FD10BD10B54FF40070FDF77EFD2E
:1038600018B14FF40070FDF78AFD10BD704710B518
:103870004FF40030FDF7BCFC01280CD14004FDF7EB
:10388000CBFC1E4800F0DDFD01201D4908708021A1
:103890001C48FDF756FE10BD00B585B06A460021F4
:1038A0001948FDF753F9684601F026FA4FF4807184
:1038B0001448FDF746FE01201449087005B000BD0C
:1038C00034000020380000203C00002000040040AC
:1038D0000038014043000020440000200044004024
:1038E0004000002042000020300300202F00002074
:1038F000580000205A000020280000205C00002012
:103900002E000020001C0140006400403000002018
:1039100030B54FF43471B1F1807F01D301201DE047
:1039200021F07F40401E4FF0E022506150170F22DF
:10393000002807DA13071D0E354B00F00F04241F73
:103940001D5503E013071C0E324B1C5400BF002012
:103950004FF0E022906107201061002008B100BF05
:10396000FEE74FF0E020006920F001004FF0E02179
:10397000086130BD284908604FF0E021096941F035
:1039800001014FF0E022116100BF234909680029BD
:10399000FBD1704710B501210320FEF784F9802088
:1039A000C10508804FF6FF7088850020088501203A
:1039B0008882A72008818420184908802020091DBA
:1039C00008804FF6FF7015492C3108804720091FE9
:1039D0000880012011491431088080200F490831E6
:1039E00008800E48008840F001000C490880080556
:1039F000008840F001000905088010BD00204FF04C
:103A00008041888C000405492431098808447047A6
:103A100018ED00E000E400E0280000200004004071
:103A200008B54FF4E060FCF7E1FC35208DF80000AC
:103A300001208DF8010005208DF8020001208DF88D
:103A400003006846FCF7D7FC08BD30B585B00546D5
:103A50000C4601212020FEF719F901211020FEF764
:103A600015F901210805FEF71EF94FF48050ADF855
:103A7000100018208DF8130003208DF8120004A9FF
:103A8000FD48FDF787FC0420ADF810008DF8130009
:103A900004A9FA48FDF77EFC00950020ADF804006B
:103AA000ADF80600ADF80800ADF80C000C20ADF83C
:103AB0000A006946F248FFF78AFA012C08D1FFF79D
:103AC000AFFF012240F22551ED48FFF718FB05E05A
:103AD000002240F22551EA48FFF711FB0121E84896
:103AE000FFF701FB05B030BD08B54FF4E060FCF70F
:103AF0007DFC34208DF8000001208DF801000420A9
:103B00008DF8020001208DF803006846FCF773FC75
:103B100008BD30B585B005460C4601211020FEF7E2
:103B2000B5F80121C804FEF7BEF84FF48060ADF887
:103B3000100018208DF8130003208DF8120004A93E
:103B4000CD48FDF727FC4FF40060ADF810000420CD
:103B50008DF8130004A9C848FDF71CFC009500204F
:103B6000ADF80400ADF80600ADF80800ADF80C00A3
:103B70000C20ADF80A006946C248FFF728FA012C6C
:103B800008D1FFF7B1FF012240F22551BD48FFF7F0
:103B9000B6FA05E0002240F22551BA48FFF7AFFA25
:103BA0000121B848FFF79FFA05B030BD08B54FF4C2
:103BB000E060FCF71BFC27208DF8000001208DF849
:103BC000010003208DF8020001208DF803006846F3
:103BD000FCF711FC08BD30B585B005460C46012147
:103BE0000820FEF753F801218804FEF75CF84FF433
:103BF0008060ADF8100018208DF8130003208DF8B8
:103C0000120004A9A048FDF7C5FB4FF40060ADF811
:103C1000100004208DF8130004A99B48FDF7BAFB9F
:103C200000950020ADF80400ADF80600ADF80800DE
:103C3000ADF80C000C20ADF80A0069469348FFF778
:103C4000C6F9012C08D1FFF7B1FF012240F225513E
:103C50008E48FFF754FA05E0002240F225518B48C8
:103C6000FFF74DFA01218948FFF73DFA05B030BD55
:103C700008B54FF4E060FCF7B9FB26208DF8000092
:103C800001208DF8010002208DF8020001208DF83E
:103C900003006846FCF7AFFB08BD30B585B00546AC
:103CA0000C4601210420FDF7F1FF01214804FDF736
:103CB000FAFF0420ADF8100018208DF8130003203F
:103CC0008DF8120004A97248FDF764FB0820ADF8D6
:103CD000100004208DF8130004A96D48FDF75AFB6D
:103CE00000950020ADF80400ADF80600ADF808001E
:103CF000ADF80C000C20ADF80A0069466548FFF7E6
:103D000066F9012C08D1FFF7B3FF012240F22551DB
:103D10006048FFF7F4F905E0002240F225515D48C4
:103D2000FFF7EDF901215B48FFF7DDF905B030BD84
:103D300008B54FF4E060FCF759FB25208DF8000032
:103D400001208DF801008DF802008DF8030068460F
:103D5000FCF751FB08BD30B585B005460C46012186
:103D600044F20400FDF792FF4FF40070ADF810002C
:103D700018208DF8130003208DF8120004A9444880
:103D8000FDF708FB4FF48060ADF8100004208DF8BB
:103D9000130004A93E48FDF7FDFA00950020ADF898
:103DA0000400ADF80600ADF80800ADF80C000C20DA
:103DB000ADF80A0069463848FFF709F9012C08D127
:103DC000FFF7B6FF012240F225513348FFF797F97C
:103DD00005E0002240F225512F48FFF790F901211C
:103DE0002D48FFF780F905B030BD70B504460D468B
:103DF00016462948844204D131462846FFF7ABFFD6
:103E000021E02448844204D131462846FFF745FF8B
:103E100019E01E48844204D131462846FFF7DBFEF4
:103E200011E01848844204D131462846FFF771FE5C
:103E300009E01348844204D131462846FFF705FEC5
:103E400001E000BFFEE770BDF0B58DB004460F463F
:103E500016461D46039710200490059600200690F4
:103E6000802007900020089009900A90B5B94FF47F
:103E700040500B9020E00000001001400014014071
:103E800000500040004C0040000C01400048004041
:103E9000000801400044004000380140012D02D1DB
:103EA00068030B9008E0022D02D1E8020B9003E0BA
:103EB000032D01D100200B9000200C90FB48844280
:103EC00025D1001D029001210846FDF7D2FE4FF4D6
:103ED000C060FCF78BFA0E208DF8040000208DF8EE
:103EE000050001208DF806008DF8070001A8FCF7F9
:103EF00082FA01220221EE48FDF76BF902A9EC4893
:103F0000FDF730F90121EA48FDF757F938E0E948B3
:103F1000844210D1001D029001210846FDF7A9FE40
:103F200002A9E3483C30FDF71DF90121E0483C308F
:103F3000FDF743F924E0E048844210D1001D0290CF
:103F400001210846FDF795FE02A9D9482838FDF75A
:103F500009F90121D6482838FDF72FF910E0D74894
:103F600084420DD1001D029001210220FDF781FE47
:103F700002A9D348FDF7F6F80121D148FDF71DF954
:103F80000DB0F0BD30B58DB005460C460021204681
:103F9000FFF7E1FE0021C548FFF7A5F8002240F237
:103FA0002441C248FFF7ABF801224021BF48FFF788
:103FB000CBF80121BD48FFF796F801210846FDF72F
:103FC00058FEBB481430FDF72BF8B848001D02908E
:103FD000BC48039000200490122005900020069019
:103FE0008020079000200890099020200A90C001AE
:103FF0000B9000200C9002A9AD481430FDF7B2F8E8
:104000000121AB481430FDF7D8F80F208DF80400DB
:1040100002208DF8050003208DF8060001208DF8A0
:10402000070001A8FCF7E7F901220221A04814309B
:10403000FDF7CFF80DB030BD10B586B004460121B4
:1040400044F20400FDF722FE4FF40070ADF81400B6
:1040500003208DF8160018208DF8170005A99A483E
:10406000FDF798F94FF48060ADF8140004208DF846
:10407000170005A99448FDF78DF925208DF800005B
:1040800003208DF801008DF8020001208DF8030057
:104090006846FCF7B0F901940020ADF80800ADF8CF
:1040A0000A00ADF80C00ADF810000C20ADF80E00C1
:1040B00001A97E48FEF78BFF012240217B48FFF7D4
:1040C00043F801217948FFF70EF806B010BD70B52E
:1040D00005460C460BE014F8011B2846FFF770F864
:1040E00000BF80212846FFF7D9F80028F9D02078B2
:1040F0000028F0D170BD70B504460D462946204613
:10410000FFF75EF800BF80212046FFF7C7F80028C0
:10411000F9D070BDFEB507460E46002E04DA764291
:104120002D213846FFF7E7FF354600208DF80000C7
:1041300001240CE00A20B5FBF0F100FB11503030F7
:104140000DF804000A20B5FBF0F5601CC4B20A208B
:10415000B5FBF0F00028EDD10A20B5FBF0F100FB33
:10416000115030300DF8040006E01DF804103846F8
:10417000FFF7C1FF601EC4B2002CF6DCFEBD2DE9C6
:10418000FC5F80460D462F464FF07E51384601F0C9
:10419000B9FE814601F0ACFF0646304601F0C4FF8F
:1041A0008346394602F01DF98246484902F01CF860
:1041B000814601F09DFF0446002C00DA644231463E
:1041C0004046FFF7A7FF2E214046FFF794FF6420EB
:1041D00094FBF0F03030C0B28DF800000A2094FB60
:1041E000F0F00A2190FBF1F201FB12003030C0B276
:1041F0008DF801000A2094FBF0F100FB11403030F3
:10420000C0B28DF8020020208DF8030000208DF848
:10421000040069464046FFF75AFFBDE8FC9FFEB523
:1042200007460E46354600208DF8000001240CE0BC
:104230000A20B5FBF0F100FB115030300DF80400FE
:104240000A20B5FBF0F5601CC4B20A20B5FBF0F003
:104250000028EDD10A20B5FBF0F100FB1150303001
:104260000DF8040006E01DF804103846FFF743FF80
:10427000601EC4B2002CF6DCFEBD2DE9F0410746FD
:104280000C461546002600BF0CE014F8011B38460A
:10429000FEF796FF00BF80213846FEF7FFFF00289B
:1042A000F9D0761CAE42F0D3BDE8F0810038014071
:1042B000440002400044004000480040004C0040E0
:1042C000580402405C0000200008014000007A44CD
:1042D00008B501210920FDF7D9FC01214806FDF7A9
:1042E000E2FC01210420FDF7D1FC4FF48050ADF831
:1042F000000003208DF8020018208DF803006946A5
:104300004448FDF747F84FF40060ADF8000048203E
:104310008DF8030069463F48FDF73CF808BD08B535
:104320004FF4C060FCF762F814208DF80000002004
:104330008DF801008DF8020001208DF80300684619
:10434000FCF759F808BD0EB53348FCF7E1F96846AB
:10435000FCF7CEF900208DF806008DF807008DF8E7
:10436000080001208DF8090000208DF80A008DF862
:104370000B008DF802008DF8030002208DF8040078
:1043800004208DF80500ADF8000069462248FCF7CE
:1043900025F90EBD1FB500208DF80A008DF80B0021
:1043A00001208DF80C000020ADF80000ADF80200EF
:1043B000ADF80400ADF80600ADF8080001208DF856
:1043C0000D006846FCF789F8012202211248FCF72B
:1043D0007BF81FBD10B5FFF77BFFFFF7B4FFFFF7BA
:1043E000D9FFFFF79CFF10BD85B041F2143001905A
:1043F00004208DF8080000208DF8090002208DF8B7
:104400000A00AB208DF80B00CD218DF80C1005B003
:10441000704700000008014000640040C648008862
:10442000C5490882084640884882084680888882B4
:104430000846C088C88200200877C04800688861A4
:10444000704700B5024602B900BD1078517840EAC5
:104450000120C0F30A00B84908805078C010917854
:1044600040EA4110C0F30A00B349488090788011B7
:10447000D17840EA8100117940EA8120C0F30A0036
:10448000AD49888010794010517940EAC110C0F3DD
:104490000A00A949C8805079001180080872507933
:1044A000C0F3011048729079D17940EA0120A24905
:1044B0008872107A517A40EA01209F49C872907A36
:1044C000D17A40EA01209C490873107B4873507BE5
:1044D0008873907BC8739A48007828B9FFF79EFFCD
:1044E00001209749087006E09348C07B401C924920
:1044F00088610120087700BFA6E710B591A1944814
:10450000FFF7E5FD8C48B0F900109148FFF787FEF2
:1045100009218F48FFF7EFFD8EA18D48FFF7D7FDEA
:104520008548B0F902108A48FFF779FE09218848CA
:10453000FFF7E1FD89A18648FFF7C9FD7E48B0F984
:1045400004108348FFF76BFE09218148FFF7D3FD74
:1045500084A17F48FFF7BBFD7748B0F906107C487F
:10456000FFF75DFE09217A48FFF7C5FD7FA1784876
:10457000FFF7ADFD7048017A7548FFF750FE09213D
:104580007348FFF7B8FD7BA17148FFF7A0FD6A48AB
:10459000417A6F48FFF743FE0A216D48FFF7ABFDF4
:1045A00076A16B48FFF793FD6348B0F91010684897
:1045B000FFF735FE09216648FFF79DFD72A16448AB
:1045C000FFF785FD5C48B0F912106148FFF727FE40
:1045D00009215F48FFF78FFD6EA15D48FFF777FD6A
:1045E0005548B0F914105A48FFF719FE09215848E8
:1045F000FFF781FD6AA15648FFF769FD4E48B0F903
:1046000016105348FFF70BFE0A215148FFF773FDC0
:104610000A214F48FFF76FFD10BDF0B58DB00024A3
:10462000002503270026AE222146641C0DF8012038
:10463000EA222146641C0DF8012000222146641C58
:104640000DF801202146641C0DF801703A480088DD
:10465000C0F307222146641C0DF801203648027879
:104660002146641C0DF801204088C0F30722214632
:10467000641C0DF80120304882782046611CCCB2C1
:104680000DF800202C488088C0F307222046611CCA
:10469000CCB20DF80020284802792046611CCCB22B
:1046A0000DF800202448C088C0F307222046611C72
:1046B000CCB20DF80020204882792046611CCCB293
:1046C0000DF800201C48027A2046611CCCB20DF87F
:1046D00000201948027A2046611CCCB20DF8002057
:1046E000022504E01DF805000644681CC5B2A54279
:1046F000F8DBF2B22046611CCCB20DF80020A01EFF
:10470000C0B28DF80200EF222046611CCCB20DF839
:104710000020FE222046611CCCB20DF800200022B1
:104720002046611CCCB20DF8002069460848FFF70E
:10473000CEFC0DB0F0BD00006E0000204C0000204B
:1047400048000020534255533A20206368313A0014
:10475000004400406368323A000000006368333A66
:10476000000000006368343A000000007377313ABB
:10477000000000007377323A000000006368315F88
:104780006F66667365743A006368325F6F6666735E
:1047900065743A006368335F6F66667365743A00E8
:1047A0006368345F6F66667365743A0070B504AC15
:1047B00070CC0366C265816504604560866070BD2B
:1047C0001EB5002400BF14E00020FE49FE4ACDE9DA
:1047D0000021029004EBC40101EB0411FB4A02EB3F
:1047E000810041F288339A000321FFF7DFFF601C4C
:1047F000C4B2042CE8DB0020F549C860886048603A
:104800000860F44908601EBD10B541F28834A0422A
:1048100001DD204603E0F04CA04200DA204641F2E0
:104820008834A14201DD214603E0EB4CA14200DACD
:10483000214641F28834A24201DD224603E0E64CE3
:10484000A24200DA224641F28834A34201DD234627
:1048500003E0E14CA34200DA2346DD4C20606160B6
:10486000A260E36010BD2DE9FF5F04460D461646C9
:104870000027B8460020039002904FF07E50019030
:10488000052C03DA14F1050F00DD0024052D03DAF1
:1048900015F1050F00DD0025052E03DA16F1050FD1
:1048A00000DD0026304601F03FFC8346019901F00F
:1048B0009BFC8146601B01F037FC8246494601F0B3
:1048C0009BFD0746304601F02FFC8346019901F01D
:1048D0008BFC8146601901F027FC8246494601F0B5
:1048E0008BFD8046304601F01FFC8346019901F0A4
:1048F0007BFC8146601B01F017FC8246494601F0B3
:1049000093FA80F000400390304601F00DFC83469E
:10491000019901F069FC8146601901F005FC8246AD
:10492000494601F081FA80F000400290029801F0BF
:10493000DFFB00B20090039801F0DAFB0FFA80F978
:10494000404601F0D5FB0FFA80FA384601F0D0FB63
:104950000FFA80FB4A4651465846009BFFF754FF2A
:10496000BDE8FF9FF0B585B004460D4616461F46CC
:104970004FF40070009000208DF808008DF80900B9
:1049800008208DF80A00200A8DF80B00E1B28DF89E
:104990000C10290A8DF80D10E9B28DF80E10310AAD
:1049A0008DF80F10F1B28DF81010390A8DF8111032
:1049B000F9B28DF8121069468848FBF750FF05B030
:1049C000F0BD70B504460D462946206801F0D8FCBC
:1049D00000D2256085F000463046216801F0D0FC09
:1049E00002D285F00040206070BD2DE9F0470446FA
:1049F0000E461546266265613146284601F0FCFCEC
:104A0000E0620021206D01F03FFB11D00021E06A3F
:104A100001F0B6FC01D2E06A02E0E06A80F00040FA
:104A20000746216D01F0ACFC02D20020BDE8F08702
:104A30000021606D01F028FB10D00021E06A01F038
:104A40009FFC01D2E06A02E0E06A80F00040074685
:104A5000616D01F095FB01D20020E7E7A06D03280E
:104A600034D1E16A206801F0BFFB2063E16A60682D
:104A700001F0BAFB0746616B01F0D6F96063D4E937
:104A80000A1001F0B9FC0746A16801F0ADFBA06374
:104A9000206E01F061FB0746394604F13400FFF750
:104AA00090FFD4E90C0101F0BFF90746A16B01F0BA
:104AB000BBF9E063E06D01F04FFB0746394604F1B6
:104AC0003C00FFF77EFFE06B206444E0A06D04280B
:104AD00041D1D4E90A1001F08FFC0746216801F0AA
:104AE00083FB2063E16A606801F07EFB60634FF046
:104AF0008040A16A01F078FB8146E16A01F071FC17
:104B00008046616A01F090F90746A16801F06CFBEC
:104B1000A063206E01F020FB0746394604F1340003
:104B2000FFF74FFFD4E90C0101F07EF90746A16BB6
:104B300001F07AF96064616CE06C01F075F9A064D1
:104B4000E06D01F009FB0746394604F14800FFF724
:104B500038FFA06CE064A06A6062E16AA162E0696B
:104B6000A061216AE1612069E06061692161A06D55
:104B7000032801D1E06B59E7A06C57E72DE9F0411C
:104B8000002400BF2FE0124951F8240001F0CCFAB4
:104B9000054604EB440101EBC401114A02EB81011B
:104BA000B1F9040001F0C0FA064604EBC40101EBC0
:104BB0000411064A02EB81002A463146FFF715FF31
:104BC000601C0FE0E3A59B3CCDCC7C41780100202C
:104BD0008C0000205400002078ECFFFF00640040AF
:104BE0009C000020C4B2042CCDDBFE49D1F8680142
:104BF00001F07EFA05B2FB49D1F8040101F078FA20
:104C000006B2F849D1F8A00001F072FA07B2F549EE
:104C1000C86B01F06DFA0FFA80F82B463246394620
:104C20004046FFF79FFEBDE8F08110B500220388E3
:104C300043800B7BCC7A43EA042303808C7B4B7B41
:104C400044EA03231BB2C380C38883800C7CCB7BE4
:104C500044EA03231BB2541F93FBF4F31BB20381FA
:104C60004B7C8372B0F904300A2B17DD038844882B
:104C70001B1B322B03DB038844881A1B2CE00388A0
:104C800044881B1B13F1320F26DC038803F5005305
:104C900044881A1B03695B1C03611DE0B0F90430F2
:104CA00013F10A0F17DA038844881B1B13F1320F24
:104CB00003DC038844881A1B0EE0038844881B1B0E
:104CC000322B09DB0388A3F5005344881A1B0369C0
:104CD0005B1E036100E000220488036904EB433398
:104CE00084891B1B436110BD0A7BCB7A42EA0322F5
:104CF000028002888281704710B504462068A0F2C5
:104D0000012030B1012805D0022804D0032846D163
:104D100002E000BF00BF00BF2078401EB24908700B
:104D20000846007800EB400101EBC000AF4901EB01
:104D30008000816AAC48007800EB400202EBC000C2
:104D4000AA4A02EB8000806A401CA74A127802EB54
:104D5000420303EBC202A54B03EB820290623229AD
:104D60000CD8A149097801EB410202EBC1011A46B6
:104D700002EB81002146FFF7B7FF0BE09A49097863
:104D800001EB410202EBC101984A02EB810021468E
:104D9000FFF74BFF21469648FFF747FF00BF00BFD4
:104DA00010BD2DE9F04F85B005460E464FF00009C5
:104DB00042F210740A20049000BF08E028788D4960
:104DC00001F809006D1C09F101001FFA80F9B145D5
:104DD000F4DB894806800120884908708548C0783E
:104DE0008749087008460078F12825D18148417923
:104DF000007901EB0020001B814948607D48C179A2
:104E0000807901EB0020001B7D4988607948417A58
:104E1000007A01EB0020001B7949C8607548C17A0F
:104E2000807A01EB0020001B75490861012008759C
:104E3000002081F824005FE071480078F2285BD1FF
:104E4000049800F002FE074688466A494A790979C3
:104E500002EB012000F0E2FD82460022694B00F0E7
:104E600085FC3A464346CDE9000100F0C7FECDE996
:104E7000020100F095FB62498861049800F0E5FDAD
:104E800082468B465B49CA79897902EB012000F0A2
:104E9000C5FD074600225B4B00F068FC52465B46AE
:104EA000CDE9000100F0AAFECDE9020100F078FB97
:104EB0005349C861049800F0C8FD82468B464D49AD
:104EC0004A7A097A02EB012000F0A8FD0746002289
:104ED0004C4B00F04BFC52465B46CDE9000100F024
:104EE0008DFECDE9020100F05BFB45490862002020
:104EF0000875012081F824000120414981F825002E
:104F000005B0BDE8F08F70B500243D4890F825004D
:104F100000283BD03A480078F12838D13AA13D48E2
:104F2000FFF7D5F83CA13B48FFF7D1F8344841687A
:104F30003848FFF774F909213648FFF7DCF839A142
:104F40003448FFF7C4F82E4881683248FFF767F904
:104F500009213048FFF7CFF835A12E48FFF7B7F801
:104F60002748C1682B48FFF75AF909212948FFF75C
:104F7000C2F832A12748FFF7AAF82148016925485D
:104F8000FFF74DF90A212348FFF7B5F87AE01C48EE
:104F90000078F22876D11CA11E48FFF798F82AA1C4
:104FA0001C48FFF794F8164881691A48FFF7E7F89C
:104FB00009211848FFF79FF827A11648FFF787F83F
:104FC0000F48C1691348FFF7DAF809211148FFF7C4
:104FD00092F825A10F48FFF77AF80948016A0D48B1
:104FE0004AE04FE0780100205B0000209C00002098
:104FF0004C01002030030020580000205A000020FF
:105000000803002000005940444A495F4D6F746F07
:10501000723A0000004400407461675F72706D3145
:105020003A0000007461675F72706D323A000000F0
:105030007461675F72706D333A0000007461675F7E
:1050400072706D343A0000007461675F737065655B
:10505000645F783A000000007461675F7370656593
:10506000645F793A000000007461675F7370656582
:10507000645F7A3A00000000FFF781F80A21F948DE
:10508000FFF739F8002469E0F7A1F648FFF71FF8A9
:105090002146F448FFF7C3F8F4A1F248FFF717F8E8
:1050A000F3A1F048FFF713F804EB440101EBC4014E
:1050B000F04A02EB8101B1F9040001F035F8054630
:1050C0002946E848FFF75BF80921E648FFF713F89F
:1050D000E9A1E448FEF7FBFF04EB440101EBC40146
:1050E000E44A02EB8101486901F01EF805462946B1
:1050F000DC48FFF744F80921DA48FEF7FCFFE0A19D
:10510000D848FEF7E4FF04EB440101EBC401D94A9F
:1051100002EB8101086901F007F805462946D148EC
:10512000FFF72DF80921CF48FEF7E5FFD5A1CD48BF
:10513000FEF7CDFF04EB440101EBC401CD4A32F888
:10514000210001F009F805462946C648FFF717F87F
:105150000A21C448FEF7CFFF601CC4B2042C93DBC5
:105160000A21C048FEF7C7FF0A21BE48FEF7C3FF69
:1051700070BD70B592B0002400250026AE222146F5
:10518000641C0DF80120EA222146641C0DF8012060
:1051900001222146641C0DF801202146641C0DF8F3
:1051A0000120B9480068020E2146641C0DF8012058
:1051B000B5480068C0F307422146641C0DF8012081
:1051C000B1480088C0F307222146641C0DF8012075
:1051D000AD4802782046611CCCB20DF8002000BF1B
:1051E000B5E005EB450000EBC500A24901EB8000EE
:1051F0008088C0F307222046611CCCB20DF8002045
:1052000005EB450000EBC5009A4901EB80000279EF
:105210002046611CCCB20DF8002005EB450000EBE8
:10522000C500944901EB80004069020E2046611CD4
:10523000CCB20DF8002005EB450000EBC5008D4910
:1052400001EB80004069C0F307422046611CCCB2EC
:105250000DF8002005EB450000EBC500854901EB8A
:105260008000808AC0F307222046611CCCB20DF872
:10527000002005EB450000EBC5007E4901EB8000F6
:10528000027D2046611CCCB20DF8002005EB4500E4
:1052900000EBC500774901EB80000069020E204653
:1052A000611CCCB20DF8002005EB450000EBC500F9
:1052B000704901EB80000069C0F307422046611C81
:1052C000CCB20DF8002005EB450000EBC5006949A4
:1052D00001EB8000008AC0F307222046611CCCB29B
:1052E0000DF8002005EB450000EBC500614901EB1E
:1052F0008000027C2046611CCCB20DF8002005EB3A
:10530000450000EBC5005B4931F820000212204641
:10531000611CCCB20DF8002005EB450000EBC50088
:10532000544911F820202046611CCCB20DF8002011
:1053300005EB450000EBC5004E4901EB8000827A89
:105340002046611CCCB20DF80020681CC5B2042DAB
:10535000FFF647AF601EC0B28DF80200022504E0E0
:105360001DF805000644681CC5B2A542F8DBF2B280
:105370002046611CCCB20DF80020EF222046611CB3
:10538000CCB20DF80020FE222046611CCCB20DF8F4
:105390000020224669463348FEF76FFF3A4800680E
:1053A000401C3949086012B070BD10B5002400BF20
:1053B00025E0002004EB440101EBC4012D4A02EB7F
:1053C0008101888004EB440101EBC40102EB8101FF
:1053D000486104EB440101EBC40102EB8101086167
:1053E00004EB440101EBC40122F8210004EB440169
:1053F00001EBC40102EB81018872601CC4B2042C71
:10540000D7DB22A11748FEF762FE10BD2DE9F04759
:1054100004460E4615469946266265613146284681
:1054200000F0EAFFE062A06D03285FD1E16A206826
:1054300000F0DAFE2063606800F0CAFC21F0004151
:1054400007464FF06042124B00F0A2FB22D8E16AFF
:10545000606800F0C9FE0746616B00F0E5FC606320
:105460001AE00000004400404D000000A3BA2000F4
:10547000763A00009C000020745F613A0000000052
:105480006E3A0000613A0000540000204F4B0000CB
:105490004D62503F00206063A06880F0004849469C
:1054A000404600F0A1FE07461D4900F02BFDA06319
:1054B000206E00F051FE0746394604F13400FFF734
:1054C00080FAD4E90C0100F0AFFC0746A16B00F0B4
:1054D000ABFCE063E06D00F03FFE0746394604F1A7
:1054E0003C00FFF76EFAE06B206400E000BFA06AAA
:1054F0006062E16AA162E069A061216AE1612069FC
:10550000E06061692161A06D032802D1E06BBDE814
:10551000F087A06CFBE70160426083607047000089
:105520000000C8427047704770470000004870474D
:10553000940300207546FFF7F9FFAE460500694663
:10554000534620F00700854618B020B5FAF74CFE08
:10555000BDE820404FF000064FF000074FF0000874
:105560004FF0000B21F00701AC46ACE8C009ACE8F5
:10557000C009ACE8C009ACE8C0098D46704710B559
:105580000446AFF300802046BDE81040FAF717BE8E
:1055900001491820ABBEFEE726000200704700005C
:1055A00021F00042A2F16052B2F5801F01F00043E9
:1055B00028BFD2F17F6C0BD95FEA001C43EAC2021C
:1055C00042EB507018BF704728BF20F001007047B1
:1055D000B2F5801FBCBF184670474FEA410C1CF55E
:1055E000001F02D2084600F0C6BE70B500F07CFA7B
:1055F00000000089FFF7F6BF4FF00040A0F58000E3
:105600007047000010B591EA030F48BF83F00043D4
:1056100000F1FC82841A71EB030C05D2121943EBE2
:105620000C03001B61EB0C01DFF824E14FEA11547D
:10563000A4EB135C1EEA430F18BF9EEA445F73D0CD
:1056400023EA0E03DCF1200E21EA045143F4801317
:1056500032D322FA0CFE10EB0E0023FA0CFE41EBC3
:105660000E01CCF1200E03FA0EFE10EB0E0051F1EC
:105670000001B1F5801FCCF1200E32D201EB0451B4
:1056800012FA0EF2BDE8104058BF7047401C38BFF8
:105690005FEA420218BF7047002814BF20F00100E3
:1056A00041F100014FEA410313F5001F38BF704775
:1056B000A1F1C04100F066BA012A43EB0302ACF14C
:1056C000200CDCF11F0E32BF4FF0000E23FA0CF35A
:1056D00010EB030041EB0451B4EB115FD0D0A1EB10
:1056E000045101F5801149085FEA300001EB0451D3
:1056F0000ED350F1000038BF12FA0EFE08D1BDE8FB
:105700001040C9E7401C38BF5FEA4202CAD1C3E774
:10571000BDE810404FEA410313F5001F38BF704742
:10572000A1F1C04100F02EBA9EEA445F08D011EA10
:105730005E0FBDE8104004BF01F00041002070473B
:10574000BDE8104070B500F0CFF900BF64FBBE3E6D
:105750000000E0FF491058BFC1F140415B1058BF45
:10576000C3F140438B42EFF3008070472DE9C04105
:1057700030B4DFF8A0C23CEA111418BF3CEA13149D
:1057800000F0EC8081EA03051CEA111444EAD574A8
:1057900018BF1CEA131500F0C780A4EB05044FF0F6
:1057A000004545EAC12145EAC32341EA505143EA95
:1057B000525304F17F74994204F500344FEAC0203B
:1057C0004FEAC22208BF904200F09C804FEA136566
:1057D0000FF24016765D4FEA134506FB05F7C7F159
:1057E000807706FB07F74FEAD737A7FB03687642B7
:1057F000C8F58038A7FB06CE38BFA8F1010807FB23
:1058000008E64FF0000EA6FB028CE6FB03CEDCF1AF
:10581000000CCEF1004E38BFAEF1010EA6FB0C58C5
:105820004FF000074FF00005E6FB0E87A1FB08C60E
:10583000A0FB07CE16EB0E0645F10005E1FB076560
:1058400015F1E04E7EBFA4F580345FEA46066D4157
:1058500016F1800745F100054FEA17274FEA066663
:1058600047EA0567A6F1DE46B6F1805F4FEA1525E7
:105870001FD9384624F0010C05EBC471BCF1FE6F52
:1058800001EB0C1102D8F0BCBDE8008124425CBFE2
:1058900001F5801E9EEAC47F02D4F0BCBDE8008101
:1058A000244238D4F0BCA1F1C041BDE8004100F071
:1058B00069B94FEAD22242EA43524FEAD323A7FB07
:1058C00002864FEAD02040EA415007FB03661EEAF9
:1058D0000E0F4FEAD12105FB026658BFA6EB00561A
:1058E000B6EB00564FEA520E4EEAC37E18EB0E0E90
:1058F00056EB530EBDD518EB02085E417F1C55F1E7
:105900000005B6E74FF480154FF000074FF0000692
:105910004FF00008ADE7F0BC4FF0000001F1C041CE
:1059200001F00041BDE8008111EA0C1F0CEA1315DB
:1059300000D00CE013EA0C1F00F025804FF00000AF
:10594000F0BC81EA030101F00041BDE80081F0BC38
:10595000BDE8004181EA030100F014B9F0BCBDE8E4
:10596000004170B500F0C0F8097EFC3E00F007B8B9
:1059700081EA03014FF0000001F00041704781EA25
:10598000030100F0FFB8F0BCBDE800414FF000009B
:1059900021497047FFFDFBF9F7F5F4F2F0EEEDEB6E
:1059A000E9E8E6E4E3E1E0DEDDDBDAD8D7D5D4D31D
:1059B000D1D0CFCDCCCBCAC8C7C6C5C4C2C1C0BF69
:1059C000BEBDBCBBBAB9B8B7B6B5B4B3B2B1B0AF6F
:1059D000AEADACABAAA9A8A8A7A6A5A4A3A3A2A153
:1059E000A09F9F9E9D9C9C9B9A999998979796950E
:1059F00095949393929191908F8F8E8E8D8C8C8BAA
:105A00008B8A898988888787868585848483838231
:105A1000828181800000FF070000F87F10F00042C3
:105A200048BF4042B0FA80F310FA03F10AD0C3F144
:105A30001D0303F580634FEA415002EB035202EB72
:105A4000D12170474FF000007047B0FA80F310FA90
:105A500003F10AD0C3F11D0303F580634FEA4150FF
:105A60004FEA035202EBD12170474FF0000070471C
:105A700051EA030C17D41CF5801F58BFBCF5801FDA
:105A800000F10680994218BF704708BF90427047E6
:105A900007D711F5801F58BF13F5801F19D49942FD
:105AA0007047894270471CF5801F08D5BCF5801FE0
:105AB000F7D58B4218BF704708BF824270474FF43A
:105AC000001C1CEB410F38BF1CEB430F01D28B4273
:105AD000704770B500F008F8922449004FF000516B
