:020000040800F2
:10000000781200209D010008AD410008E91D00089C
:1000100075350008510B0008E36800080000000077
:100020000000000000000000000000003D54000837
:10003000CD1A0008000000007D42000805560008A7
:10004000B7010008B7010008B7010008B7010008B0
:10005000B7010008B70100085D1C0008B7010008DF
:10006000B7010008B7010008B7010008B701000890
:10007000B7010008B7010008B7010008B701000880
:100080002D170008B7010008B7010008B7010008E4
:10009000550B0008B7010008B7010008B7010008B8
:1000A000B7010008B7010008B7010008B701000850
:1000B000FD560008B7010008B7010008B7010008A5
:1000C000B7010008B7010008B7010008B701000830
:1000D000B7010008A95F0008456200088D630008A9
:1000E0006F1C0008B7010008B7010008B70100083D
:1000F000B7010008B7010008B7010008B701000800
:10010000B7010008B7010008B7010008B7010008EF
:10011000055C0008715D000815570008615700086C
:10012000B7010008B701000865170008B70100080B
:10013000B7010008B7010008B7010008B7010008BF
:10014000850B0008B7010008B7010008B7010008D7
:10015000B7010008B7010008B5170008B565000829
:10016000B7010008B7010008B7010008B70100088F
:10017000B7010008B7010008B7010008B70100087F
:10018000B7010008B7010008DFF80CD000F0F2FB5F
:1001900000480047DD90000878120020064880479C
:1001A00006480047FEE7FEE7FEE7FEE7FEE7FEE75C
:1001B000FEE7FEE7FEE7FEE7955600088901000826
:1001C0002DE9F0410024061B254671F1000605DAF1
:1001D00001240027D0EB070067EB0101161E73F125
:1001E000000605DA0027D2EB0702012567EB0303BF
:1001F00000F048FA86460E4617469C46AC4204D0AC
:100200000025D0EB050E65EB010624B10020D2EBF2
:10021000000760EB030C704631463A466346BDE882
:10022000F081D2B201E000F8012B491EFBD27047E9
:100230000022F6E710B513460A4604461946FFF7B2
:10024000F0FF204610BD30B504460020034600E014
:100250005B1C934203D2E05CCD5C401BF8D030BD08
:1002600030B505460020034600E05B1C934205D2F2
:10027000EC5CC85C201A01D1002CF6D130BD2DE910
:10028000FE4F804681EA0300C00F0C46009021F02B
:10029000004123F00045B8EB0200A94105D24046D9
:1002A000214690461C460B46024623F00040104370
:1002B00047D0270DC7F30A00C3F30A510290401A32
:1002C000019040286BDAC3F3130040F4801B0098C0
:1002D000924620B10023D2EB030A63EB0B0B01988B
:1002E0005946C0F14002504600F0FDF906460D4661
:1002F00050465946019A00F015FA10EB080061418A
:10030000002487EA115284EAE7731A4340D0009A26
:1003100062B3019A012A4FEA075215DC001B61EB18
:1003200002014FF0004202EA0752CDE90042001CF0
:1003300041F5801132462B4600F04CFA03B0BDE87F
:10034000F08F40462146F9E7001B61EB0201001CDB
:1003500041F5801300185B412018A2F5001747EB08
:10036000030140EAD570B6196D4111E06D084FEAFE
:10037000360645EAC0754FEA0752001B61EB0201E1
:10038000001C41F5801149084FEA30000019514125
:1003900032462B4603B0BDE8F04F00F00CBA00988F
:1003A000012240000023D0EB020263EBE0730098CF
:1003B00021464FEAE074B8EB000061EB0401E9E785
:1003C00083F000435BE781F0004158E72DE9FE4FE1
:1003D00081EA030404F0004421F0004100944FF04E
:1003E000000B23F0004350EA01045ED052EA0304FC
:1003F0005BD0C3F30A54C1F30A552C44A4F2F3347E
:100400000194A0FB0254C1F3130141F48011C3F322
:10041000130343F4801301FB024400FB034E840AE0
:10042000970A44EA815447EA8357A4FB0768029578
:100430008D0A05FB07854FEA932C04FB0C54270516
:10044000029D4FEA065847EA1637B5EB08056EEBF2
:10045000070C870E920E47EA811742EA8312A7FB28
:100460000201B6EB0B0164EB00042B0D43EA0C33E5
:100470005E1844EB1C50DA465146E7FB0201C5F317
:1004800013044FEA0B3343EA14534FEA0432019C3E
:1004900043EA0603A4F10C040294009CCDE900B4E5
:1004A00000F098F903B0BDE8F08F00200146F9E7AD
:1004B0002DE9F04D81EA030404F0004B21F00045E2
:1004C00014464FF0000A23F0004150EA050220D004
:1004D00054EA01021DD0C5F30A570246C5F31303BF
:1004E000C1F31300C1F30A5640F4801543F480139E
:1004F000A7EB0608101BD64608F2FD3873EB050083
:1005000002D308F1010801E092185B41B8F1000F35
:1005100003DA00200146BDE8F08D00204FF4801181
:10052000064684460EE0171B73EB050705D3121B26
:1005300063EB050306434CEA010C49084FEA30001F
:1005400092185B4150EA0107EDD152EA030012D044
:1005500082EA040083EA0501084305D0101BAB4181
:1005600006D20122002306E000224FF0004302E001
:100570006FF0010253101AEB06004CEB085110EB20
:100580000A0041EB0B01BDE8F04D00F014B90EB5C7
:10059000C10F80EAE0700844CA07002140F23343EB
:1005A0008DE80E000A460B4600F014F903B000BDBA
:1005B0000EB540F2334102910021CDE900110A4607
:1005C0000B4600F007F903B000BD00F0004230F028
:1005D00000400AD0C10D01F56071C0F3160042EA77
:1005E0000151C2084007114370470020014670477F
:1005F00030B5041E71F1000404DB4FF000444042AA
:1006000064EB0101141E73F1000405DB1C464FF07E
:100610000043524263EB04038B4208BF824230BD69
:1006200001F0004330B421F0004150EA010206D04D
:100630000A0DA2F56072C1F31301002A02DC30BC7E
:1006400000207047440F44EAC104C100E01830BCE8
:1006500000EBC25000F078B830B50B4601460020E0
:100660002022012409E021FA02F59D4205D303FA74
:1006700002F5491B04FA02F52844151EA2F10102F5
:10068000F1DC30BD2DE9F05F0546002092469B4627
:1006900088460646814640241BE028464146474698
:1006A000224600F02FF853465A46C01A914110D303
:1006B00011461846224600F016F82D1A67EB01087D
:1006C0004F4622460120002100F00DF817EB0009EB
:1006D0004E41201EA4F10104DFDC484631462A4683
:1006E0004346BDE8F09F202A04DB203A00FA02F1DD
:1006F000002070479140C2F1200320FA03F3194310
:1007000090407047202A04DB203A21FA02F00021B1
:10071000704721FA02F3D040C2F120029140084311
:1007200019467047202A06DBCB17203A41FA02F01F
:1007300043EAE07306E041FA02F3D040C2F120023E
:1007400091400843194670470029A8BF7047401CD4
:10075000490008BF20F00100704710B4B0FA80FCD7
:1007600000FA0CF050EA010404BF10BC704749B114
:10077000CCF1200421FA04F411FA0CF118BF012184
:1007800021430843A3EB0C01CB1D4FEA00614FEA64
:10079000102042BF002010BC704700EBC350104433
:1007A0000029A4BF10BC7047401C490008BF20F0BE
:1007B000010010BC704710B5141E73F1000408DA74
:1007C000401C41F1000192185B411A4301D120F015
:1007D000010010BD2DE9F04D92469B4611B1B1FAD2
:1007E00081F202E0B0FA80F220329046FFF77BFF00
:1007F00004460F4640EA0A0041EA0B0153465A46B6
:10080000084313D0114653EA010019D0C8F1400241
:100810005046FFF777FF05460E465046594642467A
:10082000FFF761FF084305D0012004E02046394668
:10083000BDE8F08D0020054346EAE0762C433743BF
:100840000A986305E40AA0EB08000022FD0A44EAC6
:1008500047540A3002D500200146E9E70105101986
:100860006941DDE9084500196941BDE8F04DA2E79D
:100870002DE9F04D00231A461B1A8A4103DB0020A4
:100880000146BDE8F08DC1F30A52C1F3130141F4F2
:1008900080154FF0000BD10702D100186D41521E98
:1008A0000027044640F2FF11384601EB620A3E463B
:1008B0008046024600204FF48011FFF723FFC21943
:1008C0007141BB1846EB0100B4EB030C75EB000C57
:1008D00004D3E41A65EB000517460E46241908F107
:1008E00001006D4180463428E3DDF91946EB06002E
:1008F000091BA84103D24FF0FF32134601E000224A
:1009000013461BEB070046EB0A51BDE8F04DFFF71D
:1009100052BFC1F30A52C1F3130140F2FF3341F455
:1009200080119A4202DA00200146704740F23343B8
:100930009A42A2F2334202DC5242FFF7E3BEFFF7D3
:10094000D2BE000030B5041E71F1000404DB4FF08C
:100950000044404264EB0101141E73F1000405DB06
:100960001C464FF00043524263EB0403994208BF18
:10097000904230BD064C074D06E0E06840F00103B0
:1009800094E8070098471034AC42F6D3FFF700FC18
:1009900070B7000890B7000821B1826842F00102E8
:1009A000826003E0826822F00102826070470000EA
:1009B0000021084A1168084A1140D0E900231A436F
:1009C00083681A43C3681A431143044AC2F80413E4
:1009D0007047000004230140E030FCFF002001408C
:1009E00021B1826842F48072826003E0826822F45E
:1009F00080728260704721B1826842F40072826026
:100A000003E0826822F400728260704730B50246CB
:100A1000002000235068104C20400D790C6844EAF7
:100A200005242043506090680C4C2040D1E90354C9
:100A30002C438D682C434D7944EA45042043906053
:100A4000D06A20F470000C7D641EE4B2234340EAB7
:100A50000350D06230BD0000FFFEFFFCFDF7FFC079
:100A6000F0B504460D4600200021092D11DDE06897
:100A7000A5F10A0606EB4607072606FA07F18843A2
:100A8000A5F10A0606EB460603FA06F10843E06004
:100A90000CE0206905EB4507072606FA07F18843B5
:100AA00005EB450603FA06F108432061072A0FDA31
:100AB000606B561E06EB86071F2606FA07F1884371
:100AC000561E06EB860605FA06F10843606322E02F
:100AD0000D2A0FDA206BD61F06EB86071F2606FAB3
:100AE00007F18843D61F06EB860605FA06F1084390
:100AF000206310E0E06AA2F10D0606EB86071F26D0
:100B000006FA07F18843A2F10D0606EB860605FA00
:100B100006F10843E062F0BD816841F080418160E8
:100B20007047000038B10849096841F40001074ADC
:100B3000C2F8041306E00449096821F40001034ADD
:100B4000C2F8041370470000042301400020014054
:100B500000BFFEE710B50221074800F06FF9012839
:100B600009D1064A0021044800F0FAFA01F02CFEEF
:100B700001200349087010BD0064004054010020AA
:100B80004300002010B50221064800F057F9012863
:100B900007D1054A0021034800F0E2FA0120034989
:100BA000087010BD0068004068010020450000206A
:100BB00070B504460D46204600F0DAF82946204676
:100BC00000F060FA204600F0A5F8204600F09EFAFA
:100BD00070BD000010B504460B48844209D10121C4
:100BE000480603F06DFB00214FF0007003F068FB36
:100BF00008E00121880603F063FB00214FF08060CC
:100C000003F05EFB10BD00000064004010B5002141
:100C1000837A012202FA03F13D4A126842F001028E
:100C20003B4B1A603A4A1C3212688A43384B1C33D9
:100C30001A60027BCAB9364A0C3212688A43344BB6
:100C40000C331A604288C38842EA0343304A403278
:100C5000847A42F834300288838842EA03432C4A7B
:100C60004032847A02EBC4025360027B012A19D11C
:100C7000274A0C3212680A43254B0C331A6042880B
:100C8000038842EA0343224A4032847A42F83430ED
:100C9000C288838842EA03431D4A4032847A02EBC9
:100CA000C4025360C27A3AB9194A121D12688A43C3
:100CB000174B1B1D1A6006E0154A121D12680A43E5
:100CC000134B1B1D1A60028932B9114A1432126883
:100CD0008A430F4B14331A600289012A06D10C4A49
:100CE000143212680A430A4B14331A60427B012AF9
:100CF00006D1074A1C3212680A43054B1C331A609E
:100D0000034A126822F00102014B1A6010BD000074
:100D1000006600401FB504461448844203D10020F9
:100D20008DF80A0002E00E208DF80A0000208DF8F0
:100D30000B0001208DF80C000020ADF8000042F6F9
:100D40000440ADF802000020ADF80400ADF8060044
:100D5000ADF8080001208DF80D006846FFF756FF3A
:100D600001220221204600F0F9F81FBD0064004076
:100D70001CB504462E4884422BD10121480603F0BD
:100D80008FFA0121082003F07BFA0922002129486B
:100D900000F0F6FF09220121264800F0F1FF0220B1
:100DA00000908DF804008DF8050000208DF80600F5
:100DB00001208DF8070069461E4800F099FF0120C8
:100DC000009002208DF8040069461A4800F090FF58
:100DD0002DE00121880603F063FA0121022003F0CF
:100DE0004FFA09220C21144800F0CAFF09220D21F4
:100DF000114800F0C5FF4FF40050009002208DF81C
:100E000004008DF8050000208DF8060001208DF803
:100E100007006946084800F06BFF4FF480500090CF
:100E200002208DF804006946034800F061FF1CBDF4
:100E300000640040000C02400004024070B504460B
:100E40000D46002660692840002871D0B5F5807FE6
:100E50005CD010DC082D35D006DC012D20D0022D11
:100E600024D0042D72D127E0102D31D0202D35D083
:100E7000402D6BD138E0B5F5004F60D009DCB5F5F9
:100E8000007F49D0B5F5806F4CD0B5F5006F5DD1CE
:100E90004FE0B5F5803F2DD0B5F5003F56D12FE09E
:100EA000A0682D4900F038FC064651E0E0680321B7
:100EB00000F032FC06464BE0E068082100F02CFC14
:100EC000064645E0E068102100F026FC06463FE0BB
:100ED0002069032100F020FC064639E02069082142
:100EE00000F01AFC064633E02069102100F014FCE3
:100EF00006462DE06068082100F00EFC064627E05B
:100F00006068102100F008FC064621E0A06901217C
:100F100000F002FC06461BE0A069022100F0FCFB89
:100F2000064615E0A069042100F0F6FB06460FE036
:100F30000FE0A069702100F0EFFB064608E0606852
:100F4000042100F0E9FB064602E0FFE7002600BFAF
:100F500000E00026304670BD010101001AB143696E
:100F60000B43436102E043698B434361704730B5F3
:100F7000024600200023146824F002041460146860
:100F800044F00104146000E05B1C546804F00104A8
:100F90001CB94FF6FF74A342F6D1546804F0010463
:100FA0000CB900206CE08C79012C04D1146844F059
:100FB0008004146003E0146824F080041460CC7989
:100FC000012C04D1146844F04004146003E0146858
:100FD00024F0400414600C7A012C04D1146844F00D
:100FE0002004146003E0146824F0200414604C7A98
:100FF000012C04D1146844F01004146003E0146858
:1010000024F0100414608C7A012C04D1146844F08C
:101010000804146003E0146824F008041460CC7A17
:10102000012C04D1146844F00404146003E0146833
:1010300024F0040414608C78A407CD7844EA056495
:101040000D7944EA05444D7944EA05540D886D1E36
:101050002C43D461146824F001041460002300E0E0
:101060005B1C546804F001041CB14FF6FF74A342EA
:10107000F6D1546804F001040CB1002000E0012016
:1010800030BD00003EB505460C461F48854204D1E0
:101090000121480603F004F904E001214FF0C0608B
:1010A00003F0FEF82846FFF795FD684600F0D0F8FB
:1010B00000208DF8060001208DF807008DF808004B
:1010C00000208DF809008DF80A008DF80B008DF8CE
:1010D000020001208DF8030003208DF80400012098
:1010E0008DF80500B4F5FA7F03D10C20ADF80000AF
:1010F00005E0B4F57A7F02D10620ADF8000069461C
:101100002846FFF734FF3EBD0064004038B5044672
:101110004FF4C06003F088F8104884420ED11420C8
:101120008DF8000000208DF801008DF802000120EC
:101130008DF80300684603F03BF80DE040208DF881
:10114000000000208DF8010001208DF802008DF8CC
:101150000300684603F02CF838BD0000006400402E
:1011600010B500F5D87303EB01131B6803F00403FB
:101170001372137A53B900F5D87303EB01131B688C
:1011800040F2FF7404EA5353136009E000F5D8738A
:1011900003EB01131B686FF0604404EAD303536050
:1011A00000F5D87303EB01131B6803F002035372BD
:1011B00000F5D87303EB01135B6803F00F03937220
:1011C00000F5D87303EB01135B681B0AD37400F5B9
:1011D000D87303EB01139B68D37200F5D87303EB4C
:1011E00001139B681C0A147300F5D87303EB0113F9
:1011F0009B681C0C547300F5D87303EB01139B68B8
:101200001B0E937300F5D87303EB0113DB68D373E4
:1012100000F5D87303EB0113DB681C0A147400F5A6
:10122000D87303EB0113DB681C0C547400F5D873FE
:1012300003EB0113DB681B0E937421B9C36843F001
:101240002003C36003E0036943F02003036110BD82
:1012500000218171C171017241728172C17281700C
:10126000C170032101710221417101210180704788
:1012700010B502460020936803F08063B3F1806FDD
:1012800000D110E0936803F00063B3F1006F01D167
:10129000012008E0936803F08053B3F1805F01D12F
:1012A000022000E00420042874D002F5C07303EB90
:1012B00000131B6803F0010402F5C07303EB001375
:1012C0001C600B7A7BB94B7A0C8843EA445302F5D5
:1012D000C07404EB00142468234302F5C07404EBCB
:1012E0000014236010E00B7A4C6843EAC4034C7A84
:1012F000234302F5C07404EB00142468234302F571
:10130000C07404EB001423608B7A03F00F038B721C
:1013100002F5C07303EB00135B6823F00F0402F5C2
:10132000C07303EB00135C6002F5C07303EB0013A2
:101330005B688C7A234302F5C07404EB001463608D
:101340008B7B1C064B7B44EA03440B7B44EA032360
:10135000CC7A234302F5C07404EB0014A3608B7CA9
:101360001C064B7C44EA03440B7C44EA0323CC7BFD
:10137000234302F5C07404EB0014E36002F5C0736C
:1013800003EB00131B6843F0010402F5C07303EB89
:1013900000131C6010BD000010B52DED068B334806
:1013A0008168006C084400EE100AB8EEC00A9FED98
:1013B000301AC0EE010A9FED2F0A80EE801AF0EE7F
:1013C000418A2A48D0F8B010806F084400EE100A15
:1013D000F8EEC00A9FED261A80EE810ADFED250A9D
:1013E00080EE201AB0EE418A38EE280AF0EE000AAC
:1013F00080EE201A204880ED001A9FED200A204838
:1014000080ED000A1F4890F84C0028B31D4890ED6D
:10141000080A1D4880ED000A90ED000A10EE100A3F
:10142000FFF7D3F841EC1A0BB0EE4A0AF0EE6A0A65
:1014300005F00EFFB0EE409AF0EE609A9FED130BB0
:1014400053EC102B51EC190BFFF7D2F804D29FED9F
:101450000B0A0D4880ED000A0B4890ED000A0D487C
:1014600080ED000ABDEC068B10BD0000BC02002020
:101470000000FA4478B0E0427C0000200000000048
:10148000800000209C030020880000207B14AE47D1
:10149000E17A743F8400002010B50446012003F077
:1014A000D5FE01280CD024480068142808D8234809
:1014B0000068142818D9224890F82000012813D178
:1014C0000020204981F8280081F8400008610021AF
:1014D0001C4841618161C16100201A494880002196
:1014E00018488180C1800181012C06D0022C0BD0CC
:1014F000032C10D0042C1CD114E01248B0F90210B7
:10150000012001F003FD15E00E48B0F9061003209C
:1015100001F0FCFC0EE00B48B0F90210012001F0D4
:10152000F5FC07E00748B0F90610032001F0EEFCD7
:1015300000E000BF00BF10BD2400002028000020F4
:101540007C0100207802002010B502F015F802F0AE
:101550005BFF10B1002002490860FFF71DFF10BDBE
:1015600024000020F0B52DED088B8DB0002400265E
:1015700000270025AE222146641C06A84254EA2218
:101580002146641C425401222146641C4254A72275
:101590002146641C4254524890ED000A10EE100A95
:1015A000FFF713F841EC180B4E4890ED000A10EECF
:1015B000100AFFF70AF841EC190B4B4890ED000AAE
:1015C00010EE100AFFF701F841EC1A0B474890EDB6
:1015D000000A10EE100AFEF7F8FF41EC1B0B8DED30
:1015E000048B8DED029B8DED00AB53EC1B2B40A0CB
:1015F00005F0F0F93D4890ED000ADFED450A20EED8
:10160000200AF7EE000A80EE201ABDEEC10A10EEA5
:10161000100A05B2C5F307222146641C06A84254ED
:101620002146641C4554304890ED000ADFED380A2D
:1016300020EE200AF7EE000A80EE201ABDEEC10A65
:1016400010EE100A05B2C5F307222146641C06A855
:1016500042542046611CCCB206A90D54214890ED9D
:10166000000ADFED2B0A20EE200AF7EE000A80EEDA
:10167000201ABDEEC10A10EE100A05B2C5F307220A
:101680002046611CCCB206A90A542046611CCCB28B
:1016900006A90D54601EC0B28DF81A00022604E09F
:1016A00006A8805D0744701CC6B2A642F8DB20463F
:1016B000611CCCB206A90F54EF222046611CCCB2AB
:1016C00006A90A54FE222046611CCCB206A90A547F
:1016D0002246104804F0A0FB0DB0BDEC088BF0BD15
:1016E0008800002084000020800000207C00002072
:1016F0006F646F6D20252E3366200920252E3366FA
:10170000200920252E3366200920252E33660A0065
:1017100000007A44001001400246002002EA010362
:101720000BB1012000E000207047000010B50A490D
:101730000A4800F04FF970B10749084800F06EF808
:1017400019200649091D08600121044800F080F8AD
:1017500001200349087010BD008800208860024005
:101760004000002010B50F490F4800F033F9B8B120
:1017700000210D4800F06CF80A490B4800F04EF8C3
:1017800040210A4804F0B0FF28200749091D0860DD
:101790000121054800F05CF84021054800F020FBDD
:1017A00010BD000000802010406402400010014085
:1017B0000014024010B54021084800F011FB084910
:1017C000084800F007F938B10021064800F040F859
:1017D0000349044800F008F810BD0000001402405E
:1017E00000800028B86402400246094B9A4201D2A8
:1017F000084801E00648103801F000531BB1064BC1
:101800000B40C36002E0044B0B4083607047000054
:1018100010640240006002407D0F7D0F0246094BBC
:101820009A4201D2084801E00648103801F00053FE
:101830001BB1064B0B40C36002E0044B0B408360BE
:101840007047000010640240006002407D0F7D0F71
:1018500021B1026842F00102026003E0026822F056
:101860000102026070470000016821F0010101607F
:101870000021016041608160C160016121214161FD
:101880004A49884204D13D21484A103A91608CE08F
:1018900046491831884205D14FF47461434A103AE1
:1018A000916082E041493031884205D14FF4741192
:1018B0003E4A103A916078E03C494831884205D16F
:1018C0004FF07461394A103A91606EE037496031E7
:1018D000884204D13649354A103AD16065E033492F
:1018E0007831884204D13349304A103AD1605CE003
:1018F0002E499031884204D12F492C4A103AD160A8
:1019000053E02A49A831884205D14FF03D51274A7A
:10191000103AD16049E02949884204D13D21274A43
:10192000083A116041E025491831884205D14FF449
:101930007461224A083A116037E020493031884208
:1019400005D14FF474111D4A083A11602DE01B496E
:101950004831884205D14FF07461184A083A116045
:1019600023E016496031884204D11149134A121FFD
:1019700011601AE011497831884204D10D490F4AAB
:10198000121F116011E00D499031884204D10A49BB
:101990000A4A121F116008E00849A831884204D1A0
:1019A0004FF03D51054A121F116070471060024010
:1019B0003D000020400F002000003D201064024048
:1019C000014600200A6802F001020AB1012000E08D
:1019D0000020704770B50246002000240025124EFA
:1019E000B24201D2114B01E00F4B103B104E0E40A2
:1019F00036B11E2606EAD124166806EA040502E07E
:101A0000566906F0800501F000560EB15C6800E0F2
:101A10001C68084E344004EA010616B10DB10120DD
:101A200000E0002070BD0000106402400060024031
:101A30003C0F3C0F7D0F7D0F10B501F080034BB1C3
:101A400022B1436943F08003436103E0436923F01B
:101A50008003436180290BD02AB1036801F01E0482
:101A60002343036004E0036801F01E04A343036002
:101A700010BD000010B500220268134B1A40CC685C
:101A80000B6823434C6923438C692343CC6923436C
:101A90000C6A23434C6A23438C6A23434C6B2343D5
:101AA0008C6B23431A430260426922F00702D1E99A
:101AB0000B3423431A4342610B6943604B688360D4
:101AC0008B68C36010BD00003F801CF070470000B1
:101AD000074908604FF0E021096941F001014FF02A
:101AE000E022116100BF024909680029FBD170475B
:101AF0009C0000200120514981F840009FED503AA0
:101B0000B0EE431A9FED4E3AB0EE432A9FED4C3AA9
:101B1000F0EE432A9FED4A3AF0EE431A9FED493A20
:101B2000B4EEC30AF1EE10FA04DD9FED463AB0EED2
:101B3000430A0AE09FED443AB4EEC30AF1EE10FA0C
:101B400003D29FED413AB0EE430AB1EE603AF0EEB7
:101B5000430A9FED3E3AB4EEC30AF1EE10FA0ADDF5
:101B60009FED3B3AB4EEC30AF1EE10FA03D29FEDBB
:101B7000343AB0EE430A9FED353AF4EEC30AF1EE83
:101B800010FA0ADD9FED323AF4EEC30AF1EE10FAD4
:101B900003D29FED2B3AF0EE430ADFED2E3AB0EE82
:101BA000403A00EEA33AB0EE431AB0EE412ADFED20
:101BB000293AB0EE403A10EEA33AF0EE431AF0EEB6
:101BC000612A9FED253A21EE033AF7EE003A83EEC3
:101BD000234ABDEEC43A13EE100A00B217494880FA
:101BE0009FED1D3A22EE033AF7EE003A83EE234AC8
:101BF000BDEEC43A13EE100A01B2104881809FED89
:101C0000163A22EE833AF7EE003A83EE234ABDEE0F
:101C1000C43A13EE100A01B20848C1809FED0E3A93
:101C200021EE833AF7EE003A83EE234ABDEEC43A42
:101C300013EE100A01B201480181704778020020BA
:101C400000000000CDCC0C40CDCC0CC0CDCC4CBDA8
:101C5000CDCC4C3D7B14AE3E78B0E04210B50120B7
:101C600000F016F810B1012000F00CF810BD10B50E
:101C70004FF4005000F00CF818B14FF4005000F091
:101C800001F810BD0149086070470000143C014094
:101C900001460020034A12680A400AB1012000E010
:101CA00000207047143C014010B50446012C04D1BB
:101CB00020210C4800F018F813E0022C04D1102168
:101CC000084800F011F80CE0032C04D10821054865
:101CD00000F00AF805E0042C03D10421014800F0CB
:101CE00003F810BD0014024042694A404261704747
:101CF000F0B50A4600210023002400BF3DE0012585
:101D000005FA01F3156805EA03049C4234D105681D
:101D10004F000326BE40B543056015794E00B5401F
:101D20000668354305601579012D02D01579022D1D
:101D300016D185684F000326BE40B54385605579AE
:101D40004E00B540866835438560456801268E4063
:101D5000B5434560456896798E40B6B235434560D7
:101D6000C5684F000326BE40B543C560D5794E0017
:101D7000B540C6683543C560491C1029BFD3F0BDC6
:101D8000F0B5002300244D07ED0E02FA05F3CE1046
:101D900000F1200555F826504E07F70E0F26BE40DD
:101DA000B543CF1000F1200646F82750CE1000F1C1
:101DB000200555F8265045EA0304CE1000F1200511
:101DC00045F82640F0BD0246002013690B400BB1D8
:101DD000012000E000207047418370470183704775
:101DE00042694A404261704700BFFEE710B507F004
:101DF0005FFC124948640846406C096C401A4FF475
:101E00007A71B0FBF1F00D4988640846406C0864B3
:101E100001F0A2F80948806CC82804D900200749BD
:101E200081F84C0003E00120044981F84C0003488C
:101E3000816C03A004F0CEFD10BD00009C030020C7
:101E4000494D552064742025642020200A0000009C
:101E50000A2000BF011EA0F10102D0B2FADC7047D7
:101E60001CB50121022002F00BFA01208DF80400BC
:101E700000208DF80600C020009001208DF807009A
:101E800002208DF8050069460548FFF731FFFFF78E
:101E9000DFFFFFF7DDFFFFF7DBFFFFF7D9FF1CBD1B
:101EA0000004024010B540210F48FFF795FF0E488F
:101EB000006820F440400C4908600846006840F47F
:101EC0008040086080210848FFF786FFFFF7C0FFC9
:101ED00040210548FFF782FFFFF7BAFF4021024883
:101EE000FFF77AFF10BD00000004024010B540214A
:101EF0000F48FFF771FF0E48006820F440400C497E
:101F000008600846006840F4804008608021084866
:101F1000FFF764FFFFF79CFF40210548FFF75EFFD6
:101F2000FFF796FF40210248FFF756FF10BD000063
:101F30000004024070B5054600241848006820F4EB
:101F4000404016490860084600680860FFF780FFB7
:101F5000FFF77EFF002616E040211048FFF73CFF08
:101F6000FFF776FF40210D48FFF738FF6006040EAB
:101F700080210A48FFF727FF08B1601CC4B2FFF7B1
:101F800067FF701CC6B2082EE6DB15B9FFF7AEFF7F
:101F900001E0FFF787FF204670BD0000000402400B
:101FA00010B51048006820F440400E49086008460B
:101FB000006840F48040086080210A48FFF70EFF67
:101FC00040210848FFF70AFFFFF742FF802105483C
:101FD000FFF702FFFFF73CFF40210248FFF7FCFE3E
:101FE00010BD00000004024010B51048006820F445
:101FF00040400E4908600846006840F48040086090
:1020000040210A48FFF7E8FE80210848FFF7E4FE78
:10201000FFF71EFF40210548FFF7E0FE802103483F
:10202000FFF7DCFEFFF714FF10BD000000040240C4
:1020300070B504461948006820F44040174908600C
:102040000846006840F48040086040211348FFF7CC
:10205000C3FE00251EE004F08006802E04D18021FE
:102060000E48FFF7BBFE03E080210C48FFF7B4FEEB
:10207000FFF7EEFE6006040E40210848FFF7AEFEB3
:10208000FFF7E6FE40210548FFF7A6FEFFF7E0FE5A
:10209000681CC5B2082DDEDB70BD000000040240E4
:1020A0004CF6CC4001490860704700000030004009
:1020B00010B545F2555000F021F8032000F012F859
:1020C0004FF4FA6000F014F800F004F8FFF7E8FFAE
:1020D00010BD00004AF6AA200149086070470000C0
:1020E0000030004001494860704700000030004067
:1020F00001498860704700000030004001490860D5
:10210000704700000030004010B5012251033848EC
:1021100001F0DCFC01229103354801F0D7FC0122DB
:10212000D103334801F0D2FC00220121314801F0F3
:10213000CDFC002202212F4801F0C8FC00224FF400
:1021400000612C4801F0C2FC00224FF48051294864
:1021500001F0BCFC00224FF40051264801F0B6FC0F
:1021600000224FF48041234801F0B0FC00220421FA
:10217000204801F0ABFC002208211E4801F0A6FC1B
:10218000002210211B4801F0A1FC00222021194847
:1021900001F09CFC01222021154801F097FC01224E
:1021A0001021134801F092FC01220821104801F08F
:1021B0008DFC012204210E4801F088FC0122114609
:1021C0000D4801F083FC01210B48FFF705FE0021BB
:1021D000012003F0ABF90021022003F0A7F9002150
:1021E000032003F0A3F90021042003F09FF910BDA0
:1021F00000140240001002400000024010B501210E
:10220000032002F04DF88020C10508804FF6FF70D2
:10221000C8620020088501208882A72008818420C8
:10222000104908802020091D08804FF6FF700D49D5
:102230002C3108605320091F0880012009491431FE
:10224000088080200749083108800648008840F04F
:102250000100044908800805008840F001000905D4
:10226000088010BD000400402DE9F0418AB0002430
:1022700000250026AE222146641C01A84254EA2211
:102280002146641C425401222146641C4254AC2263
:102290002146641C4254234802782146641C01A84C
:1022A00042540027042002F0D1FF4FEA0018032017
:1022B00002F0CCFF48EAC008022002F0C7FF48EA5B
:1022C0008008012002F0C2FF48EA000808F0FF077A
:1022D0002146641C01A84754601EC0B28DF8060058
:1022E000022504E001A8405D0644681CC5B2A54271
:1022F000F8DB2046611CCCB201A90E54EF22204627
:10230000611CCCB201A90A54FE222046611CCCB249
:1023100001A90A542246044803F07EFD0AB0BDE834
:10232000F08100005C000020001001401CB5044654
:1023300004A103C9CDE90001E1B2684600F026FD21
:102340001CBD00002B4060008000000006E041F250
:10235000883100BF0A1EA1F10101FBD1021EA0F1CC
:102360000100F4D17047000000B587B01BA003C87E
:10237000CDE905011BA103C9CDE903011BA103C9D7
:10238000CDE90101012105A800F000FD5020FFF773
:10239000DDFF012103A800F0F9FC5020FFF7D6FF74
:1023A000012101A800F0F2FC5020FFF7CFFF03212C
:1023B00005A800F0EBFC5020FFF7C8FF032103A89D
:1023C00000F0E4FC5020FFF7C1FF032101A800F05A
:1023D000DDFC5020FFF7BAFF07B000BD2B406000C6
:1023E000060000002B406000070000002B4060004A
:1023F0000F00000030B58BB005460C4622A003C884
:10240000CDE9090122A103C9CDE9070122A103C930
:10241000CDE9050122A103C9CDE9030122A103C928
:10242000CDE901014FF6FF7000EA4404E0B28DF8F7
:102430001000200A8DF81100294609A800F0A6FC1A
:102440006420FFF783FF294607A800F09FFC642063
:10245000FFF77CFF294605A800F098FC6420FFF7F1
:1024600075FF294603A800F091FC6420FFF76EFF7A
:10247000294601A800F08AFC6420FFF767FF284680
:1024800000F01EFC0BB030BD2F001A000000000051
:1024900023001A0120036C602F001802FF000000C7
:1024A0002B001805140000002F001A000100000086
:1024B000F0B587B0002464270025052644A003C892
:1024C000CDE9050144A103C9CDE9030144A103C934
:1024D000CDE90101012425E0214643A004F07AFA68
:1024E000214605A800F052FC3846FFF72FFFA01C3C
:1024F000C4B2002500BF4348007820B92846691CB3
:102500008DB2B042F7DBB54203D03F48C07B05280F
:1025100008D021463D4804F05DFA00F0F7FB0020AA
:1025200007B0F0BD052CD7DB012424E0214638A0FC
:1025300004F050FA214603A800F028FC3846FFF7C3
:1025400005FFA01CC4B2002500BF2E48007820B9AA
:102550002846691C8DB2B042F7DBB54203D02A4849
:10256000007C012807D02146304804F033FA00F0FF
:10257000CDFB0020D4E7052CD8DB012424E0214644
:102580002BA004F027FA214601A800F0FFFB3846F3
:10259000FFF7DCFEA01CC4B2002500BF194800787C
:1025A00020B92846691C8DB2B042F7DBB54203D092
:1025B0001548C07B012807D02146254804F00AFAB7
:1025C00000F0A4FB0020ABE7052CD8DB0120A7E737
:1025D000401810000000000040181001000000002A
:1025E00040181002000000000952656164204D612E
:1025F0006B6572496E666F5F436D642049443A2093
:10260000256400004300002054010020D4B60008D7
:1026100009526561642056656E646F7249445F4378
:102620006D642049443A20256400000038B6000853
:1026300009526561642050726F64756374436F64FE
:10264000655F436D642049443A2025640000000022
:1026500084B6000870B5002464251DA004F0BAF902
:1026600006E029A004F0B6F944F62060FFF76EFEFC
:10267000FFF71EFF0028F4D02FA004F0ABF90124CF
:1026800007E02046FFF752FE2846FFF75FFEA01C3A
:10269000C4B2052CF5DB32A004F09CF9012409E05A
:1026A0004FF4FA712046FFF7A5FE2846FFF74EFECD
:1026B000A01CC4B2052CF3DB32A004F08BF900F0AF
:1026C00087FB39A004F086F9FFF74EFE70BD0000CD
:1026D0000A737465703120B6C1C8A1D6C6D4ECC9DE
:1026E000CCD0C5CFA2204D4F544F525F5A4C4143DE
:1026F00038303135445F496E666F725F4765742EBE
:102700002E2E200A00000000C7EBBCECB2E94341CA
:102710004EC1ACBDD320CEDEB7A8B6C1C8A1B5BDF1
:102720005A4C41433830313544B5E7BBFAD0C5CFB8
:10273000A2202E2E2E0A00007374657032204D4F99
:10274000544F525F5A4C414338303135445F436CEB
:1027500065616E5F4572726F72436F64650A000057
:102760007374657033204D4F544F525F5A4C414340
:1027700038303135445F456E61626C655F50444F5F
:102780000A0000007374657034204D4F544F525F3F
:102790005A4C414338303135445F5365745F4D6F57
:1027A00064656C0A000000007374657035204D4F3D
:1027B000544F525F5A4C414338303135445F456E77
:1027C00061626C650A00000038B5FA480088C0F301
:1027D0000B10182845D10020F7490880F548C07A29
:1027E0000870F448007B4870F248006840F283119A
:1027F000884208D1F048B0F90000404264214843C3
:10280000EE4988670CE0EB48006840F2811188428D
:1028100006D1E9480088642110FB01F0E74988608F
:102820000020E5490880E348407B0870E148807B50
:102830004870E0480068A0F28110022809D30846D9
:10284000B0F90000404264214843DC49C1F8B000BF
:102850002FE2D9480088642110FB01F1D7480164B8
:1028600027E2D4480088C0F30B105828F0D1D14893
:10287000407B602878D1CF48007B642874D1002049
:10288000CF490860CB48C07B0870CA48007C4870BC
:10289000C848407C8870C748807CC870C548807B29
:1028A00001281ED1C348006840F2835188420CD1F0
:1028B000C34800684142BF480068A0F28150C0EBA5
:1028C000C000BE4A42F830102DE0BD480168B9484A
:1028D0000068A0F28150C0EBC000B84A42F8301046
:1028E00021E0B448807B02281DD1B248006840F244
:1028F000835188420CD1B24800684142AD4800681B
:10290000A0F5B060C0EBC000AC4A42F830100AE05D
:10291000AB480168A7480068A0F5B060C0EBC000F4
:10292000A64A42F83010A3480068A0F5B060C0EB9A
:10293000C000A24951F8300000909E480068A0F203
:102940008150C0EBC0000C4654F830309948006804
:10295000A0F5B06297480068A0F2815100E003E062
:1029600098A004F037F8A4E19248407B60286DD12C
:102970009048007B6C2869D18E48807B032865D104
:102980008C48006840F2815188422BD100208A494E
:1029900008808848C07B08708648007C48700846DC
:1029A000B0F9001083480068A0F28150C0EBC0006D
:1029B000824A02EBC000816000207F4908807D4888
:1029C000407C08707B48807C48700846B0F9001055
:1029D00078480068A0F5B060C0EBC00002EBC00012
:1029E000816066E17348006840F283518842BAD141
:1029F0000020714908806F48C07B08706D48007CDA
:102A000048700846B0F9000041426A480068A0F2E8
:102A10008150C0EBC000694A02EBC0008160002019
:102A2000654908806348407C08706248807C487033
:102A30000846B0F9000041425E480068A0F5B06069
:102A4000C0EBC00002EBC000816032E15948407B1E
:102A500060286BD15748007B772867D15548807B29
:102A6000032863D15348006840F28151884229D13C
:102A70000020514908804F48C07B08704D48007CB9
:102A80004870084601884B480068A0F28150C0EBAE
:102A9000C0004A4A02EBC00041820020464908803B
:102AA0004448407C08704348807C48700846018850
:102AB00040480068A0F5B060C0EBC00002EBC00069
:102AC0004182F6E03B48006840F28351884288D159
:102AD0000020394908803748C07B08703548007CA1
:102AE000487008460088404201B232480068A0F2AF
:102AF0008150C0EBC000314A02EBC000418200208F
:102B00002D4908802B48407C08702A48807C4870FA
:102B100008460088404201B226480068A0F5B0602F
:102B2000C0EBC00002EBC0004182C2E02148407B04
:102B300020281CD11F48007B352818D11D48807BD8
:102B4000A8B900201C4908801A48C07B08701948A1
:102B5000007C48700846018816480068A0F2815041
:102B6000C0EBC000154A02EBC0008182A1E0114811
:102B7000407B20283ED10F48007B32283AD10D48B7
:102B8000807B012836D100200B4908800948C07B92
:102B900008700848007C48700846018805480068AD
:102BA000A0F28150C0EBC000044A02EBC000C18219
:102BB0007FE000005401002098000020BC020020AB
:102BC000940000200A206D6F746F5F6368617373F7
:102BD00069732069643A25642C25642020616E673E
:102BE0006C653A2564202025642028636E74290AC8
:102BF000000000002F48407B20281DD12D48007B7D
:102C0000322819D12B48807B022815D100202A496F
:102C100008802848C07B08702648007C4870084619
:102C2000018824480068A0F5B060C0EBC000234ACA
:102C300002EBC000C1823CE01E48407B602838D1D6
:102C40001C48007B3F2834D11A48807B88BB194838
:102C5000006840F28351884214D11648C17B17485E
:102C600080F87D101348017C144880F87E101148CC
:102C7000417C124880F8B5100E48817C0F4880F8DE
:102C8000B61016E00B48006840F28151884210D11E
:102C90000848C07B094948730648007C887305488A
:102CA000417C064880F845100248817C034880F842
:102CB000461038BD5401002098000020BC020020BE
:102CC00010B586B00446002001908DF80C008DF8F8
:102CD0000D0008208DF80E0001208DF80F008DF8F2
:102CE000104001218DF811108DF812408DF813104D
:102CF0008DF814408DF815108DF8164001A9024882
:102D0000FEF7B6FA06B010BD0064004000B587B00B
:102D10000E48807C0D49497C0C4A127C0B4BDB7BB6
:102D2000CDE90332CDE905100848817B407B074A95
:102D3000127BCDE9002002910448C37AC27C01686D
:102D4000034803F047FE07B000BD00005401002017
:102D5000E0B500081FB5044608A003C8CDE902018C
:102D600008A103C9CDE90001E1B202A800F00EF804
:102D7000E1B2684600F00AF81FBD000040322001B1
:102D800000000000403220020000000070B586B054
:102D900005460E46002406F5C060019000208DF81F
:102DA0000C008DF80D0008208DF80E0000BF05E026
:102DB000295D0DF10F000155601CC4B2082CF7DB32
:102DC00001A90248FEF754FA06B070BD0064004045
:102DD00030B58DB041A003C8CDE90B0141A103C9B5
:102DE000CDE9090141A103C9CDE9070141A103C909
:102DF000CDE9050141A103C9CDE9030141A103C901
:102E0000CDE90101642564248DF82050280A8DF84D
:102E100021008DF81850280A8DF819008DF81040FF
:102E2000200A8DF811008DF80840200A8DF809005D
:102E3000012107A8FFF7AAFF6420FFF787FA012105
:102E400003A8FFF7A3FF6420FFF780FA012105A87C
:102E5000FFF79CFF6420FFF779FA012101A8FFF733
:102E600095FF6420FFF772FA01210BA8FFF78EFF90
:102E70006420FFF76BFA012109A8FFF787FF6420A0
:102E8000FFF764FA032107A8FFF780FF6420FFF72C
:102E90005DFA032103A8FFF779FF6420FFF756FAD4
:102EA000032105A8FFF772FF6420FFF74FFA032103
:102EB00001A8FFF76BFF6420FFF748FA03210BA876
:102EC000FFF764FF6420FFF741FA032109A8FFF729
:102ED0005DFF6420FFF73AFA0DB030BD2B0F2000E4
:102EE000010000002F6060000300000023836001E8
:102EF000C802000023836002C8020000238460012E
:102F0000C800000023846002C80000007CB50546AC
:102F10000C460FA103C9CDE90001FA2C01DDFA240A
:102F200004E014F1FA0F01DA6FF0F904E0B28DF861
:102F30000400200A8DF80500E0B28DF80600200A92
:102F40008DF8070029466846FFF720FF7CBD00008A
:102F500023FF60030000000000B52DED0C8B8DB049
:102F6000B7EE000AF0EE409A9FEDA10AB0EE408A5B
:102F70009FED9F0AF0EE408A9FED9D0AB0EE409AC9
:102F800006A807A90CAB02AACDE9001008A90AA857
:102F900005F0B2F820B101200DB0BDEC0C8B00BDE6
:102FA000BDF828009349C880BDF82A1091480181D6
:102FB000BDF82C104181B0F9060000EE100AB8EE01
:102FC000C00ADFED8D0A20EE200ADFED8C0A80EECC
:102FD000201A884880ED061AB0F9080000EE100AA1
:102FE000B8EEC00ADFED840A20EE200ADFED830A86
:102FF00080EE201A7F4880ED071AB0F90A0000EE33
:10300000100AB8EEC00ADFED7C0A20EE200ADFEDE0
:103010007B0A80EE201A774880ED081ABDF8200060
:1030200074490880BDF822004880BDF824008880DB
:10303000BDF81C0000F4807000287DD09DED020AD0
:10304000B8EEC00ADFED6E0A80EE201AF0EE419A6B
:103050009DED030AB8EEC00ADFED690A80EE201A82
:10306000B0EE418A9DED040AB8EEC00ADFED640AB5
:1030700080EE201AF0EE418A9DED050AB8EEC00AF6
:10308000DFED5F0A80EE201AB0EE419AB8EE000A3A
:1030900028EE000A20EE090AF0EE000A69EEA00A06
:1030A00000EEA80A10EE101A0846FDF78EFA41EC61
:1030B0001C0BB0EE4C0AF0EE6C0A03F0B5FCB0EE5F
:1030C00040BAF0EE60BA9FED4F0B53EC102B51EC71
:1030D0001B0BFDF77BF941EC1A0BFDF7A1FA4549F3
:1030E0008863B8EE000A28EE000A20EE080AF0EE27
:1030F000000A68EEA00A00EEE80AF7EE000A30EED9
:10310000200A10EE101A0846FDF75FFA41EC1C0B7E
:10311000B0EE000A28EE800A20EE090AF0EE000A5E
:1031200069EEA00A00EE880A10EE101A0846FDF7B4
:103130004CFA41EC1D0B00E056E0B0EE4C1AF0EEFC
:103140006C1AB0EE4D0AF0EE6D0A03F089FFB0EE96
:1031500040BAF0EE60BA9FED2B0B53EC102B51EC04
:103160001B0BFDF733F941EC1A0BFDF759FA214916
:10317000486329EEA90A08EE080A08EEE80A09EEF3
:10318000490A10EE101A0846FDF71FFA41EC1C0B15
:1031900028EE280A09EE890AF0EE000A20EE200A3D
:1031A00010EE101A0846FDF710FA41EC1D0BB0EEB8
:1031B0004C1AF0EE6C1AB0EE4D0AF0EE6D0A03F008
:1031C0004FFFB0EE40BAF0EE60BA9FED0E0B53EC3D
:1031D000102B51EC1B0BFDF7F9F841EC1A0BFDF726
:1031E0001FFA0449C86301E00220D5E60020D3E6B7
:1031F000000000009C03002039FA8E3C6F128341CE
:103200000000804E6666666666A64C4010B50024D7
:103210001448006820F440401249086008460068DD
:10322000086080210F48FEF7D9FDFEF711FE40210E
:103230000C48FEF7D3FDFEF70BFE07E0601CC4B29E
:10324000FA2C03DDFEF7D0FE012010BD80210548D9
:10325000FEF7B9FD0028F1D140210248FEF7BCFD80
:103260000020F2E7000402402DE9F04106460F4637
:1032700014461D46FEF794FE002141EA4601C8B2FD
:10328000FEF7D6FEFFF7C2FF20B1FEF7ADFE01202C
:10329000BDE8F0813846FEF7CBFEFFF7B7FFFEF73B
:1032A0007FFE012101EB4601C8B2FEF7C1FEFFF728
:1032B000ADFF0DE0012C04D10020FEF73BFE28708D
:1032C00003E00120FEF736FE2870601EC4B26D1CBC
:1032D000002CEFD1FEF788FE0020D9E72DE9F04160
:1032E00005460E4617469846FEF75AFE002141EA6B
:1032F0004501C8B2FEF79CFEFFF788FF20B1FEF73C
:1033000073FE0120BDE8F0813046FEF791FEFFF725
:103310007DFF00240CE018F80400FEF789FEFFF79B
:1033200075FF18B1FEF760FE0120EBE7601CC4B228
:10333000BC42F0DBFEF758FE0020E3E730B59BB05F
:1033400005460C468748854274D10121801500F05E
:10335000C7FF84B90121084600F092FF01201390B5
:1033600003208DF8500000208DF8530013A97E48EB
:10337000FEF7BEFC93E0012C10D10121084600F0BD
:103380007FFF0220139003208DF8500000208DF85D
:10339000530013A97448FEF7ABFC80E0022C10D157
:1033A0000121084600F06CFF0420139003208DF8E3
:1033B000500000208DF8530013A96B48FEF798FCCD
:1033C0006DE0032C10D10121084600F059FF0820C0
:1033D000139003208DF8500000208DF8530013A99E
:1033E0006148FEF785FC5AE0042C10D10121084603
:1033F00000F046FF1020139003208DF850000020AD
:103400008DF8530013A95848FEF772FC47E0052CCD
:1034100011D10121084600F033FF20201390032032
:103420008DF8500000208DF8530013A94E48FEF788
:103430005FFC34E091E0062C10D10121084600F039
:103440001FFF4020139003208DF8500000208DF8BE
:10345000530013A94448FEF74BFC20E0072C10D181
:103460000121084600F00CFF8020139003208DF806
:10347000500000208DF8530013A93B48FEF738FC9C
:103480000DE0102C03D10120FDF74CFB07E0112CBF
:1034900003D10120FDF746FB01E000BFFEE700205D
:1034A00000904FF480300190002002904FF4706043
:1034B00003906846FDF77CFA002015908DF85800BF
:1034C00001208DF8590000201790189019900120C4
:1034D0008DF8680015A92348FDF798FA01218805A1
:1034E00000F0CEFE1F484C3005902048069000208A
:1034F000079001200890002009900A904FF4006086
:103500000B9080000C9040110D9040020E90002016
:103510000F9001201090002011901290049004A9A7
:103520001348FEF7A7FA01211148FEF791F903238A
:10353000012221462846FDF793FA01212846FDF78E
:103540005AFA01212846FDF74BFA01212846FDF7DA
:1035500023FA2846FDF7E0FA01E000BFFEE71BB0C2
:1035600030BD00000020014000000240AC000020FF
:103570001064024000BFFEE770B52DED088B42F2EB
:1035800010750A244FF4B476F8480078012803D067
:103590000020BDEC088B70BDF5480078AE2803D143
:1035A000F3484078EA2801D00020F2E70020EF49F4
:1035B0000870EF48C078EF49087008460078F22894
:1035C00054D1ED4890F8200001284FD1E8484179C6
:1035D000007901EB002000EE100AB8EEC00A9FED62
:1035E000E71AC0EE010A00EE104AB8EE400A30EECB
:1035F000C00AE04880ED0D0ADD48C179807901EB11
:10360000002000EE100AB8EEC00A9FEDDC1AC0EEF2
:10361000010A00EE104AB8EE400A30EEC00AD54862
:1036200080ED0E0AD248417A007A01EB002000EECC
:10363000100AB8EEC00A9FEDD11AC0EE010A00EEE2
:10364000104AB8EE400A30EEC00ACA4880ED0C0AB3
:103650000320C84981F84100002081F8280001209A
:1036600081F84000084690ED0C0ABFE1C14800789F
:10367000F32863D1C04890F8200001285ED120468D
:10368000FCF796FF41EC190BB9494A79097902EB2D
:103690000120FCF77CFF41EC1B0B9FEDB90B53ECB9
:1036A000102BFCF705FF41EC1A0B53EC192BFCF720
:1036B00087FE41EC180BFCF7B3FF00EE100AAD4893
:1036C00080ED0D0A9FEDB00A80ED0E0A2046FCF752
:1036D0006FFF41EC190BA6494A7A097A02EB0120E7
:1036E000FCF755FF41EC1B0B9FEDA50B53EC102B8A
:1036F000FCF7DEFE41EC1A0B53EC192BFCF760FED5
:1037000041EC180BFCF78CFF00EE100A994880ED95
:103710000C0A0020974981F8410081F82800012017
:1037200081F84000084690ED0C1AF0EE410A90ED49
:103730000D1AB0EE410AFEF7DDF957E18D48007829
:10374000F42859D18C4890F82000012854D1204603
:10375000FCF72EFF41EC190B85494A79097902EBF8
:103760000120FCF714FF41EC1B0B9FED850B53EC84
:10377000102BFCF79DFE41EC1A0B53EC192BFCF7B8
:103780001FFE41EC180BFCF74BFF00EE100A7948C6
:1037900080ED0D0A9FED7C0A80ED0E0A2046FCF7B5
:1037A00007FF41EC190B72494A7A097A02EB0120B2
:1037B000FCF7EDFE41EC1B0B9FED710B53EC102B56
:1037C000FCF776FE41EC1A0B53EC192BFCF7F8FDD5
:1037D00041EC180BFCF724FF00EE100A654880ED61
:1037E0000C0A0220634981F84100002081F828007A
:1037F000012081F84000F9E05E480078FA287CD189
:103800005D4890F82000012877D159484179007926
:1038100001EB002006EBC60101EB0611A0EB8100D5
:10382000544908615248C179807901EB0020401B5E
:1038300000B2504948804E48417A007A01EB00209E
:1038400006EBC60101EB0611A0EB8101494841617D
:103850004748C17A807A01EB0020401B01B24548FD
:1038600081804348417B007B01EB002006EBC601D1
:1038700001EB0611A0EB81013E4881613C48C17B10
:10388000807B01EB0020401B01B23A48C1803848E0
:10389000417C007C01EB002006EBC60101EB061128
:1038A000A0EB81013348C1613148C17C807C01EBD0
:1038B0000020401B01B22F4801812D48417D007D31
:1038C00001EB002006EBC60101EB0611A0EB810124
:1038D000284801622648C17D807D01EB0020401B05
:1038E00001B2244841812248417E007E01EB002044
:1038F00006EBC60101EB061100E014E0A0EB81012C
:103900001C4841621A48C17E807E01EB0020401BAA
:1039100001B2184881810120164981F82800002051
:1039200081F8400062E013480078E12804D117A133
:10393000174802F0C7FA59E00E480078E22855D03F
:103940000C480078C0284AD1094800794D284DD14B
:1039500007484079492849D105488079432845D10D
:103960000348C0794B2841D114E00000A600002094
:1039700026040020780200207C0100200000C842BC
:103980000000000000005940000000004F4B0A00FA
:10399000001001401EA003F01DF8012080F31388E1
:1039A00000BF00BF00BF00BF00BF00BFBFF34F8F0D
:1039B00000BF00BF00BF1F48006800F4E0601E4960
:1039C0000843001D1B49086000BF00BF00BFBFF3D4
:1039D0004F8F00BF00BF00BF00E000BFFDE7002029
:1039E000164981F8280081F84000D2E501201349EA
:1039F00081F84200084690F8280018B9084690F867
:103A0000400010B100200E4908600120C1E500000F
:103A1000554152543120434D4420206F7843302C7F
:103A2000204E6F77207265736574204D4355210ACF
:103A3000000000000CED00E00000FA057802002014
:103A40002800002070B504460D46164619488442E9
:103A500004D13146284602F049FA29E0164884424A
:103A600004D13146284602F099FB21E013488442F4
:103A700004D13146284602F033FC19E01048844254
:103A800004D13146284602F067F811E00D4884421F
:103A900004D13146284602F00BF909E00A48844275
:103AA00004D13146284602F031FD01E000BFFEE7B7
:103AB00070BD00000010014000440040004800407C
:103AC000004C004000500040001401402DE9FC4132
:103AD00004460F4616462E48844201D1012530E0A7
:103AE0002C48844201D102252BE02B48844201D18D
:103AF000042526E02948844201D1082521E02848F0
:103B0000844201D110251CE02648844201D12025A1
:103B100017E02548844201D1402512E02348844221
:103B200001D180250DE02248844201D1851508E0AD
:103B30002048844201D1451503E01F48844200D14A
:103B400005150121284600F09BFB00978DF80460C5
:103B5000012E09D100208DF8060001208DF8070004
:103B600000208DF8050006E02EB901208DF8070031
:103B700000208DF8050069462046FEF7B9F8012EB1
:103B800003D139462046FEF729F9BDE8FC81000043
:103B9000000002400004024000080240000C024005
:103BA000001002400014024000180240001C0240B5
:103BB00000200240002402400028024000B58FB0DF
:103BC0000121880500F05CFB1848FDF74DFE00BFA1
:103BD0001648FDF7F5FE0028FAD14FF0006000907E
:103BE000134801901348029000200390282004906D
:103BF000002005904FF48060069000200790089008
:103C00004FF48070099000020A9000200B9003206E
:103C10000C9000200D900E9069460448FDF72AFF95
:103C200001210248FDF714FE0FB000BD40640240C0
:103C300004100140260A002000B58FB0012188053C
:103C400000F01EFB1648FDF70FFE00BF1448FDF7FD
:103C5000B7FE0028FAD14FF00060009011480190A3
:103C6000114802904020039000010490002005902C
:103C70004FF48060069000200790089009904FF460
:103C800080300A9000200B9003200C9000200D90B3
:103C90000E9069460248FDF7EDFE0FB000BD000032
:103CA000B8640240041001402606002000B58FB021
:103CB0000121480500F0E4FA1848FDF7D5FD00BFE2
:103CC0001648FDF77DFE0028FAD14FF00060009005
:103CD000134801901348029000200390192004908B
:103CE000002005904FF48060069000200790089017
:103CF00009904FF480300A9000200B9003200C9024
:103D000000200D900E9069460448FDF7B3FE012196
:103D10000248FDF79DFD0FB000BD00008860024025
:103D2000044400404E0A002000B58FB00121480530
:103D300000F0A6FA1848FDF797FD00BF1648FDF7FA
:103D40003FFE0028FAD14FF0006000901348019028
:103D50001348029040200390000104900020059039
:103D60004FF48060069000200790089009904FF46F
:103D700080300A9000200B9003200C9000200D90C2
:103D80000E9069460448FDF775FE01210248FDF7D3
:103D90005FFD0FB000BD0000A06002400444004081
:103DA0002606002000B58FB00121480500F068FA12
:103DB0001848FDF759FD00BF1648FDF701FE002821
:103DC000FAD14FF000600090134801901348029020
:103DD0000020039028200490002005904FF480607C
:103DE000069000200790089009904FF480300A90C8
:103DF00000200B9003200C9000200D900E9069463F
:103E00000448FDF737FE01210248FDF721FD0FB000
:103E100000BD00002860024004480040260A00203F
:103E200000B58FB00121480500F02AFA1848FDF7C7
:103E30001BFD00BF1648FDF7C3FD0028FAD14FF067
:103E400000600090134801901348029040200390B6
:103E500000010490002005904FF48060069000203F
:103E60000790089009904FF480300A9000200B9042
:103E700003200C9000200D900E9069460448FDF739
:103E8000F9FD01210248FDF7E3FC0FB000BD000081
:103E900058600240044800402606002000B58FB05C
:103EA0000121880500F0ECF91848FDF7DDFC00BFA2
:103EB0001648FDF785FD0028FAD14FF020600090EC
:103EC000134801901348029000200390282004908A
:103ED000002005904FF48060069000200790089025
:103EE00009904FF480300A9000200B9003200C9032
:103EF00000200D900E9069460448FDF7BBFD01219E
:103F00000248FDF7A5FC0FB000BD00002864024088
:103F100004140140260A002000B58FB00121880555
:103F200000F0AEF91848FDF79FFC00BF1648FDF7FA
:103F300047FD0028FAD14FF020600090134801900F
:103F40001348029040200390000104900020059047
:103F50004FF48060069000200790089009904FF47D
:103F600080300A9000200B9003200C9000200D90D0
:103F70000E9069460448FDF77DFD01210248FDF7DA
:103F800067FC0FB000BD0000A064024004140140B3
:103F900026060020F8B504460F4600223946204682
:103FA000FFF750FD7B4884422DD17B4D7A4E783E01
:103FB000FFF742FE4FF4E06000F036F946208DF83E
:103FC000000003208DF8010001208DF80200002080
:103FD0008DF80300684600F0EBF8FFF7EFFD4FF4B3
:103FE000E06000F021F93A208DF8000003208DF800
:103FF000010000208DF8020001208DF803006846C2
:1040000000F0D6F892E0654884422DD1644D644EAC
:10401000183EFFF789FE4FF4E06000F005F911202B
:104020008DF8000003208DF8010001208DF80200BA
:1040300000208DF80300684600F0BAF8FFF736FE5E
:104040004FF4E06000F0F0F810208DF8000003203D
:104050008DF8010000208DF8020001208DF803008A
:10406000684600F0A5F861E04E4884422ED14C4DE0
:10407000483D4B4E783EFFF7D3FEFFF793FE4FF4DB
:10408000E06000F0D1F80E208DF8000003208DF8DC
:10409000010001208DF8020000208DF80300684621
:1040A00000F086F84FF4E06000F0BEF80C208DF8C8
:1040B000000003208DF8010000208DF8020001208F
:1040C0008DF80300684600F073F82FE0364884420C
:1040D0002AD1314D183D304E903EFFF71DFFFFF7BE
:1040E000DDFE4FF4A06000F09FF845208DF8000041
:1040F00003208DF8010001208DF8020000208DF8CA
:104100000300684600F054F839208DF800000320C1
:104110008DF8010000208DF8020001208DF80300C9
:10412000684600F045F801E000BFFEE7012128469F
:10413000FDF78EFB00BF2846FDF742FC0128FAD1AF
:1041400001213046FDF784FB00BF3046FDF738FC07
:104150000128FAD101228021204602F0E9FA012249
:104160004021204602F0E4FA012210212846FDF702
:1041700063FC012210213046FDF75EFC0022802105
:10418000204602F0D5FA00224021204602F0D0FA63
:10419000F8BD000000100140B86402400044004037
:1041A000A060024000480040001401407047000039
:1041B00070B5002100230F22C4781CB3174C24686B
:1041C00004F4E064C4F5E064C4F30721C1F104041D
:1041D000E3B20A4144789C40E1B284781440214320
:1041E0000C07210E0E4C05786155047804F01F056C
:1041F0000124AC4005786D11AD0005F1E025C5F84E
:10420000004109E0047804F01F050124AC40054D8D
:104210000678761145F8264070BD00000CED00E0F0
:1042200000E400E080E100E002490143024A11603D
:10423000704700000000FA050CED00E000BF00BF71
:1042400000BFBFF34F8F00BF00BF00BF0948006829
:1042500000F4E06008490843001D0649086000BFFB
:1042600000BF00BFBFF34F8F00BF00BF00BF00E023
:1042700000BFFDE70CED00E00000FA05704700000C
:1042800029B1064A12680243044B1A6004E0034A4B
:1042900012688243014B1A607047000030380240B8
:1042A00029B1064A12680243044B1A6004E0034A2B
:1042B00012688243014B1A60704700004038024088
:1042C00029B1064A12680243044B1A6004E0034A0B
:1042D00012688243014B1A60704700002038024088
:1042E00029B1064A12680243044B1A6004E0034AEB
:1042F00012688243014B1A60704700004438024044
:1043000029B1064A12680243044B1A6004E0034ACA
:1043100012688243014B1A60704700002438024043
:10432000F0B5002100220024022500260223324F8E
:104330003F6807F00C0121B1042905D0082937D1C5
:1043400005E02E4F076036E02D4F076033E02A4F1F
:104350003F1F3F68C7F38056274F3F1F3F6807F056
:104360003F036EB1264FB7FBF3F7DFF88CC0ACF11B
:10437000040CDCF800C0CCF3881C07FB0CF40CE048
:104380001E4FB7FBF3F7DFF870C0ACF1040CDCF89C
:1043900000C0CCF3881C07FB0CF4174F3F1F3F688D
:1043A000C7F301477F1C7D00B4FBF5F7076002E00F
:1043B000124F076000BF00BF0F4F3F6807F0F001CA
:1043C0000909104F7A5C0768D74047600A4F3F6879
:1043D00007F4E051890A0B4F7A5C4768D740876041
:1043E000054F3F6807F46041490B064F7A5C476808
:1043F000D740C760F0BD0000083802400024F40038
:1044000000127A001400002070B50025FE4C0CB993
:10441000002070BDFD4890F83600012851D1207869
:10442000617840EA0120C0F30A00F849088060780A
:10443000C010A17840EA4110C0F30A00F349488057
:10444000A0788011E17840EA8100217940EA81205A
:10445000C0F30A00ED49888020794010617940EA74
:10446000C110C0F30A00E949C880607900118008D2
:1044700081F820006079C0F3011081F82100A07953
:10448000E17940EA0120E14981F82200207A617A4D
:1044900040EA0120DD4981F82300A07AE17A40EA70
:1044A0000120DA4981F82400207B81F82500607B17
:1044B00081F82600A07B81F82700012081F83500D3
:1044C00037E2D24890F8360002287CD120780F28B5
:1044D00005D1207E18B9E07D08B9002520E0CB4841
:1044E00090F83700B8B9CAA002F074FA002505E0C8
:1044F000615DCAA002F06EFA681CC5B2192DF7DB27
:10450000C8A002F067FAC8A002F064FA012002F025
:104510006AFFFFF793FECDA002F05CFA002078E777
:10452000681C192190FBF1F201FB1200215CA81C10
:10453000192290FBF2F302FB1300205C41EA0020F9
:10454000C0F30A00B1490880A81C192190FBF1F2C0
:1045500001FB1200205CC110E81C192290FBF2F351
:1045600002FB1300205C41EA4010C0F30A00A74997
:104570004880E81C192190FBF1F201FB1200205C3D
:104580008111281D192290FBF2F302FB1300205C1D
:1045900041EA8001681D90FBF2F302FB1300205CEE
:1045A00041EA8020C0F30A0098498880681D1921DB
:1045B00090FBF1F201FB1200205C4110A81D1922B2
:1045C00090FBF2F300E0ACE102FB1300205C41EA57
:1045D000C010C0F30A008D49C880A81D192190FBA6
:1045E000F1F201FB1200205C0111E81D192290FB81
:1045F000F2F302FB1300205C41EA0010C0F30A0052
:1046000082490881E81D192190FBF1F201FB12009B
:10461000205CC11105F10800192290FBF2F302FBA6
:104620001300205C41EA400105F1090090FBF2F320
:1046300002FB1300205C41EA4020C0F30A007349EA
:10464000488105F10900192190FBF1F201FB1200EC
:10465000205C811005F10A00192290FBF2F302FBA5
:104660001300205C41EA8010C0F30A00674988818A
:1046700005F10A00192190FBF1F201FB1200205C08
:10468000411105F10B00192290FBF2F302FB13001C
:10469000205C41EAC0005D49C88105F10C00192188
:1046A00090FBF1F201FB1200215C05F10D001922D3
:1046B00090FBF2F302FB1300205C41EA0020C0F300
:1046C0000A005249088205F10D00192190FBF1F210
:1046D00001FB1200205CC11005F10E00192290FBB5
:1046E000F2F302FB1300205C41EA4010C0F30A0021
:1046F0004649488205F10E00192190FBF1F201FBB9
:104700001200205C811105F10F00192290FBF2F3D9
:1047100002FB1300205C41EA800105F1100090FBD0
:10472000F2F302FB1300205C41EA8020C0F30A0090
:104730003649888205F11000192190FBF1F201FB46
:104740001200205C411005F11100192290FBF2F3D8
:1047500002FB1300205C41EAC010C0F30A002B49A1
:10476000C88205F11100192190FBF1F201FB120042
:10477000205C011105F11200192290FBF2F302FBFB
:104780001300205C41EA0010C0F30A001F490883AF
:1047900005F11200192190FBF1F201FB1200205CDF
:1047A000C11105F11300192290FBF2F302FB130073
:1047B000205C41EA400105F1140090FBF2F302FB9A
:1047C0001300205C41EA4020C0F30A000F494883EF
:1047D00005F11400192190FBF1F201FB1200205C9D
:1047E000811005F11500192290FBF2F302FB130072
:1047F000205C41EA8010C0F30A000449888305F177
:104800001500192140E000004E0A00207C01002024
:104810005342555320646174613A2000202030785F
:1048200025327800200D0A005342555320667261EC
:104830006D206865616420213D20307830662C2031
:104840007265736574204D43552E0A0052554E20F3
:1048500073746174653A2020534255532066726127
:104860006D206865616420213D20307830662C2001
:104870007468726F7720617761792074686973203A
:104880006672616D0A00000090FBF1F201FB1200FC
:10489000205C411105F11600192290FBF2F302FB96
:1048A0001300205C41EAC0006349C8830846B0F9A0
:1048B0000C0040F2DC51884204DD03205E4981F89F
:1048C00020000EE05C48B0F90C00B0F5FA7F04DA85
:1048D0000120594981F8200003E00220564981F85F
:1048E00020005548B0F9080040F2DC51884204DD50
:1048F0000220514981F821000EE04F48B0F908002C
:10490000B0F5FA7F04DA01204B4981F8210003E079
:104910000320494981F821000120474981F83500E9
:1049200007E00120444981F83500002081F8340077
:104930006FE5414890F83700002831D13FA002F0E0
:1049400049F800203C4981F8340000F0EFF950B1FB
:104950000220394981F83400012081F837003AA05B
:1049600002F038F81AE00120334981F834000020C1
:1049700081F8370038A002F02DF83A480078401C42
:1049800038490870084600781E2807DD36A002F076
:1049900021F8012002F027FDFFF750FC002038E548
:1049A0002548B0F9000040F6C41188422CDC2248AA
:1049B000B0F90000642827DB1F48B0F902008842E4
:1049C00022DC1D48B0F9020064281DDB1A48B0F94A
:1049D0000400884218DC1848B0F90400642813DB8E
:1049E000154890F8200003280EDC134890F82000AA
:1049F000012809DB104890F82100032804DC0E4848
:104A000090F8210001280ADA1EA001F0E3FF00F06F
:104A100043F80320084981F834000020F9E40F200E
:104A2000054981F8340000F03DFB0348006B401C51
:104A3000014908630120ECE47C0100205243204935
:104A40006E6974200000000073756363657373669C
:104A5000756C210A000000006661696C65642E2E89
:104A60000A000000760000206661696C645F74696A
:104A70006D65733E3330207265736574204D435508
:104A80002E2E0A0052432052656D6F7465204552E8
:104A9000524F520A0000000010B5864890F83600C8
:104AA000012854D184A1874801F00CFA8148B0F95B
:104AB0000010844801F0D8F90921824801F0C5F9B5
:104AC00081A1804801F0FEF97A48B0F902107D48D2
:104AD00001F0CAF909217B4801F0B7F97CA17948B6
:104AE00001F0F0F97348B0F90410764801F0BCF910
:104AF0000921744801F0A9F977A1724801F0E2F99F
:104B00006C48B0F906106F4801F0AEF909216D4804
:104B100001F09BF972A16B4801F0D4F9654890F857
:104B20002010684801F0A0F90921664801F08DF9CC
:104B30006DA1644801F0C6F95E4890F82110614803
:104B400001F092F90A215F4801F07FF978E05948B5
:104B500090F83600022873D165A15A4801F0B2F9E5
:104B60005448B0F90010574801F07EF90921554822
:104B700001F06BF94F48B0F90210524801F074F996
:104B80000921504801F061F94A48B0F904104D4834
:104B900001F06AF909214B4801F057F94548B0F98D
:104BA0000610484801F060F90921464801F04DF926
:104BB0004048B0F90810434801F056F9092141482E
:104BC00001F043F93B48B0F90A103E4801F04CF9B6
:104BD00009213C4801F039F93648B0F90C10394840
:104BE00001F042F90921374801F02FF93148B0F9B5
:104BF0000E10344801F038F90921324801F025F946
:104C000037A1304801F05EF92A4890F820102D486D
:104C100001F02AF909212B4801F017F932A129489E
:104C200001F050F9234890F82110264801F01CF9B2
:104C30000A21244801F009F90A21224801F005F966
:104C40002EA1204801F03EF91A48B0F928101D485D
:104C500001F00AF909211B4801F0F7F82AA11948C7
:104C600001F030F91348B0F92A10164801F0FCF8A9
:104C70000921144801F0E9F826A1124801F022F9AF
:104C80000C48B0F92C100F4801F0EEF809210D483E
:104C900001F0DBF822A10B4801F014F90548B0F946
:104CA0002E10084801F0E0F80A21064801F0CDF87E
:104CB00010BD00007C010020444255533A2020637F
:104CC00068313A00001401406368323A0000000085
:104CD0006368333A000000006368343A0000000063
:104CE0007377313A000000007377323A0000000019
:104CF000534255533A20206368313A006368315F6C
:104D00006F66667365743A006368325F6F666673D8
:104D100065743A006368335F6F66667365743A0062
:104D20006368345F6F66667365743A0070B5844873
:104D3000B0F90000B0F5617F05DB8148B0F90000F3
:104D4000B0F5966F07DD7E48B0F900107DA001F048
:104D500041FE002070BD7A48B0F90200B0F5617FD5
:104D600005DB7748B0F90200B0F5966F04DD81A04D
:104D700001F030FE0020EDE77148B0F90400B0F515
:104D8000617F05DB6E48B0F90400B0F5966F04DD75
:104D900081A001F01FFE0020DCE76948B0F90600A1
:104DA000B0F5617F05DB6648B0F90600B0F5966F97
:104DB00004DD82A001F00EFE0020CBE788480078D9
:104DC00040B9002087490860874908608749086022
:104DD000874908605A48B0F90000824909680844C8
:104DE000804908605648B0F902007F4909680844C4
:104DF0007D4908605248B0F904007C4909680844BC
:104E00007A4908604E48B0F90600794909680844B3
:104E10007749086072480078401C7149087008465C
:104E200000780A287EDB6F480068097890FBF1F073
:104E300000B2434908856C4800686949097890FBCD
:104E4000F1F000B23E494885684800686449097835
:104E500090FBF1F000B23A498885654800686049E6
:104E6000097890FBF1F000B23549C8850C46248DD5
:104E70009CB30C46648D84B30C46A48D6CB30C4675
:104E8000E48D54B30C46B4F92830002B01DB1C46EA
:104E900000E05C4240F6C415AC4224DC284CB4F976
:104EA0002A20002A01DB144600E0544240F6C415D3
:104EB000AC4218DC224CB4F92C10002901DB0C4662
:104EC00000E04C4240F6C415AC420CDC1C4CB4F97A
:104ED0002E00002802DB044601E004E0444240F6D4
:104EE000C415AC4217DDFFF7D7FD0020144981F847
:104EF00034003B4908703B4908603B4908603B4926
:104F000008603B4908603BA001F064FD012002F00D
:104F10006AFAFFF793F90120094981F83400304813
:104F2000007800E002E00863012013E70020044954
:104F300081F834002A480078086300200AE700005E
:104F40007C01002072632E636831203C20393030B0
:104F500029207C7C202872632E636831203E20311A
:104F60003230302921202020646174613A25640A9E
:104F70000000000072632E636832203C203930301C
:104F800029207C7C202872632E636832203E2031E9
:104F900032303029210A000072632E636833203CCE
:104FA0002039303029207C7C202872632E636833BE
:104FB000203E203132303029210A000072632E63F6
:104FC0006834203C2039303029207C7C20287263D2
:104FD0002E636834203E203132303029210A00000F
:104FE0007400002064000020680000206C00002095
:104FF0007000002072632E6368315F6F66667365B0
:1050000074203D3D3020207265736574204D4355FA
:10501000210A000010B5002416491748FEF7BAFF10
:1050200001224021144801F083FB0220134981F83A
:105030003600134800781249087014E011480078CF
:1050400010B1FFF7E1F90EE04FF480410E48FCF794
:105050004BFE4FF4803400BF201EA4F10104FBD1AD
:105060000AA001F0B7FC054890F834000028E5D00C
:10507000012010BDA0860100004400407C010020FA
:105080007500002040000020001402407761697420
:1050900020666F7220524320696E69742E2E2E0A8C
:1050A000000000002DE9F0412DED0A8B9FED620A12
:1050B00010EE106A002500270024604890F82000B8
:1050C00001287DD05D4890F834000028F9D00420F4
:1050D00000F0BCF8002873D1584890F8210001284E
:1050E00004D1B7EE000A10EE106A17E0534890F8AA
:1050F0002100032804D1B0EE000A10EE106A0DE082
:105100004E4890F82100022804D1B1EE000A10EEBA
:10511000106A03E09FED480A10EE106A4748B0F9A4
:1051200000004649B1F92810451A4448B0F9020078
:105130004249B1F92A10471A4048B0F904003F49E2
:10514000B1F92C10441A281E01DB014600E041424F
:10515000322900DA0025381E01DB014600E0414219
:10516000322900DA0027201E01DB014600E041421F
:10517000322900DA00243248007800F00300E0BB56
:105180003046FBF722FA41EC1A0B6842FBF7FFF9B5
:1051900041EC1C0B9FED2B0B53EC102BFBF788F90C
:1051A00041EC1B0B53EC1A2BFBF710F941EC190BDC
:1051B000FBF736FA08EE100A3046FBF706FA00E075
:1051C00036E041EC1A0B2046FBF7E1F941EC1C0BF1
:1051D0009FED1C0B53EC102BFBF76AF941EC1B0BFA
:1051E00053EC1A2BFBF7F2F841EC190BFBF718FA0A
:1051F00008EE900AF0EE480A00E004E0B0EE680A1B
:10520000FCF778FC14E00E48007800F00300012859
:105210000ED00B48007800F00300022806D13CB9FC
:10522000064890F82000032802D001E004480078E6
:10523000BDEC0A8BBDE8F081000000007C0100207D
:10524000750000200000000000A0844070B50446F6
:10525000FF25012C08D120211448FCF7B4FD08B922
:10526000012521E000251FE0022C08D110210F4864
:10527000FCF7A9FD08B9012516E0002514E0032C70
:1052800008D108210948FCF79EFD08B901250BE06B
:10529000002509E0042C07D104210448FCF793FD04
:1052A00008B9012500E00025284670BD0010024025
:1052B00000B587B001210846FEF7E2FF012108038F
:1052C000FFF70EF802208DF8180000208DF81A0064
:1052D000E020059001208DF81B0003208DF81900B7
:1052E00005A92048FCF704FD052211461D48FCF7DE
:1052F00047FD052206211B48FCF742FD0522072138
:105300001848FCF73DFD01210803FEF7F9FF0021D5
:105310004FF48050FEF7F4FF3820ADF80C00012068
:10532000ADF808000220ADF806000720ADF8100027
:105330000020ADF80400ADF80000ADF80E004FF409
:105340008270ADF802004FF40070ADF80A006946B3
:10535000054800F055F80121034800F037F807B080
:1053600000BD0000000002400030014010B50446BE
:1053700000BF02210A4800F035F80028F9D0214684
:10538000074800F03BF800BF0121054800F02AF86B
:105390000028F9D0024800F02EF8C0B210BD00007D
:1053A0000030014010B50446074800884FF6C77129
:1053B00008400549088008460088204308800121EC
:1053C000014800F003F810BD0030014021B102880F
:1053D00042F04002028004E002884FF6BF731A4098
:1053E000028070470246002013890B400BB1012058
:1053F00000E000207047014688897047818170472E
:1054000010B50022028802F441520B884C882343D5
:105410008C882343CC8823430C8923434C89234322
:105420008C892343CC8923431A430280838B4FF218
:10543000FF74234083830B8A038210BD70470000F2
:105440000CB50020019000903448006840F4803092
:105450003249086000BF3148006800F40030009015
:105460000198401C0190009818B90198B0F5A04F20
:10547000F1D12A48006800F4003010B101200090FA
:1054800001E0002000900098012846D123484030D8
:10549000006840F080502149403108602048006891
:1054A00040F440401E4908601C48083000681B4911
:1054B000083108600846006840F40040086008466B
:1054C000006840F4A05008601648091F0860081FD3
:1054D000006840F08070091F086000BF0F48006836
:1054E00000F000700028F9D040F205700E49086005
:1054F0000A480830006820F00300084908310860B5
:105500000846006840F00200086000BF0348083009
:10551000006800F00C000828F8D10CBD00380240EB
:105520000070004008544007003C024070B505463A
:105530000C46012D16D154B120213048FCF74EFC09
:105540002F48007840F001002D49087054E02021D8
:105550002A48FCF741FC2A48007800F0FE00284960
:10556000087049E0022D16D154B110212348FCF7F0
:1055700035FC2348007840F00200214908703BE0E8
:1055800010211E48FCF728FC1D48007800F0FD00A3
:105590001B49087030E0032D16D154B1082117487B
:1055A000FCF71CFC1648007840F004001449087011
:1055B00022E008211148FCF70FFC1148007800F0A8
:1055C000FB000F49087017E0042D15D154B10421D8
:1055D0000A48FCF703FC0A48007840F00800084934
:1055E000087009E004210548FCF7F6FB0448007840
:1055F00000F0F7000249087070BD0000001402407E
:105600005C0000200448006820B103480068401E88
:1056100001490860704700009C00002030B519481F
:105620000068194AB0FBF2F1481EB0F1807F01D347
:1056300001201BE0481E4FF0E022506150170F225E
:10564000002807DA13071D0E104B00F00F04241F6B
:105650001D5503E013071C0E0D4B1C5400BF00200A
:105660004FF0E022906107201061002008B100BFD8
:10567000FEE74FF0E020006920F001004FF0E0214C
:10568000086130BD00000020A086010018ED00E098
:1056900000E400E010B51548006840F470001349BC
:1056A00008601348006840F00100114908600020BC
:1056B0000F49083108600E4800680E4908400C493F
:1056C00008600D48091D0860081F006820F480204C
:1056D000091F0860002006490C310860FFF7B0FE82
:1056E0004FF0006001498039086010BD88ED00E08E
:1056F00000380240FFFFF6FE1030002410B50121F3
:10570000880700F079F818B10121880700F065F8E2
:1057100010BD000010B501210E4800F06DF8C0B1B9
:105720000D480068401C0C4908600C480068401C8B
:105730000A49086008480068FBF7AEFE06480068A2
:10574000042802D30020044908600121014800F028
:1057500044F810BD001000404C0000203C00002028
:1057600010B50121144800F047F818B31348006839
:10577000401C1249086012480068401C104908602B
:1057800010480068401C0F4908600F480068401C22
:105790000D4908600D480068401C0C4908600C4821
:1057A0000068401C0A490860FBF7CEFE0121024850
:1057B00000F013F810BD0000001400402400002089
:1057C000280000202C0000203000002034000020A1
:1057D00038000020CA4302827047CA4302827047E1
:1057E00021B1028842F00102028004E002884FF6F3
:1057F000FE731A400280704730B502460020002335
:105800000024158A05EA0103958905EA010413B10C
:105810000CB1012000E0002030BD1AB183890B4398
:10582000838102E083898B43838170470022028851
:10583000184B98420ED0184B98420BD0B0F1804FC5
:1058400008D0164B984205D0154B984202D0154B04
:10585000984204D14FF68F731A404B881A43124B6B
:10586000984207D0114B984204D04FF6FF431A409C
:105870000B891A4302804B68C3620B880385054B72
:10588000984202D0044B984201D18B7A03860123BF
:105890008382704700000140000401400004004082
:1058A00000080040000C00400010004000140040C0
:1058B0007FB504460D46B4F1804F34D14FF4E0601B
:1058C000FEF7B2FC1C208DF8000000208DF80100CE
:1058D00002208DF8020001208DF803006846FEF7D3
:1058E00067FC01210846FEF7DBFC681E029053208E
:1058F000ADF804000020ADF80C00ADF8060001A9D9
:105900004FF08040FFF792FF01218807FFF762FF09
:10591000012211469007FFF780FF00214FF08040E1
:10592000FFF75EFFA0E08348844232D14FF4E0608D
:10593000FEF77AFC1D208DF8000000208DF8010094
:1059400003208DF8020001208DF803006846FEF761
:105950002FFC01210220FEF7A3FC681E02905320B9
:10596000ADF804000020ADF80C00ADF8060001A968
:105970002046FFF75BFF01212046FFF72BFF0122A6
:1059800011462046FFF749FF00212046FFF728FF78
:105990006AE06948844232D14FF4E060FEF744FC8B
:1059A0001E208DF8000000208DF8010004208DF8E5
:1059B000020001208DF803006846FEF7F9FB012183
:1059C0000420FEF76DFC681E02905320ADF8040021
:1059D0000020ADF80C00ADF8060001A92046FFF745
:1059E00025FF01212046FFF7F5FE01221146204642
:1059F000FFF713FF00212046FFF7F2FE34E04F4887
:105A0000844231D14FF4E060FEF70EFC32208DF875
:105A1000000000208DF8010005208DF80200012013
:105A20008DF803006846FEF7C3FB01210820FEF74E
:105A300037FC681E02905320ADF804000020ADF83A
:105A40000C00ADF8060001A92046FFF7EFFE01218A
:105A50002046FFF7BFFE012211462046FFF7DDFE7C
:105A600000212046FFF7BCFE354884422DD14FF47B
:105A7000E060FEF7D9FB36208DF8000000208DF89D
:105A8000010006208DF8020001208DF80300684611
:105A9000FEF78EFB01211020FEF702FC681E02902B
:105AA0005320ADF8040001A92046FFF7BFFE0121F5
:105AB0002046FFF78FFE012211462046FFF7ADFE7C
:105AC00000212046FFF78CFE32E01E4884422DD193
:105AD0004FF4E060FEF7A8FB37208DF800000020AF
