:020000040800F2
:10000000781200209D0100087D5200081D2600087E
:10001000F1450008AB130008C77B00080000000092
:100020000000000000000000000000006166000801
:1000300001230008000000004D5300082968000853
:10004000B7010008B7010008B7010008B7010008B0
:10005000B7010008B701000891240008B7010008A3
:10006000B7010008B7010008B7010008B701000890
:10007000B7010008B7010008B7010008B701000880
:10008000611F0008B7010008B7010008B7010008A8
:10009000B1130008B7010008B7010008B701000854
:1000A000B7010008B7010008B7010008B701000850
:1000B00021690008B7010008B7010008B70100086E
:1000C000B7010008B7010008B7010008B701000830
:1000D000B7010008CD71000869740008B175000807
:1000E000A3240008B7010008B7010008B701000801
:1000F000B7010008B7010008B7010008B701000800
:10010000B7010008B7010008B7010008B7010008EF
:10011000296E0008956F0008396900088569000894
:10012000B7010008B7010008991F0008B7010008CF
:10013000B7010008B7010008B7010008B7010008BF
:10014000E1130008B7010008B7010008B701000873
:10015000B7010008B7010008E91F0008D9770008B7
:10016000B7010008B7010008B7010008B70100088F
:10017000B7010008B7010008B7010008B70100087F
:10018000B7010008B7010008DFF80CD000F01CFC34
:100190000048004795AB00087812002006488047C9
:1001A00006480047FEE7FEE7FEE7FEE7FEE7FEE75C
:1001B000FEE7FEE7FEE7FEE7B968000889010008F0
:1001C0002DE9F0410024061B254671F1000605DAF1
:1001D00001240027D0EB070067EB0101161E73F125
:1001E000000605DA0027D2EB0702012567EB0303BF
:1001F00000F08AFA86460E4617469C46AC4204D06A
:100200000025D0EB050E65EB010624B10020D2EBF2
:10021000000760EB030C704631463A466346BDE882
:10022000F081D2B201E000F8012B491EFBD27047E9
:100230000022F6E710B513460A4604461946FFF7B2
:10024000F0FF204610BD30B504460020034600E014
:100250005B1C934203D2E05CCD5C401BF8D030BD08
:100260002DE9FE4F804681EA0300C00F0C46009046
:1002700021F0004123F00045B8EB0200A94105D26E
:100280004046214690461C460B46024623F000405D
:10029000104347D0270DC7F30A00C3F30A51029059
:1002A000401A019040286BDAC3F3130040F4801B1E
:1002B0000098924620B10023D2EB030A63EB0B0BAC
:1002C00001985946C0F14002504600F04EFA0646E9
:1002D0000D4650465946019A00F066FA10EB0800A8
:1002E0006141002487EA115284EAE7731A4340D03F
:1002F000009A62B3019A012A4FEA075215DC001BEB
:1003000061EB02014FF0004202EA0752CDE90042E0
:10031000001C41F5801132462B4600F09DFA03B0D7
:10032000BDE8F08F40462146F9E7001B61EB020172
:10033000001C41F5801300185B412018A2F500173E
:1003400047EB030140EAD570B6196D4111E06D0825
:100350004FEA360645EAC0754FEA0752001B61EBCB
:100360000201001C41F5801149084FEA30000019D4
:10037000514132462B4603B0BDE8F04F00F05DBA64
:100380000098012240000023D0EB020263EBE073EF
:10039000009821464FEAE074B8EB000061EB0401DD
:1003A000E9E783F000435BE781F0004158E72DE97E
:1003B000FE4F81EA030404F0004421F00041009460
:1003C0004FF0000B23F0004350EA01045ED052EAE4
:1003D00003045BD0C3F30A54C1F30A552C44A4F2BE
:1003E000F3340194A0FB0254C1F3130141F48011D2
:1003F000C3F3130343F4801301FB024400FB034ED9
:10040000840A970A44EA815447EA8357A4FB0768A1
:1004100002958D0A05FB07854FEA932C04FB0C54CB
:100420002705029D4FEA065847EA1637B5EB08053F
:100430006EEB070C870E920E47EA811742EA831291
:10044000A7FB0201B6EB0B0164EB00042B0D43EAA2
:100450000C335E1844EB1C50DA465146E7FB0201B0
:10046000C5F313044FEA0B3343EA14534FEA043243
:10047000019C43EA0603A4F10C040294009CCDE91C
:1004800000B400F0E9F903B0BDE8F08F00200146A8
:10049000F9E72DE9F04D81EA030404F0004B21F067
:1004A000004514464FF0000A23F0004150EA0502CF
:1004B00020D054EA01021DD0C5F30A570246C5F305
:1004C0001303C1F31300C1F30A5640F4801543F43B
:1004D0008013A7EB0608101BD64608F2FD3873EB15
:1004E000050002D308F1010801E092185B41B8F160
:1004F000000F03DA00200146BDE8F08D00204FF424
:100500008011064684460EE0171B73EB050705D3E2
:10051000121B63EB050306434CEA010C49084FEA42
:10052000300092185B4150EA0107EDD152EA030016
:1005300012D082EA040083EA0501084305D0101BAB
:10054000AB4106D20122002306E000224FF0004317
:1005500002E06FF0010253101AEB06004CEB085159
:1005600010EB0A0041EB0B01BDE8F04D00F065B95E
:100570000EB5C10F80EAE0700844CA07002140F2BE
:1005800033438DE80E000A460B4600F065F903B0D0
:1005900000BD0EB540F2334102910021CDE90011BA
:1005A0000A460B4600F058F903B000BD70B5C1F320
:1005B0000A5201F000450024C1F3130140F2FF3359
:1005C00041F480119A4201DA002070BD40F23343B9
:1005D0009A42A2F2334203DC524200F0D5F800E026
:1005E00090402C43F1D0404270BDC1F30A5210B587
:1005F000C1F3130140F2FF3341F480119A4201DA52
:10060000002010BD40F233439A42A2F2334203DC91
:10061000524200F0B9F810BD904010BD00F0004209
:1006200030F000400AD0C10D01F56071C0F3160032
:1006300042EA0151C20840071143704700200146B9
:100640007047000030B5041E71F1000404DB4FF068
:100650000044404264EB0101141E73F1000405DB09
:100660001C464FF00043524263EB04038B4208BF29
:10067000824230BD30B5041E71F1000404DB4FF03E
:100680000044404264EB0101141E73F1000405DBD9
:100690001C464FF00043524263EB0403994208BFEB
:1006A000904230BD01F0004330B421F0004150EAE7
:1006B000010206D00A0DA2F56072C1F31301002AEF
:1006C00002DC30BC00207047440F44EAC104C10082
:1006D000E01830BC00EBC25000F078B830B50B46E3
:1006E000014600202022012409E021FA02F59D4262
:1006F00005D303FA02F5491B04FA02F52844151E36
:10070000A2F10102F1DC30BD2DE9F05F05460020C9
:1007100092469B4688460646814640241BE0284672
:1007200041464746224600F02FF853465A46C01A23
:10073000914110D311461846224600F016F82D1AA2
:1007400067EB01084F4622460120002100F00DF81A
:1007500017EB00094E41201EA4F10104DFDC4846DE
:1007600031462A464346BDE8F09F202A04DB203A62
:1007700000FA02F1002070479140C2F1200320FAF4
:1007800003F3194390407047202A04DB203A21FAF2
:1007900002F00021704721FA02F3D040C2F120029A
:1007A0009140084319467047202A06DBCB17203AB0
:1007B00041FA02F043EAE07306E041FA02F3D04066
:1007C000C2F1200291400843194670470029A8BF92
:1007D0007047401C490008BF20F00100704710B46A
:1007E000B0FA80FC00FA0CF050EA010404BF10BC1F
:1007F000704749B1CCF1200421FA04F411FA0CF14C
:1008000018BF012121430843A3EB0C01CB1D4FEA84
:1008100000614FEA102042BF002010BC704700EB7F
:10082000C35010440029A4BF10BC7047401C4900AD
:1008300008BF20F0010010BC704710B5141E73F102
:10084000000408DA401C41F1000192185B411A4390
:1008500001D120F0010010BD2DE9F04D92469B46DC
:1008600011B1B1FA81F202E0B0FA80F22032904682
:10087000FFF77BFF04460F4640EA0A0041EA0B01FE
:1008800053465A46084313D0114653EA010019D083
:10089000C8F140025046FFF777FF05460E46504626
:1008A00059464246FFF761FF084305D0012004E0A6
:1008B00020463946BDE8F08D0020054346EAE07643
:1008C0002C4337430A986305E40AA0EB0800002292
:1008D000FD0A44EA47540A3002D500200146E9E700
:1008E000010510196941DDE9084500196941BDE8B4
:1008F000F04DA2E72DE9F04D00231A461B1A8A415C
:1009000003DB00200146BDE8F08DC1F30A52C1F3BC
:10091000130141F480154FF0000BD10702D10018EC
:100920006D41521E0027044640F2FF11384601EB8C
:10093000620A3E468046024600204FF48011FFF7CF
:1009400023FFC2197141BB1846EB0100B4EB030C45
:1009500075EB000C04D3E41A65EB000517460E4650
:10096000241908F101006D4180463428E3DDF919AE
:1009700046EB0600091BA84103D24FF0FF32134695
:1009800001E0002213461BEB070046EB0A51BDE8CD
:10099000F04DFFF752BFC1F30A52C1F3130140F209
:1009A000FF3341F480119A4202DA00200146704779
:1009B00040F233439A42A2F2334202DC5242FFF742
:1009C000E3BEFFF7D2BE0000064C074D06E0E0682C
:1009D00040F0010394E8070098471034AC42F6D386
:1009E000FFF7D6FB04D3000824D3000821B18268A6
:1009F00042F00102826003E0826822F0010282601C
:100A0000704700000021084A1168084A1140D0E9E7
:100A100000231A4383681A43C3681A431143044AE4
:100A2000C2F804137047000004230140E030FCFFCB
:100A30000020014021B1826842F48072826003E0AC
:100A4000826822F480728260704721B1826842F429
:100A50000072826003E0826822F400728260704754
:100A600030B50246002000235068104C20400D791C
:100A70000C6844EA05242043506090680C4C2040E8
:100A8000D1E903542C438D682C434D7944EA450445
:100A900020439060D06A20F470000C7D641EE4B2A4
:100AA000234340EA0350D06230BD0000FFFEFFFC4C
:100AB000FDF7FFC0F0B504460D4600200021092DCA
:100AC00011DDE068A5F10A0606EB4607072606FADF
:100AD00007F18843A5F10A0606EB460603FA06F17C
:100AE0000843E0600CE0206905EB4507072606FA9D
:100AF00007F1884305EB450603FA06F10843206138
:100B0000072A0FDA606B561E06EB86071F2606FAC9
:100B100007F18843561E06EB860605FA06F10843E0
:100B2000606322E00D2A0FDA206BD61F06EB8607E2
:100B30001F2606FA07F18843D61F06EB860605FA3C
:100B400006F10843206310E0E06AA2F10D0606EB0F
:100B500086071F2606FA07F18843A2F10D0606EB69
:100B6000860605FA06F10843E062F0BD816841F0AF
:100B7000804181607047000038B10849096841F43C
:100B80000001074AC2F8041306E00449096821F489
:100B90000001034AC2F80413704700000423014017
:100BA0000020014010B52DED108B8AB0F0EE408A88
:100BB000B0EE60BAB0EE418A9FEDF80AF0EE40DA8E
:100BC0009FEDF70AB0EE40EA9FEDF50AF0EE40EA3D
:100BD0009FEDF20AB0EE409A9FEDF00AF0EE409AD7
:100BE0009FEDEE0AB0EE40AA9FEDEC0AF0EE40AAAF
:100BF0009FEDEA0AF0EE40BA9FEDE80AB0EE40CA77
:100C00009FEDE60AF0EE40CA9FEDE40AB0EE40DA4E
:100C1000B0EE680A08EE6E0AB0EE40FAB0EE4B0A8B
:100C200008EE0E0A8DED090A6FEE0F0A9DED090A16
:100C300040EE000A10EE901A0846FFF7EFFCCDE9EF
:100C400000019DED000B08F021F88DED020B9DEDEC
:100C5000020B51EC100BFFF725FD0BEE900AB0EEE6
:100C6000680A08EE6E0AF0EE40FAB0EE4B0A08EEA3
:100C70004E0A8DED080A6FEEAF0A9DED080A40EEB0
:100C8000000A10EE901A0846FFF7C8FCCDE90001F3
:100C90009DED000B07F0FAFF8DED020B9DED020BB1
:100CA00051EC100BFFF7FEFC0CEE100AB0EE680AD8
:100CB00008EE2E0A8DED070AB0EE4B0A08EE4E0A3A
:100CC0008DED060A9DED070A60EE000A9DED060A0D
:100CD00040EE000A10EE901A0846FFF79FFCCDE99F
:100CE00000019DED000B07F0D1FF8DED020B9DED96
:100CF000020B51EC100BFFF7D5FC0CEE900AB0EE96
:100D0000680A08EE2E0A8DED050AB0EE4B0A08EED1
:100D10000E0A8DED040A9DED050A60EE000A9DEDB8
:100D2000040A40EE000A10EE901A0846FFF776FC1F
:100D3000CDE900019DED000B07F0A8FF8DED020B42
:100D40009DED020B51EC100BFFF7ACFC0DEE100A01
:100D50000220944981F8410018EE900AFFF75EFCEA
:100D6000CDE900019DED000B07F086FF8DED020B34
:100D70009FED8D0B53EC102B9DED020B51EC100BE6
:100D8000FFF778FC7ED28FEE2B0A10EE104A204639
:100D9000FFF744FCCDE900019DED000B07F020F9C1
:100DA0008DED020B9DED020B51EC100BFFF77AFC61
:100DB00009EE100A8FEE8C0A10EE104A2046FFF75B
:100DC0002DFCCDE900019DED000B07F009F98DED3B
:100DD000020B9DED020B51EC100BFFF763FC09EECB
:100DE000900A9DED070AC0EE2C0A10EE904A2046AC
:100DF000FFF714FCCDE900019DED000B07F0F0F8C2
:100E00008DED020B9DED020B51EC100BFFF74AFC30
:100E10000AEE100A9DED050AC0EE0D0A10EE904A8A
:100E20002046FFF7FBFBCDE900019DED000B07F02D
:100E3000D7F88DED020B9DED020B51EC100BFFF777
:100E400031FC0AEE900A9FED5A0AB4EEC09AF1EE18
:100E500010FA05DD9FED570A30EE490AB0EE409AD0
:100E60009FED530AF4EEC09AF1EE10FA05DD9FED06
:100E7000510A30EE690AF0EE409A9FED4D0AB4EE49
:100E8000C0AA00E098E0F1EE10FA05DD9FED490AF6
:100E900030EE4A0AB0EE40AA9FED450AF4EEC0AA31
:100EA000F1EE10FA05DD9FED430A30EE6A0AF0EE2E
:100EB00040AAF5EEC08AF1EE10FA0DDBB5EEC08A5D
:100EC000F1EE10FA08DBB1EE690AF0EE409AB1EEED
:100ED0004A0AB0EE40AA6AE1F5EEC08AF1EE10FAD5
:100EE0000DDBB5EEC08AF1EE10FA08D2B1EE490A78
:100EF000B0EE409AB1EE6A0AF0EE40AA57E1F5EE84
:100F0000C08AF1EE10FA21D2B5EEC08AF1EE10FAE5
:100F10001CD8B1EE490AB0EE409AB1EE6A0AF0EE82
:100F200040AAF0EE6BDAB1EE4D0AF0EE40BAB1EE47
:100F30006D0AB0EE40DAF0EE4CDAB1EE6C0AB0EECB
:100F400040CAB1EE6D0AF0EE40CA30E1F5EEC08A5B
:100F5000F1EE10FABFD2B5EEC08AF1EE10FABADDAA
:100F6000B1EE690AF0EE409AB1EE4A0AB0EE40AA3C
:100F7000F0EE6BDAB1EE4D0AF0EE40BAB1EE6D0A6A
:100F8000B0EE40DAF0EE4CDAB1EE6C0AB0EE40CAE8
:100F9000B1EE6D0AF0EE40CA09E100000000000069
:100FA000CDCCCC3E780200207B14AE47E17A843F62
:100FB000DA0FC93FDA0F494018EE900AFFF72EFB0F
:100FC000CDE900019DED000B07F056FE8DED020B03
:100FD0001FED0B0B53EC102B9DED020B51EC100B86
:100FE000FFF730FB7ED218EE100AFFF717FBCDE9B2
:100FF00000019DED000B07F03FFE8DED020B1FED94
:10100000160B53EC102B9DED020B51EC100BFFF760
:1010100031FB67D28FEE2B0A10EE104A2046FFF705
:10102000FDFACDE900019DED000B06F0D9FF8DED35
:10103000020B9DED020B51EC100BFFF733FB09EE99
:10104000100A8FEE8C0A10EE104A2046FFF7E6FADF
:10105000CDE900019DED000B06F0C2FF8DED020B06
:101060009DED020B51EC100BFFF71CFB09EE900AF3
:101070009DED070AC0EE2C0A10EE904A2046FFF7BD
:10108000CDFACDE900019DED000B06F0A9FF8DED35
:10109000020B9DED020B51EC100BFFF703FB0AEE68
:1010A000100A9DED050AC0EE0D0A10EE904A20468A
:1010B000FFF7B4FACDE900019DED000B06F090FFBB
:1010C0008DED020B9DED020B51EC100BFFF7EAFAD0
:1010D0000AEE900A1FED4A0AB4EEC09AF1EE10FA39
:1010E00007DD00E043E01FED4D0A30EE490AB0EEA7
:1010F000409A1FED510AF4EEC09AF1EE10FA05DDA8
:101100001FED540A30EE690AF0EE409A1FED580ABE
:10111000B4EEC0AAF1EE10FA05DD1FED5A0A30EE6A
:101120004A0AB0EE40AA1FED5E0AF4EEC0AAF1EE44
:1011300010FA05DD1FED610A30EE6A0AF0EE40AAF2
:10114000B5EEC08AF1EE10FA08DDB1EE690AF0EEF4
:10115000409AB1EE4A0AB0EE40AA28E0B1EE490A40
:10116000B0EE409AB1EE6A0AF0EE40AA1FE01FED21
:10117000750AB0EE409A1FED770AF0EE409A1FED27
:10118000790AB0EE40AA1FED7B0AF0EE40AA1FEDEF
:101190007D0AF0EE40BA1FED7F0AB0EE40CA1FEDA7
:1011A000810AF0EE40CA1FED830AB0EE40DA9FEDEF
:1011B000740A29EE000AB0EE409A9FED710A29EEFA
:1011C000800AF0EE409A9FED6E0A2AEE000AB0EE19
:1011D00040AA9FED6B0A2AEE800AF0EE40AA9FED2E
:1011E000690AB4EEC09AF1EE10FA04DD9FED650ACB
:1011F000B0EE409A0AE09FED640AB4EEC09AF1EEB8
:1012000010FA03D29FED600AB0EE409A9FED5D0A9E
:10121000F4EEC09AF1EE10FA04DD9FED5A0AF0EEFA
:10122000409A0AE09FED580AF4EEC09AF1EE10FAE7
:1012300003D29FED550AF0EE409A9FED520AB4EEAC
:10124000C0AAF1EE10FA04DD9FED4E0AB0EE40AAFE
:101250000AE09FED4D0AB4EEC0AAF1EE10FA03D2F7
:101260009FED490AB0EE40AA9FED460AF4EEC0AAEF
:10127000F1EE10FA04DD9FED430AF0EE40AA0AE019
:101280009FED410AF4EEC0AAF1EE10FA03D29FEDF1
:101290003E0AF0EE40AA9FED3D0A29EE000AF7EE65
:1012A000000A80EE201ABDEEC10A10EE100A38497D
:1012B00008619FED360A29EE800AF7EE000A80EEFB
:1012C000201ABDEEC10A10EE100A48619FED2F0AE8
:1012D0002AEE000AF7EE000A80EE201ABDEEC10ADF
:1012E00010EE100A88619FED290A2AEE800AF7EEB7
:1012F000000A80EE201ABDEEC10A10EE100AC86185
:101300009FED240A2BEEC00AF7EE000A80EE201AA9
:10131000BDEEC10A10EE100A00B248809FED1D0A12
:101320002CEE400AF7EE000A80EE201ABDEEC10A4C
:1013300010EE100A01B2164881809FED160A2CEEBD
:10134000800AF7EE000A80EE201ABDEEC10A10EE08
:10135000100A01B20E48C1809FED0E0A2DEE000A60
:10136000F7EE000A80EE201ABDEEC10A10EE100A58
:1013700001B2074801810AB0BDEC108B10BD00001E
:101380003333654200007042000070C20000C84262
:1013900078020020160D8C4210B504460B2246F24E
:1013A000F701204602F054FC10BD00BFFEE700002C
:1013B00010B50221074800F06FF9012809D1064A4B
:1013C0000021044800F0FAFA01F012FE012003495E
:1013D000087010BD0064004054010020430000204C
:1013E00010B50221064800F057F9012807D1054A37
:1013F0000021034800F0E2FA01200349087010BD03
:1014000000680040680100204500002070B50446D7
:101410000D46204600F0DAF82946204600F060FA32
:10142000204600F0A5F8204600F09EFA70BD0000AE
:1014300010B504460B48844209D10121480603F047
:10144000A7FF00214FF0007003F0A2FF08E0012188
:10145000880603F09DFF00214FF0806003F098FFA5
:1014600010BD00000064004010B50021837A012205
:1014700002FA03F13D4A126842F001023B4B1A6046
:101480003A4A1C3212688A43384B1C331A60027B7A
:10149000CAB9364A0C3212688A43344B0C331A608C
:1014A0004288C38842EA0343304A4032847A42F891
:1014B00034300288838842EA03432C4A4032847ADB
:1014C00002EBC4025360027B012A19D1274A0C3275
:1014D00012680A43254B0C331A604288038842EA9B
:1014E0000343224A4032847A42F83430C2888388E7
:1014F00042EA03431D4A4032847A02EBC40253603D
:10150000C27A3AB9194A121D12688A43174B1B1D39
:101510001A6006E0154A121D12680A43134B1B1D80
:101520001A60028932B9114A143212688A430F4B89
:1015300014331A600289012A06D10C4A1432126847
:101540000A430A4B14331A60427B012A06D1074A28
:101550001C3212680A43054B1C331A60034A126896
:1015600022F00102014B1A6010BD0000006600402D
:101570001FB504461448844203D100208DF80A00A8
:1015800002E00E208DF80A0000208DF80B000120EB
:101590008DF80C000020ADF8000042F60440ADF8D4
:1015A00002000020ADF80400ADF80600ADF8080018
:1015B00001208DF80D006846FFF756FF0122022139
:1015C000204600F0F9F81FBD006400401CB5044639
:1015D0002E4884422BD10121480603F0C9FE012187
:1015E000082003F0B5FE09220021294800F0E2FF9F
:1015F00009220121264800F0DDFF022000908DF82D
:1016000004008DF8050000208DF8060001208DF8FB
:10161000070069461E4800F085FF01200090022067
:101620008DF8040069461A4800F07CFF2DE0012186
:10163000880603F09DFE0121022003F089FE0922A5
:101640000C21144800F0B6FF09220D21114800F0CA
:10165000B1FF4FF40050009002208DF804008DF887
:10166000050000208DF8060001208DF8070069466E
:10167000084800F057FF4FF48050009002208DF88A
:1016800004006946034800F04DFF1CBD00640040A3
:10169000000C02400004024070B504460D460026CE
:1016A00060692840002871D0B5F5807F5CD010DCDF
:1016B000082D35D006DC012D20D0022D24D0042D9C
:1016C00072D127E0102D31D0202D35D0402D6BD197
:1016D00038E0B5F5004F60D009DCB5F5007F49D0A2
:1016E000B5F5806F4CD0B5F5006F5DD14FE0B5F525
:1016F000803F2DD0B5F5003F56D12FE0A0682D4991
:1017000000F024FC064651E0E068032100F01EFCD6
:1017100006464BE0E068082100F018FC064645E06C
:10172000E068102100F012FC06463FE0206903212A
:1017300000F00CFC064639E02069082100F006FCA8
:10174000064633E02069102100F000FC06462DE03B
:101750006068082100F0FAFB064627E06068102167
:1017600000F0F4FB064621E0A069012100F0EEFB49
:1017700006461BE0A069022100F0E8FB064615E0E2
:10178000A069042100F0E2FB06460FE00FE0A0692B
:10179000702100F0DBFB064608E06068042100F0E1
:1017A000D5FB064602E0FFE7002600BF00E000266A
:1017B000304670BD010101001AB143690B4343611A
:1017C00002E043698B434361704730B50246002015
:1017D0000023146824F002041460146844F0010427
:1017E000146000E05B1C546804F001041CB94FF65F
:1017F000FF74A342F6D1546804F001040CB9002030
:101800006CE08C79012C04D1146844F080041460DD
:1018100003E0146824F080041460CC79012C04D116
:10182000146844F04004146003E0146824F0400499
:1018300014600C7A012C04D1146844F02004146064
:1018400003E0146824F0200414604C7A012C04D1C5
:10185000146844F01004146003E0146824F01004C9
:1018600014608C7A012C04D1146844F008041460CC
:1018700003E0146824F008041460CC7A012C04D12D
:10188000146844F00404146003E0146824F00404B1
:1018900014608C78A407CD7844EA05640D7944EA95
:1018A00005444D7944EA05540D886D1E2C43D461DE
:1018B000146824F001041460002300E05B1C5468E9
:1018C00004F001041CB14FF6FF74A342F6D1546832
:1018D00004F001040CB1002000E0012030BD000044
:1018E0003EB505460C461F48854204D101214806F5
:1018F00003F03EFD04E001214FF0C06003F038FD2D
:101900002846FFF795FD684600F0D0F800208DF8D6
:10191000060001208DF807008DF8080000208DF8E2
:1019200009008DF80A008DF80B008DF802000120E7
:101930008DF8030003208DF8040001208DF80500C8
:10194000B4F5FA7F03D10C20ADF8000005E0B4F542
:101950007A7F02D10620ADF8000069462846FFF7DD
:1019600034FF3EBD0064004038B504464FF4C0600B
:1019700003F0C2FC104884420ED114208DF8000000
:1019800000208DF801008DF8020001208DF8030081
:10199000684603F075FC0DE040208DF80000002043
:1019A0008DF8010001208DF802008DF803006846D3
:1019B00003F066FC38BD00000064004010B500F57F
:1019C000D87303EB01131B6803F004031372137A3B
:1019D00053B900F5D87303EB01131B6840F2FF7491
:1019E00004EA5353136009E000F5D87303EB0113C5
:1019F0001B686FF0604404EAD303536000F5D873AA
:101A000003EB01131B6803F00203537200F5D87354
:101A100003EB01135B6803F00F03937200F5D873B7
:101A200003EB01135B681B0AD37400F5D87303EB57
:101A300001139B68D37200F5D87303EB01139B6805
:101A40001C0A147300F5D87303EB01139B681C0C7C
:101A5000547300F5D87303EB01139B681B0E93734B
:101A600000F5D87303EB0113DB68D37300F5D8736B
:101A700003EB0113DB681C0A147400F5D87303EB45
:101A80000113DB681C0C547400F5D87303EB0113CD
:101A9000DB681B0E937421B9C36843F02003C36055
:101AA00003E0036943F02003036110BD002181714D
:101AB000C171017241728172C1728170C170032162
:101AC00001710221417101210180704710B5024668
:101AD0000020936803F08063B3F1806F00D110E0C1
:101AE000936803F00063B3F1006F01D1012008E0B7
:101AF000936803F08053B3F1805F01D1022000E0CE
:101B00000420042874D002F5C07303EB00131B6893
:101B100003F0010402F5C07303EB00131C600B7AA1
:101B20007BB94B7A0C8843EA445302F5C07404EB4A
:101B300000142468234302F5C07404EB00142360EE
:101B400010E00B7A4C6843EAC4034C7A234302F555
:101B5000C07404EB00142468234302F5C07404EB42
:101B6000001423608B7A03F00F038B7202F5C073AD
:101B700003EB00135B6823F00F0402F5C07303EB63
:101B800000135C6002F5C07303EB00135B688C7A92
:101B9000234302F5C07404EB001463608B7B1C06C6
:101BA0004B7B44EA03440B7B44EA0323CC7A234374
:101BB00002F5C07404EB0014A3608B7C1C064B7C04
:101BC00044EA03440B7C44EA0323CC7B234302F521
:101BD000C07404EB0014E36002F5C07303EB001360
:101BE0001B6843F0010402F5C07303EB00131C6093
:101BF00010BD000010B52DED068B35488168006CD6
:101C0000084400EE100AB8EEC00ADFED320A80EE9A
:101C1000201AF0EE418A2E48D0F8B010806F0844A8
:101C200000EE100AB8EEC00ADFED2A0A80EE201A94
:101C3000B0EE418A9FED280A28EE000AB0EE408AF5
:101C40009FED250A28EE800AF0EE408A38EE280A39
:101C5000F0EE000A80EE201A204880ED001A9FED79
:101C6000200A204880ED000A1F4890F84C0028B355
:101C70001D4890ED080A1D4880ED000A90ED000A0D
:101C800010EE100AFEF7CAFC41EC1A0BB0EE4A0A3D
:101C9000F0EE6A0A06F0F0FFB0EE409AF0EE609ABD
:101CA0009FED130B53EC102B51EC190BFEF7CAFCF4
:101CB00004D29FED0B0A0D4880ED000A0B4890ED11
:101CC000000A0D4880ED000ABDEC068B10BD000037
:101CD000BC0200200000FA44C0922B3C7C00002093
:101CE00000000000800000209C03002088000020ED
:101CF0007B14AE47E17A743F8400002010B52DEDCF
:101D0000028B0446012004F0B3FB01280CD03548B7
:101D10000068142808D834480068142818D93348B3
:101D200090F82000012813D10020314981F82800C3
:101D300081F84000086100212D4841618161C16145
:101D400000202B494880002129488180C1800181E1
:101D5000012C06D0022C13D0032C20D0042C3CD113
:101D60002CE02349B1F90200FEF702FC41EC180B0C
:101D7000B0EE480AF0EE680A012002F01BF82DE0F0
:101D80001B49B1F90800FEF7F3FB41EC180BB0EE6C
:101D9000480AF0EE680A042002F00CF81EE014492C
:101DA000B1F90600FEF7E4FB41EC180BB0EE480A6F
:101DB000F0EE680A032001F0FDFF0FE00C49B1F9D5
:101DC0000400FEF7D5FB41EC180BB0EE480AF0EE2C
:101DD000680A022001F0EEFF00E000BF00BFBDEC8A
:101DE000028B10BD24000020280000207C01002070
:101DF0007802002010B502F0FDFB03F06DFB10B17E
:101E0000002002490860FFF7F5FE10BD2400002005
:101E1000F0B587B00024002600270025AE22214619
:101E2000641C0DF80120EA222146641C0DF80120F3
:101E300001222146641C0DF80120A7222146641CC2
:101E40000DF801203C4890ED000ADFED3C0A20EE41
:101E5000200AF7EE000A80EE201ABDEEC10A10EE4D
:101E6000100A05B2C5F307222146641C0DF80120B3
:101E7000EAB22146641C0DF80120314890ED000AB9
:101E8000DFED2E0A20EE200AF7EE000A80EE201A7F
:101E9000BDEEC10A10EE100A05B2C5F307222146B5
:101EA000641C0DF80120EAB22046611CCCB20DF88A
:101EB0000020244890ED000ADFED200A20EE200AE1
:101EC000F7EE000A80EE201ABDEEC10A10EE100AED
:101ED00005B2C5F307222046611CCCB20DF80020E4
:101EE000EAB22046611CCCB20DF80020601EC0B2E0
:101EF0008DF80200022604E01DF806000744701C5D
:101F0000C6B2A642F8DBFAB22046611CCCB20DF88C
:101F10000020EF222046611CCCB20DF80020FE22EA
:101F20002046611CCCB20DF80020224669460648C6
:101F300005F084F807B0F0BD7C00002000007A4472
:101F40008000002084000020001001400246002094
:101F500002EA01030BB1012000E0002070470000FD
:101F600010B50A490A4800F04FF970B1074908480E
:101F700000F06EF819200649091D08600121044887
:101F800000F080F801200349087010BD008800208F
:101F9000886002404000002010B50F490F4800F053
:101FA00033F9B8B100210D4800F06CF80A490B482C
:101FB00000F04EF840210A4805F008FD28200749A6
:101FC000091D08600121054800F05CF84021054822
:101FD00000F020FB10BD0000008020104064024093
:101FE000001001400014024010B54021084800F0E4
:101FF00011FB0849084800F007F938B100210648EC
:1020000000F040F80349044800F008F810BD000053
:102010000014024000800028B86402400246094BC8
:102020009A4201D2084801E00648103801F00053F6
:102030001BB1064B0B40C36002E0044B0B408360B6
:102040007047000010640240006002407D0F7D0F69
:102050000246094B9A4201D2084801E0064810386E
:1020600001F000531BB1064B0B40C36002E0044B70
:102070000B40836070470000106402400060024023
:102080007D0F7D0F21B1026842F00102026003E082
:10209000026822F00102026070470000016821F02E
:1020A000010101600021016041608160C160016146
:1020B000212141614A49884204D13D21484A103AD0
:1020C00091608CE046491831884205D14FF4746123
:1020D000434A103A916082E041493031884205D14B
:1020E0004FF474113E4A103A916078E03C4948310F
:1020F000884205D14FF07461394A103A91606EE020
:1021000037496031884204D13649354A103AD160A6
:1021100065E033497831884204D13349304A103A76
:10212000D1605CE02E499031884204D12F492C4A7D
:10213000103AD16053E02A49A831884205D14FF0C6
:102140003D51274A103AD16049E02949884204D1DB
:102150003D21274A083A116041E02549183188425B
:1021600005D14FF47461224A083A116037E02049E2
:102170003031884205D14FF474111D4A083A11607C
:102180002DE01B494831884205D14FF07461184A4F
:10219000083A116023E016496031884204D11149A0
:1021A000134A121F11601AE011497831884204D194
:1021B0000D490F4A121F116011E00D4990318842FC
:1021C00004D10A490A4A121F116008E00849A831DF
:1021D000884204D14FF03D51054A121F11607047EB
:1021E000106002403D000020400F002000003D2014
:1021F00010640240014600200A6802F001020AB1A0
:10220000012000E00020704770B502460020002445
:102210000025124EB24201D2114B01E00F4B103B90
:10222000104E0E4036B11E2606EAD124166806EA84
:10223000040502E0566906F0800501F000560EB173
:102240005C6800E01C68084E344004EA010616B1E0
:102250000DB1012000E0002070BD000010640240BC
:10226000006002403C0F3C0F7D0F7D0F10B501F068
:1022700080034BB122B1436943F08003436103E023
:10228000436923F08003436180290BD02AB103689E
:1022900001F01E042343036004E0036801F01E0400
:1022A000A343036010BD000010B500220268134B69
:1022B0001A40CC680B6823434C6923438C69234341
:1022C000CC6923430C6A23434C6A23438C6A23431F
:1022D0004C6B23438C6B23431A430260426922F008
:1022E0000702D1E90B3423431A4342610B6943606F
:1022F0004B6883608B68C36010BD00003F801CF09A
:1023000070470000074908604FF0E021096941F07B
:1023100001014FF0E022116100BF02490968002964
:10232000FBD170479C0000200120514981F84000FA
:102330009FED503AB0EE431A9FED4E3AB0EE432A6D
:102340009FED4C3AF0EE432A9FED4A3AF0EE431AE5
:102350009FED493AB4EEC30AF1EE10FA04DD9FEDA9
:10236000463AB0EE430A0AE09FED443AB4EEC30A9F
:10237000F1EE10FA03D29FED413AB0EE430AB1EE0E
:10238000603AF0EE430A9FED3E3AB4EEC30AF1EE36
:1023900010FA0ADD9FED3B3AB4EEC30AF1EE10FAF3
:1023A00003D29FED343AB0EE430A9FED353AF4EE96
:1023B000C30AF1EE10FA0ADD9FED323AF4EEC30AD9
:1023C000F1EE10FA03D29FED2B3AF0EE430ADFED67
:1023D0002E3AB0EE403A00EEA33AB0EE431AB0EE19
:1023E000412ADFED293AB0EE403A10EEA33AF0EE82
:1023F000431AF0EE612A9FED253A21EE433AF7EEBB
:10240000003A83EE234ABDEEC43A13EE100A00B23E
:10241000174948809FED1D3A22EE433AF7EE003A05
:1024200083EE234ABDEEC43A13EE100A01B21048FF
:1024300081809FED163A22EEC33AF7EE003A83EE22
:10244000234ABDEEC43A13EE100A01B20848C18017
:102450009FED0E3A21EEC33AF7EE003A83EE234A9F
:10246000BDEEC43A13EE100A01B201480181704773
:102470007802002000000000CDCC0C40CDCC0CC078
:10248000CDCC4CBDCDCC4C3DCDCCCC3E66FCBE4283
:1024900010B5012000F016F810B1012000F00CF882
:1024A00010BD10B54FF4005000F00CF818B14FF407
:1024B000005000F001F810BD0149086070470000AD
:1024C000143C014001460020034A12680A400AB148
:1024D000012000E000207047143C014010B5044684
:1024E000012C04D120210C4800F018F813E0022C34
:1024F00004D11021084800F011F80CE0032C04D19D
:102500000821054800F00AF805E0042C03D1042155
:10251000014800F003F810BD0014024042694A402F
:1025200042617047F0B50A4600210023002400BF35
:102530003DE0012505FA01F3156805EA03049C4214
:1025400034D105684F000326BE40B54305601579B8
:102550004E00B5400668354305601579012D02D05F
:102560001579022D16D185684F000326BE40B5436C
:10257000856055794E00B54086683543856045686D
:1025800001268E40B5434560456896798E40B6B2C7
:1025900035434560C5684F000326BE40B543C5605E
:1025A000D5794E00B540C6683543C560491C102931
:1025B000BFD3F0BDF0B5002300244D07ED0E02FAA5
:1025C00005F3CE1000F1200555F826504E07F70E02
:1025D0000F26BE40B543CF1000F1200646F8275025
:1025E000CE1000F1200555F8265045EA0304CE1020
:1025F00000F1200545F82640F0BD02460020136991
:102600000B400BB1012000E0002070474183704770
:102610000183704742694A404261704700BFFEE74C
:1026200010B508F0DBFD0F4948640846406C096CA2
:10263000401A4FF47A71B0FBF1F00A4988640846F9
:10264000406C086401F0C6FC0648806CC82804D9B8
:102650000020044981F84C0003E00120014981F881
:102660004C0010BD9C0300200A2000BF011EA0F1F9
:102670000102D0B2FADC70471CB50121022002F041
:1026800067FE01208DF8040000208DF80600C020B0
:10269000009001208DF8070002208DF805006946A2
:1026A0000548FFF73FFFFFF7DFFFFFF7DDFFFFF70D
:1026B000DBFFFFF7D9FF1CBD0004024010B540212D
:1026C0000F48FFF7A3FF0E48006820F440400C4974
:1026D00008600846006840F480400860802108488F
:1026E000FFF794FFFFF7C0FF40210548FFF790FF79
:1026F000FFF7BAFF40210248FFF788FF10BD000036
:102700000004024010B540210F48FFF77FFF0E483C
:10271000006820F440400C4908600846006840F416
:102720008040086080210848FFF772FFFFF79CFF98
:1027300040210548FFF76CFFFFF796FF4021024854
:10274000FFF764FF10BD00000004024070B50546AD
:1027500000241848006820F44040164908600846E4
:1027600000680860FFF780FFFFF77EFF002616E095
:1027700040211048FFF74AFFFFF776FF40210D4840
:10278000FFF746FF6006040E80210A48FFF735FF79
:1027900008B1601CC4B2FFF767FF701CC6B2082EF8
:1027A000E6DB15B9FFF7AEFF01E0FFF787FF204634
:1027B00070BD00000004024010B51048006820F40D
:1027C00040400E4908600846006840F480400860B8
:1027D00080210A48FFF71CFF40210848FFF718FF37
:1027E000FFF742FF80210548FFF710FFFFF73CFF8E
:1027F00040210248FFF70AFF10BD0000000402401C
:1028000010B51048006820F440400E4908600846A2
:10281000006840F48040086040210A48FFF7F6FE57
:1028200080210848FFF7F2FEFFF71EFF4021054810
:10283000FFF7EEFE80210348FFF7EAFEFFF714FFE3
:1028400010BD00000004024070B50446194800683D
:1028500020F44040174908600846006840F4804072
:10286000086040211348FFF7D1FE00251EE004F068
:102870008006802E04D180210E48FFF7C9FE03E0B8
:1028800080210C48FFF7C2FEFFF7EEFE6006040E43
:1028900040210848FFF7BCFEFFF7E6FE402105484F
:1028A000FFF7B4FEFFF7E0FE681CC5B2082DDEDBC3
:1028B00070BD0000000402404CF6CC4001490860A5
:1028C000704700000030004010B545F2555000F050
:1028D00021F8032000F012F84FF4FA6000F014F829
:1028E00000F004F8FFF7E8FF10BD00004AF6AA2048
:1028F000014908607047000000300040014948600D
:1029000070470000003000400149886070470000B7
:10291000003000400149086070470000003000406E
:1029200010B501225103384802F038F90122910311
:10293000354802F033F90122D103334802F02EF971
:1029400000220121314802F029F9002202212F48FA
:1029500002F024F900224FF400612C4802F01EF925
:1029600000224FF48051294802F018F900224FF458
:102970000051264802F012F900224FF4804123480A
:1029800002F00CF900220421204802F007F900228D
:1029900008211E4802F002F9002210211B4802F013
:1029A000FDF800222021194802F0F8F80122202128
:1029B000154802F0F3F801221021134802F0EEF856
:1029C00001220821104802F0E9F8012204210E48F2
:1029D00002F0E4F8012211460D4802F0DFF801216F
:1029E0000B48FFF713FE0021012003F0B1FE002188
:1029F000022003F0ADFE0021032003F0A9FE002118
:102A0000042003F0A5FE10BD001402400010024097
:102A10000000024010B50121032002F0A9FC802033
:102A2000C10508804FF6FF70C862002008850120AC
:102A30008882A72008818420104908802020091D51
:102A400008804FF6FF700D492C3108605320091F94
:102A50000880012009491431088080200749083185
:102A600008800648008840F00100044908800805F5
:102A7000008840F001000905088010BD00040040F6
:102A80002DE9F0418AB0002400250026AE2221461F
:102A9000641C01A84254EA222146641C42540122CB
:102AA0002146641C4254AC222146641C42542348F3
:102AB00002782146641C01A842540027042003F038
:102AC000D7FC4FEA0018032003F0D2FC48EAC00804
:102AD000022003F0CDFC48EA8008012003F0C8FC86
:102AE00048EA000808F0FF072146641C01A8475483
:102AF000601EC0B28DF80600022504E001A8405D0A
:102B00000644681CC5B2A542F8DB2046611CCCB265
:102B100001A90E54EF222046611CCCB201A90A542F
:102B2000FE222046611CCCB201A90A542246044868
:102B300004F084FA0AB0BDE8F08100005C000020D7
:102B400000100140F0B585B004460D4646F240063F
:102B5000002704F5C060009000208DF808008DF873
:102B6000090008208DF80A002B208DF80B00F1B227
:102B70008DF80C1031128DF80D108DF80E70E9B231
:102B80008DF80F1000218DF810108DF811108DF8B0
:102B9000121069460248FEF799FF05B0F0BD00002B
:102BA00000640040F0B585B004460D464FF48E46F3
:102BB000012704F5C060009000208DF808008DF812
:102BC000090008208DF80A002F208DF80B00F1B2C3
:102BD0008DF80C1031128DF80D108DF80E708DF8E7
:102BE0000F5000218DF810108DF811108DF8121073
:102BF00069460248FEF76AFF05B0F0BD0064004078
:102C0000F0B585B0002400253227264A07CA02AB5A
:102C100007C325A103C9CDE9000101243CE000253B
:102C200036E0002625E04FF400412148FFF7EEFC96
:102C30001DF8052002A830F81510204601F008F80C
:102C400041F2883001F0B8F94FF400411848FFF71D
:102C5000DFFC41F2883001F0AFF941F2883001F039
:102C6000ABF941F2883001F0A7F9214611A005F037
:102C70008FF9194800780028D5D0BE4204DB2146E0
:102C800016A005F085F901E000F056FB681CC5B2FE
:102C9000062DC6DB601CC4B2052CC0DB012005B0CC
:102CA000F0BD00008CC400083A3B3C3DF1F300004D
:102CB000001402404D6F74726F204150534C3244E7
:102CC000423A2025642072656164206D6F746F72D2
:102CD000204944200A000000430000204D6F747218
:102CE0006F204150534C3244423A20256420726593
:102CF0006164206D6F746F72204944206661696C55
:102D000064202121210A00002DE9F041002432270E
:102D100000250526012408E006212046FFF712FFC2
:102D2000384601F049F9601CC4B2052CF4DB0124DB
:102D300008E00F212046FFF705FF384601F03CF977
:102D4000601CC4B2052CF4DB60A005F021F9FFF78C
:102D500057FF04242BE00321204600F0FBFF3846F8
:102D600001F02AF9002510E000205F4908705F4853
:102D7000016804F5B060814203D100205B4908601E
:102D800003E021465AA005F003F95748007820B91E
:102D90002846691C8DB2B042E6DBB54205D1601E03
:102DA000C4B2214660A005F0F3F8601EC4B2002C46
:102DB000D1DC012408E086212046FFF7C3FE384617
:102DC00001F0FAF8601CC4B2052CF4DB012427E002
:102DD0000F212046FFF7B6FE384601F0EDF800253A
:102DE0000DE00020404908704048016804F5B060DB
:102DF000814204D13D48C07A602800D107E03A48BA
:102E0000007820B92846691C8DB2B042E9DB00BFCA
:102E1000B54203DB214652A005F0BAF8601CC4B2EB
:102E2000052CD5DB57A005F0B3F8012409E09FED90
:102E3000610B204600F0BEFF384601F0BDF8601C73
:102E4000C4B2052CF3DB5DA005F0A2F8012408E074
:102E50001C21204600F028FF384601F0ADF8601C28
:102E6000C4B2052CF4DB614805F092F8012415E0AA
:102E70000421204600F0F4FF384601F09DF8384662
:102E800001F09AF80921204601F040F8384601F097
:102E900093F8384601F090F8601CC4B2052CE7DBCB
:102EA00001240EE001212046FFF77CFE384601F0A8
:102EB00083F8384601F080F8384601F07DF8601C50
:102EC000C4B2052CEEDBBDE8F08100004D4F544F3D
:102ED000525F4150534C3244425F496E666F725F9D
:102EE0004765742E2E2E0A00430000205401002056
:102EF0004D6F74726F204150534C3244423A20253A
:102F000064206973206F66666C696E652C20636847
:102F100065636B2043414E2062757320636F6E6E54
:102F2000656374696F6E0A004D6F74726F20415053
:102F3000534C3244423A202564206E6F74207265EF
:102F400073706F6E64696E672C206D6F746F722082
:102F5000696E6974206661696C65640A000000002E
:102F60004D6F74726F204150534C3244423A2025C9
:102F70006420656E61626C65206661696C65640AD7
:102F8000000000004D6F74726F204150534C32446A
:102F9000423A20536574204D6F746F72204953205C
:102FA000312D3420546172676574207370656564D7
:102FB0002030000000000000000000004D6F74721F
:102FC0006F204150534C3244423A20536574204D97
:102FD0006F746F7220495320312D34204375727203
:102FE000656E74204C696D742032350068D200081B
:102FF00010B52DED068BC8480088C0F30B101828BB
:103000005CD10020C5490860C348C07A0870C24836
:10301000007B4870C048407B8870BF48807BC87088
:10302000BD480068A0F2811002280DD20846006851
:103030004142B9480068A0F28110C0EBC000B84A14
:1030400002EBC00081600BE0B4480168B248006840
:10305000A0F28110C0EBC000B14A02EBC000816059
:103060000020AE490860AC48C07B0870AA48007CCC
:103070004870A948407C8870A748807CC870A648E2
:103080000068A0F2811002280CD208460068414274
:10309000A1480068A0F28110C0EBC000A04A42F82D
:1030A000301035E19D4801689B480068A0F281100E
:1030B000C0EBC0009A4A42F8301029E196480088D7
:1030C000C0F30B105828ECD19348407B602821D1E5
:1030D0009148007B63281DD18F48807BD0B90020A8
:1030E0008E4908608C48C07B08708B48007C487013
:1030F0008948407C88708848807CC8700846016890
:1031000085480068A0F28150C0EBC000844A42F8B4
:103110003010FDE08048407B60281ED17E48007B57
:10312000F9281AD17C48807B182816D100207D49C7
:1031300008807948C07B08707748007C4870084652
:10314000B0F9001074480068A0F28150C0EBC000D4
:10315000734A02EBC0008160DAE06F48407B602870
:1031600023D16D48007BF9281FD16B48807B19283B
:103170001BD10020694908606748C07B0870664819
:10318000007C48706448407C88706348807CC870CC
:103190000846016860480068A0F28150C0EBC0009A
:1031A0005F4A02EBC0008160B2E05B48407B602870
:1031B00033D15948007B78282FD15748807B60BB9A
:1031C0000020584908805448C07B08705248007C51
:1031D0004870B1F90000FDF7CBF941EC1A0B9FEDF7
:1031E000520B53EC102BFDF7E2F841EC190B9FED5D
:1031F000500B53EC102BFDF74CF941EC180BFDF77D
:10320000D5F901B244480068A0F28150C0EBC0007B
:10321000434A02EBC00041827AE03F48407B60288D
:103220001DD13D48007BF72819D13B48807B1228EF
:1032300015D100203B4908803748C07B08703648CC
:10324000007C48700846018833480068A0F281502D
:10325000C0EBC000324A02EBC000818258E02E4829
:10326000407B60281DD12C48007BF72819D12A48C3
:10327000807B0B2815D100202A4908802648C07B76
:1032800008702548007C487008460188224800687C
:10329000A0F28150C0EBC000214A02EBC000C18205
:1032A00036E01D48407B602812D11B48007B412836
:1032B0000ED11948807B58B91748C17B0068A0F22D
:1032C0008150C0EBC000164A02EBC00001731FE042
:1032D0001148407B26281BD10F48007B012817D1BD
:1032E0000D48807BA0B90C48C17B0068A0F28150DA
:1032F000C0EBC0000A4A02EBC00041730648017CE3
:103300000068A0F28150C0EBC00002EBC0008173E6
:10331000BDEC068B10BD000054010020940000207D
:10332000BC020020980000200000000000F0554082
:10333000000000000000F03F38B5F2480088C0F3FC
:103340000B10182819D1EF480068A0F28110C0EBCB
:10335000C000ED4C54F83030EA480068A0F281100B
:10336000C0EBC00004EBC0008268E6480068A0F231
:103370008111E6A004F00CFED6E3E2480088C0F319
:103380000B105828F8D1DF48407B602817D1DD4862
:10339000007B632813D1DB48807B80B9D948006863
:1033A000A0F28150C0EBC000D74B53F83020D54875
:1033B0000068A0F28151E2A004F0EAFDB4E3D14834
:1033C000407B602812D1CF48007BF9280ED1CD4830
:1033D000807B18280AD1E348B0F90020C94800686A
:1033E000A0F28151E0A004F0D3FD9DE3C548407BED
:1033F000602819D1C348007BF92815D1C148807BCA
:10340000192811D1BF480068A0F28150C0EBC0005C
:10341000BD4B03EBC0008268BA480068A0F281513E
:10342000DBA004F0B5FD7FE3B648407B602819D1EE
:10343000B448007B782815D1B248807B90B9B14858
:103440000068A0F28150C0EBC000AF4B03EBC0009E
:10345000B0F91220AB480068A0F28151D8A004F066
:1034600097FD61E3A748407B60281AD1A548007BFF
:10347000F72816D1A348807B122812D1A1480068F2
:10348000A0F28150C0EBC0009F4B03EBC000B0F92D
:1034900014209C480068A0F28151D4A004F078FD6B
:1034A00042E39848407B60281AD19648007BF72871
:1034B00016D19448807B0B2812D192480068A0F264
:1034C0008150C0EBC000904B03EBC000B0F9162058
:1034D0008C480068A0F28151CDA004F059FD23E38F
:1034E0008848407B60283CD18648007B412838D101
:1034F0008448807B80BB83480068A0F28150C0EB89
:10350000C000814901EBC000007B08280DD17D4837
:103510000068A0F28150C0EBC0000A4602EBC00078
:10352000017BC4A004F034FDFEE276480068A0F2FE
:103530008150C0EBC000744901EBC000007B002843
:103540008FD170480068A0F28150C0EBC0000A46DD
:1035500002EBC000017B00E003E0C1A004F018FD15
:10356000E2E26848407B26287DD16648007B01283E
:10357000FAD16448807B0028F6D1C4A004F008FD8D
:1035800060480068A0F28150C0EBC0005E4901EBCA
:10359000C000407B00F0010010B1C5A004F0F8FCB1
:1035A00058480068A0F28150C0EBC000564901EBBA
:1035B000C000407B00F0020010B1C0A004F0E8FCA5
:1035C00050480068A0F28150C0EBC0004E4901EBAA
:1035D000C000407B00F0040010B1BEA004F0D8FC95
:1035E00048480068A0F28150C0EBC000464901EB9A
:1035F000C000407B00F0080010B1BCA004F0C8FC83
:1036000040480068A0F28150C0EBC0003E4901EB89
:10361000C000407B00F0100010B1B8A004F0B8FC6E
:1036200038480068A0F28150C0EBC000364901EB79
:10363000C000407B00F0200010B1B5A004F0A8FC51
:1036400030480068A0F28150C0EBC0002E4901EB69
:10365000C000407B00F0400010B1B2A004F098FC24
:103660002848006800E0D4E1A0F28150C0EBC0001F
:10367000254901EBC000407B00F0800010B1AEA0F6
:1036800004F086FC1F480068A0F28150C0EBC00027
:103690001D4901EBC000807B00F0010010B1AAA021
:1036A00004F076FC17480068A0F28150C0EBC0001F
:1036B000154901EBC000807B00F0020010B1A9A009
:1036C00004F066FC0F480068A0F28150C0EBC00017
:1036D0000D4901EBC000807B00F0040010B1A7A0F1
:1036E00004F056FC07480068A0F28150C0EBC0000F
:1036F000054901EBC000807B00F0080000B143E108
:1037000045E1000054010020BC0200204D6F746FA1
:1037100072204150534C3244422069643A2564205F
:103720002050444F2073706565645F72706D3A2558
:10373000642020616E676C653A25640A0000000011
:103740004D6F746F72204150534C32444220696473
:103750003A2564202020616E676C653A256420203C
:103760000A000000980000204D6F746F72204150D5
:10377000534C3244422069643A25642020207370FF
:103780006565645F72706D3A256420200A00000050
:103790004D6F746F72204150534C32444220696423
:1037A0003A256420202073706565645F72706D280F
:1037B000302E303031293A256420200A00000000E4
:1037C0004D6F746F72204150534C324442206964F3
:1037D0003A25642020207265616C5F6375727265A2
:1037E0006E743A256420200A000000004D6F746F4B
:1037F00072204150534C3244422069643A2564207F
:103800002020566F6C746167653A256420200A0099
:103810004D6F746F72204150534C324442206964A2
:103820003A256420202054656D703A256420200AD2
:10383000000000004D6F746F72204150534C3244B1
:103840004220647269766572202069643A2564209A
:10385000206572726F7220212121200A0000000071
:103860004D6F746F72204150534C32444220647249
:1038700069766572202069643A2564202069732086
:103880004F4B20212121200A000000004D6F746F52
:1038900072204150534C3244422064726976657202
:1038A000206572726F7220636F64653A20090000B0
:1038B000C4DAB2BFB4EDCEF3200A0000B1E0C2EB2F
:1038C000C6F72041425A20D0C5BAC5B4EDCEF30A9E
:1038D00000000000B1E0C2EBC6F72055565720D0DB
:1038E000C5BAC5B4EDCEF30A00000000B1E0C2EBEA
:1038F000C6F7BCC6CAFDB4EDCEF30A00C7FDB6AF2D
:10390000C6F7CEC2B6C8B9FDB8DF200A0000000075
:10391000C7FDB6AFC6F7C4B8CFDFB5E7D1B9B9FDBB
:10392000B8DF0A00C7FDB6AFC6F7C4B8CFDFB5E74A
:10393000D1B9B9FDB5CD0A00C7FDB6AFC6F7CAE427
:10394000B3F6B6CCC2B70A00C7FDB6AFC6F7D6C647
:10395000B6AFB5E7D7E8B9FDCEC2B1A8BEAF200A71
:1039600000000000CAB5BCCAB8FACBE6CEF3B2EE8E
:10397000B3ACB9FDD4CAD0EDD6B50A00B1A3C1F439
:10398000B1B8D3C30A00000068A004F001FB6F487F
:103990000068A0F28150C0EBC0006D4901EBC0008F
:1039A000807B00F0100010B16AA004F0F1FA6748C3
:1039B0000068A0F28150C0EBC000654901EBC00077
:1039C000807B00F0200010B169A004F0E1FA5F48AC
:1039D0000068A0F28150C0EBC0005D4901EBC0005F
:1039E000807B00F0400010B165A004F0D1FA574888
:1039F0000068A0F28150C0EBC000554901EBC00047
:103A0000807B00F08000002802D064A004F0C0FA9F
:103A10008AE04E48407B302811D14C48007B70B979
:103A20004A48807B3A280AD14848C07B00904748E2
:103A3000037C427C817C5DA004F0AAFA74E04348D8
:103A4000407B302811D14148007B70B93F48807BD2
:103A50003B280AD13D48C07B00903C48037C427C17
:103A6000817C59A004F094FA5EE03848407B30280D
:103A700011D13648007B70B93448807B3C280AD18C
:103A80003248C07B00903148037C427C817C57A047
:103A900004F07EFA48E02D48407B302811D12B48B5
:103AA000007B70B92948807B3D280AD12748C07B1C
:103AB00000902648037C427C817C55A004F068FA83
:103AC00032E02248407B252819D12048007BB0B93C
:103AD0001E48807BF12812D11C48807C02061B48BE
:103AE000407C42EA00421948007C42EA0020174A22
:103AF000D27B40EA02014CA004F04AFA14E01348D9
:103B0000407B252810D11148007B68B90F48807B85
:103B1000F32809D10D48C07B00900C48037C427CFF
:103B2000817C45A004F034FA38BD000049322A54A3
:103B300020B9CAD5CF28C7FDB6AFC6F7BBF2B5E7E7
:103B4000BBFAB9FDD4D8290A0000000054010020B6
:103B5000BC020020CBD9B6C8B8FACBE6CEF3B2EEA1
:103B6000B3ACB9FDD4CAD0EDD6B5200A0000000030
:103B7000B5E7BBFAB9FDCEC2B1A8BEAF0A000000DE
:103B8000D1B0D5D2B5E7BBFAB4EDCEF328CDA8D1EC
:103B9000B6CABDB1E0C2EBC6F7290A00CDA8D0C5B0
:103BA000B5F4CFDFB1A8BEAF0A000000B1BEBBFACA
:103BB000D0CDBAC52DCFB5C1D03A256325632563D5
:103BC000256320200A000000B1BEBBFAD0CDBAC5E3
:103BD0002DB5E7D1B9D3EBB5E7C1F7B5C8BCB63A57
:103BE000256325632563256320200A00B1BEBBFA47
:103BF000D0CDBAC52DB7B4C0A1D3EBD7DCCFDFC0D1
:103C0000E0D0CD3A256325632563256320200A0093
:103C1000B1BEBBFAD0CDBAC53A256325632563256D
:103C20006320200A00000000B9CCBCFEC8D5C6DA6B
:103C30003A256420200A0000D3B2BCFEB0E6B1BE33
:103C40003A256325632563256320200A00000000D0
:103C5000F0B585B005460C461646402705F5C06010
:103C6000009000208DF808008DF8090008208DF8DC
:103C70000A008DF80B70E1B28DF80C1021128DF84E
:103C80000D108DF80E6000218DF80F108DF81010BA
:103C90008DF811108DF8121069460248FDF716FFD5
:103CA00005B0F0BD006400402DE9F0412DED068B1C
:103CB00086B004460D4646F273064FF000082846CB
:103CC000FCF767FC41EC1A0B9FED1D0B53EC102B1E
:103CD000FCF76DFB41EC190B9FED1B0B53EC102B0C
:103CE000FCF7D7FB41EC180BFCF77FFC87B204F51F
:103CF000C060019000208DF80C008DF80D000820A8
:103D00008DF80E002B208DF80F008DF81060311209
:103D10008DF811108DF812808DF8137039128DF80E
:103D2000141000218DF815108DF8161001A90848FF
:103D3000FDF7CCFE06B0BDEC068BBDE8F0810000BF
:103D40000000000000205840000000000000F03F8C
:103D500000640040F0B585B004460D4646F26006AA
:103D6000002704F5C060009000208DF808008DF851
:103D7000090008208DF80A002F208DF80B00F1B201
:103D80008DF80C1031128DF80D108DF80E70E9B20F
:103D90008DF80F1000218DF810108DF811108DF88E
:103DA000121069460248FDF791FE05B0F0BD000013
:103DB00000640040F0B52DED068B85B00546B0EEF1
:103DC000408AF0EE608A46F2FF0600279FED1F0B47
:103DD00053EC102B51EC180BFCF7E9FA41EC1A0BE1
:103DE0009FED1C0B53EC102BFCF753FB41EC190B14
:103DF000FCF7DCFB044605F5C060009000208DF860
:103E000008008DF8090008208DF80A0023208DF89D
:103E10000B00F1B28DF80C1031128DF80D108DF8E9
:103E20000E70E1B28DF80F10210A8DF81010210CE0
:103E30008DF81110210E8DF8121069460748FDF714
:103E400045FE05B0BDEC068BF0BD0000C7BEBF9CB3
:103E5000EC799140000000000000F03F0064004059
:103E60002DE9F0412DED068B86B005460E4646F253
:103E700083074FF000083046FCF78BFB41EC1A0B30
:103E80009FED1D0B53EC102BFCF791FA41EC190B35
:103E90009FED1B0B53EC102BFCF7FBFA41EC180BBE
:103EA000FCF7A3FB044605F5C060019000208DF8E7
:103EB0000C008DF80D0008208DF80E0023208DF8E1
:103EC0000F008DF8107039128DF811108DF81280D6
:103ED0008DF81340210A8DF81410210C8DF815105F
:103EE000210E8DF8161001A90748FDF7EFFD06B069
:103EF000BDEC068BBDE8F0816666666666C650401E
:103F0000000000000000F03F006400402DE9F04197
:103F10002DED068B86B005460E4646F284074FF01F
:103F200000083046FCF735FB41EC1A0B9FED1D0BEA
:103F300053EC102BFCF73BFA41EC190B9FED1B0BDC
:103F400053EC102BFCF7A5FA41EC180BFCF74DFBDA
:103F5000044605F5C060019000208DF80C008DF836
:103F60000D0008208DF80E0023208DF80F008DF82D
:103F7000107039128DF811108DF812808DF81340E1
:103F8000210A8DF81410210C8DF81510210E8DF8D2
:103F9000161001A90748FDF799FD06B0BDEC068B88
:103FA000BDE8F0816666666666C6504000000000A7
:103FB0000000F03F0064004006E041F2883100BF9D
:103FC0000A1EA1F10101FBD1021EA0F10100F4D1F2
:103FD0007047000000B52DED0C8B8DB0B7EE000AD8
:103FE000F0EE409A9FEDA10AB0EE408A9FED9F0A45
:103FF000F0EE408A9FED9D0AB0EE409A06A807A910
:104000000CAB02AACDE9001008A90AA805F0D0FD62
:1040100020B101200DB0BDEC0C8B00BDBDF8280017
:104020009349C880BDF82A1091480181BDF82C1031
:104030004181B0F9060000EE100AB8EEC00ADFEDCB
:104040008D0A20EE200ADFED8C0A80EE201A8848C7
:1040500080ED061AB0F9080000EE100AB8EEC00AAA
:10406000DFED840A20EE200ADFED830A80EE201ABD
:104070007F4880ED071AB0F90A0000EE100AB8EE8A
:10408000C00ADFED7C0A20EE200ADFED7B0A80EE1D
:10409000201A774880ED081ABDF82000744908807E
:1040A000BDF822004880BDF824008880BDF81C00BF
:1040B00000F4807000287DD09DED020AB8EEC00AA1
:1040C000DFED6E0A80EE201AF0EE419A9DED030AB4
:1040D000B8EEC00ADFED690A80EE201AB0EE418A20
:1040E0009DED040AB8EEC00ADFED640A80EE201AE6
:1040F000F0EE418A9DED050AB8EEC00ADFED5F0AD9
:1041000080EE201AB0EE419AB8EE000A28EE000ABE
:1041100020EE090AF0EE000A69EEA00A00EEA80AF5
:1041200010EE101A0846FCF779FA41EC1C0BB0EEC1
:104130004C0AF0EE6C0A04F08BF9B0EE40BAF0EEE7
:1041400060BA9FED4F0B53EC102B51EC1B0BFCF79F
:104150002EF941EC1A0BFCF7A5FA45498863B8EE35
:10416000000A28EE000A20EE080AF0EE000A68EEC7
:10417000A00A00EEE80AF7EE000A30EE200A10EE80
:10418000101A0846FCF74AFA41EC1C0BB0EE000A84
:1041900028EE800A20EE090AF0EE000A69EEA00A75
:1041A00000EE880A10EE101A0846FCF737FA41ECC8
:1041B0001D0B00E056E0B0EE4C1AF0EE6C1AB0EEBB
:1041C0004D0AF0EE6D0A04F05FFCB0EE40BAF0EE7E
:1041D00060BA9FED2B0B53EC102B51EC1B0BFCF733
:1041E000E6F841EC1A0BFCF75DFA2149486329EE29
:1041F000A90A08EE080A08EEE80A09EE490A10EED4
:10420000101A0846FCF70AFA41EC1C0B28EE280AA3
:1042100009EE890AF0EE000A20EE200A10EE101ACC
:104220000846FCF7FBF941EC1D0BB0EE4C1AF0EE22
:104230006C1AB0EE4D0AF0EE6D0A04F025FCB0EEFB
:1042400040BAF0EE60BA9FED0E0B53EC102B51EC20
:104250001B0BFCF7ACF841EC1A0BFCF723FA0449F2
:10426000C86301E00220D5E60020D3E6000000008C
:104270009C03002039FA8E3C6F1283410000804E6F
:104280006666666666A64C4010B500241448006851
:1042900020F4404012490860084600680860802108
:1042A0000F48FEF7B5F9FEF7DFF940210C48FEF79D
:1042B000AFF9FEF7D9F907E0601CC4B2FA2C03DDB0
:1042C000FEF79EFA012010BD80210548FEF795F902
:1042D0000028F1D140210248FEF798F90020F2E7CA
:1042E000000402402DE9F04106460F4614461D46E3
:1042F000FEF762FA002141EA4601C8B2FEF7A4FACD
:10430000FFF7C2FF20B1FEF77BFA0120BDE8F08184
:104310003846FEF799FAFFF7B7FFFEF74DFA01218D
:1043200001EB4601C8B2FEF78FFAFFF7ADFF0DE0D3
:10433000012C04D10020FEF709FA287003E00120C7
:10434000FEF704FA2870601EC4B26D1C002CEFD179
:10435000FEF756FA0020D9E72DE9F04105460E4652
:1043600017469846FEF728FA002141EA4501C8B2EF
:10437000FEF76AFAFFF788FF20B1FEF741FA012045
:10438000BDE8F0813046FEF75FFAFFF77DFF0024BD
:104390000CE018F80400FEF757FAFFF775FF18B1A4
:1043A000FEF72EFA0120EBE7601CC4B2BC42F0DB42
:1043B000FEF726FA0020E3E730B59BB005460C4631
:1043C0008748854274D10121801500F0F1FF84B93E
:1043D0000121084600F0BCFF0120139003208DF856
:1043E000500000208DF8530013A97E48FEF79AF87C
:1043F00093E0012C10D10121084600F0A9FF022012
:10440000139003208DF8500000208DF8530013A95D
:104410007448FEF787F880E0022C10D1012108468D
:1044200000F096FF0420139003208DF85000002028
:104430008DF8530013A96B48FEF774F86DE0032C58
:1044400010D10121084600F083FF082013900320BB
:104450008DF8500000208DF8530013A96148FEF735
:1044600061F85AE0042C10D10121084600F070FFD9
:104470001020139003208DF8500000208DF8530079
:1044800013A95848FEF74EF847E0052C11D1012139
:10449000084600F05DFF2020139003208DF85000A7
:1044A00000208DF8530013A94E48FEF73BF834E086
:1044B00091E0062C10D10121084600F049FF402070
:1044C000139003208DF8500000208DF8530013A99D
:1044D0004448FEF727F820E0072C10D101210846B8
:1044E00000F036FF8020139003208DF8500000204C
:1044F0008DF8530013A93B48FEF714F80DE0102C7B
:1045000003D10120FCF738FB07E0112C03D1012077
:10451000FCF732FB01E000BFFEE7002000904FF403
:1045200080300190002002904FF470600390684644
:10453000FCF768FA002015908DF8580001208DF8DE
:104540005900002017901890199001208DF86800EC
:1045500015A92348FCF784FA0121880500F0F8FE2C
:104560001F484C30059020480690002007900120FD
:104570000890002009900A904FF400600B90800092
:104580000C9040110D9040020E9000200F900120E1
:104590001090002011901290049004A91348FDF788
:1045A00083FE01211148FDF76DFD03230122214601
:1045B0002846FCF77FFA01212846FCF746FA01213C
:1045C0002846FCF737FA01212846FCF70FFA28465F
:1045D000FCF7CCFA01E000BFFEE71BB030BD0000E5
:1045E0000020014000000240AC00002010640240A6
:1045F00000BFFEE770B52DED088B42F210750A245E
:104600004FF4B476FC480078012803D00020BDECBC
:10461000088B70BDF9480078AE2803D1F748407880
:10462000EA2801D00020F2E70020F3490870F3489F
:10463000C078F349087008460078F22872D1F14832
:1046400090F8200001286DD1EC484179007901EB08
:10465000002000EE100AB8EEC00A9FEDEB1AC0EE83
:10466000010A00EE104AB8EE400A30EEC00AE448F3
:1046700080ED0D0AE148C179807901EB002000EE60
:10468000100AB8EEC00A9FEDE01AC0EE010A00EE73
:10469000104AB8EE400A30EEC00AD94880ED0E0A42
:1046A000D648417A007A01EB002000EE100AB8EEFD
:1046B000C00A9FEDD51AC0EE010A00EE104AB8EE0E
:1046C000400A30EEC00ACE4880ED0C0A0320CC49E7
:1046D00081F84100002081F82800012081F8400085
:1046E000084690ED0C0AB5EEC00AF1EE10FA0AD0B9
:1046F00090ED0C0AB0EE401ADFEDC40A9FEDC30A3C
:1047000003F0B2FAD5E1BE4890ED0E1AF0EE410A80
:1047100090ED0D1AB0EE410A9FEDBC1A03F0A4FA19
:10472000C7E1FFE7B6480078F32863D1B54890F8B1
:10473000200001285ED12046FBF72BFF41EC190B2E
:10474000AE494A79097902EB0120FBF711FF41ECF0
:104750001B0B9FEDAF0B53EC102BFBF79AFE41ECBC
:104760001A0B53EC192BFBF71CFE41EC180BFBF753
:1047700099FF00EE100AA24880ED0D0A9FEDA30AF2
:1047800080ED0E0A2046FBF704FF41EC190B9B4914
:104790004A7A097A02EB0120FBF7EAFE41EC1B0B97
:1047A0009FED9B0B53EC102BFBF773FE41EC1A0BA8
:1047B00053EC192BFBF7F5FD41EC180BFBF772FFDF
:1047C00000EE100A8E4880ED0C0A00208C4981F81A
:1047D000410081F82800012081F84000084690ED52
:1047E0000C1AF0EE410A90ED0D1AB0EE410AFDF7F9
:1047F0009BFD5EE182480078F42866D1814890F8FC
:104800002000012861D12046FBF7C3FE41EC190BC3
:104810007A494A79097902EB0120FBF7A9FE41ECBC
:104820001B0B9FED7B0B53EC102BFBF732FE41EC87
:104830001A0B53EC192BFBF7B4FD41EC180BFBF7EB
:1048400031FF00EE100A6E4880ED0D0A9FED6F0AF1
:1048500080ED0E0A2046FBF79CFE41EC190B6749E0
:104860004A7A097A02EB0120FBF782FE41EC1B0B2E
:104870009FED670B53EC102BFBF70BFE41EC1A0B73
:1048800053EC192BFBF78DFD41EC180BFBF70AFFDE
:1048900000EE100A5A4880ED0C0A0220584981F8AF
:1048A0004100002081F82800012081F840000846DE
:1048B000D0ED0C0AB0EE601AD0ED0D0AB0EE600A31
:1048C000DFED520AFCF76EF9F3E04D480078FA2864
:1048D0007ED14C4890F82000012879D14748417991
:1048E000007901EB002006EBC60101EB0611A0EBFD
:1048F0008100434908614148C179807901EB00207A
:10490000401B00B23E4948803C48417A007A01EBA6
:10491000002006EBC60101EB0611A0EB810138482F
:1049200041613648C17A807A01EB0020401B01B218
:10493000334881803148417B007B01EB002006EB4E
:10494000C60101EB0611A0EB81012D4881612B48C6
:10495000C17B807B01EB0020401B01B22848C18055
:104960002648417C007C01EB002006EBC60101EBF0
:104970000611A0EB81012248C1612048C17C807CE6
:1049800001EB0020401B01B21D4801811B48417D05
:10499000007D01EB002006EBC60101EB0611A0EB48
:1049A0008101174801621548C17D807D01EB00201F
:1049B000401B01B2124841811048417E007E01EB4C
:1049C000002006EBC60101EB0611A0EB810100E01F
:1049D00022E00B4841620948C17E807E01EB002045
:1049E000401B01B2064881810120054981F8280059
:1049F000002081F840005CE0A60000202604002092
:104A0000780200207C0100200000C8420000000065
:104A100000000000000059402E480078E12804D131
:104A20002DA12E4802F060FB43E02A480078E228DE
:104A30003FD028480078C02834D1294800794D2833
:104A400037D127484079492833D1254880794328F0
:104A50002FD12348C0794B282BD122A003F098FAFC
:104A6000012080F3138800BF00BF00BF00BF00BF5C
:104A700000BFBFF34F8F00BF00BF00BF22480068D8
:104A800000F4E06021490843001D1F49086000BF91
:104A900000BF00BFBFF34F8F00BF00BF00BF00E0EB
:104AA00000BFFDE700200B4981F8280081F8400095
:104AB000ADE50120074981F84200084690F828003A
:104AC00018B9084690F8400010B10020104908605D
:104AD00001209CE5780200204F4B0A0000100140A5
:104AE00026040020554152543120434D4420206F6C
:104AF0007843302C204E6F77207265736574204D9B
:104B00004355210A000000000CED00E00000FA050A
:104B10002800002070B504460D4616461948844208
:104B200004D13146284602F0F3FA29E016488442BF
:104B300004D13146284602F043FC21E01348844268
:104B400004D13146284602F0DDFC19E010488442C9
:104B500004D13146284602F011F911E00D48844293
:104B600004D13146284602F0B5F909E00A488442EA
:104B700004D13146284602F0DBFD01E000BFFEE72C
:104B800070BD00000010014000440040004800409B
:104B9000004C004000500040001401402DE9FC4151
:104BA00004460F4616462E48844201D1012530E0C6
:104BB0002C48844201D102252BE02B48844201D1AC
:104BC000042526E02948844201D1082521E028480F
:104BD000844201D110251CE02648844201D12025C1
:104BE00017E02548844201D1402512E02348844241
:104BF00001D180250DE02248844201D1851508E0CD
:104C00002048844201D1451503E01F48844200D169
:104C100005150121284600F09BFB00978DF80460E4
:104C2000012E09D100208DF8060001208DF8070023
:104C300000208DF8050006E02EB901208DF8070050
:104C400000208DF8050069462046FDF76BFC012E1B
:104C500003D139462046FDF7DBFCBDE8FC810000AE
:104C6000000002400004024000080240000C024024
:104C7000001002400014024000180240001C0240D4
:104C800000200240002402400028024000B58FB0FE
:104C90000121880500F05CFB1848FDF7FFF900BF13
:104CA0001648FDF7A7FA0028FAD14FF000600090EF
:104CB000134801901348029000200390282004908C
:104CC000002005904FF48060069000200790089027
:104CD0004FF48070099000020A9000200B9003208E
:104CE0000C9000200D900E9069460448FDF7DCFA08
:104CF00001210248FDF7C6F90FB000BD4064024033
:104D000004100140260A002000B58FB0012188055B
:104D100000F01EFB1648FDF7C1F900BF1448FDF76F
:104D200069FA0028FAD14FF0006000901148019014
:104D3000114802904020039000010490002005904B
:104D40004FF48060069000200790089009904FF47F
:104D500080300A9000200B9003200C9000200D90D2
:104D60000E9069460248FDF79FFA0FB000BD0000A3
:104D7000B8640240041001402606002000B58FB040
:104D80000121480500F0E4FA1848FDF787F900BF53
:104D90001648FDF72FFA0028FAD14FF00060009076
:104DA00013480190134802900020039019200490AA
:104DB000002005904FF48060069000200790089036
:104DC00009904FF480300A9000200B9003200C9043
:104DD00000200D900E9069460448FDF765FA012108
:104DE0000248FDF74FF90FB000BD00008860024097
:104DF000044400404E0A002000B58FB00121480550
:104E000000F0A6FA1848FDF749F900BF1648FDF76B
:104E1000F1F90028FAD14FF000600090134801909A
:104E20001348029040200390000104900020059058
:104E30004FF48060069000200790089009904FF48E
:104E400080300A9000200B9003200C9000200D90E1
:104E50000E9069460448FDF727FA01210248FDF744
:104E600011F90FB000BD0000A060024004440040F2
:104E70002606002000B58FB00121480500F068FA31
:104E80001848FDF70BF900BF1648FDF7B3F90028E5
:104E9000FAD14FF00060009013480190134802903F
:104EA0000020039028200490002005904FF480609B
:104EB000069000200790089009904FF480300A90E7
:104EC00000200B9003200C9000200D900E9069465E
:104ED0000448FDF7E9F901210248FDF7D3F80FB0C6
:104EE00000BD00002860024004480040260A00205F
:104EF00000B58FB00121480500F02AFA1848FDF7E7
:104F0000CDF800BF1648FDF775F90028FAD14FF02B
:104F100000600090134801901348029040200390D5
:104F200000010490002005904FF48060069000205E
:104F30000790089009904FF480300A9000200B9061
:104F400003200C9000200D900E9069460448FDF758
:104F5000ABF901210248FDF795F80FB000BD000044
:104F600058600240044800402606002000B58FB07B
:104F70000121880500F0ECF91848FDF78FF800BF13
:104F80001648FDF737F90028FAD14FF0206000905D
:104F900013480190134802900020039028200490A9
:104FA000002005904FF48060069000200790089044
:104FB00009904FF480300A9000200B9003200C9051
:104FC00000200D900E9069460448FDF76DF901210F
:104FD0000248FDF757F80FB000BD000028640240FA
:104FE00004140140260A002000B58FB00121880575
:104FF00000F0AEF91848FDF751F800BF1648FDF76C
:10500000F9F80028FAD14FF0206000901348019081
:105010001348029040200390000104900020059066
:105020004FF48060069000200790089009904FF49C
:1050300080300A9000200B9003200C9000200D90EF
:105040000E9069460448FDF72FF901210248FDF74B
:1050500019F80FB000BD0000A06402400414014024
:1050600026060020F8B504460F46002239462046A1
:10507000FFF750FD7B4884422DD17B4D7A4E783E20
:10508000FFF742FE4FF4E06000F036F946208DF85D
:10509000000003208DF8010001208DF8020000209F
:1050A0008DF80300684600F0EBF8FFF7EFFD4FF4D2
:1050B000E06000F021F93A208DF8000003208DF81F
:1050C000010000208DF8020001208DF803006846E1
:1050D00000F0D6F892E0654884422DD1644D644ECC
:1050E000183EFFF789FE4FF4E06000F005F911204B
:1050F0008DF8000003208DF8010001208DF80200DA
:1051000000208DF80300684600F0BAF8FFF736FE7D
:105110004FF4E06000F0F0F810208DF8000003205C
:105120008DF8010000208DF8020001208DF80300A9
:10513000684600F0A5F861E04E4884422ED14C4DFF
:10514000483D4B4E783EFFF7D3FEFFF793FE4FF4FA
:10515000E06000F0D1F80E208DF8000003208DF8FB
:10516000010001208DF8020000208DF80300684640
:1051700000F086F84FF4E06000F0BEF80C208DF8E7
:10518000000003208DF8010000208DF802000120AE
:105190008DF80300684600F073F82FE0364884422B
:1051A0002AD1314D183D304E903EFFF71DFFFFF7DD
:1051B000DDFE4FF4A06000F09FF845208DF8000060
:1051C00003208DF8010001208DF8020000208DF8E9
:1051D0000300684600F054F839208DF800000320E1
:1051E0008DF8010000208DF8020001208DF80300E9
:1051F000684600F045F801E000BFFEE701212846BF
:10520000FCF740FF00BF2846FCF7F4FF0128FAD165
:1052100001213046FCF736FF00BF3046FCF7EAFFBD
:105220000128FAD101228021204602F0F3FB01225D
:105230004021204602F0EEFB012210212846FDF716
:1052400015F8012210213046FDF710F800228021C8
:10525000204602F0DFFB00224021204602F0DAFB6C
:10526000F8BD000000100140B86402400044004056
:10527000A060024000480040001401407047000058
:1052800070B5002100230F22C4781CB3174C24688A
:1052900004F4E064C4F5E064C4F30721C1F104043C
:1052A000E3B20A4144789C40E1B28478144021433F
:1052B0000C07210E0E4C05786155047804F01F058B
:1052C0000124AC4005786D11AD0005F1E025C5F86D
:1052D000004109E0047804F01F050124AC40054DAD
:1052E0000678761145F8264070BD00000CED00E010
:1052F00000E400E080E100E002490143024A11605D
:10530000704700000000FA050CED00E000BF00BF90
:1053100000BFBFF34F8F00BF00BF00BF0948006848
:1053200000F4E06008490843001D0649086000BF1A
:1053300000BF00BFBFF34F8F00BF00BF00BF00E042
:1053400000BFFDE70CED00E00000FA05704700002B
:1053500029B1064A12680243044B1A6004E0034A6A
:1053600012688243014B1A607047000030380240D7
:1053700029B1064A12680243044B1A6004E0034A4A
:1053800012688243014B1A607047000040380240A7
:1053900029B1064A12680243044B1A6004E0034A2A
:1053A00012688243014B1A607047000020380240A7
:1053B00029B1064A12680243044B1A6004E0034A0A
:1053C00012688243014B1A60704700004438024063
:1053D00029B1064A12680243044B1A6004E0034AEA
:1053E00012688243014B1A60704700002438024063
:1053F000F0B5002100220024022500260223324FAE
:105400003F6807F00C0121B1042905D0082937D1E4
:1054100005E02E4F076036E02D4F076033E02A4F3E
:105420003F1F3F68C7F38056274F3F1F3F6807F075
:105430003F036EB1264FB7FBF3F7DFF88CC0ACF13A
:10544000040CDCF800C0CCF3881C07FB0CF40CE067
:105450001E4FB7FBF3F7DFF870C0ACF1040CDCF8BB
:1054600000C0CCF3881C07FB0CF4174F3F1F3F68AC
:10547000C7F301477F1C7D00B4FBF5F7076002E02E
:10548000124F076000BF00BF0F4F3F6807F0F001E9
:105490000909104F7A5C0768D74047600A4F3F6898
:1054A00007F4E051890A0B4F7A5C4768D740876060
:1054B000054F3F6807F46041490B064F7A5C476827
:1054C000D740C760F0BD0000083802400024F40057
:1054D00000127A001400002070B50025FE4C0CB9B3
:1054E000002070BDFD4890F83600012851D1207889
:1054F000617840EA0120C0F30A00F849088060782A
:10550000C010A17840EA4110C0F30A00F349488076
:10551000A0788011E17840EA8100217940EA812079
:10552000C0F30A00ED49888020794010617940EA93
:10553000C110C0F30A00E949C880607900118008F1
:1055400081F820006079C0F3011081F82100A07972
:10555000E17940EA0120E14981F82200207A617A6C
:1055600040EA0120DD4981F82300A07AE17A40EA8F
:105570000120DA4981F82400207B81F82500607B36
:1055800081F82600A07B81F82700012081F83500F2
:1055900037E2D24890F8360002287CD120780F28D4
:1055A00005D1207E18B9E07D08B9002520E0CB4860
:1055B00090F83700B8B9CAA002F0EAFC002505E06F
:1055C000615DCAA002F0E4FC681CC5B2192DF7DBCE
:1055D000C8A002F0DDFCC8A002F0DAFC012003F054
:1055E0005EFCFFF793FECDA002F0D2FC002078E72E
:1055F000681C192190FBF1F201FB1200215CA81C30
:10560000192290FBF2F302FB1300205C41EA002018
:10561000C0F30A00B1490880A81C192190FBF1F2DF
:1056200001FB1200205CC110E81C192290FBF2F370
:1056300002FB1300205C41EA4010C0F30A00A749B6
:105640004880E81C192190FBF1F201FB1200205C5C
:105650008111281D192290FBF2F302FB1300205C3C
:1056600041EA8001681D90FBF2F302FB1300205C0D
:1056700041EA8020C0F30A0098498880681D1921FA
:1056800090FBF1F201FB1200205C4110A81D1922D1
:1056900090FBF2F300E0ACE102FB1300205C41EA76
:1056A000C010C0F30A008D49C880A81D192190FBC5
:1056B000F1F201FB1200205C0111E81D192290FBA0
:1056C000F2F302FB1300205C41EA0010C0F30A0071
:1056D00082490881E81D192190FBF1F201FB1200BB
:1056E000205CC11105F10800192290FBF2F302FBC6
:1056F0001300205C41EA400105F1090090FBF2F340
:1057000002FB1300205C41EA4020C0F30A00734909
:10571000488105F10900192190FBF1F201FB12000B
:10572000205C811005F10A00192290FBF2F302FBC4
:105730001300205C41EA8010C0F30A0067498881A9
:1057400005F10A00192190FBF1F201FB1200205C27
:10575000411105F10B00192290FBF2F302FB13003B
:10576000205C41EAC0005D49C88105F10C001921A7
:1057700090FBF1F201FB1200215C05F10D001922F2
:1057800090FBF2F302FB1300205C41EA0020C0F31F
:105790000A005249088205F10D00192190FBF1F22F
:1057A00001FB1200205CC11005F10E00192290FBD4
:1057B000F2F302FB1300205C41EA4010C0F30A0040
:1057C0004649488205F10E00192190FBF1F201FBD8
:1057D0001200205C811105F10F00192290FBF2F3F9
:1057E00002FB1300205C41EA800105F1100090FBF0
:1057F000F2F302FB1300205C41EA8020C0F30A00B0
:105800003649888205F11000192190FBF1F201FB65
:105810001200205C411005F11100192290FBF2F3F7
:1058200002FB1300205C41EAC010C0F30A002B49C0
:10583000C88205F11100192190FBF1F201FB120061
:10584000205C011105F11200192290FBF2F302FB1A
:105850001300205C41EA0010C0F30A001F490883CE
:1058600005F11200192190FBF1F201FB1200205CFE
:10587000C11105F11300192290FBF2F302FB130092
:10588000205C41EA400105F1140090FBF2F302FBB9
:105890001300205C41EA4020C0F30A000F4948830E
:1058A00005F11400192190FBF1F201FB1200205CBC
:1058B000811005F11500192290FBF2F302FB130091
:1058C000205C41EA8010C0F30A000449888305F196
:1058D0001500192140E000004E0A00207C01002044
:1058E0005342555320646174613A2000202030787F
:1058F00025327800200D0A0053425553206672610C
:105900006D206865616420213D20307830662C2050
:105910007265736574204D43552E0A0052554E2012
:1059200073746174653A2020534255532066726146
:105930006D206865616420213D20307830662C2020
:105940007468726F77206177617920746869732059
:105950006672616D0A00000090FBF1F201FB12001B
:10596000205C411105F11600192290FBF2F302FBB5
:105970001300205C41EAC0006349C8830846B0F9BF
:105980000C0040F2DC51884204DD03205E4981F8BE
:1059900020000EE05C48B0F90C00B0F5FA7F04DAA4
:1059A0000120594981F8200003E00220564981F87E
:1059B00020005548B0F9080040F2DC51884204DD6F
:1059C0000220514981F821000EE04F48B0F908004B
:1059D000B0F5FA7F04DA01204B4981F8210003E099
:1059E0000320494981F821000120474981F8350009
:1059F00007E00120444981F83500002081F8340097
:105A00006FE5414890F83700002831D13FA002F0FF
:105A1000BFFA00203C4981F8340000F0EFF950B1A2
:105A20000220394981F83400012081F837003AA07A
:105A300002F0AEFA1AE00120334981F83400002068
:105A400081F8370038A002F0A3FA3A480078401CE9
:105A500038490870084600781E2807DD36A002F095
:105A600097FA012003F01BFAFFF750FC002038E5FD
:105A70002548B0F9000040F6C41188422CDC2248C9
:105A8000B0F90000642827DB1F48B0F90200884203
:105A900022DC1D48B0F9020064281DDB1A48B0F969
:105AA0000400884218DC1848B0F90400642813DBAD
:105AB000154890F8200003280EDC134890F82000C9
:105AC000012809DB104890F82100032804DC0E4867
:105AD00090F8210001280ADA1EA002F059FA00F01D
