:020000040800F2
:10000000B80D002045010008054000080740000821
:100010000B4000080F4000081340000800000000DB
:100020000000000000000000000000001740000871
:1000300019400008000000001B4000083143000880
:100040005F0100085F0100085F0100085F01000810
:100050005F0100085F010008434300085F010008DA
:100060005F0100085F0100085F0100085F010008F0
:100070005F0100085F0100085F0100086D43000890
:100080005F0100085F0100085F0100085F010008D0
:10009000B14300085F0100085F01000855430008F4
:1000A0005F0100085F0100085F0100085F010008B0
:1000B0001D400008AD4000085F0100085F01000816
:1000C0005F0100085F0100085F0100085F01000890
:1000D0005F010008CD400008F7400008AD4200086D
:1000E0005F0100085F0100085F0100085F01000870
:1000F0005F0100085F0100085F0100085F01000860
:100100005F0100086B4300085F0100085F01000801
:100110005F0100085F0100085F0100085F0100083F
:100120005F0100085F0100085F0100085F0100082F
:10013000DFF80CD00CF050FD00480047F9390008FA
:10014000B80D00200648804706480047FEE7FEE756
:10015000FEE7FEE7FEE7FEE7FEE7FEE7FEE7FEE777
:1001600047020008310100080CB500200190009002
:100170006C48006840F480306A49086000BF6948F4
:10018000006800F4003000900198401C0190009835
:1001900018B90198B0F5A06FF1D16248006800F479
:1001A000003010B10120009001E000200090009884
:1001B000012843D15C48006840F010005A490860AB
:1001C0000846006820F0030008600846006840F018
:1001D0000200086053484068524948600846406839
:1001E00048600846406840F48060486008464068BF
:1001F00020F47C1048600846406840F4E8104860ED
:100200000846006840F08070086000BF45480068FC
:1002100000F000700028F9D04248406820F0030048
:10022000404948600846406840F00200486000BF0E
:100230003C48406800F00C000828F9D10CBD10B50E
:10024000FFF792FF10BD10B53648006840F001007E
:1002500034490860084640683449084031494860DC
:1002600008460068324908402E4908600846006880
:1002700020F4802008600846406820F4FE004860B2
:100280004FF41F008860FFF7DAFF4FF00060294944
:10029000086010BD10B5002100200022214B5B68D2
:1002A00003F00C0121B1042906D0082928D107E068
:1002B000214B224C236027E01F4B204C236023E07E
:1002C000184B5B6803F47010164B5B6803F48032C4
:1002D000022303EB904022B9194B4343174C236090
:1002E0000DE0104B5B6803F4003323B1144B434320
:1002F000124C236003E0104B4343104C236003E097
:100300000D4B0E4C236000BF00BF064B5B68C3F370
:1003100003130C4CE15C094B1B68CB40074C23607A
:1003200010BD000000100240002002400000FFF855
:10033000FFFFF6FE08ED00E000127A00000000204A
:1003400000093D000400002031490143314A116099
:10035000704770B5002100230F22C47804B32D4CE0
:10036000246804F4E064C4F5E064210AC1F10403E4
:10037000CA40447804FA03F1847814402143090107
:10038000254C0678A155047804F01F050124AC40E3
:1003900005786D11AD0005F1E025C5F8004109E0D3
:1003A000047804F01F050124AC401C4D067876113A
:1003B00045F8264070BD1A4A0A400243154B1B1FE0
:1003C0001A60704739B1134A121D12680243114B6B
:1003D0001B1D1A6006E00F4A121D126882430D4B66
:1003E0001B1D1A607047042808D14FF0E0210969ED
:1003F00041F004014FF0E022116107E04FF0E021ED
:10040000096921F004014FF0E022116170470000FA
:100410000000FA050CED00E000E400E080E100E0FF
:1004200080FFFF1F1AB143690B43436102E0436938
:100430008B434361704710B50021837A012202FA91
:1004400003F1FB4A126842F00102F94B1A60F84AC4
:100450001C3212688A43F64B1C331A60027BCAB9FD
:10046000F34A0C3212688A43F14B0C331A6042880B
:10047000C38842EA0343EE4A4032847A42F8343079
:100480000288838842EA0343E94A4032847A02EBD5
:10049000C4025360027B012A19D1E54A0C3212686A
:1004A0000A43E34B0C331A604288038842EA034351
:1004B000DF4A4032847A42F83430C288838842EA84
:1004C0000343DB4A4032847A02EBC4025360C27AAF
:1004D0003AB9D74A121D12688A43D54B1B1D1A60C0
:1004E00006E0D34A121D12680A43D14B1B1D1A6045
:1004F000028932B9CE4A143212688A43CC4B143383
:100500001A600289012A06D1C94A143212680A43C4
:10051000C74B14331A60427B012A06D1C44A1C32ED
:1005200012680A43C24B1C331A60C14A126822F097
:100530000102BF4B1A6010BD30B5024600200023F7
:10054000146824F002041460146844F00104146078
:1005500000E05B1C546804F001041CB94FF6FF7402
:10056000A342F6D1546804F001040CB900206CE0F9
:100570008C79012C04D1146844F08004146003E0E9
:10058000146824F080041460CC79012C04D1146820
:1005900044F04004146003E0146824F04004146044
:1005A0000C7A012C04D1146844F02004146003E098
:1005B000146824F0200414604C7A012C04D11468CF
:1005C00044F01004146003E0146824F01004146074
:1005D0008C7A012C04D1146844F00804146003E000
:1005E000146824F008041460CC7A012C04D1146837
:1005F00044F00404146003E0146824F0040414605C
:100600008C78A407CD7844EA05640D7944EA054462
:100610004D7944EA05540D886D1E2C43D46114684D
:1006200024F001041460002300E05B1C546804F013
:1006300001041CB14FF6FF74A342F6D1546804F0D4
:1006400001040CB1002000E0012030BD00218171C7
:10065000C171017241728172C1728170C1700321D6
:1006600001710221417101210180704710B50446DA
:100670007048844209D10121480601F08CFE002116
:100680004FF0007001F087FE08E00121880601F0BC
:1006900082FE00214FF0806001F07DFE10BD10B59C
:1006A0008AB004460121092001F04EFE01214806CE
:1006B00001F057FE01214FF4EA1001F0DAF84FF48F
:1006C0008070ADF8240048208DF8270003208DF8B5
:1006D000260009A9584800F00BFE4FF40070ADF851
:1006E000240018208DF8270003208DF8260009A982
:1006F000514800F0FDFD4FF4E060FFF725FE1420A7
:100700008DF8200000208DF8210004208DF82200B3
:1007100001208DF8230008A8FFF71BFE4548FFF7CE
:10072000A5FF05A8FFF792FF00208DF81A00012011
:100730008DF81B008DF81C0000208DF81D008DF831
:100740001E008DF81F008DF8160001208DF817008F
:1007500005208DF8180002208DF819000420ADF84E
:10076000140005A93348FFF7E7FE00208DF80E00BE
:100770008DF80F0001208DF81000C4F34F30ADF854
:100780000400042000EBC40080B2ADF806004FF670
:10079000FF70ADF80800ADF80A000020ADF80C00BD
:1007A00001208DF8110001A8FFF745FE012202216A
:1007B0002048FFF737FE0AB010BD10B502460020F2
:1007C000936803F08063B3F1806F00D110E0936809
:1007D00003F00063B3F1006F01D1012008E09368DA
:1007E00003F08053B3F1805F01D1022000E00420C8
:1007F00004287AD002F5C07303EB00131B6803F0E2
:10080000010402F5C07303EB00131C600B7AABB953
:100810004B7A0C8843EA445302F5C07404EB00148D
:100820002468234302F5C07404EB0014236016E02F
:100830000066004000640040000C01400B7A4C68E8
:1008400043EAC4034C7A234302F5C07404EB00145A
:100850002468234302F5C07404EB001423608B7AF0
:1008600003F00F038B7202F5C07303EB00135B6898
:1008700023F00F0402F5C07303EB00135C6002F574
:10088000C07303EB00135B688C7A234302F5C074DA
:1008900004EB001463608B7B1C064B7B44EA03442F
:1008A0000B7B44EA0323CC7A234302F5C07404EBA8
:1008B0000014A3608B7C1C064B7C44EA03440B7C35
:1008C00044EA0323CC7B234302F5C07404EB0014F9
:1008D000E36002F5C07303EB00131B6843F00104EF
:1008E00002F5C07303EB00131C6010BD2DE9F0414D
:1008F00085B080460F4614461D4600260197042009
:100900008DF8080000208DF809008DF80A5000BF0E
:1009100006E021780DF10B008155641C701CC6B2F5
:10092000AE42F6DB69464046FFF747FF05B0BDE83B
:10093000F081F749096841F00101F54A116011465B
:10094000096843F60E729143F14A11601146096835
:1009500041EA002111601146096821F0010111608E
:10096000704721B1026842F48032026003E00268FD
:1009700022F4803202607047E1B1026842F08002E6
:1009800002604FF4C272125842F480734FF4C27284
:1009900013504FF4CA72125842F480734FF4CA7263
:1009A00013504FF4D272125842F480734FF4D27243
:1009B00013501BE0026822F0800202604FF4C27202
:1009C000125822F480734FF4C27213504FF4CA725B
:1009D000125822F480734FF4CA7213504FF4D2723B
:1009E000125822F480734FF4D2721350704710B52E
:1009F0000246002321B1012907D002290FD109E0C5
:100A00009068C44C00EA04030BE09068C24C00EA12
:100A1000040306E09068C14C00EA040301E00023EF
:100A200000BF00BFBE4C181BA34216D007DC83B129
:100A30006FF08060184470B1022818D111E0B0F551
:100A4000007F10D0B74C204448B1B0F5003F0ED124
:100A50000BE002230DE000230BE0002309E000235C
:100A600007E0012305E0012303E0012301E0002367
:100A700000BF00BFD8B210BD21B1012907D00229A3
:100A80000FD109E0826842F0800282600AE0826849
:100A900042F40042826005E0826842F40002826013
:100AA00000E000BF00BF704710B500F5D87303EB3E
:100AB00001131B6803F004031372137A53B900F592
:100AC000D87303EB01131B6840F2FF7404EA53531D
:100AD000136009E000F5D87303EB01131B686FF096
:100AE000604404EAD303536000F5D87303EB0113A9
:100AF0001B6803F00203537200F5D87303EB011374
:100B00005B6803F00F03937200F5D87303EB0113D6
:100B10005B681B0AD37400F5D87303EB01139B6861
:100B2000D37200F5D87303EB01139B681C0A14738E
:100B300000F5D87303EB01139B681C0C547300F58C
:100B4000D87303EB01139B681B0E937300F5D873E6
:100B500003EB0113DB68D37300F5D87303EB0113C8
:100B6000DB681C0A147400F5D87303EB0113DB680F
:100B70001C0C547400F5D87303EB0113DB681B0ED7
:100B8000937421B9C36843F02003C36003E0036991
:100B900043F02003036110BD21B9C26842F0200276
:100BA000C26003E0026942F020020261704702461F
:100BB000002019B9D36803F0030006E0012903D12E
:100BC000136903F0030000E00020704710B50246EF
:100BD0000B4600204FF6FF71BBB9146824F00204E5
:100BE00044F00104146000E0491E546804F003045A
:100BF000012C01D00029F7D1546804F00304012C22
:100C000001D0002032E0012030E0012B13D1146824
:100C100024F00304146000E0491E546804F0030447
:100C20000CB10029F8D1546804F003040CB1002081
:100C30001CE001201AE0022B17D1146824F00104F3
:100C400044F00204146000E0491E546804F00304F8
:100C5000022C01D00029F7D1546804F00304022CBF
:100C600001D0002002E0012000E0002010BD01467C
:100C700000200A6822F0010242F002020A604A687B
:100C800002F00302022A00D10120704701464FF60C
:100C9000FF7200200B6823F002030B6000E0521E7D
:100CA0004B6803F00203022B01D1002AF7D14B68F5
:100CB00003F00203022B00D0012070470146002000
:100CC0008A6902F070007047014600208A69100EA0
:100CD0007047014600208A69C2F30740704710B58B
:100CE0000246002001F4700343B19369C1F3130479
:100CF00023400BB1012039E0002037E001F0807380
:100D0000A3B15368C1F3130423406BB101202DE05C
:100D10000066004003000004000300080000031008
:100D2000000100080001FFF700201FE001F0006350
:100D300043B19368C1F3130423400BB1012015E0C4
:100D4000002013E001F0007343B1D368C1F3130432
:100D500023400BB1012009E0002007E01369C1F333
:100D6000130423400BB1012000E0002010BD00223D
:100D7000804B994202D10023836111E0C1F3130239
:100D800001F000730BB1C2600AE001F080630BB1A7
:100D9000026105E001F000630BB1826000E0426097
:100DA00070470246002002EA01030BB1012000E077
:100DB0000020704770B504460D4600266069284043
:100DC000002871D0B5F5807F5CD010DC082D35D0BF
:100DD00006DC012D20D0022D24D0042D72D127E075
:100DE000102D31D0202D35D0402D6BD138E0B5F508
:100DF000004F60D009DCB5F5007F49D0B5F5806FB4
:100E00004CD0B5F5006F5DD14FE0B5F5803F2DD0EA
:100E1000B5F5003F56D12FE0A0685749FFF7C1FF55
:100E2000064651E0E0680321FFF7BBFF06464BE0B2
:100E3000E0680821FFF7B5FF064645E0E0681021AD
:100E4000FFF7AFFF06463FE020690321FFF7A9FF48
:100E5000064639E020690821FFF7A3FF064633E084
:100E600020691021FFF79DFF06462DE060680821EC
:100E7000FFF797FF064627E060681021FFF791FF14
:100E8000064621E0A0690121FFF78BFF06461BE023
:100E9000A0690221FFF785FF064615E0A06904213D
:100EA000FFF77FFF06460FE00FE0A0697021FFF714
:100EB00078FF064608E060680421FFF772FF0646E7
:100EC00002E0FFE7002600BF00E00026304670BDCC
:100ED000B1F5007F3AD00FDC202928D006DC0129AB
:100EE0001CD004291DD0082940D11DE0402921D063
:100EF000B1F5807F3AD126E0B1F5004F31D006DC64
:100F0000B1F5806F25D0B1F5006F2FD124E0B1F598
:100F1000803F12D0B1F5003F28D111E0164A82601F
:100F200025E00822C26022E01022C2601FE00822F1
:100F300002611CE01022026119E00822426016E002
:100F40001022426013E00422426010E0042242605A
:100F50000DE0042242600AE0002282610422426025
:100F600005E0002282610422426000E000BF00BF71
:100F7000704700007000F0300101010001684FF679
:100F8000FE72114001600021016041608160C1601A
:100F90008D49884208D18C490839496841F00F01D0
:100FA000894A083A51608AE087491431884208D159
:100FB00085490839496841F0F001834A083A51608F
:100FC0007DE081492831884208D17F490839496844
:100FD00041F470617C4A083A516070E07A493C31D2
:100FE000884208D178490839496841F47041764A05
:100FF000083A516063E074495031884208D172491F
:101000000839496841F470216F4A083A516056E046
:101010006D496431884208D16B490839496841F407
:101020007001694A083A516049E06749783188425D
:1010300008D165490839496841F07061624A083A47
:1010400051603CE06149884206D1011F096841F0C6
:101050000F01021F116032E05C491431884208D14F
:101060005A49091F096841F0F001584A121F1160DE
:1010700025E056492831884208D15449091F09689A
:1010800041F47061514A121F116018E04F493C3120
:10109000884208D14D49091F096841F470414B4A03
:1010A000121F11600BE049495031884207D147496E
:1010B000091F096841F47021444A121F11607047EA
:1010C00010B50022026847F6F0739A430C6A8B68E9
:1010D00023430C6923434C6923438C692343CC6924
:1010E00023434C6A23438C6A23431A430260CB6830
:1010F00043600B6883604B68C36010BD00210160D2
:1011000041608160C160016141618161C1610162D1
:1011100041628162704721B1026842F001020260BF
:1011200004E002684FF6FE731A40026070471AB17D
:1011300003680B43036002E003688B43036070475E
:10114000416070470146486880B270470146002000
:10115000002201F080531BB11C4B083B1A6802E0CF
:10116000194B083B1A6802EA01030BB1012000E0A9
:101170000020704700F0805119B11449091F086020
:1011800002E01149083948607047014600200022FA
:1011900001F080531BB10D4B083B1A6802E00A4B6B
:1011A000083B1A6802EA01030BB1012000E00020AD
:1011B000704700F0805119B10449091F086002E02E
:1011C000014908394860704708000240080402409D
:1011D000002044490860091D0860091D0860091DB8
:1011E000086041483F4914310860704700213D497B
:1011F0008279002A3AD00A46126803689A430B465D
:101200001A600A1D126803689A430B1D1A6002795E
:1012100011440A6803681A430A60324A08321268A5
:1012200003689A432F4B08331A601A1D126803682B
:101230009A432C4B0C331A604279102A0ED11A1F94
:10124000126803681A43274B08331A601A1D126884
:1012500003681A43234B0C331A600DE0214942798D
:1012600011440A6803681A430A6005E002791144D0
:101270000A6803689A430A6070470021016001719F
:101280000C214171002181717047164910310968A4
:101290000143144A10321160704701460020114A80
:1012A000143212680A400AB1012000E000207047A1
:1012B0000C49143108607047014600200022094B98
:1012C0001B6803EA0102074B14331B680B4013B180
:1012D0000AB1012000E00020704702491431086083
:1012E0007047000000040140FFFF0F0001617047DC
:1012F0002DE9F041024600250026002000230024AD
:10130000002791F803C00CF00F0591F803C00CF012
:10131000100CBCF1000F03D091F802C04CEA050597
:1013200091F800C0BCF1000F31D0146800202BE010
:101330004FF0010C0CFA00F3B1F800C00CEA030600
:101340009E4220D183004FF00F0C0CFA03F7BC43F0
:1013500005FA03FC4CEA040491F803C0BCF1280F21
:1013600006D14FF0010C0CFA00FCC2F814C00AE0E0
:1013700091F803C0BCF1480F05D14FF0010C0CFAF5
:1013800000FCC2F810C0401C0828D1D31460B1F88A
:1013900000C0BCF1FF0F34DD546800202EE000F1E6
:1013A000080C4FF0010808FA0CF3B1F800C00CEA81
:1013B00003069E4221D183004FF00F0C0CFA03F775
:1013C000BC4305FA03FC4CEA040491F803C0BCF1E9
:1013D000280F05D100F1080C08FA0CF8C2F81480A7
:1013E00091F803C0BCF1480F07D100F1080C4FF091
:1013F000010808FA0CF8C2F81080401C0828CED367
:101400005460BDE8F0812DE9F84305460F461446C7
:101410009846F848854201D104261CE0F6488542EA
:1014200001D1082617E0F548854201D1102612E0C7
:10143000F348854201D120260DE0F248854201D1D2
:10144000402608E0F048854201D1802603E0EF48BD
:10145000854200D186150121304600F075FFADF8B8
:1014600000708DF80340142C05D0102C03D01C2CD8
:1014700001D0182C01D18DF8028069462846FFF76B
:1014800037FF142C05D0102C03D01C2C01D0182CA5
:1014900003D139462846FFF729FFBDE8F883C26823
:1014A0004A40C260704730B500228B071C0F0F23E3
:1014B00003FA04F2D64B8C1053F824309343D44CE7
:1014C0008D1044F8253023468C1053F824308C07B7
:1014D000240F00FA04F42343CD4C8D1044F825303A
:1014E00030BD2DE9FF4706460C469146C14886426D
:1014F00003D104274FF0000828E0BF48864203D1FB
:1015000008274FF0010821E0BC48864203D110278C
:101510004FF002081AE0BA48864203D120274FF064
:10152000030813E0B748864203D140274FF0040870
:101530000CE0B548864203D180274FF0050805E04E
:10154000B248864202D187154FF0060847F00100E5
:10155000012100F0F9FE012C06D106208DF80000D3
:1015600000250120019094E0022C06D107208DF87F
:1015700000000125022001908BE0042C06D10820F8
:101580008DF8000002250420019082E0082C06D18D
:1015900009208DF8000003250820019079E0102C27
:1015A00006D10A208DF8000004251020019070E07B
:1015B000202C06D117208DF8000005252020019051
:1015C00067E0402C06D117208DF80000062540204A
:1015D00001905EE0802C06D117208DF800000725D1
:1015E0008020019055E0B4F5807F06D117208DF85A
:1015F00000000825680101904BE0B4F5007F07D199
:1016000017208DF8000009254FF40070019040E08C
:10161000B4F5806F07D128208DF800000A254FF41B
:101620008060019035E0B4F5006F07D128208DF877
:1016300000000B254FF4006001902AE0B4F5805FB4
:1016400007D128208DF800000C254FF48050019020
:101650001FE0B4F5005F07D128208DF800000D25AC
:101660004FF40050019014E0B4F5804F07D12820CA
:101670008DF800000E254FF48040019009E0B4F58C
:10168000004F06D128208DF800000F254FF40040B0
:1016900001904FF4C060FEF757FE00208DF8010066
:1016A0008DF8020001208DF803006846FEF751FE18
:1016B000ADF80C4048208DF80F0003A94D48FFF706
:1016C00017FE29464046FFF7EEFEB9F1000F03D1A1
:1016D00008208DF809000CE0B9F1010F03D10C20AE
:1016E0008DF8090005E0B9F1020F02D110208DF844
:1016F000090000208DF8080001208DF80A0001A8DB
:10170000FFF774FDBDE8FF8710B5044639488442F1
:1017100008D10121042000F031FE0021042000F056
:101720002DFE46E03448844208D10121082000F013
:1017300025FE0021082000F021FE3AE02F488442D7
:1017400008D10121102000F019FE0021102000F026
:1017500015FE2EE02A48844208D10121202000F005
:101760000DFE0021202000F009FE22E025488442E1
:1017700008D10121402000F001FE0021402000F0AE
:10178000FDFD16E02048844208D10121802000F0B0
:10179000F5FD0021802000F0F1FD0AE01B488442A5
:1017A00007D10121801500F0E9FD0021A01500F00E
:1017B000E5FD10BD10B50121084600F0DFFD002158
:1017C000012000F0DBFD10BD4FF6FF71018002210A
:1017D00081700421C17070470246002093680B405D
:1017E0000BB1012000E0002070470146886880B2FC
:1017F0007047000000080140000C0140001001404B
:101800000014014000180140001C0140002001406C
:101810000800014002460020D3680B400BB10120B4
:1018200000E0002070470146C86880B270474161FF
:1018300070470AB1016100E041617047C1607047C3
:101840004FF480320A4382618161826182698269D8
:101850007047024600202B4B18684FF680731840E3
:1018600040EA02100843274B186070472649C861B8
:101870007047F0B50A46002300240021002500F03F
:101880000046B6F1004F02D11E4EF16901E01D4E37
:101890007168C0F3034583B200F44016B6F5401FEB
:1018A00008D121F07061174E766826F07066154FEA
:1018B0007E6012E000F48016B6F5801F06D1032684
:1018C00006FA05F4A14341F0706106E0460D3601C9
:1018D00003FA06F6B14341F0706122B1460D3601BC
:1018E00003FA06F6314300F00046B6F1004F02D18C
:1018F000044EF16101E0034E7160F0BD0249DC313C
:101900000860704700000140000020421AB183883F
:101910000B43838002E083888B438380704721B12F
:10192000028842F00102028004E002884FF6FE7352
:101930001A40028070472DE9F04385B004460D46F9
:101940000026B1460427DFF8F083A6884FF6C07062
:101950000640684600F08BFCDDF80880F748B8FBCD
:10196000F0F01FFA80F946EA0906A68020884FF6B3
:10197000FE71084020800026F149286888420CD872
:1019800028684000B8FBF0F087B2042F00DA042783
:101990003E4309F10100208427E0E8884BF6FF71FF
:1019A000884206D1286800EB4000B8FBF0F087B20F
:1019B00009E0286800EBC00101EB0010B8FBF0F073
:1019C00087B247F48047C7F30B0008B947F0010717
:1019D00047F4004006434FF4967009FB00F04FF4C3
:1019E0007A7190FBF1F0401C2084A683208840F09F
:1019F0000100208026884FF6F5300640A8886989C6
:101A0000084306432680A88929890843208105B018
:101A1000BDE8F08330B585B005460C46C94885421F
:101A200034D10121082000F08FFC0121480500F08D
:101A300098FCC020ADF8100003208DF812001C2087
:101A40008DF8130004A9C048FFF752FC0020ADF840
:101A500004004BF6FF70ADF80600A020ADF80800BA
:101A60002815ADF80A000001ADF80C000094694695
:101A70002846FFF760FF01212846FFF750FF0022AC
:101A80004FF4E0612846FFF741FF01E000BFFEE7A9
:101A900005B030BD21B1028842F40072028004E03A
:101AA00002884FF6FF531A4002807047002221F04F
:101AB0007F42D3438382704770B5024600240025DD
:101AC00000230020958A138B1B0445EA030626F0A9
:101AD0007F4404EA01068E4201D1012000E000208B
:101AE00070BD0182704712B141F0010102E04FF672
:101AF000FE7319400182704721B1028842F480725E
:101B0000028004E002884FF6FF631A4002807047AB
:101B10000CB50246002000230193009300920B0FA6
:101B2000019321F07F41019B1BB1009B1433009373
:101B300003E0090C009B18330093009B1B680B40CB
:101B40000BB1012000E000200CBDF0B506460F46A9
:101B500014461D4600BF4FF400313046FFF7D8FF52
:101B60000028F8D101213046FFF7C6FF00BF7749B2
:101B70003046FFF7A1FF0028F9D000223946304651
:101B8000FFF7B1FF00BF72493046FFF795FF00280D
:101B9000F9D021463046FFF7A4FF00BF6C49891CED
:101BA0003046FFF789FF0028F8D029463046FFF776
:101BB00098FF00BF6649891C3046FFF77DFF00286B
:101BC000F8D001213046FFF765FF62495D48FFF715
:101BD0006DFF01215B48FFF75DFFF0BD2DE9F0418E
:101BE00006460F4615461C46DDF8188000BF4FF428
:101BF00000313046FFF78CFF0028F8D10121304634
:101C0000FFF77AFF00BF51493046FFF755FF002824
:101C1000F9D0002239463046FFF765FF00BF4C4936
:101C20003046FFF749FF0028F9D029463046FFF734
:101C300058FF00BF4649891C3046FFF73DFF00288A
:101C4000F8D00CE021783046FFF74BFF641C00BF52
:101C50003F49891C3046FFF72FFF0028F8D0B8F124
:101C60000000A8F1010101F0FF08EBD1012130468D
:101C7000FFF710FFBDE8F08121B1028842F48062D5
:101C8000028004E002884FF6FF331A40028070475A
:101C90000146088AC0B270472DE9F04107468846E0
:101CA00016461C46069D00BF4FF400313846FFF72C
:101CB0002FFF0028F8D101213846FFF71DFF00BF94
:101CC00022493846FFF7F8FE0028F9D000224146A5
:101CD0003846FFF708FF00BF1D493846FFF7ECFE06
:101CE0000028F9D001213846FFF719FE3146384661
:101CF000FFF7F7FE00BF1649891C3846FFF7DCFEE8
:101D00000028F8D001213846FFF7F6FE00BF0F4942
:101D10003846FFF7D1FE0028F9D001224146384667
:101D2000FFF7E1FE00BF0949491C3846FFF7C4FE32
:101D30000028F8D026E0000000127A0040420F0090
:101D4000A086010000540040000C01400100030087
:101D50008200070000040010012D07D10021384641
:101D6000FFF78AFF01213846FFF794FEBC49384649
:101D7000FFF7A2FE30B13846FFF78AFF2070641CDF
:101D8000681E85B2002DE7D101213846FFF774FFA8
:101D9000BDE8F081F0B505460E4614460027012146
:101DA0002846FFF7A9FE00BFAD493F392846FFF797
:101DB00083FE0028F8D0002231462846FFF793FE24
:101DC00000BFA8492846FFF777FE0028F9D0012177
:101DD0002846FFF7A4FD21462846FFF782FE00BFF4
:101DE000A049891C2846FFF767FE0028F8D001218A
:101DF0002846FFF781FE00BF99493F392846FFF783
:101E00005BFE0028F8D0012231462846FFF76BFE22
:101E100000BF93493E392846FFF74EFE0028F8D010
:101E200000212846FFF728FF01212846FFF732FE50
:101E300000BF8B492846FFF73FFE0028F9D028460F
:101E4000FFF726FF07463846F0BD10B50446864822
:101E5000844209D10121480500F09DFA00214FF488
:101E6000001000F098FA08E00121880500F093FACC
:101E700000214FF4800000F08EFA10BD41F288314D
:101E80000160002181804BF6FF71C180002101813A
:101E900041814FF480418181704721B1828842F4B1
:101EA0000062828004E082884FF2FF731A408280D1
:101EB000704721B1828842F48052828004E0828897
:101EC0004EF6FF731A40828070470A4600218189CE
:101ED0004FF60173194002F0FE03194381817047E8
:101EE00021B1828942F00102828104E082894FF6A9
:101EF000FE731A408281704721B1028842F040028D
:101F0000028004E002884FF6BF731A4002807047D7
:101F100008B5024600200090009200980844009006
:101F20000098008808BD21B1028842F40042028076
:101F300003E00288C2F30E0202807047B1F5006F21
:101F400004D1028842F40062028004E002884FF269
:101F5000FF731A4002807047B1F5005F04D1028818
:101F600042F40052028004E002884DF6FF731A40EA
:101F70000280704721B1028842F48052028004E05E
:101F800002884EF6FF731A4002807047B1F5006F69
:101F900004D1028842F40062028004E002884FF219
:101FA000FF731A400280704721B1028842F020027C
:101FB000028004E002884FF6DF731A400280704707
:101FC0000146088B0012704721B1028842F01002CE
:101FD000028004E002884FF6EF731A4002807047D7
:101FE00021B9028842F08002028004E002884FF6A4
:101FF0007F731A4002807047B1F5804F05D0828B05
:102000004BF6FF731A40828303E0828B42F48042D6
:102010008283704710B501460020002300228B8A7E
:102020000A8B120443EA020424F07F4010BD30B54D
:10203000024600200023948801F0E06504EA15437D
:1020400021F07F41948A0C4014B10BB1012000E0D3
:10205000002030BD002221F07F42D34383827047AD
:10206000400003008200070000540040DF48006881
:1020700040F00100DD49086008464068DC4908403E
:10208000DA49486008460068DA490840D7490860DC
:102090000846006820F4802008600846406820F464
:1020A000FE0048604FF41F0088607047CF49096800
:1020B00021F48031CD4A11601146096821F4802154
:1020C0001160B0F5803F03D0B0F5802F0ED106E04F
:1020D000C649096841F48031C44A116007E0C34928
:1020E000096841F4A021C14A116000E000BF00BFAF
:1020F000704710B501460022002300204A11012A32
:1021000002D1BA4C236806E0022A02D1B74C236AF6
:1021100001E0B64C636A01F01F02012494401C40A8
:102120000CB1012000E0002010BD38B50020009067
:102130000024002500BF3120FFF7DBFF0546009893
:10214000401C00900098B0F5A06F01D0002DF2D097
:102150003120FFF7CEFF08B1012400E00024204623
:1021600038BD01460020A14A106820F0F80040EA7E
:10217000C10010607047A049086070470246002007
:102180009A4B586820F47C1042EA01031843974B9D
:102190005860704798490866704701460020934A86
:1021A000506820F003000843506070478F48406833
:1021B00000F00C007047014600208C4A506820F067
:1021C000F00008435060704701460020874A50687D
:1021D00020F4E06008435060704701460020834AC5
:1021E000506820F4605040EAC1005060704729B147
:1021F0007E4A527A02437D4B5A7204E07B4A527AFD
:1022000082437A4B5A7270477B49D83108607047D5
:1022100001460020754A506820F440400843506051
:1022200070470021714A20321170704A82F82010E4
:10223000012802D004280AD104E001216B4A20328F
:10224000117005E00521694A2032117000E000BFDD
:1022500000BF70476949086070476449096A0143D3
:10226000624A11627047654944390860704730B569
:1022700000210022002400235C4D6D6805F00C0154
:1022800021B1042905D0082923D105E05C4D056062
:1022900022E05B4D05601FE0544D6D6805F470123F
:1022A000524D6D6805F48034022505EB92421CB94D
:1022B000544D554305600BE04C4D6D6805F40035F9
:1022C0001DB1504D5543056002E04D4D554305602D
:1022D00002E04B4D056000BF00BF444D6D6805F046
:1022E000F0010909484D6B5C0568DD4045603F4DD4
:1022F0006D6805F4E061090A434D6B5C4568DD409B
:1023000085603A4D6D6805F46051C90A3E4D6B5CBD
:102310004568DD40C560354D6D6805F44041890B69
:102320003A4D6B5CC568B5FBF3F5056130BD29B16D
:102330002E4A526902432D4B5A6104E02B4A5269DE
:1023400082432A4B5A61704729B1284A9269024355
:10235000264B9A6104E0254A92698243234B9A6195
:10236000704729B1214AD2690243204BDA6104E067
:102370001E4AD26982431D4BDA61704729B11B4A5C
:10238000D2680243194BDA6004E0184AD2688243EB
:10239000164BDA60704729B1144A12690243134B95
:1023A0001A6104E0114A12698243104B1A617047A6
:1023B00012494039086070470F49C86470470B499B
:1023C000C87170470948406A40F080700749486208
:1023D000704701460020054A92680A400AB1012070
:1023E00000E00020704701498872704700100240E9
:1023F0000000FFF8FFFFF6FE000042428004424268
:1024000000127A0000093D00140000202400002082
:1024100021B1028842F00102028004E002884FF6F6
:10242000FE731A40028070471AB183890B4383817F
:1024300002E083898B4383817047CA4302827047DD
:1024400000220288F74B98420ED0F74B98420BD0EF
:10245000B0F1804F08D0F54B984205D0F44B98422C
:1024600002D0F44B984204D14FF68F731A404B8838
:102470001A43F14B984207D0F04B984204D04FF6E4
:10248000FF431A40CB881A4302808B8883850B88D0
:102490000385E44B98420BD0E34B984208D0E84BBD
:1024A000984205D0E74B984202D0E74B984201D1C1
:1024B0000B7A03860123838270477FB504460D465D
:1024C000B4F1804F39D14FF4E060FDF73DFF1C209F
:1024D0008DF8000000208DF8010002208DF8020028
:1024E00001208DF803006846FDF733FF01210846FF
:1024F000FFF737FF681E80B2ADF808004720ADF83F
:1025000004000020ADF80A00ADF8060001A94FF064
:102510008040FFF795FF01218807FFF78EFF01221A
:1025200011469007FFF780FF01218807FFF770FF32
:1025300000210120FFF715FF24E1BC48844238D177
:102540004FF4E060FDF700FF1D208DF80000002033
:102550008DF8010003208DF8020001208DF80300A2
:102560006846FDF7F6FE01210220FFF7FAFE681E1D
:1025700080B2ADF808004720ADF804000020ADF8A7
:102580000A00ADF8060001A92046FFF759FF012116
:102590002046FFF752FF012211462046FFF744FF75
:1025A00001212046FFF734FF00210220FFF7D9FE6A
:1025B000E8E09F48844238D14FF4E060FDF7C4FE64
:1025C0001E208DF8000000208DF8010003208DF8FA
:1025D000020001208DF803006846FDF7BAFE0121D4
:1025E0000420FFF7BEFE681E80B2ADF80800472049
:1025F000ADF804000020ADF80A00ADF8060001A90E
:102600002046FFF71DFF01212046FFF716FF01229C
:1026100011462046FFF708FF01212046FFF7F8FE8C
:1026200000210420FFF79DFEACE08248844235D1B2
:102630004FF4E060FDF788FE00208DF801000320D4
:102640008DF8020001208DF803006846FDF781FE39
:1026500001210820FFF785FE681E80B2ADF8080052
:102660004720ADF804000020ADF80A00ADF80600E0
:1026700001A92046FFF7E4FE01212046FFF7DDFE19
:10268000012211462046FFF7CFFE01212046FFF729
:10269000BFFE00210820FFF764FE73E06648844215
:1026A00035D14FF4E060FDF74FFE00208DF80100BA
:1026B00003208DF8020001208DF803006846FDF725
:1026C00048FE01211020FFF74CFE681E80B2ADF8D5
:1026D00008004720ADF804000020ADF80A00ADF86E
:1026E000060001A92046FFF7ABFE01212046FFF7B7
:1026F000A4FE012211462046FFF796FE0121204646
:10270000FFF786FE00211020FFF72BFE3AE04B4832
:10271000844235D14FF4E060FDF716FE00208DF8BD
:10272000010003208DF8020001208DF803006846A7
:10273000FDF70FFE01212020FFF713FE681E80B277
:10274000ADF808004720ADF804000020ADF80A00FD
:10275000ADF8060001A92046FFF772FE01212046D0
:10276000FFF76BFE012211462046FFF75DFE0121B7
:102770002046FFF74DFE00212020FFF7F2FD01E08B
:1027800000BFFEE77FBD10B50446B4F1804F04D111
:1027900001210846FFF7E5FD29E02448844204D1E1
:1027A00001210220FFF7DDFD21E02148844204D110
:1027B00001210420FFF7D5FD19E01E48844204D111
:1027C00001210820FFF7CDFD11E01B48844204D110
:1027D00001211020FFF7C5FD09E01848844204D10B
:1027E00001212020FFF7BDFD01E000BFFEE710BD85
:1027F00010B50446B4F1804F04D100210120FFF749
:10280000B0FD3DE00948844204D100210220FFF7D9
:10281000A8FD35E00648844218D100210420FFF7C6
:10282000A0FD2DE0002C01400034014000040040D8
:1028300000080040000C0040001000400014004060
:10284000004001400044014000480140FE488442ED
:1028500004D100210820FFF784FD11E0FB488442E9
:1028600004D100211020FFF77CFD09E0F8488442E4
:1028700004D100212020FFF774FD01E000BFFEE736
:1028800010BD10B50446F348844208D10121C0149C
:10289000FFF774FD0021E014FFF770FDC4E0B4F110
:1028A000804F08D101210846FFF775FD0021012066
:1028B000FFF771FDB8E0E848844208D10121022009
:1028C000FFF769FD00210220FFF765FDACE0E3485A
:1028D000844208D101210420FFF75DFD002104207E
:1028E000FFF759FDA0E0D848844208D10121082013
:1028F000FFF751FD00210820FFF74DFD94E0D3487C
:10290000844208D101211020FFF745FD002110204D
:10291000FFF741FD88E0CE48844208D10121202004
:10292000FFF739FD00212020FFF735FD7CE0CC4882
:10293000844208D101214014FFF720FD00216014DA
:10294000FFF71CFD70E0C748844209D10121C8048B
:10295000FFF714FD00214FF40020FFF70FFD63E0A7
:10296000C148844209D101210805FFF707FD002174
:102970004FF48010FFF702FD56E0BC48844209D1B5
:1029800001214805FFF7FAFC00214FF40010FFF782
:10299000F5FC49E0B648844208D101214020FFF708
:1029A000FAFC00214020FFF7F6FC3DE0B1488442EC
:1029B00008D101218020FFF7EEFC00218020FFF7E5
:1029C000EAFC31E0AC48844208D101218015FFF7D0
:1029D000E2FC0021A015FFF7DEFC25E0A7488442B9
:1029E00009D101210804FFF7C9FC00214FF4803010
:1029F000FFF7C4FC18E0A248844209D10121480431
:102A0000FFF7BCFC00214FF40030FFF7B7FC0BE0F0
:102A10009C48844208D101218804FFF7AFFC0021C3
:102A20004FF48020FFF7AAFC10BD70B500240022EF
:102A30000023058C4FF6FE7635400584028C838892
:102A4000048B4FF68F752C40B51E2C400D882C43FF
:102A5000751E2A400D892A434D882A437D4DA84280
:102A60000BD07F4DA84208D0844DA84205D0844D9C
:102A7000A84202D0834DA84213D14FF6F7752A40E1
:102A80004D892A434FF6FB752A408D882A434FF61D
:102A9000FF652B404FF6FF552B408D892B43CD8989
:102AA0002B4383800483CD888586028470BD70B5F6
:102AB000002400220023058C4FF6EF763540058474
:102AC000028C8388048B48F6FF752C404FF6FF4537
:102AD0002C400D884FF6FF7606EA05252C434FF66D
:102AE000DF752A400D8906EA05152A434D8806EA56
:102AF00005152A43574DA84202D0594DA8421DD171
:102B00004FF67F752A404D894FF6FF7606EA051588
:102B10002A434FF6BF752A408D8806EA05152A43D9
:102B20004FF6FF352B404FF2FF752B408D8906EA9B
:102B300085052B43CD8906EA85052B4383800483D5
:102B4000CD880587028470BD70B500240022002363
:102B5000058C4FF6FF6635400584028C8388848B94
:102B60004FF68F752C404FF6FC752C400D882C438A
:102B70004FF6FF552A400D894FF6FF7606EA0525E8
:102B80002A434D8806EA05252A43324DA84202D041
:102B9000334DA8421DD14FF2FF752A404D894FF6A3
:102BA000FF7606EA05252A434FF6FF352A408D8831
:102BB00006EA05252A434EF6FF752B404DF6FF75B4
:102BC0002B408D8906EA05152B43CD8906EA0515AC
:102BD0002B4383808483CD888587028470BD70B544
:102BE000002200230024058C4EF6FF763540058434
:102BF000038C8488828B48F6FF752A404FF6FF4588
:102C00002A400D884FF6FF7606EA05252A434DF641
:102C1000FF752B400D8906EA05352B434D8806EAE2
:102C200005352B430B4DA84202D00D4DA84208D1CB
:102C30004BF6FF752C408D894FF6FF7606EA851519
:102C40002C43848082831FE0000C00400010004071
:102C500000140040002C0140000400400008004027
:102C600000340140004C014000500140005401403C
:102C700000180040001C00400020004000400140BF
:102C80000044014000480140CD88A0F84050038432
:102C900070BD828B4FF2FF331A408283828B4FF6D6
:102CA000FF7303EA01231A4382837047F0B50C4691
:102CB0001546002200210026078C4EF6FF7C07EA0D
:102CC0000C070784828B018C4FF6FF7707EA0436E6
:102CD00040F6FF473A404FF6FF7707EA05273A43A9
:102CE0004FF6FF7707EA03373A43F64FB8420ED064
:102CF000F54FB8420BD0B0F1804F08D0F34FB84237
:102D000005D0F34FB84202D0F24FB84206D14DF68B
:102D1000FF77394046F48057394305E047F6FF57BF
:102D2000394044F48057394382830184F0BD828B5B
:102D30004FF6F3731A408283828B0A438283704773
:102D4000F0B50C461546002200210026078C4FF6F0
:102D5000FF6C07EA0C070784828B018C4FF6FF7724
:102D600007EA04264FF60C773A404FF6FF7707EA5A
:102D700003172F433A43D34FB8420ED0D24FB84235
:102D80000BD0B0F1804F08D0D04FB84205D0D04F13
:102D9000B84202D0CF4FB84206D14FF6FF57394064
:102DA00046F48077394305E04FF2FF57394044F449
:102DB0008077394382830184F0BD028B4FF2FF3369
:102DC0001A400283028B4FF6FF7303EA01231A4372
:102DD00002837047F0B50C461546002200210026FC
:102DE000078C4FF6EF7C07EA0C070784028B018CF7
:102DF0004FF6FF7707EA041640F6FF473A404FF6D2
:102E0000FF7707EA03373A434FF6FF7707EA0527CC
:102E10003A43AC4FB8420ED0AB4FB8420BD0B0F1F2
:102E2000804F08D0A94FB84205D0A94FB84202D070
:102E3000A84FB84206D14FF6DF77394046F0100769
:102E4000394305E04FF65F77394044F010073943C6
:102E500002830184F0BD028B4FF6F3731A400283A4
:102E6000028B0A4302837047F0B50C4615460022D8
:102E70000021068C4FF6FE773E400684028B018CC3
:102E80004FF60C7632407E1C06EA03162E43324380
:102E90008C4EB0420ED08C4EB0420BD0B0F1804F71
:102EA00008D08A4EB04205D0894EB04202D0894E39
:102EB000B04206D14FF6FD76314044F00106314371
:102EC00005E04FF6F576314044F0010631430283C8
:102ED0000184F0BD70B505460C467A4885420ED097
:102EE000794885420BD0B5F1804F08D077488542AC
:102EF00005D07748854202D07648854200D100E06F
:102F000000BF208850B92389A28861882846FFF72E
:102F1000ABFFE1882846FFF79EFF25E020880428C4
:102F20000AD12389A28861882846FFF753FFE188E8
:102F30002846FFF742FF17E0208808280AD1238996
:102F4000A28861882846FFF7FBFEE1882846FFF744
:102F5000EEFE09E02389A28861882846FFF7A6FED5
:102F6000E1882846FFF795FE70BD2DE9F041054642
:102F70000C4600260127608808B9022600E00026DA
:102F8000A088012801D1022700E001272088A0B9EC
:102F90002389A28861882846FFF766FFE1882846D2
:102FA000FFF759FF23893A4631462846FFF712FFBB
:102FB000E1882846FFF701FF13E02389A288618892
:102FC0002846FFF707FFE1882846FFF7F6FE23892A
:102FD0003A4631462846FFF747FFE1882846FFF783
:102FE0003AFFBDE8F0810A884B881A438B881A4360
:102FF000CB881A430B891A434B891A438B891A438E
:10300000A0F8442070474FF6FF71818000210180B5
:10301000C180418001727047002101804180818020
:10302000C180018141818181C1817047002101807E
:103030004180012181800021C180018170470021F0
:10304000018041808180C1800181418181817047FF
:1030500031B1B0F8442042F40042A0F8442005E029
:10306000B0F84420C2F30E02A0F8442070478182D9
:10307000704741EA0203A0F8483070471AB18389CB
:103080000B43838102E083898B43838170470189ED
:103090004FF6F8721140018170470A4600210189FC
:1030A0004FF68F73194011430181704730B50446C4
:1030B0000D4629462046FFF7F0FF208940F0070023
:1030C000208130BD002C014000340140000400404C
:1030D00000080040000C00402DE9F04104460D4678
:1030E00016461F46602D06D13B460122314620463A
:1030F000FFF770FE05E03B46012231462046FFF710
:10310000B3FE29462046FFF7C8FF208940F007009C
:103110002081BDE8F08130B50C4600210189C9B29B
:103120004FF6FF7505EA0325154325432943018121
:1031300030BD2DE9F04105460E461746984600245D
:1031400043463A4631462846FFF7E5FF2C894FF6BD
:10315000F870044044F007044FF68F70044044F0C8
:1031600070042C81BDE8F081F0B504460D4616468A
:103170001F463B46324629462046FFF7CCFF2089B2
:1031800040F480402081F0BD0185828270470A466C
:10319000002101884FF68F73194011430180704759
:1031A000F0B50C4615461E46002100220023018979
:1031B000028B038C4FF6F877394021434FF6FC47DA
:1031C0003A4040F201173A434FF6DD773B404FF665
:1031D000FF7707EA06172F433B43018102830384ED
:1031E000F0BD0A460021018B4FF68F731940114341
:1031F000018370470A460021018B48F6FF7319408E
:103200004FF6FF7303EA02231943018370470A460E
:103210000021818B4FF68F731940114381837047D2
:103220000A460021818B48F6FF7319404FF6FF7361
:1032300003EA022319438183704721B1028842F0D7
:103240008002028004E002884FF67F731A400280F9
:10325000704721B1828842F00402828004E08288B3
:103260004FF6FB731A408280704721B1828842F08A
:103270000802828004E082884FF6F7731A40828049
:10328000704721B1828842F00102828004E0828886
:103290004FF6FE731A40828070470A460021018B68
:1032A0004FF6F77319401143018370470A46002116
:1032B000018B4FF2FF7319404FF6FF7303EA0223AD
:1032C0001943018370470A460021818B4FF6F7733B
:1032D00019401143818370470A460021818B4FF2C8
:1032E000FF7319404FF6FF7303EA022319438183EA
:1032F00070470A460021018B4FF6FB7319401143BA
:10330000018370470A460021018B4FF6FF331940B5
:103310004FF6FF7303EA02231943018370470A46FD
:103320000021818B4FF6FB73194011438183704755
:103330000A460021818B4FF6FF3319404FF6FF7389
:1033400003EA02231943818370470A460021018B57
:103350004FF67F7319401143018370470A460021DD
:10336000018BC1F30E014FF6FF7303EA02231943E9
:10337000018370470A460021818B4FF67F73194005
:103380001143818370470A460021818BC1F30E01EE
:103390004FF6FF7303EA02231943818370470A46FD
:1033A0000021018C4FF6FD731940114301847047D1
:1033B0000A460021018C4FF6F7731940114301842E
:1033C00070470A460021018C4FF6DF7319404FF613
:1033D000FF7303EA02131943018470470A46002170
:1033E000018C4FF67F7319404FF6FF7303EA021307
:1033F0001943018470470A460021018C4FF6FF53A0
:1034000019404FF6FF7303EA022319430184704702
:103410000A460021018C4FF2FF7319404FF6FF73EB
:1034200003EA02231943018470470A460021018CF4
:103430004DF6FF7319404FF6FF7303EA0233194349
:103440000184704730B5002301248C40A3B2048C62
:103450009C430484048C02FA01F5ADB22C4304842D
:1034600030BD30B5002304248C40A3B2048C9C43AF
:103470000484048C02FA01F5ADB22C43048430BDFF
:1034800070B50346002000241846183001258D40F1
:10349000ACB21D8CA5431D8409B1082909D100EBEC
:1034A0006100056825F07005056005681543056035
:1034B0000EE00D1FC5F34E052844056825F4E045D0
:1034C000056005684FF6FF7606EA0226354305607B
:1034D00070BD21B1028842F00202028004E002883D
:1034E0004FF6FD731A400280704721B1028842F006
:1034F0000402028004E002884FF6FB731A40028047
:10350000704721B1828842F08002828004E0828884
:103510004FF67F731A408280704702884FF6F77328
:103520001A40028002880A430280704782884FF660
:103530008F731A40828082880A4382807047028992
:103540004FF6F8731A40028102890A4302817047DC
:1035500002894FF67F731A40028102890A43028171
:1035600070478184704781857047818670470187E5
:10357000704781877047A0F84010704702884FF667
:10358000FF431A40028002880A43028070470146C6
:10359000888E70470146088F70470146888F7047B4
:1035A0000146B1F8400070470146888C70470146DB
:1035B000088D704702460020138A0B400BB1012092
:1035C00000E00020704730B50246002000230024B0
:1035D000158A05EA0103958905EA010413B10CB1C6
:1035E000012000E0002030BDCA4302827047000085
:1035F00010B50446FB48844209D101218803FEF737
:10360000BDFE00214FF48040FEF7B8FE32E0F648E0
:10361000844209D101214804FEF7BDFE00214FF488
:103620000030FEF7B8FE25E0F048844209D10121C0
:103630008804FEF7B0FE00214FF48020FEF7ABFEB9
:1036400018E0EB48844209D10121C804FEF7A3FE2B
:1036500000214FF40020FEF79EFE0BE0E548844277
:1036600008D101210805FEF796FE00214FF48010D5
:10367000FEF791FE10BD2DE9F04786B005460E46D7
:103680000024A24600BFA1460027B08900B100BFB8
:103690002F462C8A4CF6FF700440F08804432C829D
:1036A000AC894EF6F3100440B08831890843718923
:1036B00008430443AC81AC8A4FF6FF400440B08914
:1036C0000443AC8201A8FEF7D2FDC648874202D16E
:1036D000DDF810A001E0DDF80CA0A88900F400409E
:1036E00040B10AEBCA0000EB0A1031684900B0FB98
:1036F000F1F807E00AEBCA0000EB0A103168890014
:10370000B0FBF1F86420B8FBF0F00401200964215B
:1037100001FB1089A88900F4004040B1322000EB81
:10372000C900B0FBF1F000F00700044308E03220CC
:1037300000EB09106421B0FBF1F000F00F0004432E
:103740002C8106B0BDE8F0874FF4165101600021CE
:103750008180C18001810C214181002181817047DC
:1037600010B502460020108A4FF2FF0318400B8864
:103770004C8823438C882343CC88234318431082EE
:1037800010BD0021018041808180C180704721B13E
:10379000828942F40052828104E082894DF6FF73EF
:1037A0001A4082817047F0B50346002400260025A8
:1037B000002040F66A17B94200D100BF1846C1F395
:1037C000421401F01F06012707FA06F5012C01D16A
:1037D0000C3004E0022C01D1103000E014301AB19A
:1037E00007682F43076002E00768AF430760F0BD3A
:1037F0001AB1838A0B43838202E0838A8B438382DC
:103800007047028A4FF6F0731A400282028A0A4316
:103810000282704782894FF2FF731A408281828947
:103820000A438281704721B1828942F0020282817B
:1038300004E082894FF6FD731A4082817047028A44
:103840004FF6DF731A400282028A0A4302827047EF
:1038500021B1028A42F48042028204E0028A4BF6DD
:10386000FF731A4002827047C1F3080282807047DA
:1038700001468888C0F308007047818941F0010142
:1038800081817047028BD2B20283028B42EA01220D
:1038900002837047028B02F47F420283028B0A4349
:1038A0000283704721B1828A42F02002828204E0C2
:1038B000828A4FF6DF731A408282704721B1828A72
:1038C00042F01002828204E0828A4FF6EF731A40BF
:1038D0008282704721B1828A42F00802828204E02B
:1038E000828A4FF6F7731A408282704721B182892B
:1038F00042F40042828103E08289C2F30E02828197
:10390000704721B1828A42F40062828204E0828A96
:103910004FF2FF731A4082827047828A4FF6FB7320
:103920001A408282828A0A438282704721B1828A47
:1039300042F00202828204E0828A4FF6FD731A404E
:103940008282704702460020B1F5007F00D100BF9F
:1039500013880B400BB1012000E00020704701F4F8
:103960000072B2F5007F00D100BFCA4302807047E9
:1039700070B50246002400230025002040F66A1698
:10398000B14200D100BFC1F3421501F01F0301266F
:1039900006FA03F3012D02D19689334006E0022D89
:1039A00002D1168A334001E0968A33400C12012678
:1039B00006FA04F41688344013B10CB1012000E07B
:1039C000002070BD10B50022002340F66A14A14209
:1039D00000D100BF0A1201249440A3B2DC4304804A
:1039E00010BD000000380140004400400048004085
:1039F000004C0040005000400024122500F026FD3D
:103A000001210520FEF7A0FC0121DC48FDF731FF74
:103A100008F066FA0021012008F042FB0021022094
:103A200008F03EFB0021032008F03AFB00210420AF
:103A300008F036FB01224FF4E131D14800F06DFF70
:103A400001224FF4E131CF4800F067FFC82000F0B9
:103A50002FFDCDA1CA4801F093F9CBA1C94801F0CF
:103A60008FF9CEA1C64801F08BF909E0D2A1C44874
:103A700001F086F94FF4FA6000F01AFD601CC4B240
:103A800006F061F808B10A2CF0DB0A2C04DAD0A1A8
:103A9000BB4801F075F903E0D4A1B94801F070F911
:103AA00001F050FA02F084F800221146104602F0AC
:103AB0006FF908F07DFAD44908700846007800F0E4
:103AC000030020B9D1A1AE4801F05AF91FE0CE4859
:103AD000007800F00300012804D1D5A1A84801F026
:103AE0004FF914E0C848007800F00300022804D120
:103AF000D7A1A34801F044F909E0C348007800F0D9
:103B00000300032803D1D9A19D4801F039F9002011
:103B1000BD49087008F04CFABB49087008460078A7
:103B200000F0040048B9D9A1954801F029F9022014
:103B3000DE4981F83600192508E0DDA1904801F042
:103B40001FF90120D94981F8360012252A46E1499A
:103B5000E14800F0AFFF4FF47A71C806FEF7ADFC04
:103B60004FF08040FEF70FFEDCA1854801F008F918
:103B700052E0E0480068642806D94021DE48FDF79D
:103B80008EFC0020DB490860DC48007810B1002082
:103B9000DA490870DA480078A0B1DA480078401CA9
:103BA000D849087008460078052808DD2021D24849
:103BB000FDF775FC01F00DFF0020D24908700020D0
:103BC000CF490870D048007848B1D04890F8250017
:103BD00028B10020CD4981F82500CB490870CC4898
:103BE0000068082804D90020C949086002F04CFD8B
:103BF000C84800680A2806D908F025F808F027F810
:103C00000020C4490860C4480068642804D908F04A
:103C100081FA0020C0490860ABE706E041F2883134
:103C200000BF0A1EA1F10101FBD1021EA0F101009B
:103C3000F4D1704700BF011EA0F10100FBD1704715
:103C40000EB524E06A4601A902A805F0C9FFB3A198
:103C50004B4801F095F84A48029901F041F8B1A1AA
:103C6000474801F08DF84648019901F039F8AFA1B5
:103C7000434801F085F84248009901F031F84021AD
:103C80009D48FDF70CFC44F6206000F011FCD9E7DC
:103C9000002472E0012008F0B8F960B1A5A138480D
:103CA00001F06EF80121084608F0FAF9012102201E
:103CB00008F0F6F907E00021012008F0F1F90021F1
:103CC000022008F0EDF9022008F09FF960B19EA1F2
:103CD0002B4801F055F80121032008F0E1F90121FA
:103CE000042008F0DDF907E00021032008F0D8F9EE
:103CF0000021042008F0D4F9002408F059F9044602
:103D00005CB196A11E4801F03BF821461C4800F02A
:103D100084FF5DA11A4801F033F8012008F08FF903
:103D200018B193A1164801F02BF8022008F087F98A
:103D300018B198A1124801F023F8032008F07FF988
:103D400018B19DA10E4801F01BF8042008F077F986
:103D500018B1A2A10A4801F013F840216648FDF706
:103D60009EFB20216448FDF79AFB4FF40051A448C4
:103D7000FDF795FBC820FFF750FF8BE700023000EE
:103D800000440040004800400A0A204D69636B5817
:103D90003420524F5320436172200A0053746172E1
:103DA0007420496E6974204D505536303530202EC0
:103DB0002E2E200A000000004D50553630353020A0
:103DC0005265496E69742E2E2E200D0A00000000E7
:103DD0004D50553630353020537461727420537510
:103DE00063636573732020200D0A00004D50553623
:103DF00030353020496E6974204661696C656420F5
:103E000020200D0A00000000C40100205468652035
:103E1000646966666572656E7469616C206D6F6455
:103E2000656C20697320757365642E200A0000009C
:103E3000546865206D6563616E756D206D6F646596
:103E40006C20697320757365642E200A00000000E1
:103E500054686520345753345744206D6F64656C43
:103E600020697320757365642E200A0054686520EC
:103E700041636B65726D616E6E206D6F64656C2061
:103E8000697320757365642E200A000053425553F0
:103E90002028666F722054384642296D6F64656C25
:103EA00020697320757365642E200A00ED010020DF
:103EB000444255532028666F7220444A4920445496
:103EC0003729206D6F64656C206973207573656494
:103ED0002E200A00A086010000380140496E697456
:103EE000205375636365737366756C2021212120EF
:103EF0000A0A0000380000200008014031000020BC
:103F00002E0000202F00002030000020A4040020FC
:103F10003C00002040000020440000200A7069742A
:103F200063683A000920726F6C6C3A00092079616D
:103F3000773A00006B657931207072657373656440
:103F4000202E2E2E0A0000006B65793220707265DB
:103F500073736564202E2E2E0A000000436F646583
:103F6000205377697463682076616C75653A200028
:103F700049736F6C61746564206368616E6E656C13
:103F8000203120696E70757420564343202E2E2EEA
:103F90000A00000049736F6C617465642063686196
:103FA0006E6E656C203220696E70757420564343C6
:103FB000202E2E2E0A00000049736F6C6174656418
:103FC000206368616E6E656C203320696E70757455
:103FD00020564343202E2E2E0A00000049736F6C9A
:103FE00061746564206368616E6E656C203420695D
:103FF0006E70757420564343202E2E2E0A0000004A
:1040000000100140704700BFFEE700BFFEE700BFA1
:10401000FEE700BFFEE770477047704710B501210B
:104020008807FFF7D0FA00283FD0EB480068401C13
:10403000E9490860E9480068401CE8490860E84828
:104040000068401CE6490860E6480068401CE549F5
:104050000860E5480068401CE3490860DE480068E5
:10406000B0F57A7F1BD9E14890F8340050B90520AB
:10407000DE4981F8200000231A461946184601F04F
:10408000BBFD09E0DA4890F8250028B900231A465C
:104090001946184601F0B0FD0020CF49086001F034
:1040A0006FFF01218807FFF79FFA10BD10B50121AE
:1040B000D048FFF788FA40B107F0C5FD0120CE498E
:1040C00008700121CB48FFF78FFA10BD10B540F200
:1040D0002551CA48FFF74CFC38B1C848FFF7C8FB68
:1040E000C4B22146C54800F089FD40F22551C348BD
:1040F000FFF768FC10BD10B5C1480078C1490870D1
:1041000040F22551C048FFF733FC60B12021BE4882
:10411000FFF725FC40F22551BB48FFF753FCBA4896
:10412000FFF7A6FBC4B2B64804700078EA2820D195
:10413000B4480078AE281CD10020B4490880012082
:10414000B3490870AF480178B04802880088401C25
:10415000AE4B1880AF488154A948017818460288B0
:104160000088401C1880AB4881540120AA4908707F
:1041700072E0A7480078012869D1A4480088022885
:1041800065DBA248008803280ADA9D4801789F4829
:1041900002880088401C9D4B18809E4881545BE03B
:1041A0009C488078801C9949098888420ADD944897
:1041B0000178964802880088401C944B18809548E6
:1041C000815449E093488078801C9049098888424E
:1041D0000ED18B480078EF280AD1894801788B48A6
:1041E00002880088401C894B18808A48815433E03B
:1041F00088488078C01C85490988884221D1804838
:104200000078FE281DD17E48027880480188008809
:10421000401C7E4B18807F484254184600887F49D6
:10422000088001207E49087018460188794802F00C
:1042300019F810B10020684908600020744908701E
:104240000AE00020724908707049088004E00020EC
:104250006E4908806E49087001216B48FFF788FBA2
:1042600030B16948FFF704FB01216748FFF777FB8E
:1042700008216548FFF77CFB30B16348FFF7F8FA87
:1042800008216148FFF76BFB02215F48FFF770FBD5
:1042900030B15D48FFF7ECFA02215B48FFF75FFBA6
:1042A00040F225515848FFF78DFB10BD10B5402155
:1042B0005C48FDF7F4F840F225515B48FFF758FBE6
:1042C00060B15948FFF7D4FAC4B240F225515648BC
:1042D000FFF778FB2146544800F090FC012152483A
:1042E000FFF746FB30B15048FFF7C2FA01214E48B4
:1042F000FFF735FB08214C48FFF73AFB30B14A483D
:10430000FFF7B6FA08214848FFF729FB0221464883
:10431000FFF72EFB30B14448FFF7AAFA02214248CA
:10432000FFF71DFB40F225513F48FFF74BFB10BD47
:104330003E48006820B13D480068401E3B49086087
:10434000704710B50120FCF7B7FF10B10120FCF752
:10435000C4FF10BD10B54FF40070FCF7ADFF18B1ED
:104360004FF40070FCF7B9FF10BD704710B54FF463
:104370000030FCF7EBFE012819D100212C48FCF796
:10438000CAFE4FF40030FCF7F5FE2A4800F04BFF60
:104390002949087008460078012804D12749087087
:1043A00000200D49086001212148FCF7B4FE10BD32
:1043B00000B585B06A4600212148FCF775FB6846C8
:1043C00001F0AEFE01201F49087041031E48FDF7B1
:1043D00066F805B000BD0000340000203800002061
:1043E0003C0000204000002044000020ED0100209F
:1043F000A4040020000400403200002000380140E6
:104400004B0000204C0000200044004048000020E9
:104410004A000020CC040020300000206C00002066
:104420006E000020000801400048004028000020E5
:1044300058000240D40100204D0000202E00002032
:1044400000640040310000200010014030B54FF4FE
:104450003471B1F1807F01D301201DE021F07F4054
:10446000401E4FF0E022506150170F22002807DA5B
:1044700013071D0E354B00F00F04241F1D5503E0DC
:1044800013071C0E324B1C5400BF00204FF0E022DB
:10449000906107201061002008B100BFFEE74FF0D7
:1044A000E020006920F001004FF0E021086130BDFC
:1044B000284908604FF0E021096941F001014FF0FF
:1044C000E022116100BF234909680029FBD1704730
:1044D00010B501210320FDF744FF8020C1050880AD
:1044E0004FF6FF7088850020088501208882A7206C
:1044F00008818420184908802020091D08804FF673
:10450000FF7015492C3108804720091F08800120C1
:1045100011491431088080200F49083108800E4865
:10452000008840F001000C4908800805008840F030
:1045300001000905088010BD00204FF08041888CE3
:1045400000040549243109880844704718ED00E04B
:1045500000E400E0280000200004004008B54FF40B
:10456000E060FBF7F1FE01208DF8010005208DF8D9
:10457000020001208DF803006846FBF7EAFE08BD43
:1045800030B585B005460C4601212020FDF7DCFE44
:1045900001211020FDF7D8FE01210805FDF7E1FEFD
:1045A0004FF48050ADF8100018208DF81300032050
:1045B0008DF8120004A9FC48FCF79AFE0420ADF81F
:1045C00010008DF8130004A9F848FCF791FE00953F
:1045D0000020ADF80400ADF80600ADF80800ADF815
:1045E0000C000C20ADF80A006946F148FFF743F8CB
:1045F000012C08D1FFF7B2FF012240F22551EC480F
:10460000FFF7D1F805E0002240F22551E848FFF716
:10461000CAF80121E648FFF7BAF805B030BD08B581
:104620004FF4E060FBF790FE01208DF801000420BC
:104630008DF8020001208DF803006846FBF789FE23
:1046400008BD30B585B005460C4601211020FDF7A8
:104650007BFE0121C804FDF784FE4FF48060ADF8B5
:10466000100018208DF8130003208DF8120004A903
:10467000CD48FCF73DFE4FF40060ADF8100004207B
:104680008DF8130004A9C848FCF732FE00950020FD
:10469000ADF80400ADF80600ADF80800ADF80C0068
:1046A0000C20ADF80A006946C248FEF7E4FF012C71
:1046B00008D1FFF7B4FF012240F22551BD48FFF7B2
:1046C00072F805E0002240F22551BA48FFF76BF876
:1046D0000121B848FFF75BF805B030BD08B54FF4CD
:1046E000E060FBF731FE27208DF8000001208DF8F7
:1046F000010003208DF8020001208DF803006846B8
:10470000FBF727FE08BD30B585B005460C460121F4
:104710000820FDF719FE01218804FDF722FE4FF461
:104720008060ADF8100018208DF8130003208DF87C
:10473000120004A9A048FCF7DBFD4FF40060ADF8BF
:10474000100004208DF8130004A99B48FCF7D0FD4D
:1047500000950020ADF80400ADF80600ADF80800A3
:10476000ADF80C000C20ADF80A0069469348FEF73E
:1047700082FF012C08D1FFF7B1FF012240F2255141
:104780008E48FFF710F805E0002240F225518B48D3
:10479000FFF709F801218948FEF7F9FF05B030BDA0
:1047A00008B54FF4E060FBF7CFFD26208DF8000040
:1047B00001208DF8010002208DF8020001208DF803
:1047C00003006846FBF7C5FD08BD30B585B005465A
:1047D0000C4601210420FDF7B7FD01214804FDF737
:1047E000C0FD0420ADF8100018208DF81300032040
:1047F0008DF8120004A97248FCF77AFD0820ADF884
:10480000100004208DF8130004A96D48FCF770FD1A
:1048100000950020ADF80400ADF80600ADF80800E2
:10482000ADF80C000C20ADF80A0069466548FEF7AB
:1048300022FF012C08D1FFF7B3FF012240F22551DE
:104840006048FEF7B0FF05E0002240F225515D48C8
:10485000FEF7A9FF01215B48FEF799FF05B030BDC7
:1048600008B54FF4E060FBF76FFD25208DF80000E0
:1048700001208DF801008DF802008DF803006846D4
:10488000FBF767FD08BD30B585B005460C46012134
:1048900044F20400FDF758FD4FF40070ADF810002D
:1048A00018208DF8130003208DF8120004A9444845
:1048B000FCF71EFD4FF48060ADF8100004208DF869
:1048C000130004A93E48FCF713FD00950020ADF845
:1048D0000400ADF80600ADF80800ADF80C000C209F
:1048E000ADF80A0069463848FEF7C5FE012C08D12C
:1048F000FFF7B6FF012240F225513348FEF753FF80
:1049000005E0002240F225512F48FEF74CFF01211F
:104910002D48FEF73CFF05B030BD70B504460D468E
:1049200016462948844204D131462846FFF7ABFF9A
:1049300021E02448844204D131462846FFF745FF50
:1049400019E01E48844204D131462846FFF7DBFEB9
:1049500011E01848844204D131462846FFF771FE21
:1049600009E01348844204D131462846FFF708FE87
:1049700001E000BFFEE770BDF0B58DB004460F4604
:1049800016461D46039710200490059600200690B9
:10499000802007900020089009900A90B5B94FF444
:1049A00040500B9020E00000001001400014014036
:1049B00000500040004C0040000C01400048004006
:1049C000000801400044004000380140012D02D1A0
:1049D00068030B9008E0022D02D1E8020B9003E07F
:1049E000032D01D100200B9000200C90FB48844245
:1049F00025D1001D029001210846FDF798FC4FF4D7
:104A0000C060FBF7A1FC0E208DF8040000208DF89B
:104A1000050001208DF806008DF8070001A8FBF7BE
:104A200098FC01220221EE48FCF781FB02A9EC4828
:104A3000FCF746FB0121EA48FCF76DFB38E0E9484A
:104A4000844210D1001D029001210846FDF76FFC41
:104A500002A9E3483C30FCF733FB0121E0483C303D
:104A6000FCF759FB24E0E048844210D1001D02907D
:104A700001210846FDF75BFC02A9D9482838FCF75C
:104A80001FFB0121D6482838FCF745FB10E0D7482A
:104A900084420DD1001D029001210220FDF747FC48
:104AA00002A9D348FCF70CFB0121D148FCF733FBEA
:104AB0000DB0F0BD70B58CB006460C461546002111
:104AC0002046FFF7E0FE0021C448FEF760FE00220A
:104AD00040F22441C148FEF766FE01224021BF4852
:104AE000FEF786FE0121BD48FEF751FE0121084672
:104AF000FDF71DFCBA481430FCF740FAB748001D1A
:104B00000190BC48029000200390049505908020FD
:104B1000069000200790089020200990C0010A907C
:104B200000200B9001A9AE481430FCF7C9FA01210E
:104B3000AB481430FCF7EFFA0F208DF8000002208C
:104B40008DF8010003208DF8020001208DF803008C
:104B50006846FBF7FEFB01220221A1481430FCF756
:104B6000E6FA0CB070BD10B586B00446012144F2DF
:104B70000400FDF7E9FB4FF40070ADF814000320CA
:104B80008DF8160018208DF8170005A99A48FCF733
:104B9000AFFB4FF48060ADF8140004208DF81700CF
:104BA00005A99548FCF7A4FB25208DF800000320FB
:104BB0008DF801008DF8020001208DF80300684691
:104BC000FBF7C7FB01940020ADF80800ADF80A0020
:104BD000ADF80C00ADF810000C20ADF80E0001A9E6
:104BE0007E48FEF748FD012240217C48FEF700FE8A
:104BF00001217A48FEF7CBFD06B010BD70B5044622
:104C00000D4629462046FEF72FFE00BF8021204694
:104C1000FEF798FE0028F9D070BDFEB507460E4697
:104C2000354600208DF8000001240CE00A20B5FB79
:104C3000F0F100FB115030300DF804000A20B5FBF4
:104C4000F0F5601CC4B20A20B5FBF0F00028EDD1ED
:104C50000A20B5FBF0F100FB115030300DF80400D4
:104C600006E01DF804103846FFF7C8FF601EC4B206
:104C7000002CF6DCFEBDFEB507460E46002E04DA1B
:104C800076422D213846FFF7B9FF354600208DF8D2
:104C9000000001240CE00A20B5FBF0F100FB1150EC
:104CA00030300DF804000A20B5FBF0F5601CC4B2EA
:104CB0000A20B5FBF0F00028EDD10A20B5FBF0F199
:104CC00000FB115030300DF8040006E01DF8041010
:104CD0003846FFF793FF601EC4B2002CF6DCFEBD21
:104CE0002DE9F84F80460D462F464FF07E5138464D
:104CF00007F07AFB814607F069FD064631464046DB
:104D0000FFF7B9FF2E214046FFF778FF304607F046
:104D100031FD3946009007F032FB8346374907F0F2
:104D200031FB82464FF07E5107F05EFB814607F073
:104D30004DFD0446002C00DA64420A2C0CDA3021C6
:104D40004046FFF75BFF30214046FFF757FF214603
:104D50004046FFF762FF11E0642C08DA302140463C
:104D6000FFF74CFF21464046FFF757FF06E0B4F53A
:104D70007A7F03DA21464046FFF74FFFBDE8F88F00
:104D800070B505460C460BE014F8011B2846FEF7EB
:104D90006BFD00BF80212846FEF7D4FD0028F9D026
:104DA00020780028F0D170BD2DE9F04107460C466F
:104DB0001546002600BF0CE014F8011B3846FEF72C
:104DC00053FD00BF80213846FEF7BCFD0028F9D016
:104DD000761CAE42F0D3BDE8F081000000380140FF
:104DE000440002400044004000480040004C0040A5
:104DF00058040240D40100200008014000007A4419
:104E000070B504460D46E1B20C48FEF72DFD00BF1B
:104E100080210A48FEF796FD0028F9D0204670BD93
:104E200010B5044600BF20210448FEF78BFD002882
:104E3000F9D00248FEF71CFD10BD00000044004000
:104E400008B501210920FDF77FFA01214806FDF789
:104E500088FA01210420FDF777FA4FF48050ADF86D
:104E6000000003208DF8020018208DF80300694629
:104E70004448FCF73DFA4FF40060ADF800004820CC
:104E80008DF8030069463F48FCF732FA08BD08B5C3
:104E90004FF4C060FBF758FA14208DF80000002092
:104EA0008DF801008DF8020001208DF8030068469E
:104EB000FBF74FFA08BD0EB53348FBF7D7FB684642
:104EC000FBF7C4FB00208DF806008DF807008DF875
:104ED000080001208DF8090000208DF80A008DF8E7
:104EE0000B008DF802008DF8030002208DF80400FD
:104EF00004208DF80500ADF8000069462248FBF754
:104F00001BFB0EBD1FB500208DF80A008DF80B00AD
:104F100001208DF80C000020ADF80000ADF8020073
:104F2000ADF80400ADF80600ADF8080001208DF8DA
:104F30000D006846FBF77FFA012202211248FBF7B9
:104F400071FA1FBD10B5FFF77BFFFFF7B4FFFFF746
:104F5000D9FFFFF79CFF10BD85B041F214300190DE
:104F600004208DF8080000208DF8090002208DF83B
:104F70000A00AB208DF80B00CD218DF80C1005B088
:104F80007047000000080140006400402DE9F05F18
:104F90000027002400250026FE4890F82000012864
:104FA0005FD0FC4890F834000028F9D0F94890F818
:104FB0002100012801D1F84F0EE0F64890F82100B9
:104FC000032801D1F54F07E0F24890F821000228AC
:104FD00001D1F34F00E00027EE48B0F90000ED49A1
:104FE000B1F92810441AEB48B0F90200E949B1F9C7
:104FF0002A10451AE748B0F90400E649B1F92C1027
:10500000461A201E01DB014600E04142322900DA47
:105010000024281E01DB014600E04142322900DA6B
:105020000025301E01DB014600E04142322900DA52
:105030000026DC48007800F0030098B9204607F00D
:1050400099FB8246394607F09DF98046284607F0CD
:1050500091FB8246394607F095F98146414600F0BA
:1050600012FE29E0CF48007800F0030001281CD18F
:10507000704207F07FFB8346394607F083F980468C
:10508000604207F077FB8346394607F07BF981469B
:10509000284607F06FFB8346394607F073F98246CE
:1050A0004246494600F074FE06E0BE48007800F033
:1050B0000300022800D000BFBDE8F09FB548B0F95A
:1050C0000000B0F5617F4CDDB248B0F9000040F25D
:1050D0004C41884245DAAF48B0F90200B0F5617F33
:1050E0003FDDAC48B0F9020088423ADAA948B0F98D
:1050F0000400B0F5617F34DDA648B0F904008842B1
:105100002FDAA448B0F90600B0F5617F29DDA14887
:10511000B0F90600884224DA9E48B0F90000A2499E
:1051200009680844A04908609A48B0F902009F49FC
:10513000096808449D4908609648B0F904009C49F4
:10514000096808449A4908609248B0F906009949EC
:10515000096808449749086097480068401C9649C8
:105160000860954800680A2854D98F480068924919
:105170000968B0FBF1F08C4908608C4800688E49E2
:105180000968B0FBF1F089490860894800688A49DC
:105190000968B0FBF1F086490860864800688649D6
:1051A0000968B0FBF1F0834908607F48008800B2CD
:1051B000784908857D48008800B248857C48008889
:1051C00000B288857B48008800B2C8850846008DFB
:1051D00040B10846408D28B10846808D10B1084680
:1051E000C08D70B900206B4981F8340072490860A5
:1051F0006D4908606D4908606D4908606D49086037
:1052000070470120634981F834006B4800680863E7
:105210000120F5E700205F4981F834006648006806
:1052200008630020ECE770B5044600250CB90020A7
:1052300070BD584890F8360001284ED1207861782A
:1052400040EA0120C0F30A00524908806078C0108B
:10525000A17840EA4110C0F30A004E494880A07886
:105260008011E17840EA8100217940EA8120C0F391
:105270000A004849888020794010617940EAC110CD
:10528000C0F30A004349C88060790011800881F8A2
:1052900020006079C0F3011081F82100A079E17944
:1052A00040EA01203B4981F82200207A617A40EAF5
:1052B0000120384981F82300A07AE17A40EA0120F0
:1052C000344981F82400207B81F82500607B81F837
:1052D0002600A07B81F8270017E22E4890F83600C0
:1052E000022855D120780F2805D1207E18B9E07DFD
:1052F00008B9002516E031A13948FFF741FD01202A
:1053000080F3138800BF00BF3648006800F4E060F7
:1053100035490843001D33490860BFF34F8F00BF74
:1053200000BFFEE7681C192190FBF1F201FB12009F
:10533000215CA81C192290FBF2F302FB1300205CF5
:1053400041EA0020C0F30A0012490880A81C192174
:1053500090FBF1F201FB1200205CC110E81C192245
:1053600090FBF2F302FB1300205C41EA4010C0F313
:105370000A0008494880E81C192190FBF1F201FB62
:105380001200205C8111281D192290FBF2F32DE000
:10539000B4E10000ED010020BD3AC73ABD3A473BF9
:1053A0009FABAD3BC4010020500000205400002002
:1053B000580000205C00002060000020534255533C
:1053C000206672616D206865616420213D2030781F
:1053D00030662C207265736574204D43552E0A008B
:1053E000004400400CED00E00000FA0502FB130051
:1053F000205C41EA8001681D90FBF2F302FB130080
:10540000205C41EA8020C0F30A00F9498880681DC9
:10541000192190FBF1F201FB1200205C4110A81D44
:10542000192290FBF2F302FB1300205C41EAC0104A
:10543000C0F30A00EE49C880A81D192190FBF1F2C3
:1054400001FB1200205C0111E81D192290FBF2F310
:1054500002FB1300205C41EA0010C0F30A00E4499B
:105460000881E81D192190FBF1F201FB1200205C7C
:10547000C11105F10800192290FBF2F302FB1300A1
:10548000205C41EA400105F1090090FBF2F302FBC8
:105490001300205C41EA4020C0F30A00D44948814F
:1054A00005F10900192190FBF1F201FB1200205CCB
:1054B000811005F10A00192290FBF2F302FB1300A0
:1054C000205C41EA8010C0F30A00C949888105F1D7
:1054D0000A00192190FBF1F201FB1200205C41113E
:1054E00005F10B00192290FBF2F302FB1300205C84
:1054F00041EAC000BE49C88105F10C00192190FBAA
:10550000F1F201FB1200215C05F10D00192290FB64
:10551000F2F302FB1300205C41EA0020C0F30A0012
:10552000B349088205F10D00192190FBF1F201FB4E
:105530001200205CC11005F10E00192290FBF2F35D
:1055400002FB1300205C41EA4010C0F30A00A849A6
:10555000488205F10E00192190FBF1F201FB1200C7
:10556000205C811105F10F00192290FBF2F302FB80
:105570001300205C41EA800105F1100090FBF2F37A
:1055800002FB1300205C41EA8020C0F30A00984926
:10559000888205F11000192190FBF1F201FB120045
:1055A000205C411005F11100192290FBF2F302FB7F
:1055B0001300205C41EAC010C0F30A008C49C88285
:1055C00005F11100192190FBF1F201FB1200205CA2
:1055D000011105F11200192290FBF2F302FB1300F6
:1055E000205C41EA0010C0F30A008149088305F1FC
:1055F0001200192190FBF1F201FB1200205CC11195
:1056000005F11300192290FBF2F302FB1300205C5A
:1056100041EA400105F1140090FBF2F302FB130094
:10562000205C41EA4020C0F30A007149488305F13B
:105630001400192190FBF1F201FB1200205C811093
:1056400005F11500192290FBF2F302FB1300205C18
:1056500041EA8010C0F30A006549888305F115000E
:10566000192190FBF1F201FB1200205C411105F1C0
:105670001600192290FBF2F302FB1300205C41EAB2
:10568000C0005B49C8830846B0F90C0040F2DC5109
:10569000884204DD0320564981F820000EE054487A
:1056A000B0F90C00B0F5FA7F04DA0120504981F816
:1056B000200003E002204E4981F820004C48B0F958
:1056C000080040F2DC51884204DD0220484981F89C
:1056D00021000EE04648B0F90800B0F5FA7F04DA80
:1056E0000120434981F8210003E00320404981F86B
:1056F000210001203E4981F8350006E001203C49A7
:1057000081F83500002081F83400394890F83700DE
:1057100010BB38A13A48FFF733FB0020344981F829
:105720003400FFF7CBFC58B10220314981F8340036
:10573000012081F8370033A13148FFF721FB54E005
:1057400001202B4981F83400002081F8370031A175
:105750002B48FFF715FB48E02548B0F9000040F65C
:10576000C41188422CDC2248B0F90000642827DBF1
:105770001F48B0F90200884222DC1D48B0F902003F
:1057800064281DDB1A48B0F90400884218DC184868
:10579000B0F90400642813DB154890F820000328B2
:1057A0000EDC134890F82000012809DB104890F81F
:1057B0002100032804DC0E4890F82100012809DAB2
:1057C00017A10F48FFF7DCFA0320094981F83400DC
:1057D00000202DE50F20064981F83400FFF7D6FBA5
:1057E0000348006B401C02490863012020E50000CB
:1057F000ED010020524320496E6974200000000032
:10580000004400407375636365737366756C210AA9
:10581000000000006661696C65642E2E0A000000BD
:105820004552524F520A000010B5CF4890F836004A
:10583000012854D1CDA1D048FFF7A2FACA48B0F947
:105840000010CD48FFF7E9F90921CB48FFF7D6F959
:10585000CAA1C948FFF794FAC348B0F90210C64874
:10586000FFF7DBF90921C448FFF7C8F9C5A1C24811
:10587000FFF786FABC48B0F90410BF48FFF7CDF92E
:105880000921BD48FFF7BAF9C0A1BB48FFF778FA74
:10589000B548B0F90610B848FFF7BFF90921B64876
:1058A000FFF7ACF9BBA1B448FFF76AFAAE4890F82D
:1058B0002010B148FFF7B1F90921AF48FFF79EF971
:1058C000B6A1AD48FFF75CFAA74890F82110AA48A6
:1058D000FFF7A3F90A21A848FFF790F978E0A2485A
:1058E00090F83600022873D1AEA1A348FFF748FA1A
:1058F0009D48B0F90010A048FFF78FF909219E4894
:10590000FFF77CF99848B0F902109B48FFF785F93A
:1059100009219948FFF772F99348B0F904109648A5
:10592000FFF77BF909219448FFF768F98E48B0F931
:1059300006109148FFF771F909218F48FFF75EF9CA
:105940008948B0F908108C48FFF767F909218A489F
:10595000FFF754F98448B0F90A108748FFF75DF95A
:1059600009218548FFF74AF97F48B0F90C108248B1
:10597000FFF753F909218048FFF740F97A48B0F959
:105980000E107D48FFF749F909217B48FFF736F9EA
:1059900080A17948FFF7F4F9734890F82010764811
:1059A000FFF73BF909217448FFF728F97BA17248FA
:1059B000FFF7E6F96C4890F821106F48FFF72DF9D2
:1059C0000A216D48FFF71AF90A216B48FFF716F90B
:1059D00010BDF0B58DB00024002503270026AE22AF
:1059E0002146641C0DF80120EA222146641C0DF8B2
:1059F000012000222146641C0DF801202146641C70
:105A00000DF801705848006B020E2146641C0DF819
:105A100001205548006BC0F307422146641C0DF875
:105A200001205148008EC0F307222146641C0DF866
:105A300001204D4890F830202046611CCCB20DF872
:105A4000002049480088C0F307222046611CCCB2E0
:105A50000DF80020444802782046611CCCB20DF8B5
:105A6000002041484088C0F307222046611CCCB288
:105A70000DF800203C4882782046611CCCB20DF81D
:105A8000002039488088C0F307222046611CCCB230
:105A90000DF80020344802792046611CCCB20DF884
:105AA00000203148C088C0F307222046611CCCB2D8
:105AB0000DF800202C4882792046611CCCB20DF8EC
:105AC0000020294890F820202046611CCCB20DF817
:105AD0000020254890F821202046611CCCB20DF80A
