:020000040800F2
:10000000A01100209D010008455A0008BD2C0008E1
:10001000594D00084B160008F7800008000000004A
:10002000000000000000000000000000F96D000862
:100030008928000800000000155B0008C16F000857
:10004000B7010008B7010008B7010008B7010008B0
:10005000B7010008B7010008712B0008B7010008BC
:10006000B7010008B7010008B7010008B701000890
:10007000B7010008B7010008B7010008B701000880
:10008000CD240008B7010008B7010008B701000837
:1000900051160008B7010008B7010008B7010008B1
:1000A000B7010008B7010008B7010008B701000850
:1000B000B9700008B7010008B7010008B7010008CF
:1000C000B7010008B7010008B7010008B701000830
:1000D000B7010008A1780008617B00084D7C00088A
:1000E000832B0008B7010008B7010008B70100081A
:1000F000B7010008B7010008B7010008B701000800
:10010000B7010008B7010008B7010008B7010008EF
:10011000B1750008C1760008D17000081D71000893
:10012000B7010008B701000821250008B701000841
:10013000B7010008B7010008B7010008B7010008BF
:1001400081160008B7010008B7010008B7010008D0
:10015000B7010008B701000871250008717E00088A
:10016000B7010008B7010008B7010008B70100088F
:10017000B7010008B7010008B7010008B70100087F
:10018000B7010008B7010008DFF80CD000F02EFC22
:100190000048004755B10008A011002006488047DC
:1001A00006480047FEE7FEE7FEE7FEE7FEE7FEE75C
:1001B000FEE7FEE7FEE7FEE7517000088901000850
:1001C0002DE9F0410024061B254671F1000605DAF1
:1001D00001240027D0EB070067EB0101161E73F125
:1001E000000605DA0027D2EB0702012567EB0303BF
:1001F00000F09CFA86460E4617469C46AC4204D058
:100200000025D0EB050E65EB010624B10020D2EBF2
:10021000000760EB030C704631463A466346BDE882
:10022000F08140EA01039B0703D009E008C9121FCF
:1002300008C0042AFAD203E011F8013B00F8013BA0
:10024000521EF9D27047D2B201E000F8012B491ECC
:10025000FBD270470022F6E710B513460A46044663
:100260001946FFF7F0FF204610BD30B504460020C8
:10027000034600E05B1C934203D2E05CCD5C401B74
:10028000F8D030BD2DE9FE4F804681EA0300C00F53
:100290000C46009021F0004123F00045B8EB02002D
:1002A000A94105D24046214690461C460B460246CF
:1002B00023F00040104347D0270DC7F30A00C3F3D3
:1002C0000A510290401A019040286BDAC3F31300E0
:1002D00040F4801B0098924620B10023D2EB030A21
:1002E00063EB0B0B01985946C0F14002504600F0F9
:1002F0004EFA06460D4650465946019A00F066FAF7
:1003000010EB08006141002487EA115284EAE77388
:100310001A4340D0009A62B3019A012A4FEA075269
:1003200015DC001B61EB02014FF0004202EA0752AC
:10033000CDE90042001C41F5801132462B4600F009
:100340009DFA03B0BDE8F08F40462146F9E7001B57
:1003500061EB0201001C41F5801300185B4120187D
:10036000A2F5001747EB030140EAD570B6196D41BD
:1003700011E06D084FEA360645EAC0754FEA0752AC
:10038000001B61EB0201001C41F5801149084FEA96
:1003900030000019514132462B4603B0BDE8F04F02
:1003A00000F05DBA0098012240000023D0EB020269
:1003B00063EBE073009821464FEAE074B8EB00006D
:1003C00061EB0401E9E783F000435BE781F0004162
:1003D00058E72DE9FE4F81EA030404F0004421F0C0
:1003E000004100944FF0000B23F0004350EA010459
:1003F0005ED052EA03045BD0C3F30A54C1F30A553A
:100400002C44A4F2F3340194A0FB0254C1F3130171
:1004100041F48011C3F3130343F4801301FB02443E
:1004200000FB034E840A970A44EA815447EA835743
:10043000A4FB076802958D0A05FB07854FEA932CFC
:1004400004FB0C542705029D4FEA065847EA16376D
:10045000B5EB08056EEB070C870E920E47EA811785
:1004600042EA8312A7FB0201B6EB0B0164EB000426
:100470002B0D43EA0C335E1844EB1C50DA46514610
:10048000E7FB0201C5F313044FEA0B3343EA1453AD
:100490004FEA0432019C43EA0603A4F10C040294DF
:1004A000009CCDE900B400F0E9F903B0BDE8F08F9D
:1004B00000200146F9E72DE9F04D81EA030404F03C
:1004C000004B21F0004514464FF0000A23F0004194
:1004D00050EA050220D054EA01021DD0C5F30A57A4
:1004E0000246C5F31303C1F31300C1F30A5640F4E7
:1004F000801543F48013A7EB0608101BD64608F2BC
:10050000FD3873EB050002D308F1010801E09218F1
:100510005B41B8F1000F03DA00200146BDE8F08D21
:1005200000204FF48011064684460EE0171B73EB43
:10053000050705D3121B63EB050306434CEA010CC8
:1005400049084FEA300092185B4150EA0107EDD1AB
:1005500052EA030012D082EA040083EA050108434C
:1005600005D0101BAB4106D20122002306E0002279
:100570004FF0004302E06FF0010253101AEB060047
:100580004CEB085110EB0A0041EB0B01BDE8F04DBC
:1005900000F065B90EB5C10F80EAE0700844CA07E3
:1005A000002140F233438DE80E000A460B4600F06E
:1005B00065F903B000BD0EB540F233410291002150
:1005C000CDE900110A460B4600F058F903B000BD12
:1005D00070B5C1F30A5201F000450024C1F31301C4
:1005E00040F2FF3341F480119A4201DA002070BDDD
:1005F00040F233439A42A2F2334203DC524200F00B
:10060000D5F800E090402C43F1D0404270BDC1F3DA
:100610000A5210B5C1F3130140F2FF3341F48011C7
:100620009A4201DA002010BD40F233439A42A2F20E
:10063000334203DC524200F0B9F810BD904010BDC7
:1006400000F0004230F000400AD0C10D01F56071A9
:10065000C0F3160042EA0151C20840071143704737
:10066000002001467047000030B5041E71F10004FF
:1006700004DB4FF00044404264EB0101141E73F1AF
:10068000000405DB1C464FF00043524263EB0403B9
:100690008B4208BF824230BD30B5041E71F10004A8
:1006A00004DB4FF00044404264EB0101141E73F17F
:1006B000000405DB1C464FF00043524263EB040389
:1006C000994208BF904230BD01F0004330B421F0A0
:1006D000004150EA010206D00A0DA2F56072C1F392
:1006E0001301002A02DC30BC00207047440F44EAAA
:1006F000C104C100E01830BC00EBC25000F078B873
:1007000030B50B46014600202022012409E021FAE1
:1007100002F59D4205D303FA02F5491B04FA02F5DE
:100720002844151EA2F10102F1DC30BD2DE9F05F75
:100730000546002092469B46884606468146402450
:100740001BE0284641464746224600F02FF8534614
:100750005A46C01A914110D311461846224600F05D
:1007600016F82D1A67EB01084F462246012000219A
:1007700000F00DF817EB00094E41201EA4F1010412
:10078000DFDC484631462A464346BDE8F09F202A32
:1007900004DB203A00FA02F1002070479140C2F1D8
:1007A000200320FA03F3194390407047202A04DB0A
:1007B000203A21FA02F00021704721FA02F3D040DA
:1007C000C2F120029140084319467047202A06DBF7
:1007D000CB17203A41FA02F043EAE07306E041FA0F
:1007E00002F3D040C2F120029140084319467047FD
:1007F0000029A8BF7047401C490008BF20F0010035
:10080000704710B4B0FA80FC00FA0CF050EA010412
:1008100004BF10BC704749B1CCF1200421FA04F4A4
:1008200011FA0CF118BF012121430843A3EB0C017D
:10083000CB1D4FEA00614FEA102042BF002010BCE0
:10084000704700EBC35010440029A4BF10BC704790
:10085000401C490008BF20F0010010BC704710B5D3
:10086000141E73F1000408DA401C41F100019218D3
:100870005B411A4301D120F0010010BD2DE9F04D7C
:1008800092469B4611B1B1FA81F202E0B0FA80F2D1
:1008900020329046FFF77BFF04460F4640EA0A00ED
:1008A00041EA0B0153465A46084313D0114653EA16
:1008B000010019D0C8F140025046FFF777FF054606
:1008C0000E46504659464246FFF761FF084305D0A1
:1008D000012004E020463946BDE8F08D00200543A4
:1008E00046EAE0762C4337430A986305E40AA0EB16
:1008F00008000022FD0A44EA47540A3002D50020CD
:100900000146E9E7010510196941DDE908450019CB
:100910006941BDE8F04DA2E72DE9F04D00231A46EC
:100920001B1A8A4103DB00200146BDE8F08DC1F3AC
:100930000A52C1F3130141F480154FF0000BD107A7
:1009400002D100186D41521E0027044640F2FF11EB
:10095000384601EB620A3E468046024600204FF4CC
:100960008011FFF723FFC2197141BB1846EB01004C
:10097000B4EB030C75EB000C04D3E41A65EB000533
:1009800017460E46241908F101006D4180463428AF
:10099000E3DDF91946EB0600091BA84103D24FF02D
:1009A000FF32134601E0002213461BEB070046EB23
:1009B0000A51BDE8F04DFFF752BFC1F30A52C1F32F
:1009C000130140F2FF3341F480119A4202DA002011
:1009D0000146704740F233439A42A2F2334202DCAE
:1009E0005242FFF7E3BEFFF7D2BE0000064C074DB0
:1009F00006E0E06840F0010394E8070098471034EF
:100A0000AC42F6D3FFF7C4FBD4D60008F4D60008F6
:100A100000B52DED040B9BB09FEDFD0A8DED1A0A7C
:100A20009FEDFC0A8DED190A9FEDFA0A8DED180A6B
:100A30009FEDF70A8DED170A9FEDF50A8DED160A69
:100A40009FEDF30A8DED150A9FEDF10A8DED140A65
:100A50009FEDEF0A8DED130A9FEDED0A8DED120A61
:100A60009FEDEB0A8DED110A9FEDE90A8DED100A5D
:100A70009DED1B0ADDED1D0A9DED181A00EEC10A61
:100A80008DED0F0A9DED1C0ADDED1D0A9DED191A75
:100A900000EE810A8DED0E0A9DED0F0A20EE000A90
:100AA000DDED0E0A00EEA00A8DED030A0398FFF7B4
:100AB000C7FDCDE904019DED040B08F0C7FB8DEDEA
:100AC000060B9DED060B51EC100BFFF7FDFD13908F
:100AD0009DED1B0ADDED1D0A9DED181A00EEC10A01
:100AE0008DED0D0A9DED1C0ADDED1D0A9DED191A17
:100AF00000EEC10A8DED0C0A9DED0D0A60EE000AB4
:100B00009DED0C0A40EE000ACDED030A0398FFF7B5
:100B100097FDCDE904019DED040B08F097FB8DEDE9
:100B2000060B9DED060B51EC100BFFF7CDFD12905F
:100B30009DED1B0ADDED1D0A9DED181A00EE810AE0
:100B40008DED0B0A9DED1C0ADDED1D0A9DED191AB8
:100B500000EEC10A8DED0A0A9DED0B0A20EE000A97
:100B6000DDED0A0A00EEA00A8DED030A0398FFF7F7
:100B700067FDCDE904019DED040B08F067FB8DEDE9
:100B8000060B9DED060B51EC100BFFF79DFD119030
:100B90009DED1B0ADDED1D0A9DED181A00EE810A80
:100BA0008DED090A9DED1C0ADDED1D0A9DED191A5A
:100BB00000EE810A8DED080A9DED090A20EE000A7B
:100BC000DDED080A00EEA00A8DED030A0398FFF799
:100BD00037FDCDE904019DED040B08F037FB8DEDE9
:100BE000060B9DED060B51EC100BFFF76DFD109001
:100BF0000220894981F841001B98FFF721FDCDE9CA
:100C000004019DED040B08F017FB8DED060B9FED25
:100C1000830B53EC102B9DED060B51EC100BFFF7E3
:100C20003BFD7DD29DED0F0ADDED130A80EE201A0B
:100C30008DED031A0398FFF703FDCDE904019DED47
:100C4000040B07F0ADFC8DED060B9DED060B51EC92
:100C5000100BFFF739FD17909DED0D0ADDED120A1F
:100C600080EE201A8DED031A0398FFF7E9FCCDE919
:100C700004019DED040B07F093FC8DED060B9DED3B
:100C8000060B51EC100BFFF71FFD16909DED0B0AA4
:100C9000DDED110A80EE201A8DED031A0398FFF79F
:100CA000CFFCCDE904019DED040B07F079FC8DED3F
:100CB000060B9DED060B51EC100BFFF705FD159093
:100CC0009DED090ADDED100A80EE201A8DED031A64
:100CD0000398FFF7B5FCCDE904019DED040B07F087
:100CE0005FFC8DED060B9DED060B51EC100BFFF735
:100CF000EBFC14901798FFF7A3FC9FED4A0B53EC05
:100D0000102BCDE906019DED060B51EC100BFFF702
:100D1000C3FC19D21798FFF793FC9FED440B00E03A
:100D200049E153EC102BCDE904019DED040B51EC8E
:100D3000100BFFF74BFBCDE906019DED060B51ECC7
:100D4000100BFFF7C1FC17901698FFF779FC9FED89
:100D5000350B53EC102BCDE906019DED060B51EC44
:100D6000100BFFF799FC17D21698FFF769FC9FED5F
:100D70002F0B53EC102BCDE904019DED040B51EC2E
:100D8000100BFFF723FBCDE906019DED060B51EC9F
:100D9000100BFFF799FC16901598FFF751FC9FED8B
:100DA000210B53EC102BCDE906019DED060B51EC08
:100DB000100BFFF771FC17D21598FFF741FC9FED60
:100DC0001B0B53EC102BCDE904019DED040B51ECF2
:100DD000100BFFF7FBFACDE906019DED060B51EC78
:100DE000100BFFF771FC15901498FFF729FC9FED8D
:100DF0000D0B53EC102BCDE906019DED060B51ECCC
:100E0000100BFFF749FC2AD21498FFF719FC11E0E8
:100E100000000000CDCCCC3ED00200207B14AE47B9
:100E2000E17A843F4AD8124DFB21F93F4AD8124D4E
:100E3000FB2109401FED030B53EC102BCDE90401FE
:100E40009DED040B51EC100BFFF7C0FACDE9060144
:100E50009DED060B51EC100BFFF736FC14909DED49
:100E60001B0AB5EEC00AF1EE10FA13DB9DED1D0A68
:100E7000B5EEC00AF1EE10FA0CDB9DED160AB1EEEC
:100E8000400A8DED160A9DED150AB1EE400A8DED72
:100E9000150A07E29DED1B0AB5EEC00AF1EE10FA45
:100EA00013DB9DED1D0AB5EEC00AF1EE10FA0CD26F
:100EB0009DED170AB1EE400A8DED170A9DED140A5B
:100EC000B1EE400A8DED140AECE19DED1B0AB5EE82
:100ED000C00AF1EE10FA33D29DED1D0AB5EEC00A3C
:100EE000F1EE10FA2CD89DED170AB1EE400A8DED07
:100EF000170A9DED140AB1EE400A8DED140A9DED1E
:100F0000130A8DED1A0A9DED100AB1EE400A8DED1F
:100F1000130A9DED1A0AB1EE400A8DED100A9DEDFF
:100F2000120A8DED1A0A9DED110AB1EE400A8DEDFF
:100F3000120A9DED1A0AB1EE400A8DED110AB1E1D7
:100F40009DED1B0AB5EEC00AF1EE10FAA1D29DED9F
:100F50001D0AB5EEC00AF1EE10FA9ADD9DED160AF3
:100F6000B1EE400A8DED160A9DED150AB1EE400A6C
:100F70008DED150A9DED130A8DED1A0A9DED100AEF
:100F8000B1EE400A8DED130A9DED1A0AB1EE400A4A
:100F90008DED100A9DED120A8DED1A0A9DED110AD4
:100FA000B1EE400A8DED120A9DED1A0AB1EE400A2B
:100FB0008DED110A76E11B98FFF742FBCDE90401A4
:100FC0009DED040B08F038F98DED060B1FED6D0B50
:100FD00053EC102B9DED060B51EC100BFFF744FB6F
:100FE0007ED21D98FFF72CFBCDE904019DED040B8B
:100FF00008F022F98DED060B1FED780B53EC102B4A
:101000009DED060B51EC100BFFF746FBE8D29DED72
:101010000F0ADDED130A80EE201A8DED031A0398F6
:10102000FFF70EFBCDE904019DED040B07F0B8FAC4
:101030008DED060B9DED060B51EC100BFFF744FBFD
:1010400017909DED0D0ADDED120A80EE201A8DED50
:10105000031A0398FFF7F4FACDE904019DED040BA0
:1010600007F09EFA8DED060B9DED060B51EC100B73
:10107000FFF72AFB16909DED0B0ADDED110A80EEBD
:10108000201A8DED031A0398FFF7DAFACDE904016F
:101090009DED040B07F084FA8DED060B9DED060B1C
:1010A00051EC100BFFF710FB15909DED090ADDEDDB
:1010B000100A80EE201A8DED031A0398FFF7C0FA8C
:1010C000CDE904019DED040B07F06AFA8DED060BE6
:1010D0009DED060B51EC100BFFF7F6FA149000E0B3
:1010E000C0E01798FFF7ACFA1FEDB20B53EC102BD2
:1010F000CDE906019DED060B51EC100BFFF7CCFA84
:1011000017D21798FFF79CFA1FEDB80B53EC102B72
:10111000CDE904019DED040B51EC100BFFF756F9DE
:10112000CDE906019DED060B51EC100BFFF7CCFA53
:1011300017901698FFF784FA1FEDC60B53EC102B8F
:10114000CDE906019DED060B51EC100BFFF7A4FA5B
:1011500017D21698FFF774FA1FEDCC0B53EC102B37
:10116000CDE904019DED040B51EC100BFFF72EF9B6
:10117000CDE906019DED060B51EC100BFFF7A4FA2B
:1011800016901598FFF75CFA1FEDDA0B53EC102B55
:10119000CDE906019DED060B51EC100BFFF77CFA33
:1011A00017D21598FFF74CFA1FEDE00B53EC102BFC
:1011B000CDE904019DED040B51EC100BFFF706F98E
:1011C000CDE906019DED060B51EC100BFFF77CFA03
:1011D00015901498FFF734FA1FEDEE0B53EC102B1B
:1011E000CDE906019DED060B51EC100BFFF754FA0B
:1011F00017D21498FFF724FA1FEDF40B53EC102BC1
:10120000CDE904019DED040B51EC100BFFF7DEF866
:10121000CDE906019DED060B51EC100BFFF754FADA
:1012200014909DED1D0AB5EEC00AF1EE10FA0CDD2A
:101230009DED160AB1EE400A8DED160A9DED150AD8
:10124000B1EE400A8DED150A2CE09DED170AB1EEC6
:10125000400A8DED170A9DED140AB1EE400A8DED9E
:10126000140A1FE09FEDE90A8DED170A9FEDE70ACA
:101270008DED160A9FEDE50A8DED150A9FEDE30A47
:101280008DED140A9FEDE10A8DED130A9FEDDF0A43
:101290008DED120A9FEDDD0A8DED110A9FEDDB0A3F
:1012A0008DED100A1798FFF7CBF99FEDD90B53EC92
:1012B000102BCDE904019DED040B51EC100BFFF751
:1012C00088F8CDE906019DED060B51EC100BFFF7F8
:1012D000FBF917901698FFF7B3F99FEDCD0B53EC80
:1012E000102BCDE904019DED040B51EC100BFFF721
:1012F00070F8CDE906019DED060B51EC100BFFF7E0
:10130000E3F916901598FFF79BF99FEDC10B53EC8D
:10131000102BCDE904019DED040B51EC100BFFF7F0
:1013200058F8CDE906019DED060B51EC100BFFF7C7
:10133000CBF915901498FFF783F99FEDB50B53EC9B
:10134000102BCDE904019DED040B51EC100BFFF7C0
:1013500040F8CDE906019DED060B51EC100BFFF7AF
:10136000B3F914909DED170ADFEDAB0AB4EEE00A75
:10137000F1EE10FA04DD9FEDA80A8DED170A0CE0DE
:101380009DED170ADFEDA50AB4EEE00AF1EE10FAC2
:1013900003D29FEDA20A8DED170A9DED160ADFED2F
:1013A0009E0AB4EEE00AF1EE10FA04DD9FED9A0A0F
:1013B0008DED160A0CE09DED160ADFED980AB4EEED
:1013C000E00AF1EE10FA03D29FED940A8DED160AB1
:1013D0009DED150ADFED900AB4EEE00AF1EE10FA89
:1013E00004DD9FED8D0A8DED150A0CE09DED150ACB
:1013F000DFED8A0AB4EEE00AF1EE10FA03D29FEDB7
:10140000870A8DED150A9DED140ADFED830AB4EE0F
:10141000E00AF1EE10FA04DD9FED7F0A8DED140A6B
:101420000CE09DED140ADFED7D0AB4EEE00AF1EE6A
:1014300010FA03D29FED790A8DED140A9DED170A7B
:10144000DFED770A20EE200AF7EE000A80EE201A80
:10145000BDEEC10A10EE100A724908619DED160A30
:10146000DFED6F0A20EE200AF7EE000A80EE201A68
:10147000BDEEC10A10EE100A48619DED150ADFEDC0
:10148000680A20EE200AF7EE000A80EE201ABDEE70
:10149000C10A10EE100A88619DED140ADFED600AA2
:1014A00020EE200AF7EE000A80EE201ABDEEC10AF7
:1014B00010EE100AC8611398FFF7C2F89FED5A0B9F
:1014C00053EC102BCDE900019DED000B51EC100BFE
:1014D000FEF77FFFCDE902019DED020B51EC100BF1
:1014E00081F000419FED520B53EC102BCDE904012C
:1014F0009DED040B51EC100BFEF7DDFFCDE906016D
:101500009DED060B51EC100BFFF762F800B2454958
:1015100048801298FFF794F89FED430B53EC102B83
:10152000CDE900019DED000B51EC100BFEF751FFD2
:10153000CDE902019DED020B51EC100B81F0004151
:101540009FED3B0B53EC102BCDE904019DED040BFB
:1015500051EC100BFEF7AFFFCDE906019DED060B38
:1015600051EC100BFFF734F801B22E48818011982E
:10157000FFF766F89FED2C0B53EC102BCDE9020121
:101580009DED020B51EC100BFEF723FF9FED280B96
:1015900053EC102BCDE904019DED040B51EC100B25
:1015A000FEF789FFCDE906019DED060B51EC100B0E
:1015B000FFF70EF801B21B48C1801098FFF740F802
:1015C0009FED190B53EC102BCDE902019DED020BA1
:1015D00051EC100BFEF7FDFE9FED150B53EC102B9D
:1015E000CDE904019DED040B51EC100BFEF763FFF8
:1015F000CDE906019DED060B51EC100BFEF7E8FF5F
:1016000001B2084801811FB000BD000000000000C9
:101610006666666666A64C4000007042000070C2B6
:101620000000C842D00200207D0569C6A281514059
:10163000000000000000F03F10B504460B2246F207
:10164000F701204602F064FF10BD00BFFEE7000076
:1016500010B50221074800F06FF9012809D1064AA8
:101660000021044800F0F0FA02F022F901200349B9
:10167000087010BD006400404801002040000020B8
:1016800010B50221074800F057F9012809D1064A90
:101690000021044800F0D8FA03F0FCF801200349C7
:1016A000087010BD006800405C010020420000206E
:1016B00010B50446204600F0D9F8204600F060FA44
:1016C000204600F0A5F8204600F094FA10BD000076
:1016D00010B504460B48844209D10121480604F0A4
:1016E0003BFA00214FF0007004F036FA08E00121C7
:1016F000880604F031FA00214FF0806004F02CFAE3
:1017000010BD00000064004010B50021837A012262
:1017100002FA03F13D4A126842F001023B4B1A60A3
:101720003A4A1C3212688A43384B1C331A60027BD7
:10173000CAB9364A0C3212688A43344B0C331A60E9
:101740004288C38842EA0343304A4032847A42F8EE
:1017500034300288838842EA03432C4A4032847A38
:1017600002EBC4025360027B012A19D1274A0C32D2
:1017700012680A43254B0C331A604288038842EAF8
:101780000343224A4032847A42F83430C288838844
:1017900042EA03431D4A4032847A02EBC40253609A
:1017A000C27A3AB9194A121D12688A43174B1B1D97
:1017B0001A6006E0154A121D12680A43134B1B1DDE
:1017C0001A60028932B9114A143212688A430F4BE7
:1017D00014331A600289012A06D10C4A14321268A5
:1017E0000A430A4B14331A60427B012A06D1074A86
:1017F0001C3212680A43054B1C331A60034A1268F4
:1018000022F00102014B1A6010BD0000006600408A
:101810001FB504461448844203D100208DF80A0005
:1018200002E00E208DF80A0000208DF80B00012048
:101830008DF80C000020ADF8000042F60440ADF831
:1018400002000020ADF80400ADF80600ADF8080075
:1018500001208DF80D006846FFF756FF0122022196
:10186000204600F0F9F81FBD006400401CB5044696
:101870002E4884422BD10121480604F05DF9012154
:10188000082004F049F909220021294801F0E2F971
:1018900009220121264801F0DDF9022000908DF88F
:1018A00004008DF8050000208DF8060001208DF859
:1018B000070069461E4801F085F9012000900220CA
:1018C0008DF8040069461A4801F07CF92DE00121E9
:1018D000880604F031F90121022004F01DF90922E3
:1018E0000C21144801F0B6F909220D21114801F02C
:1018F000B1F94FF40050009002208DF804008DF8EB
:10190000050000208DF8060001208DF807006946CB
:10191000084801F057F94FF48050009002208DF8EC
:1019200004006946034801F04DF91CBD0064004005
:10193000000C02400004024070B504460D4600262B
:1019400060692840002871D0B5F5807F5CD010DC3C
:10195000082D35D006DC012D20D0022D24D0042DF9
:1019600072D127E0102D31D0202D35D0402D6BD1F4
:1019700038E0B5F5004F60D009DCB5F5007F49D0FF
:10198000B5F5806F4CD0B5F5006F5DD14FE0B5F582
:10199000803F2DD0B5F5003F56D12FE0A0682D49EE
:1019A00000F08AFD064651E0E068032100F084FD66
:1019B00006464BE0E068082100F07EFD064645E063
:1019C000E068102100F078FD06463FE02069032121
:1019D00000F072FD064639E02069082100F06CFD38
:1019E000064633E02069102100F066FD06462DE032
:1019F0006068082100F060FD064627E0606810215D
:101A000000F05AFD064621E0A069012100F054FDD6
:101A100006461BE0A069022100F04EFD064615E0D7
:101A2000A069042100F048FD06460FE00FE0A06920
:101A3000702100F041FD064608E06068042100F0D6
:101A40003BFD064602E0FFE7002600BF00E000265F
:101A5000304670BD010101001AB143690B43436177
:101A600002E043698B434361704730B50246002072
:101A70000023146824F002041460146844F0010484
:101A8000146000E05B1C546804F001041CB94FF6BC
:101A9000FF74A342F6D1546804F001040CB900208D
:101AA0006CE08C79012C04D1146844F0800414603B
:101AB00003E0146824F080041460CC79012C04D174
:101AC000146844F04004146003E0146824F04004F7
:101AD00014600C7A012C04D1146844F020041460C2
:101AE00003E0146824F0200414604C7A012C04D123
:101AF000146844F01004146003E0146824F0100427
:101B000014608C7A012C04D1146844F00804146029
:101B100003E0146824F008041460CC7A012C04D18A
:101B2000146844F00404146003E0146824F004040E
:101B300014608C78A407CD7844EA05640D7944EAF2
:101B400005444D7944EA05540D886D1E2C43D4613B
:101B5000146824F001041460002300E05B1C546846
:101B600004F001041CB14FF6FF74A342F6D154688F
:101B700004F001040CB1002000E0012030BD0000A1
:101B80003EB504461A48844204D10121480603F0B8
:101B9000D3FF04E001214FF0C06003F0CDFF2046E9
:101BA000FFF796FD684600F0C7F800208DF80600A4
:101BB00001208DF807008DF8080000208DF809003D
:101BC0008DF80A008DF80B008DF8020001208DF8C9
:101BD000030003208DF8040001208DF80500062085
:101BE000ADF8000069462046FFF73FFF3EBD00000C
:101BF0000064004038B504464FF4C06003F060FF55
:101C0000104884420ED114208DF8000000208DF879
:101C100001008DF8020001208DF80300684603F0F2
:101C200013FF0DE040208DF8000000208DF801002A
:101C300001208DF802008DF80300684603F004FFD0
:101C400038BD00000064004010B500F5D87303EB08
:101C500001131B6803F004031372137A53B900F5E0
:101C6000D87303EB01131B6840F2FF7404EA53536B
:101C7000136009E000F5D87303EB01131B686FF0E4
:101C8000604404EAD303536000F5D87303EB0113F7
:101C90001B6803F00203537200F5D87303EB0113C2
:101CA0005B6803F00F03937200F5D87303EB011325
:101CB0005B681B0AD37400F5D87303EB01139B68B0
:101CC000D37200F5D87303EB01139B681C0A1473DD
:101CD00000F5D87303EB01139B681C0C547300F5DB
:101CE000D87303EB01139B681B0E937300F5D87335
:101CF00003EB0113DB68D37300F5D87303EB011317
:101D0000DB681C0A147400F5D87303EB0113DB685D
:101D10001C0C547400F5D87303EB0113DB681B0E25
:101D2000937421B9C36843F02003C36003E00369DF
:101D300043F02003036110BD00218171C171017264
:101D400041728172C1728170C170032101710221DF
:101D5000417101210180704710B50246002093684F
:101D600003F08063B3F1806F00D110E0936803F05B
:101D70000063B3F1006F01D1012008E0936803F024
:101D80008053B3F1805F01D1022000E004200428D9
:101D900074D002F5C07303EB00131B6803F0010459
:101DA00002F5C07303EB00131C600B7A7BB94B7A0E
:101DB0000C8843EA445302F5C07404EB0014246811
:101DC000234302F5C07404EB0014236010E00B7A87
:101DD0004C6843EAC4034C7A234302F5C07404EB15
:101DE00000142468234302F5C07404EB001423603C
:101DF0008B7A03F00F038B7202F5C07303EB0013B1
:101E00005B6823F00F0402F5C07303EB00135C6002
:101E100002F5C07303EB00135B688C7A234302F571
:101E2000C07404EB001463608B7B1C064B7B44EA9C
:101E300003440B7B44EA0323CC7A234302F5C074AA
:101E400004EB0014A3608B7C1C064B7C44EA034427
:101E50000B7C44EA0323CC7B234302F5C07404EBE0
:101E60000014E36002F5C07303EB00131B6843F03A
:101E7000010402F5C07303EB00131C6010BD0000E9
:101E800010B52DED088B9FED600AB0EE409A5F48CB
:101E90008168006C084400EE100AB8EEC00ADFED5D
:101EA0005C0A80EE201A11EE104A2046FEF7C8FBAD
:101EB00041EC1B0B9FED570B53EC102BFEF7FBFA7D
:101EC00041EC1A0BFEF700FC08EE100A4F48D0F860
:101ED000B010806F084400EE100AB8EEC00ADFEDC3
:101EE0004C0A80EE201A11EE104A2046FEF7A8FB9D
:101EF00041EC1B0B9FED470B53EC102BFEF7DBFA6D
:101F000041EC1A0BFEF7E0FB08EE900A38EE280AC7
:101F1000F0EE000A80EE201A404880ED001A9FED96
:101F20003A0A3F4880ED000A38EE680ADFED3D0AC4
:101F300080EE201A3C4880ED001A3C4890F84C0096
:101F400000B33A4890ED0F0A3948D0ED000A30EE60
:101F5000600A10EE101A0846FEF772FB41EC1B0BEC
:101F60009FED340B53EC102BFEF7A5FA41EC1A0B46
:101F7000FEF7AAFB09EE100A2C4890ED0F0A2C4838
:101F800080ED000A284890ED000A10EE100AFEF7D6
:101F900057FB41EC1B0BB0EE4B0AF0EE6B0A07F05F
:101FA0004BF9B0EE40AAF0EE60AA9FED240B53EC83
:101FB000102B51EC1A0BFEF76FFB1CD219EE100A16
:101FC000FEF73EFB41EC1B0BB0EE4B0AF0EE6B0A4A
:101FD00007F032F9B0EE40AAF0EE60AA9FED150BC3
:101FE00053EC102B51EC1A0BFEF756FB08D20E489F
:101FF00080ED009A04E09FED040A0B4880ED000A92
:10200000BDEC088B10BD0000000000001403002090
:102010000000FA441E166A4DF30E5C407800002062
:102020007C000020CDCCCC3E80000020D4040020D9
:10203000900000209A9999999999A93F0000000071
:102040000000D03F10B52DED028B0446012004F0B6
:10205000DBFD012813D100202F4981F8280081F8E9
:102060004000086100212C4841618161C16100206C
:1020700029494880002128488180C1800181012CA4
:1020800006D0022C13D0032C20D0042C3CD12CE001
:102090002149B1F90200FEF77DFA41EC180BB0EED0
:1020A000480AF0EE680A012002F0E4FA2DE01A492D
:1020B000B1F90800FEF76EFA41EC180BB0EE480AD1
:1020C000F0EE680A042002F0D5FA1EE01249B1F9D8
:1020D0000600FEF75FFA41EC180BB0EE480AF0EE8E
:1020E000680A032002F0C6FA0FE00B49B1F90400B8
:1020F000FEF750FA41EC180BB0EE480AF0EE680A11
:10210000022002F0B7FA00E000BF00BFFFF7B8FE00
:10211000BDEC028B10BD0000D0020020104800680A
:10212000142808D80F480068142818D90E4890F8C9
:102130002000012813D100200C4981F8280081F8E3
:10214000400008610021094841618161C1610020AE
:1021500006494880002105488180C180018170477F
:10216000240000202800002070010020D002002060
:1021700070B590B0002400250026AE222146641CD4
:1021800001A84254EA222146641C425401222146FD
:10219000641C425407222146641C425400BF93E051
:1021A000C5EBC5005C4901EBC0008068020E20460B
:1021B000611CCCB201A90A54C5EBC500564901EB1C
:1021C000C0008068C0F307422046611CCCB201A960
:1021D0000A54C5EBC500504901EBC0008068C0F34C
:1021E00007222046611CCCB201A90A54C5EBC500E8
:1021F000494901EBC0008068C2B22046611CCCB2E4
:1022000001A90A54C5EBC500434901EBC000C069F0
:10221000020E2046611CCCB201A90A54C5EBC500D0
:102220003D4901EBC000C069C0F307422046611C74
:10223000CCB201A90A54C5EBC500374901EBC00077
:10224000C069C0F307222046611CCCB201A90A5420
:10225000C5EBC500304901EBC000C069C2B22046E1
:10226000611CCCB201A90A54C5EBC5002A4951F83A
:102270003000020E2046611CCCB201A90A54C5EB05
:10228000C500254951F83000C0F307422046611CC3
:10229000CCB201A90A54C5EBC5001F4951F8300062
:1022A000C0F307222046611CCCB201A90A54C5EB39
:1022B000C500194951F83000C2B22046611CCCB2A9
:1022C00001A90A54681CC5B2042DFFF669AF601E4F
:1022D000C0B28DF80600022504E001A8405D064466
:1022E000681CC5B2A542F8DB2046611CCCB201A92E
:1022F0000E54EF222046611CCCB201A90A54FE22E2
:102300002046611CCCB201A90A542246034805F0BC
:10231000FEF910B070BD0000140300200010014051
:10232000F0B52DED068B8BB000240026002700258C
:10233000AE222146641C04A84254EA222146641CB1
:10234000425401222146641C4254A7222146641CA7
:1023500042544D4890ED000A10EE100AFEF770F955
:1023600041EC180B494890ED000A10EE100AFEF7F8
:1023700067F941EC190B464890ED000A10EE100A7F
:10238000FEF75EF941EC1A0B8DED028B8DED009B93
:1023900053EC1A2B3FA006F0D9F83D4890ED000A07
:1023A000DFED430A20EE200AF7EE000A80EE201A45
:1023B000BDEEC10A10EE100A05B2C5F30722214690
:1023C000641C04A842542146641C45542F4890EDD7
:1023D000000ADFED370A20EE200AF7EE000A80EE51
:1023E000201ABDEEC10A10EE100A05B2C5F307228D
:1023F0002146641C04A842542046611CCCB204A9A6
:102400000D54214890ED000ADFED290A20EE200A44
:10241000F7EE000A80EE201ABDEEC10A10EE100A97
:1024200005B2C5F307222046611CCCB204A90A54A8
:102430002046611CCCB204A90D54601EC0B28DF8B8
:102440001200022604E004A8805D0744701CC6B296
:10245000A642F8DB2046611CCCB204A90F54EF223F
:102460002046611CCCB204A90A54FE222046611CFD
:10247000CCB204A90A5422460E4805F048F90BB024
:10248000BDEC068BF0BD0000800000207C00002029
:10249000780000206F646F6D20252E3366200920A0
:1024A000252E3366200920252E3366200A000000E1
:1024B00000007A44001001400246002002EA0103B5
:1024C0000BB1012000E000207047000010B500248F
:1024D0000E490F4800F05CF9B0B10C490C4800F00F
:1024E0007BF819200A49091D08600121084800F0FD
:1024F0008DF8084803F0D4FB04462CB101200649AE
:10250000087000200549086010BD00000088002008
:1025100088600240740900203D0000202400002053
:1025200010B50F490F4800F033F9B8B100210D483C
:1025300000F06CF80A490B4800F04EF840210A48B8
:1025400005F0DDFC28200749091D08600121054828
:1025500000F05CF84021054800F0ACFB10BD000025
:10256000008020104064024000100140001402402E
:1025700010B54021084800F09DFB0849084800F0CC
:1025800007F938B10021064800F040F80349044833
:1025900000F008F810BD0000001402400080002880
:1025A000B86402400246094B9A4201D2084801E051
:1025B0000648103801F000531BB1064B0B40C360B6
:1025C00002E0044B0B40836070470000106402403F
:1025D000006002407D0F7D0F0246094B9A4201D2F6
:1025E000084801E00648103801F000531BB1064BC3
:1025F0000B40C36002E0044B0B4083607047000057
:1026000010640240006002407D0F7D0F21B102681E
:1026100042F00102026003E0026822F0010202605F
:1026200070470000016821F0010101600021016094
:1026300041608160C1600161212141614A49884254
:1026400004D13D21484A103A91608CE04649183146
:10265000884205D14FF47461434A103A916082E098
:1026600041493031884205D14FF474113E4A103A45
:10267000916078E03C494831884205D14FF074615F
:10268000394A103A91606EE037496031884204D18E
:102690003649354A103AD16065E03349783188428D
:1026A00004D13349304A103AD1605CE02E49903170
:1026B000884204D12F492C4A103AD16053E02A496C
:1026C000A831884205D14FF03D51274A103AD160D8
:1026D00049E02949884204D13D21274A083A11603E
:1026E00041E025491831884205D14FF47461224AEE
:1026F000083A116037E020493031884205D14FF463
:1027000074111D4A083A11602DE01B494831884276
:1027100005D14FF07461184A083A116023E0164958
:102720006031884204D11149134A121F11601AE026
:1027300011497831884204D10D490F4A121F1160A6
:1027400011E00D499031884204D10A490A4A121F0A
:10275000116008E00849A831884204D14FF03D518A
:10276000054A121F11607047106002403D000020B2
:10277000400F002000003D20106402400146002070
:102780000A6802F001020AB1012000E0002070474F
:1027900070B50246002000240025124EB24201D23C
:1027A000114B01E00F4B103B104E0E4036B11E2670
:1027B00006EAD124166806EA040502E0566906F026
:1027C000800501F000560EB15C6800E01C68084E00
:1027D000344004EA010616B10DB1012000E00020EA
:1027E00070BD000010640240006002403C0F3C0FCE
:1027F0007D0F7D0F10B501F080034BB122B143690D
:1028000043F08003436103E0436923F080034361A5
:1028100080290BD02AB1036801F01E042343036012
:1028200004E0036801F01E04A343036010BD000030
:1028300010B500220268134B1A40CC680B68234382
:102840004C6923438C692343CC6923430C6A23439B
:102850004C6A23438C6A23434C6B23438C6B234386
:102860001A430260426922F00702D1E90B34234384
:102870001A4342610B6943604B6883608B68C36095
:1028800010BD00003F801CF0704700000749086041
:102890004FF0E021096941F001014FF0E0221161A0
:1028A00000BF024909680029FBD17047A000002041
:1028B0002DE9F0412DED0C8BB0EE408AF0EE608AF0
:1028C0000120994981F840009FED980A10EE104AC6
:1028D0009FED960A10EE106A9FED940A10EE107AA2
:1028E0009FED920A10EE105A18EE100AFDF7A8FE9E
:1028F00041EC190B9FED8E0B53EC102BFDF7CCFE2A
:1029000004D29FED8D0AB0EE408A10E018EE100A56
:10291000FDF796FE41EC190B9FED880B53EC102B45
:10292000FDF7A2FE03D29FED870AB0EE408AB1EE1A
:10293000680AF0EE408A18EE100AFDF781FE41ECBD
:10294000190B9FED810B53EC102BFDF7A5FE10D258
:1029500018EE100AFDF774FE41EC190B9FED7C0B8D
:1029600053EC102BFDF780FE03D29FED700AB0EE02
:10297000408A18EE900AFDF763FE41EC190B9FEDBB
:10298000720B53EC102BFDF787FE10D218EE900A55
:10299000FDF756FE41EC190B9FED6D0B53EC102B20
:1029A000FDF762FE03D29FED610AF0EE408A18EE59
:1029B000900AFDF745FE41EC1C0B9FED670B53ECB5
:1029C000102BFDF706FD41EC1A0B18EE100AFDF76F
:1029D00037FE41EC1B0B53EC1A2BFDF753FC41EC7B
:1029E000190BFDF771FE0446264618EE900AFDF716
:1029F00027FE41EC1D0B9FED580B53EC102BFDF700
:102A0000E8FC41EC1B0B18EE100AFDF719FE41EC37
:102A10001C0B53EC1B2BFDF7D6FC41EC1A0B81F081
:102A2000004141EC190BFDF74FFE05462F462046AD
:102A3000FDF706FE41EC1C0B9FED490B53EC102BF0
:102A4000FDF7C7FC41EC1B0B81F0004141EC1A0B78
:102A50009FED450B53EC102BFDF72DFD41EC190BB1
:102A6000FDF7B6FD00B2304948803046FDF7E8FD7D
:102A700041EC1C0B9FED3A0B53EC102BFDF7A9FC1E
:102A800041EC1B0B81F0004141EC1A0B9FED360B22
:102A900053EC102BFDF70FFD41EC190BFDF798FDE2
:102AA00001B2214881803846FDF7CAFD41EC1C0B7C
:102AB0009FED2B0B53EC102BFDF78BFC41EC1B0B0C
:102AC00081F0004141EC1A0B9FED270B53EC102BCA
:102AD000FDF7F1FC41EC190BFDF77AFD01B212484C
:102AE000C1802846FDF7ACFD41EC1C0B9FED1C0B93
:102AF00053EC102BFDF76DFC41EC1B0B81F00041FA
:102B000041EC1A0B9FED180B53EC102BFDF7D3FC87
:102B100041EC190BFDF75CFD01B203480181BDECEE
:102B20000C8BBDE8F0810000D00200200000000006
:102B30009A99999999990140CDCC0C409A99999973
:102B4000999901C0CDCC0CC09A9999999999A9BF2E
:102B50009A9999999999A93F9A9999999999D93F47
:102B600093FE5E0A0F165C40000000000000F03F7C
:102B700010B5012000F016F810B1012000F00CF89B
:102B800010BD10B54FF4005000F00CF818B14FF420
:102B9000005000F001F810BD0149086070470000C6
:102BA000143C014001460020034A12680A400AB161
:102BB000012000E000207047143C014042694A4077
:102BC00042617047F0B50A4600210023002400BF8F
:102BD0003DE0012505FA01F3156805EA03049C426E
:102BE00034D105684F000326BE40B5430560157912
:102BF0004E00B5400668354305601579012D02D0B9
:102C00001579022D16D185684F000326BE40B543C5
:102C1000856055794E00B5408668354385604568C6
:102C200001268E40B5434560456896798E40B6B220
:102C300035434560C5684F000326BE40B543C560B7
:102C4000D5794E00B540C6683543C560491C10298A
:102C5000BFD3F0BDF0B5002300244D07ED0E02FAFE
:102C600005F3CE1000F1200555F826504E07F70E5B
:102C70000F26BE40B543CF1000F1200646F827507E
:102C8000CE1000F1200555F8265045EA0304CE1079
:102C900000F1200545F82640F0BD024600201369EA
:102CA0000B400BB1012000E00020704741837047CA
:102CB0000183704742694A404261704700BFFEE7A6
:102CC00010B508F0AFFC4FF47A71B0FBF1F0104989
:102CD00048640846406C096C401A0D4988640846EF
:102CE000406C086401F07CFE0948806CC82804D957
:102CF0000020074981F84C0003E00120044981F8D5
:102D00004C000348816C03A005F020FC10BD0000BE
:102D1000D4040020494D55206474202564202020CF
:102D20000A0000002DE9F0432DED068B89B0002448
:102D300000250026AB4890ED0E0ADFEDAB0A20EE31
:102D4000200A10EE101A0846FDF77AFC41EC1A0B27
:102D50009FEDA60B53EC102BFDF794FA41EC190BE9
:102D60009FEDA40B53EC102BFDF7A5FB41EC180BCA
:102D7000FDF72EFC07B29B4890ED0D0ADFED9A0A95
:102D800020EE200A10EE101A0846FDF759FC41EC1F
:102D90001A0B9FED960B53EC102BFDF773FA41ECD9
:102DA000190B9FED940B53EC102BFDF784FB41ECBA
:102DB000180BFDF70DFC0FFA80F88A4890ED0F0A0A
:102DC000DFED890A20EE200A10EE101A0846FDF702
:102DD00037FC41EC1A0B9FED850B53EC102BFDF7E4
:102DE00051FA41EC190B9FED830B53EC102BFDF7BF
:102DF00062FB41EC180BFDF7EBFB0FFA80F9AE22FA
:102E00002146641C0DF80120EA222146641C0DF8BD
:102E1000012001222146641C0DF80120A022214638
:102E2000641C0DF801206F480088C0F3072221467A
:102E3000641C0DF801206B4802782146641C0DF8D3
:102E400001204088C0F307222146641C0DF80120B0
:102E5000644882782046611CCCB20DF8002061489D
:102E60008088C0F307222046611CCCB20DF80020F8
:102E70005C4802792046611CCCB20DF8002059480C
:102E8000C088C0F307222046611CCCB20DF8002098
:102E9000544882792046611CCCB20DF8002051487C
:102EA0000089C0F307222046611CCCB20DF8002037
:102EB0004C48027A2046611CCCB20DF800204948EB
:102EC0004089C0F307222046611CCCB20DF80020D7
:102ED0004448827A2046611CCCB20DF8002041485B
:102EE0008089C0F307222046611CCCB20DF8002077
:102EF0003C48027B2046611CCCB20DF800203948CA
:102F0000C089C0F307222046611CCCB20DF8002016
:102F10003448827B2046611CCCB20DF80020314839
:102F2000008AC0F307222046611CCCB20DF80020B5
:102F30002C48027C2046611CCCB20DF80020C7F35F
:102F400007222046611CCCB20DF80020FAB22046C0
:102F5000611CCCB20DF80020C8F307222046611C8A
:102F6000CCB20DF8002008F0FF022046611CCCB264
:102F70000DF80020C9F307222046611CCCB20DF8E1
:102F8000002009F0FF022046611CCCB20DF80020A1
:102F9000601EC0B28DF80200022504E01DF8050095
:102FA0000644681CC5B2A542F8DBF2B22046611C9B
:102FB000CCB20DF80020EF222046611CCCB20DF8F7
:102FC0000020FE222046611CCCB20DF800202246D3
:102FD00069460A4804F09BFB09B0BDEC068BBDE8CE
:102FE000F0830000D40400200000C842000000006C
:102FF0000000E03F000000000000F03F0010014032
:103000000A2000BF011EA0F10102D0B2FADC704715
:103010001CB50121022002F07FFD01208DF8040083
:1030200000208DF80600C020009001208DF80700D8
:1030300002208DF8050069460548FFF7C3FDFFF73C
:10304000DFFFFFF7DDFFFFF7DBFFFFF7D9FF1CBD59
:103050000004024010B540210F48FFF727FE0E483C
:10306000006820F440400C4908600846006840F4BD
:103070008040086080210848FFF718FEFFF7C0FF76
:1030800040210548FFF714FEFFF7BAFF4021024830
:10309000FFF70CFE10BD00000004024010B54021F7
:1030A0000F48FFF703FE0E48006820F440400C492B
:1030B00008600846006840F48040086080210848A5
:1030C000FFF7F6FDFFF79CFF40210548FFF7F0FDF5
:1030D000FFF796FF40210248FFF7E8FD10BD000012
:1030E0000004024070B5054600241848006820F42A
:1030F000404016490860084600680860FFF780FFF6
:10310000FFF77EFF002616E040211048FFF7CEFDB6
:10311000FFF776FF40210D48FFF7CAFD6006040E59
:1031200080210A48FFF7B9FD08B1601CC4B2FFF75F
:1031300067FF701CC6B2082EE6DB15B9FFF7AEFFBD
:1031400001E0FFF787FF204670BD00000004024049
:1031500010B51048006820F440400E490860084649
:10316000006840F48040086080210A48FFF7A0FD15
:1031700040210848FFF79CFDFFF742FF80210548EA
:10318000FFF794FDFFF73CFF40210248FFF78EFD5B
:1031900010BD00000004024010B51048006820F483
:1031A00040400E4908600846006840F480400860CE
:1031B00040210A48FFF77AFD80210848FFF776FD95
:1031C000FFF71EFF40210548FFF772FD80210348ED
:1031D000FFF76EFDFFF714FF10BD00000004024072
:1031E00070B504461948006820F44040174908604B
:1031F0000846006840F48040086040211348FFF70B
:1032000055FD00251EE004F08006802E04D18021AB
:103210000E48FFF74DFD03E080210C48FFF746FD07
:10322000FFF7EEFE6006040E40210848FFF740FD60
:10323000FFF7E6FE40210548FFF738FDFFF7E0FE07
:10324000681CC5B2082DDEDB70BD00000004024022
:1032500010B501225103344802F084F80122910391
:10326000314802F07FF80122D1032F4802F07AF8AA
:10327000002201212D4802F075F8002202212B487E
:1032800002F070F800224FF40061284802F06AF85A
:1032900000224FF48051254802F064F800224FF4D8
:1032A0000051224802F05EF800224FF480411F488E
:1032B00002F058F8002204211C4802F053F80022C2
:1032C00008211A4802F04EF800221021174802F097
:1032D00049F800222021154802F044F8012220215B
:1032E000114802F03FF8012210210F4802F03AF88D
:1032F000012208210C4802F035F8012204210A4875
:1033000002F030F80021012003F0EEFD0021022040
:1033100003F0EAFD0021032003F0E6FD0021042074
:1033200003F0E2FD10BD0000001402400010024056
:1033300010B50121032002F0FFFB8020C1050880A9
:103340004FF6FF70C8620020088501208882A72000
:1033500008818420104908802020091D08804FF62C
:10336000FF700D492C3108605320091F088001208F
:10337000094914310880802007490831088006482F
:10338000008840F00100044908800805008840F0EA
:1033900001000905088010BD000400402DE9F0413E
:1033A0008AB0002400250026AE222146641C01A814
:1033B0004254EA222146641C425401222146641CE4
:1033C0004254AC222146641C4254234802782146D0
:1033D000641C01A842540027042003F015FC4FEAA6
:1033E0000018032003F010FC48EAC008022003F094
:1033F0000BFC48EA8008012003F006FC48EA0008BC
:1034000008F0FF072146641C01A84754601EC0B2A3
:103410008DF80600022504E001A8405D0644681C02
:10342000C5B2A542F8DB2046611CCCB201A90E54FE
:10343000EF222046611CCCB201A90A54FE2220468C
:10344000611CCCB201A90A542246044804F05FF979
:103450000AB0BDE8F08100005900002000100140D2
:10346000F0B585B004460D4646F24006002704F547
:10347000C060009000208DF808008DF80900082039
:103480008DF80A002B208DF80B00F1B28DF80C108E
:1034900031128DF80D108DF80E70E9B28DF80F1005
:1034A00000218DF810108DF811108DF8121069465A
:1034B0000248FEF751FC05B0F0BD0000006400407A
:1034C000F0B585B004460D464FF48E46012704F54D
:1034D000C060009000208DF808008DF809000820D9
:1034E0008DF80A002F208DF80B00F1B28DF80C102A
:1034F00031128DF80D108DF80E708DF80F500021DF
:103500008DF810108DF811108DF8121069460248D0
:10351000FEF722FC05B0F0BD006400402DE9F0414B
:1035200086B0002400254FF0320832271A4A07CA15
:1035300003AB07C319A103C9CDE90101012425E0AB
:1035400000251FE001A8425D03A830F815102046B1
:1035500000F0DEFF404601F08FF9002600BF114861
:10356000007820B93046711C8EB2B842F7DBBE42FB
:1035700004DB21460CA004F0E9FF01E000F03CFB75
:10358000681CC5B2062DDDDB601CC4B2052CD7DB80
:10359000012006B0BDE8F08158C800083A3B3C3D28
:1035A000F1F30000400000204D6F74726F20415015
:1035B000534C3244423A2025642072656164206D88
:1035C0006F746F72204944206661696C640A000060
:1035D0002DE9F0410024322700250526012408E0CA
:1035E00006212046FFF73CFF384601F045F9601CF4
:1035F000C4B2052CF4DB012408E00F212046FFF7BC
:103600002FFF384601F038F9601CC4B2052CF4DBFA
:103610005EA004F09BFFFFF781FF042427E0032155
:10362000204600F0F7FF384601F026F9002510E0AB
:1036300000205D4908705D48016804F5B060814272
:1036400003D100205949086003E0214658A004F046
:103650007DFF554800780028EAD0B54205D1601EAC
:10366000C4B2214660A004F071FF601EC4B2002CF9
:10367000D5DC012405E086212046FFF7F1FE601C21
:10368000C4B2052CF7DB384601F0F6F8012427E038
:103690000F212046FFF7E4FE384601F0EDF8002543
:1036A0000DE00020404908704048016804F5B06012
:1036B000814204D13D48C07A602800D107E03A48F1
:1036C000007820B92846691C8DB2B042E9DB00BF02
:1036D000B54203DB214652A004F038FF601CC4B29F
:1036E000052CD5DB57A004F031FF012409E09FED44
:1036F000610B204600F0BEFF384601F0BDF8601CAB
:10370000C4B2052CF3DB5DA004F020FF012408E027
:103710001C21204600F028FF384601F0ADF8601C5F
:10372000C4B2052CF4DB614804F010FF012415E05D
:103730000521204600F0F4FF384601F09DF8384698
:1037400001F09AF80D21204601F040F8384601F0CA
:1037500093F8384601F090F8601CC4B2052CE7DB02
:1037600001240EE001212046FFF7AAFE384601F0B1
:1037700083F8384601F080F8384601F07DF8601C87
:10378000C4B2052CEEDBBDE8F08100004D4F544F74
:10379000525F4150534C3244425F496E666F725FD4
:1037A0004765742E2E2E0A0040000020480100209C
:1037B0004D6F74726F204150534C3244423A202571
:1037C00064206973206F66666C696E652C2063687F
:1037D00065636B2043414E2062757320636F6E6E8C
:1037E000656374696F6E0A004D6F74726F2041508B
:1037F000534C3244423A202564206E6F7420726527
:1038000073706F6E64696E672C206D6F746F7220B9
:10381000696E6974206661696C65640A0000000065
:103820004D6F74726F204150534C3244423A202500
:103830006420656E61626C65206661696C65640A0E
:10384000000000004D6F74726F204150534C3244A1
:10385000423A20536574204D6F746F722049532093
:10386000312D34205461726765742073706565640E
:103870002030000000000000000000004D6F747256
:103880006F204150534C3244423A20536574204DCE
:103890006F746F7220495320312D3420437572723A
:1038A000656E74204C696D742032350038D600087E
:1038B00010B52DED068BC8480088C0F30B101828F2
:1038C0005CD10020C5490860C348C07A0870C2486E
:1038D000007B4870C048407B8870BF48807BC870C0
:1038E000BD480068A0F2811002280DD20846006889
:1038F0004142B9480068A0F28110C0EBC000B84A4C
:1039000002EBC00081600BE0B4480168B248006877
:10391000A0F28110C0EBC000B14A02EBC000816090
:103920000020AE490860AC48C07B0870AA48007C03
:103930004870A948407C8870A748807CC870A64819
:103940000068A0F2811002280CD2084600684142AB
:10395000A1480068A0F28110C0EBC000A04A42F864
:10396000301035E19D4801689B480068A0F2811045
:10397000C0EBC0009A4A42F8301029E1964800880E
:10398000C0F30B105828ECD19348407B602821D11C
:103990009148007B63281DD18F48807BD0B90020DF
:1039A0008E4908608C48C07B08708B48007C48704A
:1039B0008948407C88708848807CC87008460168C7
:1039C00085480068A0F28150C0EBC000844A42F8EC
:1039D0003010FDE08048407B60281ED17E48007B8F
:1039E000F9281AD17C48807B182816D100207D49FF
:1039F00008807948C07B08707748007C487008468A
:103A0000B0F9001074480068A0F28150C0EBC0000B
:103A1000734A02EBC0008160DAE06F48407B6028A7
:103A200023D16D48007BF9281FD16B48807B192872
:103A30001BD10020694908606748C07B0870664850
:103A4000007C48706448407C88706348807CC87003
:103A50000846016860480068A0F28150C0EBC000D1
:103A60005F4A02EBC0008160B2E05B48407B6028A7
:103A700033D15948007B78282FD15748807B60BBD1
:103A80000020584908805448C07B08705248007C88
:103A90004870B1F90000FCF77DFD41EC1A0B9FED79
:103AA000520B53EC102BFCF794FC41EC190B9FEDDF
:103AB000500B53EC102BFCF7FEFC41EC180BFCF701
:103AC00087FD01B244480068A0F28150C0EBC000FD
:103AD000434A02EBC00041827AE03F48407B6028C5
:103AE0001DD13D48007BF72819D13B48807B122827
:103AF00015D100203B4908803748C07B0870364804
:103B0000007C48700846018833480068A0F2815064
:103B1000C0EBC000324A02EBC000818258E02E4860
:103B2000407B60281DD12C48007BF72819D12A48FA
:103B3000807B0B2815D100202A4908802648C07BAD
:103B400008702548007C48700846018822480068B3
:103B5000A0F28150C0EBC000214A02EBC000C1823C
:103B600036E01D48407B602812D11B48007B41286D
:103B70000ED11948807B58B91748C17B0068A0F264
:103B80008150C0EBC000164A02EBC00001731FE079
:103B90001148407B26281BD10F48007B012817D1F4
:103BA0000D48807BA0B90C48C17B0068A0F2815011
:103BB000C0EBC0000A4A02EBC00041730648017C1A
:103BC0000068A0F28150C0EBC00002EBC00081731E
:103BD000BDEC068B10BD00004801002094000020C1
:103BE00014030020980000200000000000F0554061
:103BF000000000000000F03F38B5F2480088C0F334
:103C00000B10182819D1EF480068A0F28110C0EB02
:103C1000C000ED4C54F83030EA480068A0F2811042
:103C2000C0EBC00004EBC0008268E6480068A0F268
:103C30008111E6A004F08AFCD6E3E2480088C0F3D4
:103C40000B105828F8D1DF48407B602817D1DD4899
:103C5000007B632813D1DB48807B80B9D94800689A
:103C6000A0F28150C0EBC000D74B53F83020D548AC
:103C70000068A0F28151E2A004F068FCB4E3D148EE
:103C8000407B602812D1CF48007BF9280ED1CD4867
:103C9000807B18280AD1E348B0F90020C9480068A1
:103CA000A0F28151E0A004F051FC9DE3C548407BA7
:103CB000602819D1C348007BF92815D1C148807B01
:103CC000192811D1BF480068A0F28150C0EBC00094
:103CD000BD4B03EBC0008268BA480068A0F2815176
:103CE000DBA004F033FC7FE3B648407B602819D1A9
:103CF000B448007B782815D1B248807B90B9B14890
:103D00000068A0F28150C0EBC000AF4B03EBC000D5
:103D1000B0F91220AB480068A0F28151D8A004F09D
:103D200015FC61E3A748407B60281AD1A548007BB9
:103D3000F72816D1A348807B122812D1A148006829
:103D4000A0F28150C0EBC0009F4B03EBC000B0F964
:103D500014209C480068A0F28151D4A004F0F6FB26
:103D600042E39848407B60281AD19648007BF728A8
:103D700016D19448807B0B2812D192480068A0F29B
:103D80008150C0EBC000904B03EBC000B0F916208F
:103D90008C480068A0F28151CDA004F0D7FB23E34A
:103DA0008848407B60283CD18648007B412838D138
:103DB0008448807B80BB83480068A0F28150C0EBC0
:103DC000C000814901EBC000007B08280DD17D486F
:103DD0000068A0F28150C0EBC0000A4602EBC000B0
:103DE000017BC4A004F0B2FBFEE276480068A0F2BA
:103DF0008150C0EBC000744901EBC000007B00287B
:103E00008FD170480068A0F28150C0EBC0000A4614
:103E100002EBC000017B00E003E0C1A004F096FBD0
:103E2000E2E26848407B26287DD16648007B012875
:103E3000FAD16448807B0028F6D1C4A004F086FB48
:103E400060480068A0F28150C0EBC0005E4901EB01
:103E5000C000407B00F0010010B1C5A004F076FB6B
:103E600058480068A0F28150C0EBC000564901EBF1
:103E7000C000407B00F0020010B1C0A004F066FB5F
:103E800050480068A0F28150C0EBC0004E4901EBE1
:103E9000C000407B00F0040010B1BEA004F056FB4F
:103EA00048480068A0F28150C0EBC000464901EBD1
:103EB000C000407B00F0080010B1BCA004F046FB3D
:103EC00040480068A0F28150C0EBC0003E4901EBC1
:103ED000C000407B00F0100010B1B8A004F036FB29
:103EE00038480068A0F28150C0EBC000364901EBB1
:103EF000C000407B00F0200010B1B5A004F026FB0C
:103F000030480068A0F28150C0EBC0002E4901EBA0
:103F1000C000407B00F0400010B1B2A004F016FBDE
:103F20002848006800E0D4E1A0F28150C0EBC00056
:103F3000254901EBC000407B00F0800010B1AEA02D
:103F400004F004FB1F480068A0F28150C0EBC000E1
:103F50001D4901EBC000807B00F0010010B1AAA058
:103F600004F0F4FA17480068A0F28150C0EBC000DA
:103F7000154901EBC000807B00F0020010B1A9A040
:103F800004F0E4FA0F480068A0F28150C0EBC000D2
:103F90000D4901EBC000807B00F0040010B1A7A028
:103FA00004F0D4FA07480068A0F28150C0EBC000CA
:103FB000054901EBC000807B00F0080000B143E13F
:103FC00045E1000048010020140300204D6F746F8C
:103FD00072204150534C3244422069643A25642097
:103FE0002050444F2073706565645F72706D3A2590
:103FF000642020616E676C653A25640A0000000049
:104000004D6F746F72204150534C324442206964AA
:104010003A2564202020616E676C653A2564202073
:104020000A000000980000204D6F746F722041500C
:10403000534C3244422069643A2564202020737036
:104040006565645F72706D3A256420200A00000087
:104050004D6F746F72204150534C3244422069645A
:104060003A256420202073706565645F72706D2846
:10407000302E303031293A256420200A000000001B
:104080004D6F746F72204150534C3244422069642A
:104090003A25642020207265616C5F6375727265D9
:1040A0006E743A256420200A000000004D6F746F82
:1040B00072204150534C3244422069643A256420B6
:1040C0002020566F6C746167653A256420200A00D1
:1040D0004D6F746F72204150534C324442206964DA
:1040E0003A256420202054656D703A256420200A0A
:1040F000000000004D6F746F72204150534C3244E9
:104100004220647269766572202069643A256420D1
:10411000206572726F7220212121200A00000000A8
:104120004D6F746F72204150534C32444220647280
:1041300069766572202069643A25642020697320BD
:104140004F4B20212121200A000000004D6F746F89
:1041500072204150534C3244422064726976657239
:10416000206572726F7220636F64653A20090000E7
:10417000C4DAB2BFB4EDCEF3200A0000B1E0C2EB66
:10418000C6F72041425A20D0C5BAC5B4EDCEF30AD5
:1041900000000000B1E0C2EBC6F72055565720D012
:1041A000C5BAC5B4EDCEF30A00000000B1E0C2EB21
:1041B000C6F7BCC6CAFDB4EDCEF30A00C7FDB6AF64
:1041C000C6F7CEC2B6C8B9FDB8DF200A00000000AD
:1041D000C7FDB6AFC6F7C4B8CFDFB5E7D1B9B9FDF3
:1041E000B8DF0A00C7FDB6AFC6F7C4B8CFDFB5E782
:1041F000D1B9B9FDB5CD0A00C7FDB6AFC6F7CAE45F
:10420000B3F6B6CCC2B70A00C7FDB6AFC6F7D6C67E
:10421000B6AFB5E7D7E8B9FDCEC2B1A8BEAF200AA8
:1042200000000000CAB5BCCAB8FACBE6CEF3B2EEC5
:10423000B3ACB9FDD4CAD0EDD6B50A00B1A3C1F470
:10424000B1B8D3C30A00000068A004F07FF96F483A
:104250000068A0F28150C0EBC0006D4901EBC000C6
:10426000807B00F0100010B16AA004F06FF967487D
:104270000068A0F28150C0EBC000654901EBC000AE
:10428000807B00F0200010B169A004F05FF95F4866
:104290000068A0F28150C0EBC0005D4901EBC00096
:1042A000807B00F0400010B165A004F04FF9574842
:1042B0000068A0F28150C0EBC000554901EBC0007E
:1042C000807B00F08000002802D064A004F03EF95A
:1042D0008AE04E48407B302811D14C48007B70B9B1
:1042E0004A48807B3A280AD14848C07B009047481A
:1042F000037C427C817C5DA004F028F974E0434893
:10430000407B302811D14148007B70B93F48807B09
:104310003B280AD13D48C07B00903C48037C427C4E
:10432000817C59A004F012F95EE03848407B3028C7
:1043300011D13648007B70B93448807B3C280AD1C3
:104340003248C07B00903148037C427C817C57A07E
:1043500004F0FCF848E02D48407B302811D12B4870
:10436000007B70B92948807B3D280AD12748C07B53
:1043700000902648037C427C817C55A004F0E6F83E
:1043800032E02248407B252819D12048007BB0B973
:104390001E48807BF12812D11C48807C02061B48F5
:1043A000407C42EA00421948007C42EA0020174A59
:1043B000D27B40EA02014CA004F0C8F814E0134894
:1043C000407B252810D11148007B68B90F48807BBD
:1043D000F32809D10D48C07B00900C48037C427C37
:1043E000817C45A004F0B2F838BD000049322A545F
:1043F00020B9CAD5CF28C7FDB6AFC6F7BBF2B5E71F
:10440000BBFAB9FDD4D8290A0000000048010020F9
:1044100014030020CBD9B6C8B8FACBE6CEF3B2EE7F
:10442000B3ACB9FDD4CAD0EDD6B5200A0000000067
:10443000B5E7BBFAB9FDCEC2B1A8BEAF0A00000015
:10444000D1B0D5D2B5E7BBFAB4EDCEF328CDA8D123
:10445000B6CABDB1E0C2EBC6F7290A00CDA8D0C5E7
:10446000B5F4CFDFB1A8BEAF0A000000B1BEBBFA01
:10447000D0CDBAC52DCFB5C1D03A2563256325630C
:10448000256320200A000000B1BEBBFAD0CDBAC51A
:104490002DB5E7D1B9D3EBB5E7C1F7B5C8BCB63A8E
:1044A000256325632563256320200A00B1BEBBFA7E
:1044B000D0CDBAC52DB7B4C0A1D3EBD7DCCFDFC008
:1044C000E0D0CD3A256325632563256320200A00CB
:1044D000B1BEBBFAD0CDBAC53A25632563256325A5
:1044E0006320200A00000000B9CCBCFEC8D5C6DAA3
:1044F0003A256420200A0000D3B2BCFEB0E6B1BE6B
:104500003A256325632563256320200A0000000007
:10451000F0B585B005460C461646402705F5C06047
:10452000009000208DF808008DF8090008208DF813
:104530000A008DF80B70E1B28DF80C1021128DF885
:104540000D108DF80E6000218DF80F108DF81010F1
:104550008DF811108DF8121069460248FDF7FCFB2A
:1045600005B0F0BD006400402DE9F0412DED068B53
:1045700086B004460D4646F273064FF00008284602
:10458000FCF719F841EC1A0B9FED1D0B53EC102BA7
:10459000FBF71FFF41EC190B9FED1B0B53EC102B8E
:1045A000FBF789FF41EC180BFCF731F887B204F5F3
:1045B000C060019000208DF80C008DF80D000820DF
:1045C0008DF80E002B208DF80F008DF81060311241
:1045D0008DF811108DF812808DF8137039128DF846
:1045E000141000218DF815108DF8161001A9084837
:1045F000FDF7B2FB06B0BDEC068BBDE8F081000014
:104600000000000000205840000000000000F03FC3
:1046100000640040F0B585B004460D4646F26006E1
:10462000002704F5C060009000208DF808008DF888
:10463000090008208DF80A002F208DF80B00F1B238
:104640008DF80C1031128DF80D108DF80E70E9B246
:104650008DF80F1000218DF810108DF811108DF8C5
:10466000121069460248FDF777FB05B0F0BD000067
:1046700000640040F0B52DED068B85B00546B0EE28
:10468000408AF0EE608A46F2FF0600279FED1F0B7E
:1046900053EC102B51EC180BFBF79BFE41EC1A0B63
:1046A0009FED1C0B53EC102BFBF705FF41EC190B96
:1046B000FBF78EFF044605F5C060009000208DF8E2
:1046C00008008DF8090008208DF80A0023208DF8D5
:1046D0000B00F1B28DF80C1031128DF80D108DF821
:1046E0000E70E1B28DF80F10210A8DF81010210C18
:1046F0008DF81110210E8DF8121069460748FDF74C
:104700002BFB05B0BDEC068BF0BD0000C7BEBF9C07
:10471000EC799140000000000000F03F0064004090
:104720002DE9F0412DED068B86B005460E4646F28A
:1047300083074FF000083046FBF73DFF41EC1A0BB2
:104740009FED1D0B53EC102BFBF743FE41EC190BB7
:104750009FED1B0B53EC102BFBF7ADFE41EC180B40
:10476000FBF755FF044605F5C060019000208DF869
:104770000C008DF80D0008208DF80E0023208DF818
:104780000F008DF8107039128DF811108DF812800D
:104790008DF81340210A8DF81410210C8DF8151096
:1047A000210E8DF8161001A90748FDF7D5FA06B0BD
:1047B000BDEC068BBDE8F0816666666666C6504055
:1047C000000000000000F03F006400402DE9F041CF
:1047D0002DED068B86B005460E4646F284074FF057
:1047E00000083046FBF7E7FE41EC1A0B9FED1D0B6E
:1047F00053EC102BFBF7EDFD41EC190B9FED1B0B60
:1048000053EC102BFBF757FE41EC180BFBF7FFFEA8
:10481000044605F5C060019000208DF80C008DF86D
:104820000D0008208DF80E0023208DF80F008DF864
:10483000107039128DF811108DF812808DF8134018
:10484000210A8DF81410210C8DF81510210E8DF809
:10485000161001A90748FDF77FFA06B0BDEC068BDC
:10486000BDE8F0816666666666C6504000000000DE
:104870000000F03F0064004006E041F2883100BFD4
:104880000A1EA1F10101FBD1021EA0F10100F4D129
:10489000704700004F480088C0F30B1024287DD1DA
:1048A0004C48C07AB22801D1012070474948C07AEB
:1048B000B52801D10120F8E74648C07A702801D117
:1048C0000120F2E74348C07A9A2839D14148017B58
:1048D0000068A0F51070C0EBC0003F4A02EBC000BA
:1048E000C1823C48817B0068A0F51070C0EBC0001D
:1048F00002EBC00001733748C17B007C41EA002015
:1049000001B234480068A0F51070C0EBC00002EBA3
:10491000C00081822F48417C0068A0F51070C0EB78
:10492000C00002EBC00041732A48817C0068A0F5FA
:104930001070C0EBC00002EBC00081730120B4E72F
:104940002448C07AA4283FD1002024490880214867
:10495000407C08701F48807C48701E48017B0068BE
:10496000A0F51070C0EBC0001B4A02EBC000C18272
:104970001848417B807B41EA002001B2154800685D
:10498000A0F51070C0EBC00002EBC00041821148DE
:10499000C17B007C41EA00210E4800E017E000687E
:1049A000A0F51070C0EBC00002EBC00081600B48A6
:1049B000B0F9001007480068A0F51070C0EBC00007
:1049C00042F83010012070E70248C07A6DE70020FD
:1049D0006BE700005C010020F40300209A00002037
:1049E00000B52DED0C8B8DB0B7EE000AF0EE409ABD
:1049F0009FED880AB0EE408A9FED860AF0EE408A6D
:104A00009FED840AB0EE409A06A807A90CAB02AA53
:104A1000CDE9001008A90AA805F0AAFB20B10120E1
:104A20000DB0BDEC0C8B00BDBDF828007A49C880E4
:104A3000BDF82A1078480181BDF82C104181BDF8DD
:104A4000200075490880BDF822004880BDF8240088
:104A50008880BDF81C0000F4807000287DD09DED9A
:104A6000020AB8EEC00ADFED6D0A80EE201AF0EE01
:104A7000419A9DED030AB8EEC00ADFED680A80EEA8
:104A8000201AB0EE418A9DED040AB8EEC00ADFEDAF
:104A9000630A80EE201AF0EE418A9DED050AB8EE19
:104AA000C00ADFED5E0A80EE201AB0EE419AB8EE41
:104AB000000A28EE000A20EE090AF0EE000A69EE6C
:104AC000A00A00EEA80A10EE101A0846FBF7B8FD7F
:104AD00041EC1C0BB0EE4C0AF0EE6C0A03F098FFB0
:104AE000B0EE40BAF0EE60BA9FED4D0B53EC102BD8
:104AF00051EC1B0BFBF76DFC41EC1A0BFBF7E4FDD3
:104B000045498863B8EE000A28EE000A20EE080A3C
:104B1000F0EE000A68EEA00A00EEE80AF7EE000ADE
:104B200030EE200A10EE101A0846FBF789FD41EC22
:104B30001C0BB0EE000A28EE800A20EE090AF0EE07
:104B4000000A69EEA00A00EE880A10EE101A084664
:104B5000FBF776FD41EC1D0B00E056E0B0EE4C1A81
:104B6000F0EE6C1AB0EE4D0AF0EE6D0A04F06CFA3D
:104B7000B0EE40BAF0EE60BA9FED290B53EC102B6B
:104B800051EC1B0BFBF725FC41EC1A0BFBF79CFDD2
:104B90002149486329EEA90A08EE080A08EEE80A46
:104BA00009EE490A10EE101A0846FBF749FD41ECE0
:104BB0001C0B28EE280A09EE890AF0EE000A20EE06
:104BC000200A10EE101A0846FBF73AFD41EC1D0BC7
:104BD000B0EE4C1AF0EE6C1AB0EE4D0AF0EE6D0A23
:104BE00004F032FAB0EE40BAF0EE60BA9FED0C0B72
:104BF00053EC102B51EC1B0BFBF7EBFB41EC1A0BAE
:104C0000FBF762FD0449C86301E0022008E70020C9
:104C100006E7000000000000D40400200000804EE1
:104C20006666666666A64C4010B5002414480068A7
:104C300020F440401249086008460068086080215E
:104C40000F48FEF735F8FEF7DBF940210C48FEF778
:104C50002FF8FEF7D5F907E0601CC4B2FA2C03DD8B
:104C6000FEF79AFA012010BD80210548FEF715F8DD
:104C70000028F1D140210248FEF718F80020F2E7A1
:104C8000000402402DE9F04106460F4614461D4639
:104C9000FEF75EFA002141EA4601C8B2FEF7A0FA2B
:104CA000FFF7C2FF20B1FEF777FA0120BDE8F081DF
:104CB0003846FEF795FAFFF7B7FFFEF749FA0121EC
:104CC00001EB4601C8B2FEF78BFAFFF7ADFF0DE02E
:104CD000012C04D10020FEF705FA287003E0012022
:104CE000FEF700FA2870601EC4B26D1C002CEFD1D4
:104CF000FEF752FA0020D9E72DE9F04105460E46AD
:104D000017469846FEF724FA002141EA4501C8B249
:104D1000FEF766FAFFF788FF20B1FEF73DFA0120A3
:104D2000BDE8F0813046FEF75BFAFFF77DFF002417
:104D30000CE018F80400FEF753FAFFF775FF18B1FE
:104D4000FEF72AFA0120EBE7601CC4B2BC42F0DB9C
:104D5000FEF722FA0020E3E700BFFEE72DE9F04767
:104D60002DED088B06460F464FF0000842F21074F6
:104D70004FF00A094FF4B47500BF08E03078FE49DF
:104D800001F80800761C08F101001FFA80F8B84508
:104D9000F4DBFA4807800120F9490870F648C0782A
:104DA000F849087008460078F2287DD1F64890F856
:104DB0002000012878D14846FBF7FDFB41EC190B98
:104DC000ED494A79097902EB0120FBF7E3FB41EC5D
:104DD0001B0B9FEDEE0B53EC102BFBF76CFB41EC28
:104DE0001A0B53EC192BFBF7EEFA41EC180BFBF7FF
:104DF0006BFC00EE100AE34880ED0D0A4846FBF715
:104E0000DAFB41EC190BDC49CA79897902EB012004
:104E1000FBF7C0FB41EC1B0B9FEDDC0B53EC102BA5
:104E2000FBF749FB41EC1A0B53EC192BFBF7CBFAC0
:104E300041EC180BFBF748FC00EE100AD14880ED5E
:104E40000E0A4846FBF7B7FB41EC190BCA494A7AF0
:104E5000097A02EB0120FBF79DFB41EC1B0B9FED58
:104E6000CB0B53EC102BFBF726FB41EC1A0B53EC4E
:104E7000192BFBF7A8FA41EC180BFBF725FC00EE09
:104E8000100AC04880ED0C0A0320BE4981F8410099
:104E9000002081F82800012081F84000084690EDAC
:104EA0000C0AB5EEC00A00E01BE0F1EE10FA0AD0E1
:104EB00090ED0C0AB0EE401ADFEDB60A9FEDB50A90
:104EC00003F06AF9D8E1AF4890ED0E1AF0EE410A0E
:104ED00090ED0D1AB0EE410A9FEDAE1A03F05CF9A9
:104EE000CAE1A8480078F32863D1A74890F82000C9
:104EF00001285ED14846FBF75EFB41EC190B9E4949
:104F00004A79097902EB0120FBF744FB41EC1B0BCA
:104F10009FED9E0B53EC102BFBF7CDFA41EC1A0BD7
:104F200053EC192BFBF74FFA41EC180BFBF7CCFBBA
:104F300000EE100A934880ED0D0A9FED960A80ED71
:104F40000E0A4846FBF737FB41EC190B8A494A7AAF
:104F5000097A02EB0120FBF71DFB41EC1B0B9FEDD7
:104F60008B0B53EC102BFBF7A6FA41EC1A0B53EC0E
:104F7000192BFBF728FA41EC180BFBF7A5FB00EE09
:104F8000100A804880ED0C0A00207E4981F841001B
:104F900081F82800012081F84000084690ED0C1AA5
:104FA000F0EE410A90ED0D1AB0EE410AFDF780FCDB
:104FB00062E174480078F42866D1734890F82000C4
:104FC000012861D14846FBF7F6FA41EC190B6A4912
:104FD0004A79097902EB0120FBF7DCFA41EC1B0B63
:104FE0009FED6A0B53EC102BFBF765FA41EC1A0BA3
:104FF00053EC192BFBF7E7F941EC180BFBF764FBBB
:1050000000EE100A5F4880ED0D0A9FED620A80ED08
:105010000E0A4846FBF7CFFA41EC190B56494A7A7B
:10502000097A02EB0120FBF7B5FA41EC1B0B9FED6F
:10503000570B53EC102BFBF73EFA41EC1A0B53ECD9
:10504000192BFBF7C0F941EC180BFBF73DFB00EE09
:10505000100A4C4880ED0C0A02204A4981F84100B0
:10506000002081F82800012081F840000846D0ED9A
:105070000C0AB0EE601AD0ED0D0AB0EE600ADFED5A
:10508000450AFBF7C5FCF7E03E480078FA2871D1E5
:105090003D4890F8200001286CD1374841790079CB
:1050A00001EB002005EBC50101EB0511A0EB810030
:1050B000344908613048C179807901EB0020001B38
:1050C00000B2304948802C48417A007A01EB002038
:1050D00005EBC50101EB0511A0EB810129484161F8
:1050E0002548C17A807A01EB0020001B01B22548D7
:1050F00081802148417B007B01EB002005EBC5014D
:1051000001EB0511A0EB81011E4881611A48C17BAA
:10511000807B01EB0020001B01B21A48C1801648B9
:10512000417C007C01EB002005EBC50101EB051182
:10513000A0EB81011348C1610F48C17C807C01EB69
:105140000020001B01B20F4801810B48417D007D0A
:1051500001EB002005EBC50101EB0511A0EB81017E
:10516000084801620448C17D807D01EB0020001BDE
:1051700001B211E030E000006C0200208C00002041
:105180008E000020D00200207001002000000000EE
:105190000000594000000000404841814048417EE5
:1051A000007E01EB002005EBC50101EB0511A0EB32
:1051B00081013A4841623A48C17E807E01EB00207D
:1051C000001B01B2354881810120344981F8280053
:1051D000002081F840004FE030480078E12804D1F9
:1051E00030A1314802F0E9FA46E02C480078E22884
:1051F00042D02A480078C02834D1294800794D2867
:105200003AD127484079492836D125488079432822
:1052100032D12348C0794B282ED124A003F096F92F
:10522000012080F3138800BF00BF00BF00BF00BF94
:1052300000BFBFF34F8F00BF00BF00BF244800680E
:1052400000F4E06023490843001D2149086000BFC5
:1052500000BF00BFBFF34F8F00BF00BF00BF00E023
:1052600000BFFDE700200D4981F8280081F84000CB
:10527000BDEC088BBDE8F0870120084981F84200A9
:10528000084690F8280018B9084690F8400010B178
:105290000020114908600120EAE70000D002002048
:1052A0006C0200204F4B0A0000100140554152543F
:1052B0003120434D4420206F7843302C204E6F77AF
:1052C000207265736574204D4355210A000000006B
:1052D0000CED00E00000FA052800002070B504463F
:1052E0000D4616461948844204D13146284602F03C
:1052F00079FA29E01648844204D13146284602F062
:10530000DBFB21E01348844204D13146284602F0F9
:1053100047FC19E01048844204D13146284602F087
:10532000F1F811E00D48844204D13146284602F0DC
:1053300067F909E00A48844204D13146284602F060
:1053400043FD01E000BFFEE770BD0000001001401A
:105350000044004000480040004C00400050004025
:10536000001401402DE9FC4104460F4616462E4824
:10537000844201D1012530E02C48844201D102252C
:105380002BE02B48844201D1042526E029488442A1
:1053900001D1082521E02848844201D110251CE0D4
:1053A0002648844201D1202517E02548844201D1B6
:1053B000402512E02348844201D180250DE0224897
:1053C000844201D1851508E02048844201D1451569
:1053D00003E01F48844200D105150121284600F052
:1053E0009BFB00978DF80460012E09D100208DF8F9
:1053F000060001208DF8070000208DF8050006E06A
:105400002EB901208DF8070000208DF805006946AF
:105410002046FDF7D7FB012E03D139462046FDF784
:1054200047FCBDE8FC81000000000240000402408F
:1054300000080240000C024000100240001402402C
:1054400000180240001C02400020024000240240DC
:105450000028024000B58FB00121880500F05CFBF8
:105460001848FDF7DFF800BF1648FDF787F9002858
:10547000FAD14FF000600090134801901348029059
:105480000020039028200490002005904FF48060B5
:1054900006900020079008904FF480700990000259
:1054A0000A9000200B9003200C9000200D900E908D
:1054B00069460448FDF7BCF901210248FDF7A6F84A
:1054C0000FB000BD40640240041001404C090020B0
:1054D00000B58FB00121880500F01EFB1648FDF7CE
:1054E000A1F800BF1448FDF749F90028FAD14FF0A0
:1054F00000600090114801901148029040200390F4
:1055000000010490002005904FF480600690002078
:105510000790089009904FF480300A9000200B907B
:1055200003200C9000200D900E9069460248FDF774
:105530007FF90FB000BD0000B864024004100140C4
:105540004C05002000B58FB00121480500F0E4FAB9
:105550001848FDF767F800BF1648FDF70FF9002857
:10556000FAD14FF000600090134801901348029068
:105570000020039019200490002005904FF48060D3
:10558000069000200790089009904FF480300A9010
:1055900000200B9003200C9000200D900E90694687
:1055A0000448FDF745F901210248FDF72FF80FB037
:1055B00000BD0000886002400444004074090020DF
:1055C00000B58FB00121480500F0A6FA1848FDF794
:1055D00029F800BF1648FDF7D1F80028FAD14FF09E
:1055E00000600090134801901348029040200390FF
:1055F00000010490002005904FF480600690002088
:105600000790089009904FF480300A9000200B908A
:1056100003200C9000200D900E9069460448FDF781
:1056200007F901210248FCF7F1FF0FB000BD0000AF
:10563000A0600240044400404C05002000B58FB03B
:105640000121480500F068FA1848FCF7EBFF00BF9D
:105650001648FDF793F80028FAD14FF0006000904B
:1056600013480190134802900020039028200490D2
:10567000002005904FF4806006900020079008906D
:1056800009904FF480300A9000200B9003200C907A
:1056900000200D900E9069460448FDF7C9F80121DD
:1056A0000248FCF7B3FF0FB000BD000028600240C5
:1056B000044800404C09002000B58FB00121480586
:1056C00000F02AFA1848FCF7ADFF00BF1648FDF7B6
:1056D00055F80028FAD14FF000600090134801906F
:1056E0001348029040200390000104900020059090
:1056F0004FF48060069000200790089009904FF4C6
:1057000080300A9000200B9003200C9000200D9018
:105710000E9069460448FDF78BF801210248FCF71A
:1057200075FF0FB000BD0000586002400448004003
:105730004C05002000B58FB00121880500F0ECF980
:105740001848FCF76FFF00BF1648FDF717F8002850
:10575000FAD14FF020600090134801901348029056
:105760000020039028200490002005904FF48060D2
:10577000069000200790089009904FF480300A901E
:1057800000200B9003200C9000200D900E90694695
:105790000448FDF74DF801210248FCF737FF0FB030
:1057A00000BD000028640240041401404C090020A0
:1057B00000B58FB00121880500F0AEF91848FCF75C
:1057C00031FF00BF1648FCF7D9FF0028FAD14FF08F
:1057D00020600090134801901348029040200390ED
:1057E00000010490002005904FF480600690002096
:1057F0000790089009904FF480300A9000200B9099
:1058000003200C9000200D900E9069460448FDF78F
:105810000FF801210248FCF7F9FE0FB000BD0000AF
:10582000A0640240041401404C050020F8B5044671
:105830000F46002239462046FFF750FD7B48844240
:105840002DD17B4D7A4E783EFFF742FE4FF4E0605B
:1058500000F036F946208DF8000003208DF8010095
:1058600001208DF8020000208DF80300684600F04A
:10587000EBF8FFF7EFFD4FF4E06000F021F93A207C
:105880008DF8000003208DF8010000208DF8020043
:1058900001208DF80300684600F0D6F892E06548D4
:1058A00084422DD1644D644E183EFFF789FE4FF4BB
:1058B000E06000F005F911208DF8000003208DF85C
:1058C000010001208DF8020000208DF803006846D9
:1058D00000F0BAF8FFF736FE4FF4E06000F0F0F8A1
:1058E00010208DF8000003208DF8010000208DF8B5
:1058F000020001208DF80300684600F0A5F861E081
:105900004E4884422ED14C4D483D4B4E783EFFF7D9
:10591000D3FEFFF793FE4FF4E06000F0D1F80E20C5
:105920008DF8000003208DF8010001208DF80200A1
:1059300000208DF80300684600F086F84FF4E06020
:1059400000F0BEF80C208DF8000003208DF8010057
:1059500000208DF8020001208DF80300684600F059
:1059600073F82FE0364884422AD1314D183D304E2D
:10597000903EFFF71DFFFFF7DDFE4FF4A06000F043
:105980009FF845208DF8000003208DF801000120CC
:105990008DF8020000208DF80300684600F054F8EE
:1059A00039208DF8000003208DF8010000208DF8CB
:1059B000020001208DF80300684600F045F801E080
:1059C00000BFFEE701212846FCF720FE00BF284665
:1059D000FCF7D4FE0128FAD101213046FCF716FE6F
:1059E00000BF3046FCF7CAFE0128FAD1012280210F
:1059F000204602F0A8FA01224021204602F0A3FA34
:105A0000012210212846FCF7F5FE01221021304624
:105A1000FCF7F0FE00228021204602F094FA0022DA
:105A20004021204602F08FFAF8BD0000001001402E
:105A3000B864024000440040A060024000480040BA
:105A4000001401407047000070B5002100230F22B0
:105A5000C4781CB3174C246804F4E064C4F5E06413
:105A6000C4F30721C1F10404E3B20A4144789C4025
:105A7000E1B28478144021430C07210E0E4C0578C6
:105A80006155047804F01F050124AC4005786D11C0
:105A9000AD0005F1E025C5F8004109E0047804F007
:105AA0001F050124AC40054D0678761145F82640C7
:105AB00070BD00000CED00E000E400E080E100E0DB
:105AC00002490143024A1160704700000000FA05D4
:105AD0000CED00E000BF00BF00BFBFF34F8F00BF61
