:020000040800F2
:10000000A81100209D010008BD3700084924000800
:10001000BF300008611700083B5F000800000000C7
:10002000000000000000000000000000794B000804
:1000300015200008000000008D380008414D000820
:10004000B7010008B7010008B7010008B7010008B0
:10005000B7010008B7010008FD220008B701000839
:10006000B7010008B7010008B7010008B701000890
:10007000B7010008B7010008B7010008B701000880
:10008000011E0008B7010008B7010008B701000809
:1000900065170008B7010008B7010008B70100089C
:1000A000B7010008B7010008B7010008B701000850
:1000B000394E0008B7010008B7010008B701000871
:1000C000B7010008B7010008B7010008B701000830
:1000D000B7010008F5560008B5590008A15A0008F4
:1000E0000F230008B7010008B7010008B701000896
:1000F000B7010008B7010008B7010008B701000800
:10010000B7010008B7010008B7010008B7010008EF
:100110002553000835540008514E00089D4E000834
:10012000B7010008B7010008551E0008B701000814
:10013000B7010008B7010008B7010008B7010008BF
:1001400095170008B7010008B7010008B7010008BB
:10015000B7010008B7010008A51E0008C55C00082B
:10016000B7010008B7010008B7010008B70100088F
:10017000B7010008B7010008B7010008B70100087F
:10018000B7010008B7010008DFF80CD000F0E6FB6B
:100190000048004765800008A811002006488047F5
:1001A00006480047FEE7FEE7FEE7FEE7FEE7FEE75C
:1001B000FEE7FEE7FEE7FEE7D14D000889010008F3
:1001C0002DE9F0410024061B254671F1000605DAF1
:1001D00001240027D0EB070067EB0101161E73F125
:1001E000000605DA0027D2EB0702012567EB0303BF
:1001F00000F06CFA86460E4617469C46AC4204D088
:100200000025D0EB050E65EB010624B10020D2EBF2
:10021000000760EB030C704631463A466346BDE882
:10022000F08140EA01039B0703D009E008C9121FCF
:1002300008C0042AFAD203E011F8013B00F8013BA0
:10024000521EF9D27047D2B201E000F8012B491ECC
:10025000FBD270470022F6E710B513460A46044663
:100260001946FFF7F0FF204610BD30B504460020C8
:10027000034600E05B1C934203D2E05CCD5C401B74
:10028000F8D030BD2DE9FE4F804681EA0300C00F53
:100290000C46009021F0004123F00045B8EB02002D
:1002A000A94105D24046214690461C460B460246CF
:1002B00023F00040104347D0270DC7F30A00C3F3D3
:1002C0000A510290401A019040286BDAC3F31300E0
:1002D00040F4801B0098924620B10023D2EB030A21
:1002E00063EB0B0B01985946C0F14002504600F0F9
:1002F0001EFA06460D4650465946019A00F036FA57
:1003000010EB08006141002487EA115284EAE77388
:100310001A4340D0009A62B3019A012A4FEA075269
:1003200015DC001B61EB02014FF0004202EA0752AC
:10033000CDE90042001C41F5801132462B4600F009
:100340006DFA03B0BDE8F08F40462146F9E7001B87
:1003500061EB0201001C41F5801300185B4120187D
:10036000A2F5001747EB030140EAD570B6196D41BD
:1003700011E06D084FEA360645EAC0754FEA0752AC
:10038000001B61EB0201001C41F5801149084FEA96
:1003900030000019514132462B4603B0BDE8F04F02
:1003A00000F02DBA0098012240000023D0EB020299
:1003B00063EBE073009821464FEAE074B8EB00006D
:1003C00061EB0401E9E783F000435BE781F0004162
:1003D00058E72DE9FE4F81EA030404F0004421F0C0
:1003E000004100944FF0000B23F0004350EA010459
:1003F0005ED052EA03045BD0C3F30A54C1F30A553A
:100400002C44A4F2F3340194A0FB0254C1F3130171
:1004100041F48011C3F3130343F4801301FB02443E
:1004200000FB034E840A970A44EA815447EA835743
:10043000A4FB076802958D0A05FB07854FEA932CFC
:1004400004FB0C542705029D4FEA065847EA16376D
:10045000B5EB08056EEB070C870E920E47EA811785
:1004600042EA8312A7FB0201B6EB0B0164EB000426
:100470002B0D43EA0C335E1844EB1C50DA46514610
:10048000E7FB0201C5F313044FEA0B3343EA1453AD
:100490004FEA0432019C43EA0603A4F10C040294DF
:1004A000009CCDE900B400F0B9F903B0BDE8F08FCD
:1004B00000200146F9E72DE9F04D81EA030404F03C
:1004C000004B21F0004514464FF0000A23F0004194
:1004D00050EA050220D054EA01021DD0C5F30A57A4
:1004E0000246C5F31303C1F31300C1F30A5640F4E7
:1004F000801543F48013A7EB0608101BD64608F2BC
:10050000FD3873EB050002D308F1010801E09218F1
:100510005B41B8F1000F03DA00200146BDE8F08D21
:1005200000204FF48011064684460EE0171B73EB43
:10053000050705D3121B63EB050306434CEA010CC8
:1005400049084FEA300092185B4150EA0107EDD1AB
:1005500052EA030012D082EA040083EA050108434C
:1005600005D0101BAB4106D20122002306E0002279
:100570004FF0004302E06FF0010253101AEB060047
:100580004CEB085110EB0A0041EB0B01BDE8F04DBC
:1005900000F035B90EB5C10F80EAE0700844CA0713
:1005A000002140F233438DE80E000A460B4600F06E
:1005B00035F903B000BD0EB540F233410291002180
:1005C000CDE900110A460B4600F028F903B000BD42
:1005D00070B5C1F30A5201F000450024C1F31301C4
:1005E00040F2FF3341F480119A4201DA002070BDDD
:1005F00040F233439A42A2F2334203DC524200F00B
:10060000A5F800E090402C43F1D0404270BD00F0CE
:10061000004230F000400AD0C10D01F56071C0F316
:10062000160042EA0151C2084007114370470020FA
:100630000146704730B5041E71F1000404DB4FF031
:100640000044404264EB0101141E73F1000405DB19
:100650001C464FF00043524263EB04038B4208BF39
:10066000824230BD30B5041E71F1000404DB4FF04E
:100670000044404264EB0101141E73F1000405DBE9
:100680001C464FF00043524263EB0403994208BFFB
:10069000904230BD01F0004330B421F0004150EAF7
:1006A000010206D00A0DA2F56072C1F31301002AFF
:1006B00002DC30BC00207047440F44EAC104C10092
:1006C000E01830BC00EBC25000F062B82DE9F05FDA
:1006D0000546002092469B468846064681464024B1
:1006E0001BE0284641464746224600F02FF8534675
:1006F0005A46C01A914110D311461846224600F0BE
:1007000016F82D1A67EB01084F46224601200021FA
:1007100000F00DF817EB00094E41201EA4F1010472
:10072000DFDC484631462A464346BDE8F09F202A92
:1007300004DB203A00FA02F1002070479140C2F138
:10074000200320FA03F3194390407047202A04DB6A
:10075000203A21FA02F00021704721FA02F3D0403A
:10076000C2F120029140084319467047202A06DB57
:10077000CB17203A41FA02F043EAE07306E041FA6F
:1007800002F3D040C2F1200291400843194670475D
:100790000029A8BF7047401C490008BF20F0010095
:1007A000704710B4B0FA80FC00FA0CF050EA010473
:1007B00004BF10BC704749B1CCF1200421FA04F405
:1007C00011FA0CF118BF012121430843A3EB0C01DE
:1007D000CB1D4FEA00614FEA102042BF002010BC41
:1007E000704700EBC35010440029A4BF10BC7047F1
:1007F000401C490008BF20F0010010BC704710B534
:10080000141E73F1000408DA401C41F10001921833
:100810005B411A4301D120F0010010BD2DE9F04DDC
:1008200092469B4611B1B1FA81F202E0B0FA80F231
:1008300020329046FFF77BFF04460F4640EA0A004D
:1008400041EA0B0153465A46084313D0114653EA76
:10085000010019D0C8F140025046FFF777FF054666
:100860000E46504659464246FFF761FF084305D001
:10087000012004E020463946BDE8F08D0020054304
:1008800046EAE0762C4337430A986305E40AA0EB76
:1008900008000022FD0A44EA47540A3002D500202D
:1008A0000146E9E7010510196941DDE9084500192C
:1008B0006941BDE8F04DA2E72DE9F04D00231A464D
:1008C0001B1A8A4103DB00200146BDE8F08DC1F30D
:1008D0000A52C1F3130141F480154FF0000BD10708
:1008E00002D100186D41521E0027044640F2FF114C
:1008F000384601EB620A3E468046024600204FF42D
:100900008011FFF723FFC2197141BB1846EB0100AC
:10091000B4EB030C75EB000C04D3E41A65EB000593
:1009200017460E46241908F101006D41804634280F
:10093000E3DDF91946EB0600091BA84103D24FF08D
:10094000FF32134601E0002213461BEB070046EB83
:100950000A51BDE8F04DFFF752BF0000064C074DAD
:1009600006E0E06840F0010394E80700984710347F
:10097000AC42F6D3FFF70CFC38A0000858A00008E2
:1009800021B1826842F00102826003E0826822F0B5
:1009900001028260704700000021084A1168084A7D
:1009A0001140D0E900231A4383681A43C3681A43ED
:1009B0001143044AC2F804137047000004230140A5
:1009C000E030FCFF0020014021B1826842F48072D7
:1009D000826003E0826822F480728260704721B1F5
:1009E000826842F40072826003E0826822F400723E
:1009F0008260704730B50246002000235068104CDA
:100A000020400D790C6844EA05242043506090682A
:100A10000C4C2040D1E903542C438D682C434D7974
:100A200044EA450420439060D06A20F470000C7DB5
:100A3000641EE4B2234340EA0350D06230BD00009C
:100A4000FFFEFFFCFDF7FFC0F0B504460D46002099
:100A50000021092D11DDE068A5F10A0606EB460725
:100A6000072606FA07F18843A5F10A0606EB4606B3
:100A700003FA06F10843E0600CE0206905EB450746
:100A8000072606FA07F1884305EB450603FA06F147
:100A900008432061072A0FDA606B561E06EB8607B3
:100AA0001F2606FA07F18843561E06EB860605FA4E
:100AB00006F10843606322E00D2A0FDA206BD61F8F
:100AC00006EB86071F2606FA07F18843D61F06EBBA
:100AD000860605FA06F10843206310E0E06AA2F1F9
:100AE0000D0606EB86071F2606FA07F18843A2F1DA
:100AF0000D0606EB860605FA06F10843E062F0BD36
:100B0000816841F0804181607047000038B1084938
:100B1000096841F40001074AC2F8041306E00449D9
:100B2000096821F40001034AC2F804137047000069
:100B3000042301400020014000B52DED040B9BB0C3
:100B40009FEDFD0A8DED1A0A9FEDFC0A8DED190A45
:100B50009FEDFA0A8DED180A9FEDF70A8DED170A41
:100B60009FEDF50A8DED160A9FEDF30A8DED150A3E
:100B70009FEDF10A8DED140A9FEDEF0A8DED130A3A
:100B80009FEDED0A8DED120A9FEDEB0A8DED110A36
:100B90009FEDE90A8DED100A9DED1B0ADDED1D0AA2
:100BA0009DED181A00EEC10A8DED0F0A9DED1C0A8D
:100BB000DDED1D0A9DED191A00EE810A8DED0E0A7C
:100BC0009DED0F0A20EE000ADDED0E0A00EEA00AF0
:100BD0008DED030A0398FFF71AFDCDE904019DEDA1
:100BE000040B05F027FE8DED060B9DED060B51EC79
:100BF000100BFFF74FFD13909DED1B0ADDED1D0A55
:100C00009DED181A00EEC10A8DED0D0A9DED1C0A2E
:100C1000DDED1D0A9DED191A00EEC10A8DED0C0ADD
:100C20009DED0D0A60EE000A9DED0C0A40EE000AF3
:100C3000CDED030A0398FFF7EAFCCDE904019DED31
:100C4000040B05F0F7FD8DED060B9DED060B51EC49
:100C5000100BFFF71FFD12909DED1B0ADDED1D0A25
:100C60009DED181A00EE810A8DED0B0A9DED1C0A10
:100C7000DDED1D0A9DED191A00EEC10A8DED0A0A7F
:100C80009DED0B0A20EE000ADDED0A0A00EEA00A37
:100C90008DED030A0398FFF7BAFCCDE904019DED41
:100CA000040B05F0C7FD8DED060B9DED060B51EC19
:100CB000100BFFF7EFFC11909DED1B0ADDED1D0AF7
:100CC0009DED181A00EE810A8DED090A9DED1C0AB2
:100CD000DDED1D0A9DED191A00EE810A8DED080A61
:100CE0009DED090A20EE000ADDED080A00EEA00ADB
:100CF0008DED030A0398FFF78AFCCDE904019DED11
:100D0000040B05F097FD8DED060B9DED060B51ECE8
:100D1000100BFFF7BFFC10900220894981F84100B9
:100D20001B98FFF774FCCDE904019DED040B05F061
:100D300077FD8DED060B9FED830B53EC102B9DED96
:100D4000060B51EC100BFFF78DFC7DD29DED0F0AC9
:100D5000DDED130A80EE201A8DED031A0398FFF7DC
:100D600056FCCDE904019DED040B05F021FB8DED52
:100D7000060B9DED060B51EC100BFFF78BFC17904B
:100D80009DED0D0ADDED120A80EE201A8DED031A9D
:100D90000398FFF73CFCCDE904019DED040B05F041
:100DA00007FB8DED060B9DED060B51EC100BFFF7CD
:100DB00071FC16909DED0B0ADDED110A80EE201AF4
:100DC0008DED031A0398FFF722FCCDE904019DED98
:100DD000040B05F0EDFA8DED060B9DED060B51ECC5
:100DE000100BFFF757FC15909DED090ADDED100A79
:100DF00080EE201A8DED031A0398FFF708FCCDE969
:100E000004019DED040B05F0D3FA8DED060B9DED6D
:100E1000060B51EC100BFFF73DFC14901798FFF7F1
:100E2000F6FB9FED4A0B53EC102BCDE906019DED2F
:100E3000060B51EC100BFFF715FC19D21798FFF7B2
:100E4000E6FB9FED440B00E049E153EC102BCDE9AC
:100E500004019DED040B51EC100BFFF7B7FACDE93F
:100E600006019DED060B51EC100BFFF713FC1790DC
:100E70001698FFF7CCFB9FED350B53EC102BCDE90B
:100E800006019DED060B51EC100BFFF7EBFB17D2A3
:100E90001698FFF7BCFB9FED2F0B53EC102BCDE901
:100EA00004019DED040B51EC100BFFF78FFACDE917
:100EB00006019DED060B51EC100BFFF7EBFB1690B6
:100EC0001598FFF7A4FB9FED210B53EC102BCDE9F8
:100ED00006019DED060B51EC100BFFF7C3FB17D27B
:100EE0001598FFF794FB9FED1B0B53EC102BCDE9EE
:100EF00004019DED040B51EC100BFFF767FACDE9EF
:100F000006019DED060B51EC100BFFF7C3FB15908E
:100F10001498FFF77CFB9FED0D0B53EC102BCDE9E4
:100F200006019DED060B51EC100BFFF79BFB2AD23F
:100F30001498FFF76CFB11E000000000CDCCCC3E14
:100F4000D40200207B14AE47E17A843F4AD8124D88
:100F5000FB21F93F4AD8124DFB2109401FED030B3D
:100F600053EC102BCDE904019DED040B51EC100B5B
:100F7000FFF72CFACDE906019DED060B51EC100BA5
:100F8000FFF788FB14909DED1B0AB5EEC00AF1EE49
:100F900010FA13DB9DED1D0AB5EEC00AF1EE10FA52
:100FA0000CDB9DED160AB1EE400A8DED160A9DEDA3
:100FB000150AB1EE400A8DED150A07E29DED1B0AF8
:100FC000B5EEC00AF1EE10FA13DB9DED1D0AB5EE89
:100FD000C00AF1EE10FA0CD29DED170AB1EE400AEC
:100FE0008DED170A9DED140AB1EE400A8DED140A3D
:100FF000ECE19DED1B0AB5EEC00AF1EE10FA33D21A
:101000009DED1D0AB5EEC00AF1EE10FA2CD89DED4B
:10101000170AB1EE400A8DED170A9DED140AB1EEE4
:10102000400A8DED140A9DED130A8DED1A0A9DED0F
:10103000100AB1EE400A8DED130A9DED1A0AB1EEC9
:10104000400A8DED100A9DED120A8DED1A0A9DEDF4
:10105000110AB1EE400A8DED120A9DED1A0AB1EEA9
:10106000400A8DED110AB1E19DED1B0AB5EEC00AF3
:10107000F1EE10FAA1D29DED1D0AB5EEC00AF1EE17
:1010800010FA9ADD9DED160AB1EE400A8DED160AB2
:101090009DED150AB1EE400A8DED150A9DED130A7E
:1010A0008DED1A0A9DED100AB1EE400A8DED130A7E
:1010B0009DED1A0AB1EE400A8DED100A9DED120A5F
:1010C0008DED1A0A9DED110AB1EE400A8DED120A5E
:1010D0009DED1A0AB1EE400A8DED110A76E11B98DA
:1010E000FFF795FACDE904019DED040B05F098FB9F
:1010F0008DED060B1FED6D0B53EC102B9DED060BCC
:1011000051EC100BFFF796FA7ED21D98FFF77FFA8D
:10111000CDE904019DED040B05F082FB8DED060B7E
:101120001FED780B53EC102B9DED060B51EC100BC3
:10113000FFF798FAE8D29DED0F0ADDED130A80EE75
:10114000201A8DED031A0398FFF761FACDE9040127
:101150009DED040B05F02CF98DED060B9DED060BB6
:1011600051EC100BFFF796FA17909DED0D0ADDED8F
:10117000120A80EE201A8DED031A0398FFF747FA42
:10118000CDE904019DED040B05F012F98DED060B80
:101190009DED060B51EC100BFFF77CFA16909DEDC0
:1011A0000B0ADDED110A80EE201A8DED031A03986B
:1011B000FFF72DFACDE904019DED040B05F0F8F8D9
:1011C0008DED060B9DED060B51EC100BFFF762FA4F
:1011D00015909DED090ADDED100A80EE201A8DEDC7
:1011E000031A0398FFF713FACDE904019DED040BF0
:1011F00005F0DEF88DED060B9DED060B51EC100BA6
:10120000FFF748FA149000E0C0E01798FFF7FFF9E5
:101210001FEDB20B53EC102BCDE906019DED060B33
:1012200051EC100BFFF71EFA17D21798FFF7EFF9E2
:101230001FEDB80B53EC102BCDE904019DED040B11
:1012400051EC100BFFF7C2F8CDE906019DED060B3E
:1012500051EC100BFFF71EFA17901698FFF7D7F90D
:101260001FEDC60B53EC102BCDE906019DED060BCF
:1012700051EC100BFFF7F6F917D21698FFF7C7F9E4
:101280001FEDCC0B53EC102BCDE904019DED040BAD
:1012900051EC100BFFF79AF8CDE906019DED060B16
:1012A00051EC100BFFF7F6F916901598FFF7AFF910
:1012B0001FEDDA0B53EC102BCDE906019DED060B6B
:1012C00051EC100BFFF7CEF917D21598FFF79FF9E5
:1012D0001FEDE00B53EC102BCDE904019DED040B49
:1012E00051EC100BFFF772F8CDE906019DED060BEE
:1012F00051EC100BFFF7CEF915901498FFF787F912
:101300001FEDEE0B53EC102BCDE906019DED060B06
:1013100051EC100BFFF7A6F917D21498FFF777F9E5
:101320001FEDF40B53EC102BCDE904019DED040BE4
:1013300051EC100BFFF74AF8CDE906019DED060BC5
:1013400051EC100BFFF7A6F914909DED1D0AB5EEB8
:10135000C00AF1EE10FA0CDD9DED160AB1EE400A5E
:101360008DED160A9DED150AB1EE400A8DED150AB8
:101370002CE09DED170AB1EE400A8DED170A9DEDA8
:10138000140AB1EE400A8DED140A1FE09FEDE90A40
:101390008DED170A9FEDE70A8DED160A9FEDE50A20
:1013A0008DED150A9FEDE30A8DED140A9FEDE10A1C
:1013B0008DED130A9FEDDF0A8DED120A9FEDDD0A18
:1013C0008DED110A9FEDDB0A8DED100A1798FFF7DE
:1013D0001EF99FEDD90B53EC102BCDE904019DEDC7
:1013E000040B51EC100BFEF7F4FFCDE906019DED67
:1013F000060B51EC100BFFF74DF917901698FFF7FD
:1014000006F99FEDCD0B53EC102BCDE904019DEDBA
:10141000040B51EC100BFEF7DCFFCDE906019DED4E
:10142000060B51EC100BFFF735F916901598FFF7E6
:10143000EEF89FEDC10B53EC102BCDE904019DEDAF
:10144000040B51EC100BFEF7C4FFCDE906019DED36
:10145000060B51EC100BFFF71DF915901498FFF7D0
:10146000D6F89FEDB50B53EC102BCDE904019DEDA3
:10147000040B51EC100BFEF7ACFFCDE906019DED1E
:10148000060B51EC100BFFF705F914909DED170AB0
:10149000DFEDAB0AB4EEE00AF1EE10FA04DD9FEDE9
:1014A000A80A8DED170A0CE09DED170ADFEDA50ADD
:1014B000B4EEE00AF1EE10FA03D29FEDA20A8DED30
:1014C000170A9DED160ADFED9E0AB4EEE00AF1EE72
:1014D00010FA04DD9FED9A0A8DED160A0CE09DEDE1
:1014E000160ADFED980AB4EEE00AF1EE10FA03D224
:1014F0009FED940A8DED160A9DED150ADFED900A19
:10150000B4EEE00AF1EE10FA04DD9FED8D0A8DEDE8
:10151000150A0CE09DED150ADFED8A0AB4EEE00A2B
:10152000F1EE10FA03D29FED870A8DED150A9DEDBD
:10153000140ADFED830AB4EEE00AF1EE10FA04DDDE
:101540009FED7F0A8DED140A0CE09DED140ADFED8E
:101550007D0AB4EEE00AF1EE10FA03D29FED790AAB
:101560008DED140A9DED170ADFED770A20EE200AB3
:10157000F7EE000A80EE201ABDEEC10A10EE100A46
:10158000724908619DED160ADFED6F0A20EE200A10
:10159000F7EE000A80EE201ABDEEC10A10EE100A26
:1015A00048619DED150ADFED680A20EE200AF7EE8E
:1015B000000A80EE201ABDEEC10A10EE100A886102
:1015C0009DED140ADFED600A20EE200AF7EE000A16
:1015D00080EE201ABDEEC10A10EE100AC861139801
:1015E000FFF715F89FED5A0B53EC102BCDE90001D6
:1015F0009DED000B51EC100BFEF7EBFECDE9020167
:101600009DED020B51EC100B81F000419FED520B50
:1016100053EC102BCDE904019DED040B51EC100BA4
:10162000FEF749FFCDE906019DED060B51EC100BCD
:10163000FEF7CEFF00B2454948801298FEF7E7FF5B
:101640009FED430B53EC102BCDE900019DED000BFA
:1016500051EC100BFEF7BDFECDE902019DED020B32
:1016600051EC100B81F000419FED3B0B53EC102B24
:10167000CDE904019DED040B51EC100BFEF71BFFAF
:10168000CDE906019DED060B51EC100BFEF7A0FF16
:1016900001B22E4881801198FEF7B9FF9FED2C0B07
:1016A00053EC102BCDE902019DED020B51EC100B18
:1016B000FEF78FFE9FED280B53EC102BCDE90401B4
:1016C0009DED040B51EC100BFEF7F5FECDE9060184
:1016D0009DED060B51EC100BFEF77AFF01B21B4893
:1016E000C1801098FEF793FF9FED190B53EC102B60
:1016F000CDE902019DED020B51EC100BFEF769FEE6
:101700009FED150B53EC102BCDE904019DED040B5F
:1017100051EC100BFEF7CFFECDE906019DED060B57
:1017200051EC100BFEF754FF01B2084801811FB0C5
:1017300000BD0000000000006666666666A64C40BC
:1017400000007042000070C20000C842D4020020B5
:101750007D0569C6A2815140000000000000F03FF5
:1017600000BFFEE710B50221074800F02BF8012862
:1017700009D1064A0021044800F0B4F801F03EF80F
:1017800001200349087010BD006400404C01002096
:101790004000002010B50221074800F013F801288E
:1017A00009D1064A0021044800F09CF801F020FA13
:1017B00001200349087010BD00680040600100204E
:1017C0004200002070B504460D460026606928409E
:1017D000002871D0B5F5807F5CD010DC082D35D0A5
:1017E00006DC012D20D0022D24D0042D72D127E05B
:1017F000102D31D0202D35D0402D6BD138E0B5F5EE
:10180000004F60D009DCB5F5007F49D0B5F5806F99
:101810004CD0B5F5006F5DD14FE0B5F5803F2DD0D0
:10182000B5F5003F56D12FE0A0682D4900F0DEFA53
:10183000064651E0E068032100F0D8FA06464BE086
:10184000E068082100F0D2FA064645E0E068102181
:1018500000F0CCFA06463FE02069032100F0C6FA0A
:10186000064639E02069082100F0C0FA064633E058
:101870002069102100F0BAFA06462DE060680821C0
:1018800000F0B4FA064627E06068102100F0AEFAD6
:10189000064621E0A069012100F0A8FA06461BE0F7
:1018A000A069022100F0A2FA064615E0A069042111
:1018B00000F09CFA06460FE00FE0A069702100F0EE
:1018C00095FA064608E06068042100F08FFA0646A3
:1018D00002E0FFE7002600BF00E00026304670BDB2
:1018E0000101010010B500F5D87303EB01131B686B
:1018F00003F004031372137A53B900F5D87303EBA2
:1019000001131B6840F2FF7404EA5353136009E0AB
:1019100000F5D87303EB01131B686FF0604404EA11
:10192000D303536000F5D87303EB01131B6803F076
:101930000203537200F5D87303EB01135B6803F0E5
:101940000F03937200F5D87303EB01135B681B0A56
:10195000D37400F5D87303EB01139B68D37200F5C1
:10196000D87303EB01139B681C0A147300F5D8733A
:1019700003EB01139B681C0C547300F5D87303EB45
:1019800001139B681B0E937300F5D87303EB0113CF
:10199000DB68D37300F5D87303EB0113DB681C0A13
:1019A000147400F5D87303EB0113DB681C0C54743A
:1019B00000F5D87303EB0113DB681B0E937421B998
:1019C000C36843F02003C36003E0036943F02003CE
:1019D000036110BD10B502460020936803F08063D8
:1019E000B3F1806F00D110E0936803F00063B3F1AE
:1019F000006F01D1012008E0936803F08053B3F138
:101A0000805F01D1022000E00420042874D002F598
:101A1000C07303EB00131B6803F0010402F5C073ED
:101A200003EB00131C600B7A7BB94B7A0C8843EAFA
:101A3000445302F5C07404EB00142468234302F5F8
:101A4000C07404EB0014236010E00B7A4C6843EA86
:101A5000C4034C7A234302F5C07404EB00142468D9
:101A6000234302F5C07404EB001423608B7A03F067
:101A70000F038B7202F5C07303EB00135B6823F056
:101A80000F0402F5C07303EB00135C6002F5C07332
:101A900003EB00135B688C7A234302F5C07404EBFC
:101AA000001463608B7B1C064B7B44EA03440B7B76
:101AB00044EA0323CC7A234302F5C07404EB0014F8
:101AC000A3608B7C1C064B7C44EA03440B7C44EAF9
:101AD0000323CC7B234302F5C07404EB0014E360C2
:101AE00002F5C07303EB00131B6843F0010402F519
:101AF000C07303EB00131C6010BD000010B52DED8A
:101B0000088B9FED600AB0EE409A5F488168006CD8
:101B1000084400EE100AB8EEC00ADFED5C0A80EE61
:101B2000201A11EE104A2046FEF771FD41EC1B0B06
:101B30009FED570B53EC102BFEF7BDFC41EC1A0B3D
:101B4000FEF7A8FD08EE100A4F48D0F8B010806FDD
:101B5000084400EE100AB8EEC00ADFED4C0A80EE31
:101B6000201A11EE104A2046FEF751FD41EC1B0BE6
:101B70009FED470B53EC102BFEF79DFC41EC1A0B2D
:101B8000FEF788FD08EE900A38EE280AF0EE000A0B
:101B900080EE201A404880ED001A9FED3A0A3F4837
:101BA00080ED000A38EE680ADFED3D0A80EE201A6B
:101BB0003C4880ED001A3C4890F84C0000B33A488D
:101BC00090ED0F0A3948D0ED000A30EE600A10EEB1
:101BD000101A0846FEF71BFD41EC1B0B9FED340B62
:101BE00053EC102BFEF767FC41EC1A0BFEF752FD8D
:101BF00009EE100A2C4890ED0F0A2C4880ED000ADF
:101C0000284890ED000A10EE100AFEF700FD41ECA6
:101C10001B0BB0EE4B0AF0EE6B0A04F001FEB0EEC7
:101C200040AAF0EE60AA9FED240B53EC102B51EC70
:101C30001A0BFEF717FD1CD219EE100AFEF7E7FC8F
:101C400041EC1B0BB0EE4B0AF0EE6B0A04F0E8FD22
:101C5000B0EE40AAF0EE60AA9FED150B53EC102BEE
:101C600051EC1A0BFEF7FEFC08D20E4880ED009AEC
:101C700004E09FED040A0B4880ED000ABDEC088BE0
:101C800010BD000000000000180300200000FA440E
:101C90001E166A4DF30E5C40780000207C00002088
:101CA000CDCCCC3E80000020D80400209000002045
:101CB0009A9999999999A93F000000000000D03F96
:101CC00010B52DED028B0446012002F041FE0128E3
:101CD00013D100202F4981F8280081F840000861C5
:101CE00000212C4841618161C1610020294948805F
:101CF000002128488180C1800181012C06D0022C5E
:101D000013D0032C20D0042C3CD12CE02149B1F974
:101D10000200FEF73FFC41EC180BB0EE480AF0EE73
:101D2000680A012000F00EFF2DE01A49B1F9080001
:101D3000FEF730FC41EC180BB0EE480AF0EE680AF2
:101D4000042000F0FFFE1EE01249B1F90600FEF784
:101D500021FC41EC180BB0EE480AF0EE680A0320B3
:101D600000F0F0FE0FE00B49B1F90400FEF712FCA1
:101D700041EC180BB0EE480AF0EE680A022000F0C1
:101D8000E1FE00E000BF00BFFFF7B8FEBDEC028B34
:101D900010BD0000D402002010480068142808D8A4
:101DA0000F480068142818D90E4890F82000012820
:101DB00013D100200C4981F8280081F84000086107
:101DC0000021094841618161C161002006494880C4
:101DD000002105488180C1800181704724000020D6
:101DE0002800002074010020D402002002460020B8
:101DF00002EA01030BB1012000E00020704700005F
:101E000010B500240E490F4800F0A6F8B0B10C49F7
:101E10000C4800F07BF819200A49091D08600121CF
:101E2000084800F08DF8084801F0E6FD04462CB1A2
:101E300001200649087000200549086010BD000017
:101E40000088002088600240780900203D000020C2
:101E50002400002010B50F490F4800F07DF8B8B1FC
:101E600000210D4800F06CF80A490B4800F04EF8CC
:101E700040210A4803F06DFF28200749091D08602A
:101E80000121054800F05CF84021054800F0D8FA2F
:101E900010BD00000080201040640240001001408E
:101EA0000014024010B54021084800F0C9FA084962
:101EB000084800F051F838B10021064800F040F819
:101EC0000349044800F008F810BD00000014024067
:101ED00000800028B86402400246094B9A4201D2B1
:101EE000084801E00648103801F000531BB1064BCA
:101EF0000B40C36002E0044B0B408360704700005E
:101F000010640240006002407D0F7D0F0246094BC5
:101F10009A4201D2084801E00648103801F0005307
:101F20001BB1064B0B40C36002E0044B0B408360C7
:101F30007047000010640240006002407D0F7D0F7A
:101F400021B1026842F00102026003E0026822F05F
:101F5000010202607047000070B5024600200024B4
:101F60000025124EB24201D2114B01E00F4B103B43
:101F7000104E0E4036B11E2606EAD124166806EA37
:101F8000040502E0566906F0800501F000560EB126
:101F90005C6800E01C68084E344004EA010616B193
:101FA0000DB1012000E0002070BD0000106402406F
:101FB000006002403C0F3C0F7D0F7D0F10B50022EA
:101FC0000268134B1A40CC680B6823434C692343C7
:101FD0008C692343CC6923430C6A23434C6A234313
:101FE0008C6A23434C6B23438C6B23431A4302605C
:101FF000426922F00702D1E90B3423431A434261BC
:102000000B6943604B6883608B68C36010BD000040
:102010003F801CF070470000074908604FF0E02146
:10202000096941F001014FF0E022116100BF02494E
:1020300009680029FBD17047A00000202DE9F0417C
:102040002DED0C8BB0EE408AF0EE608A01209949AC
:1020500081F840009FED980A10EE104A9FED960A15
:1020600010EE106A9FED940A10EE107A9FED920A1E
:1020700010EE105A18EE100AFEF7C9FA41EC190BCF
:102080009FED8E0B53EC102BFEF7ECFA04D29FED74
:102090008D0AB0EE408A10E018EE100AFEF7B7FA8B
:1020A00041EC190B9FED880B53EC102BFEF7C2FA95
:1020B00003D29FED870AB0EE408AB1EE680AF0EED7
:1020C000408A18EE100AFEF7A2FA41EC190B9FEDB8
:1020D000810B53EC102BFEF7C5FA10D218EE100A44
:1020E000FEF795FA41EC190B9FED7C0B53EC102B8E
:1020F000FEF7A0FA03D29FED700AB0EE408A18EE08
:10210000900AFEF784FA41EC190B9FED720B53EC29
:10211000102BFEF7A7FA10D218EE900AFEF777FA06
:1021200041EC190B9FED6D0B53EC102BFEF782FA6F
:1021300003D29FED610AF0EE408A18EE900AFEF796
:1021400066FA41EC1C0B9FED670B53EC102BFEF76E
:1021500040F941EC1A0B18EE100AFEF758FA41EC60
:102160001B0B53EC1A2BFEF78DF841EC190BFEF705
:1021700091FA0446264618EE900AFEF748FA41EC1A
:102180001D0B9FED580B53EC102BFEF722F941EC81
:102190001B0B18EE100AFEF73AFA41EC1C0B53EC3D
:1021A0001B2BFEF710F941EC1A0B81F0004141ECBA
:1021B000190BFEF76FFA05462F462046FEF727FA61
:1021C00041EC1C0B9FED490B53EC102BFEF701F972
:1021D00041EC1B0B81F0004141EC1A0B9FED450BCC
:1021E00053EC102BFEF767F941EC190BFEF7F0F9F1
:1021F00000B2304948803046FEF709FA41EC1C0B2A
:102200009FED3A0B53EC102BFEF7E3F841EC1B0B60
:1022100081F0004141EC1A0B9FED360B53EC102B73
:10222000FEF749F941EC190BFEF7D2F901B221484A
:1022300081803846FEF7EBF941EC1C0B9FED2B0B30
:1022400053EC102BFEF7C5F841EC1B0B81F000415D
:1022500041EC1A0B9FED270B53EC102BFEF72BF9DB
:1022600041EC190BFEF7B4F901B21248C1802846BF
:10227000FEF7CDF941EC1C0B9FED1C0B53EC102B22
:10228000FEF7A7F841EC1B0B81F0004141EC1A0B63
:102290009FED180B53EC102BFEF70DF941EC190BC9
:1022A000FEF796F901B203480181BDEC0C8BBDE845
:1022B000F0810000D4020020000000009A99999952
:1022C00099990140CDCC0C409A999999999901C05E
:1022D000CDCC0CC09A9999999999A9BF9A99999935
:1022E0009999A93F9A9999999999D93F93FE5E0A2C
:1022F0000F165C40000000000000F03F10B5012008
:1023000000F016F810B1012000F00CF810BD10B567
:102310004FF4005000F00CF818B14FF4005000F0EA
:1023200001F810BD0149086070470000143C0140ED
:1023300001460020034A12680A400AB1012000E069
:1023400000207047143C014042694A404261704796
:10235000F0B50A4600210023002400BF3DE001251E
:1023600005FA01F3156805EA03049C4234D10568B7
:102370004F000326BE40B543056015794E00B540B9
:102380000668354305601579012D02D01579022DB7
:1023900016D185684F000326BE40B5438560557948
:1023A0004E00B540866835438560456801268E40FD
:1023B000B5434560456896798E40B6B23543456071
:1023C000C5684F000326BE40B543C560D5794E00B1
:1023D000B540C6683543C560491C1029BFD3F0BD60
:1023E000F0B5002300244D07ED0E02FA05F3CE10E0
:1023F00000F1200555F826504E07F70E0F26BE4077
:10240000B543CF1000F1200646F82750CE1000F15A
:10241000200555F8265045EA0304CE1000F12005AA
:1024200045F82640F0BD0246002013690B400BB171
:10243000012000E00020704741837047018370470E
:1024400042694A404261704700BFFEE70A2000BF70
:10245000011EA0F10102D0B2FADC70471CB50121C7
:10246000022001F015FA01208DF8040000208DF8FB
:102470000600C020009001208DF8070002208DF892
:10248000050069460548FFF763FFFFF7DFFFFFF729
:10249000DDFFFFF7DBFFFFF7D9FF1CBD00040240A3
:1024A00010B540210F48FFF7C7FF0E48006820F421
:1024B00040400C4908600846006840F480400860CD
:1024C00080210848FFF7B8FFFFF7C0FF402105480B
:1024D000FFF7B4FFFFF7BAFF40210248FFF7ACFF58
:1024E00010BD00000004024010B540210F48FFF766
:1024F000A3FF0E48006820F440400C4908600846DD
:10250000006840F48040086080210848FFF796FF8B
:10251000FFF79CFF40210548FFF790FFFFF796FF6C
:1025200040210248FFF788FF10BD00000004024070
:1025300070B5054600241848006820F4404016494C
:102540000860084600680860FFF780FFFFF77EFF1D
:10255000002616E040211048FFF76EFFFFF776FFD8
:1025600040210D48FFF76AFF6006040E80210A48EB
:10257000FFF759FF08B1601CC4B2FFF767FF701C7A
:10258000C6B2082EE6DB15B9FFF7AEFF01E0FFF794
:1025900087FF204670BD00000004024010B51048BF
:1025A000006820F440400E4908600846006840F486
:1025B0008040086080210A48FFF740FF402108481A
:1025C000FFF73CFFFFF742FF80210548FFF734FF8C
:1025D000FFF73CFF40210248FFF72EFF10BD00002F
:1025E0000004024010B51048006820F440400E4935
:1025F00008600846006840F48040086040210A48AE
:10260000FFF71AFF80210848FFF716FFFFF71EFFAC
:1026100040210548FFF712FF80210348FFF70EFF16
:10262000FFF714FF10BD00000004024070B504461F
:102630001948006820F440401749086008460068BF
:1026400040F48040086040211348FFF7F5FE002564
:102650001EE004F08006802E04D180210E48FFF792
:10266000EDFE03E080210C48FFF7E6FEFFF7EEFEEB
:102670006006040E40210848FFF7E0FEFFF7E6FE83
:1026800040210548FFF7D8FEFFF7E0FE681CC5B201
:10269000082DDEDB70BD00000004024010B50122F1
:1026A0005103384801F012F801229103354801F036
:1026B0000DF80122D103334801F008F8002201216E
:1026C000314801F003F8002202212F4800F0FEFFFC
:1026D00000224FF400612C4800F0F8FF00224FF474
:1026E0008051294800F0F2FF00224FF400512648A3
:1026F00000F0ECFF00224FF48041234800F0E6FF99
:1027000000220421204800F0E1FF002208211E4899
:1027100000F0DCFF002210211B4800F0D7FF002250
:102720002021194800F0D2FF01222021154800F095
:10273000CDFF01221021134800F0C8FF012208211B
:10274000104800F0C3FF012204210E4800F0BEFF34
:10275000012211460D4800F0B9FF01210B48FFF797
:102760006BFE0021012002F07FFA0021022002F01E
:102770007BFA0021032002F077FA0021042002F006
:1027800073FA10BD00140240001002400000024025
:1027900010B50121032001F08BF88020C1050880CD
:1027A0004FF6FF70C8620020088501208882A720AC
:1027B00008818420104908802020091D08804FF6D8
:1027C000FF700D492C3108605320091F088001203B
:1027D00009491431088080200749083108800648DB
:1027E000008840F00100044908800805008840F096
:1027F00001000905088010BD0004004010B52DED52
:10280000068BC8480088C0F30B1018285CD1002044
:10281000C5490860C348C07A0870C248007B487048
:10282000C048407B8870BF48807BC870BD48006846
:10283000A0F2811002280DD2084600684142B94832
:102840000068A0F28110C0EBC000B84A02EBC000E3
:1028500081600BE0B4480168B2480068A0F28110C2
:10286000C0EBC000B14A02EBC00081600020AE495D
:102870000860AC48C07B0870AA48007C4870A94832
:10288000407C8870A748807CC870A6480068A0F289
:10289000811002280CD2084600684142A148006815
:1028A000A0F28110C0EBC000A04A42F8301035E120
:1028B0009D4801689B480068A0F28110C0EBC000F1
:1028C0009A4A42F8301029E196480088C0F30B106C
:1028D0005828ECD19348407B602821D19148007B57
:1028E00063281DD18F48807BD0B900208E490860B5
:1028F0008C48C07B08708B48007C48708948407CBD
:1029000088708848807CC8700846016885480068DF
:10291000A0F28150C0EBC000844A42F83010FDE0C4
:102920008048407B60281ED17E48007BF9281AD160
:102930007C48807B182816D100207D490880794882
:10294000C07B08707748007C48700846B0F90010DA
:1029500074480068A0F28150C0EBC000734A02EBDB
:10296000C0008160DAE06F48407B602823D16D4869
:10297000007BF9281FD16B48807B19281BD10020D0
:10298000694908606748C07B08706648007C4870E9
:102990006448407C88706348807CC8700846016841
:1029A00060480068A0F28150C0EBC0005F4A02EBB3
:1029B000C0008160B2E05B48407B602833D1594859
:1029C000007B78282FD15748807B60BB0020584976
:1029D00008805448C07B08705248007C4870B1F9A8
:1029E0000000FDF7D7FD41EC1A0B9FED520B53ECA5
:1029F000102BFDF7EEFC41EC190B9FED500B53EC47
:102A0000102BFDF758FD41EC180BFDF7E1FD01B26D
:102A100044480068A0F28150C0EBC000434A02EB7A
:102A2000C00041827AE03F48407B60281DD13D488C
:102A3000007BF72819D13B48807B122815D1002054
:102A40003B4908803748C07B08703648007C487096
:102A50000846018833480068A0F28150C0EBC000EE
:102A6000324A02EBC000818258E02E48407B602849
:102A70001DD12C48007BF72819D12A48807B0B28D0
:102A800015D100202A4908802648C07B08702548B7
:102A9000007C48700846018822480068A0F28150F6
:102AA000C0EBC000214A02EBC000C18236E01D48E5
:102AB000407B602812D11B48007B41280ED1194869
:102AC000807B58B91748C17B0068A0F28150C0EBE9
:102AD000C000164A02EBC00001731FE01148407BA2
:102AE00026281BD10F48007B012817D10D48807B79
:102AF000A0B90C48C17B0068A0F28150C0EBC000B7
:102B00000A4A02EBC00041730648017C0068A0F24B
:102B10008150C0EBC00002EBC0008173BDEC068B9E
:102B200010BD00004C01002094000020180300207C
:102B3000980000200000000000F055400000000058
:102B40000000F03FF0B52DED068B85B00546B0EEE8
:102B5000408AF0EE608A46F2FF0600279FED1F0BC9
:102B600053EC102B51EC180BFDF733FC41EC1A0B16
:102B70009FED1C0B53EC102BFDF79DFC41EC190B4A
:102B8000FDF726FD044605F5C060009000208DF895
:102B900008008DF8090008208DF80A0023208DF820
:102BA0000B00F1B28DF80C1031128DF80D108DF86C
:102BB0000E70E1B28DF80F10210A8DF81010210C63
:102BC0008DF81110210E8DF8121069460748FEF796
:102BD00001FF05B0BDEC068BF0BD0000C7BEBF9C79
:102BE000EC799140000000000000F03F00640040DC
:102BF0004F480088C0F30B1024287DD14C48C07A80
:102C0000B22801D1012070474948C07AB52801D1C6
:102C10000120F8E74648C07A702801D10120F2E788
:102C20004348C07A9A2839D14148017B0068A0F511
:102C30001070C0EBC0003F4A02EBC000C1823C48AC
:102C4000817B0068A0F51070C0EBC00002EBC000F3
:102C500001733748C17B007C41EA002001B234484F
:102C60000068A0F51070C0EBC00002EBC0008182CC
:102C70002F48417C0068A0F51070C0EBC00002EB4B
:102C8000C00041732A48817C0068A0F51070C0EB39
:102C9000C00002EBC00081730120B4E72448C07A71
:102CA000A4283FD10020244908802148407C087096
:102CB0001F48807C48701E48017B0068A0F510709A
:102CC000C0EBC0001B4A02EBC000C1821848417B28
:102CD000807B41EA002001B215480068A0F5107021
:102CE000C0EBC00002EBC00041821148C17B007CF8
:102CF00041EA00210E4800E017E00068A0F51070DE
:102D0000C0EBC00002EBC00081600B48B0F90010BE
:102D100007480068A0F51070C0EBC00042F8301002
:102D2000012070E70248C07A6DE700206BE70000E1
:102D300060010020F80300209A00002010B5002454
:102D40001448006820F440401249086008460068B2
:102D5000086080210F48FFF771FBFFF777FB4021E8
:102D60000C48FFF76BFBFFF771FB07E0601CC4B278
:102D7000FA2C03DDFFF736FC012010BD8021054849
:102D8000FFF751FB0028F1D140210248FFF754FB27
:102D90000020F2E7000402402DE9F04106460F460C
:102DA00014461D46FFF7FAFB002141EA4601C8B26E
:102DB000FFF73CFCFFF7C2FF20B1FFF713FC012037
:102DC000BDE8F0813846FFF731FCFFF7B7FFFFF7AA
:102DD000E5FB012101EB4601C8B2FFF727FCFFF735
:102DE000ADFF0DE0012C04D10020FFF7A1FB2870FE
:102DF00003E00120FFF79CFB2870601EC4B26D1C2D
:102E0000002CEFD1FFF7EEFB0020D9E72DE9F041D0
:102E100005460E4617469846FFF7C0FB002141EADB
:102E20004501C8B2FFF702FCFFF788FF20B1FFF7AA
:102E3000D9FB0120BDE8F0813046FFF7F7FBFFF733
:102E40007DFF00240CE018F80400FFF7EFFBFFF70C
:102E500075FF18B1FFF7C6FB0120EBE7601CC4B299
:102E6000BC42F0DBFFF7BEFB0020E3E730B59BB0D0
:102E700005460C468748854274D10121801500F033
:102E800027FD84B90121084600F002FD01201390BE
:102E900003208DF8500000208DF8530013A97E48C0
:102EA000FFF756FA93E0012C10D10121084600F0FB
:102EB000EFFC0220139003208DF8500000208DF8C5
:102EC000530013A97448FFF743FA80E0022C10D195
:102ED0000121084600F0DCFC0420139003208DF84B
:102EE000500000208DF8530013A96B48FFF730FA0B
:102EF0006DE0032C10D10121084600F0C9FC082028
:102F0000139003208DF8500000208DF8530013A972
:102F10006148FFF71DFA5AE0042C10D10121084640
:102F200000F0B6FC1020139003208DF85000002014
:102F30008DF8530013A95848FFF70AFA47E0052C0B
:102F400011D10121084600F0A3FC2020139003209A
:102F50008DF8500000208DF8530013A94E48FFF75C
:102F6000F7F934E091E0062C10D10121084600F079
:102F70008FFC4020139003208DF8500000208DF826
:102F8000530013A94448FFF7E3F920E0072C10D1C0
:102F90000121084600F07CFC8020139003208DF86E
:102FA000500000208DF8530013A93B48FFF7D0F9DB
:102FB0000DE0102C03D10120FDF7A8FD07E0112C36
:102FC00003D10120FDF7A2FD01E000BFFEE70020D4
:102FD00000904FF480300190002002904FF4706018
:102FE00003906846FDF7D8FC002015908DF8580036
:102FF00001208DF859000020179018901990012099
:103000008DF8680015A92348FDF7F4FC0121880517
:1030100000F03EFC1F484C300590204806900020F0
:10302000079001200890002009900A904FF400605A
:103030000B9080000C9040110D9040020E900020EB
:103040000F9001201090002011901290049004A97C
:103050001348FEF7B3FF01211148FEF771FF032368
:10306000012221462846FDF7EFFC01212846FDF705
:10307000B6FC01212846FDF7A7FC01212846FDF7F3
:103080007FFC2846FDF73CFD01E000BFFEE71BB0DA
:1030900030BD00000020014000000240A4000020DC
:1030A0001064024006E041F2883100BF0A1EA1F11F
:1030B0000101FBD1021EA0F10100F4D1704700BF55
:1030C000FEE700002DE9F0472DED088B06460F4680
:1030D0004FF0000842F210744FF00A094FF4B47533
:1030E00000BF08E03078FE4901F80800761C08F1BE
:1030F00001001FFA80F8B845F4DBFA480780012088
:10310000F9490870F648C078F84908700846007810
:10311000F2287DD1F64890F82000012878D1484661
:10312000FDF749FA41EC190BED494A79097902EBAF
:103130000120FDF72FFA41EC1B0B9FEDEE0B53EC3A
:10314000102BFDF7B8F941EC1A0B53EC192BFDF7D6
:103150003AF941EC180BFDF79DFA00EE100AE3482E
:1031600080ED0D0A4846FDF726FA41EC190BDC49C3
:10317000CA79897902EB0120FDF70CFA41EC1B0BAF
:103180009FEDDC0B53EC102BFDF795F941EC1A0B7E
:1031900053EC192BFDF717F941EC180BFDF77AFAF0
:1031A00000EE100AD14880ED0E0A4846FDF703FAFA
:1031B00041EC190BCA494A7A097A02EB0120FDF762
:1031C000E9F941EC1B0B9FEDCB0B53EC102BFDF7FA
:1031D00072F941EC1A0B53EC192BFDF7F4F841ECA2
:1031E000180BFDF757FA00EE100AC04880ED0C0AE4
:1031F0000320BE4981F84100002081F82800012009
:1032000081F84000084690ED0C0AB5EEC00A00E0D7
:103210001BE0F1EE10FA0AD090ED0C0AB0EE401A65
:10322000DFEDB60A9FEDB50A02F0D8FED8E1AF484F
:1032300090ED0E1AF0EE410A90ED0D1AB0EE410A33
:103240009FEDAE1A02F0CAFECAE1A8480078F32842
:1032500063D1A74890F8200001285ED14846FDF7C9
:10326000AAF941EC190B9E494A79097902EB012030
:10327000FDF790F941EC1B0B9FED9E0B53EC102BCF
:10328000FDF719F941EC1A0B53EC192BFDF79BF8DC
:1032900041EC180BFDF7FEF900EE100A934880EDA3
:1032A0000D0A9FED960A80ED0E0A4846FDF783F958
:1032B00041EC190B8A494A7A097A02EB0120FDF7A1
:1032C00069F941EC1B0B9FED8B0B53EC102BFDF7B9
:1032D000F2F841EC1A0B53EC192BFDF774F841ECA2
:1032E000180BFDF7D7F900EE100A804880ED0C0AA4
:1032F00000207E4981F8410081F82800012081F8F2
:103300004000084690ED0C1AF0EE410A90ED0D1ABF
:10331000B0EE410AFEF792FE62E174480078F428AC
:1033200066D1734890F82000012861D14846FDF726
:1033300042F941EC190B6A494A79097902EB0120FB
:10334000FDF728F941EC1B0B9FED6A0B53EC102B9A
:10335000FDF7B1F841EC1A0B53EC192BFDF733F8DC
:1033600041EC180BFDF796F900EE100A5F4880ED6E
:103370000D0A9FED620A80ED0E0A4846FDF71BF923
:1033800041EC190B56494A7A097A02EB0120FDF704
:1033900001F941EC1B0B9FED570B53EC102BFDF784
:1033A0008AF841EC1A0B53EC192BFDF70CF841ECA1
:1033B000180BFDF76FF900EE100A4C4880ED0C0A6F
:1033C00002204A4981F84100002081F828000120AC
:1033D00081F840000846D0ED0C0AB0EE601AD0ED3E
:1033E0000D0AB0EE600ADFED450AFDF7A5FBF7E038
:1033F0003E480078FA2871D13D4890F82000012815
:103400006CD137484179007901EB002005EBC5010B
:1034100001EB0511A0EB8100344908613048C17906
:10342000807901EB0020001B00B2304948802C4815
:10343000417A007A01EB002005EBC50101EB051193
:10344000A0EB8101294841612548C17A807A01EBCE
:103450000020001B01B2254881802148417B007B70
:1034600001EB002005EBC50101EB0511A0EB81018B
:103470001E4881611A48C17B807B01EB0020001B44
:1034800001B21A48C1801648417C007C01EB002043
:1034900005EBC50101EB0511A0EB81011348C161EA
:1034A0000F48C17C807C01EB0020001B01B20F485B
:1034B00001810B48417D007D01EB002005EBC5013A
:1034C00001EB0511A0EB8101084801620448C17DB0
:1034D000807D01EB0020001B01B211E030E0000014
:1034E000700200208C0000208E000020D4020020FA
:1034F000740100200000000000005940000000009E
:10350000404841814048417E007E01EB002005EBB0
:10351000C50101EB0511A0EB81013A4841623A482F
:10352000C17E807E01EB0020001B01B23548818105
:103530000120344981F82800002081F840004FE044
:1035400030480078E12804D130A1314802F05FF81A
:1035500046E02C480078E22842D02A480078C0286B
:1035600034D1294800794D283AD127484079492853
:1035700036D125488079432832D12348C0794B2859
:103580002ED124A002F004FF012080F3138800BF95
:1035900000BF00BF00BF00BF00BFBFF34F8F00BF21
:1035A00000BF00BF2448006800F4E06023490843DE
:1035B000001D2149086000BF00BF00BFBFF34F8F4F
:1035C00000BF00BF00BF00E000BFFDE700200D49C5
:1035D00081F8280081F84000BDEC088BBDE8F08739
:1035E0000120084981F84200084690F8280018B9DF
:1035F000084690F8400010B10020114908600120F1
:10360000EAE70000D4020020700200204F4B0A00BD
:1036100000100140554152543120434D4420206F49
:103620007843302C204E6F77207265736574204D7F
:103630004355210A000000000CED00E00000FA05EF
:103640002800002070B504460D46164619488442ED
:1036500004D13146284601F0EFFF29E016488442A4
:1036600004D13146284602F051F921E01348844242
:1036700004D13146284602F0BDF919E010488442D1
:1036800004D13146284601F0F7FD11E00D4884428F
:1036900004D13146284601F06DFE09E00A48844213
:1036A00004D13146284602F0B9FA01E000BFFEE736
:1036B00070BD000000100140004400400048004080
:1036C000004C004000500040001401402DE9FC4136
:1036D00004460F4616462E48844201D1012530E0AB
:1036E0002C48844201D102252BE02B48844201D191
:1036F000042526E02948844201D1082521E02848F4
:10370000844201D110251CE02648844201D12025A5
:1037100017E02548844201D1402512E02348844225
:1037200001D180250DE02248844201D1851508E0B1
:103730002048844201D1451503E01F48844200D14E
:1037400005150121284600F0A3F800978DF80460C4
:10375000012E09D100208DF8060001208DF8070008
:1037600000208DF8050006E02EB901208DF8070035
:1037700000208DF8050069462046FEF7E9FD012E80
:1037800003D139462046FEF759FEBDE8FC81000012
:10379000000002400004024000080240000C024009
:1037A000001002400014024000180240001C0240B9
:1037B0000020024000240240002802407047000020
:1037C00070B5002100230F22C4781CB3174C246865
:1037D00004F4E064C4F5E064C4F30721C1F1040417
:1037E000E3B20A4144789C40E1B28478144021431A
:1037F0000C07210E0E4C05786155047804F01F0566
:103800000124AC4005786D11AD0005F1E025C5F847
:10381000004109E0047804F01F050124AC40054D87
:103820000678761145F8264070BD00000CED00E0EA
:1038300000E400E080E100E002490143024A116037
:10384000704700000000FA050CED00E000BF00BF6B
:1038500000BFBFF34F8F00BF00BF00BF0948006823
:1038600000F4E06008490843001D0649086000BFF5
:1038700000BF00BFBFF34F8F00BF00BF00BF00E01D
:1038800000BFFDE70CED00E00000FA057047000006
:1038900029B1064A12680243044B1A6004E0034A45
:1038A00012688243014B1A607047000030380240B2
:1038B00029B1064A12680243044B1A6004E0034A25
:1038C00012688243014B1A60704700004038024082
:1038D00029B1064A12680243044B1A6004E0034A05
:1038E00012688243014B1A6070470000443802405E
:1038F00029B1064A12680243044B1A6004E0034AE5
:1039000012688243014B1A6070470000243802405D
:10391000F0B5002100220024022500260223324FA8
:103920003F6807F00C0121B1042905D0082937D1DF
:1039300005E02E4F076036E02D4F076033E02A4F39
:103940003F1F3F68C7F38056274F3F1F3F6807F070
:103950003F036EB1264FB7FBF3F7DFF88CC0ACF135
:10396000040CDCF800C0CCF3881C07FB0CF40CE062
:103970001E4FB7FBF3F7DFF870C0ACF1040CDCF8B6
:1039800000C0CCF3881C07FB0CF4174F3F1F3F68A7
:10399000C7F301477F1C7D00B4FBF5F7076002E029
:1039A000124F076000BF00BF0F4F3F6807F0F001E4
:1039B0000909104F7A5C0768D74047600A4F3F6893
:1039C00007F4E051890A0B4F7A5C4768D74087605B
:1039D000054F3F6807F46041490B064F7A5C476822
:1039E000D740C760F0BD0000083802400024F40052
:1039F00000127A001400002070B5044600250CB9AE
:103A0000002070BDFE4890F83600012851D1207882
:103A1000617840EA0120C0F30A00F9490880607823
:103A2000C010A17840EA4110C0F30A00F449488070
:103A3000A0788011E17840EA8100217940EA812074
:103A4000C0F30A00EE49888020794010617940EA8D
:103A5000C110C0F30A00EA49C880607900118008EB
:103A600081F820006079C0F3011081F82100A0796D
:103A7000E17940EA0120E24981F82200207A617A66
:103A800040EA0120DE4981F82300A07AE17A40EA89
:103A90000120DB4981F82400207B81F82500607B30
:103AA00081F82600A07B81F82700012081F83500ED
:103AB00034E2D34890F8360002287CD120780F28D1
:103AC00005D1207E18B9E07D08B9002520E0CC485A
:103AD00090F83700B8B9CBA002F05AFC002505E0F9
:103AE000615DCBA002F054FC681CC5B2192DF7DB58
:103AF000C9A002F04DFCC9A002F04AFC012002F06E
:103B00008AFFFFF7A3FECEA002F042FC002078E778
:103B1000681C192190FBF1F201FB1200215CA81C2A
:103B2000192290FBF2F302FB1300205C41EA002013
:103B3000C0F30A00B2490880A81C192190FBF1F2D9
:103B400001FB1200205CC110E81C192290FBF2F36B
:103B500002FB1300205C41EA4010C0F30A00A849B0
:103B60004880E81C192190FBF1F201FB1200205C57
:103B70008111281D192290FBF2F302FB1300205C37
:103B800041EA8001681D90FBF2F302FB1300205C08
:103B900041EA8020C0F30A0099498880681D1921F4
:103BA00090FBF1F201FB1200205C4110A81D1922CC
:103BB00090FBF2F300E0A9E102FB1300205C41EA74
:103BC000C010C0F30A008E49C880A81D192190FBBF
:103BD000F1F201FB1200205C0111E81D192290FB9B
:103BE000F2F302FB1300205C41EA0010C0F30A006C
:103BF00083490881E81D192190FBF1F201FB1200B5
:103C0000205CC11105F10800192290FBF2F302FBC0
:103C10001300205C41EA400105F1090090FBF2F33A
:103C200002FB1300205C41EA4020C0F30A00744903
:103C3000488105F10900192190FBF1F201FB120006
:103C4000205C811005F10A00192290FBF2F302FBBF
:103C50001300205C41EA8010C0F30A0068498881A3
:103C600005F10A00192190FBF1F201FB1200205C22
:103C7000411105F10B00192290FBF2F302FB130036
:103C8000205C41EAC0005E49C88105F10C001921A1
:103C900090FBF1F201FB1200215C05F10D001922ED
:103CA00090FBF2F302FB1300205C41EA0020C0F31A
:103CB0000A005349088205F10D00192190FBF1F229
:103CC00001FB1200205CC11005F10E00192290FBCF
:103CD000F2F302FB1300205C41EA4010C0F30A003B
:103CE0004749488205F10E00192190FBF1F201FBD2
:103CF0001200205C811105F10F00192290FBF2F3F4
:103D000002FB1300205C41EA800105F1100090FBEA
:103D1000F2F302FB1300205C41EA8020C0F30A00AA
:103D20003749888205F11000192190FBF1F201FB5F
:103D30001200205C411005F11100192290FBF2F3F2
:103D400002FB1300205C41EAC010C0F30A002C49BA
:103D5000C88205F11100192190FBF1F201FB12005C
:103D6000205C011105F11200192290FBF2F302FB15
:103D70001300205C41EA0010C0F30A0020490883C8
:103D800005F11200192190FBF1F201FB1200205CF9
:103D9000C11105F11300192290FBF2F302FB13008D
:103DA000205C41EA400105F1140090FBF2F302FBB4
:103DB0001300205C41EA4020C0F30A001049488308
:103DC00005F11400192190FBF1F201FB1200205CB7
:103DD000811005F11500192290FBF2F302FB13008C
:103DE000205C41EA8010C0F30A000549888305F190
:103DF0001500192190FBF1F201FB1200205C3DE05F
:103E0000740100205342555320646174613A2000CC
:103E10002020307825327800200D0A005342555377
:103E2000206672616D206865616420213D203078D4
:103E300030662C207265736574204D43552E0A0040
:103E400052554E2073746174653A20205342555385
:103E5000206672616D206865616420213D203078A4
:103E600030662C207468726F7720617761792074D6
:103E7000686973206672616D0A000000411105F1E6
:103E80001600192290FBF2F302FB1300205C41EABA
:103E9000C0006449C8830846B0F90C0040F2DC5108
:103EA000884204DD03205F4981F820000EE05D4870
:103EB000B0F90C00B0F5FA7F04DA0120594981F815
:103EC000200003E00220574981F820005548B0F94E
:103ED000080040F2DC51884204DD0220514981F89B
:103EE00021000EE04F48B0F90800B0F5FA7F04DA7F
:103EF00001204C4981F8210003E00320494981F861
:103F000021000120474981F8350007E0012045499B
:103F100081F83500002081F8340072E5414890F8BE
:103F20003700002831D140A002F032FA00203D498C
:103F300081F8340000F0F0F950B10220394981F8DD
:103F40003400012081F837003AA002F021FA1AE08B
:103F50000120344981F83400002081F8370039A06D
:103F600002F016FA3A480078401C394908700846B1
:103F700000781E2807DD37A002F00AFA012002F0BF
:103F80004AFDFFF763FC00203BE52648B0F900003E
:103F900040F6C41188422CDC2248B0F900006428A5
:103FA00027DB2048B0F90200884222DC1D48B0F926
:103FB000020064281DDB1B48B0F90400884218DCAD
:103FC0001848B0F90400642813DB164890F8200064
:103FD00003280EDC134890F82000012809DB114863
:103FE00090F82100032804DC0E4890F821000128F5
:103FF0000ADA1FA002F0CCF900F044F803200949C6
:1040000081F834000020FCE40F20064981F83400D8
:1040100000F0F6FA0348006B401C024908630120D7
:10402000EFE4000074010020524320496E697420BF
:10403000000000007375636365737366756C210A15
:10404000000000006661696C65642E2E0A000000A5
:10405000720000206661696C645F74696D65733E0F
:104060003330207265736574204D43552E2E0A003F
:1040700052432052656D6F7465204552524F520A6B
:104080000000000010B5864890F83600012854D191
:1040900084A1874801F0BBFA8148B0F90010844838
:1040A00001F0FEF90921824801F0EBF981A1804875
:1040B00001F0ADFA7A48B0F902107D4801F0F0F94C
:1040C00009217B4801F0DDF97CA1794801F09FFAD4
:1040D0007348B0F90410764801F0E2F909217448F8
:1040E00001F0CFF977A1724801F091FA6C48B0F96C
:1040F00006106F4801F0D4F909216D4801F0C1F9AB
:1041000072A16B4801F083FA654890F82010684866
:1041100001F0C6F90921664801F0B3F96DA16448C0
:1041200001F075FA5E4890F82110614801F0B8F985
:104130000A215F4801F0A5F978E0594890F8360067
:10414000022873D165A15A4801F061FA5448B0F9C8
:104150000010574801F0A4F90921554801F091F9E0
:104160004F48B0F90210524801F09AF9092150481D
:1041700001F087F94A48B0F904104D4801F090F970
:1041800009214B4801F07DF94548B0F9061048482F
:1041900001F086F90921464801F073F94048B0F969
:1041A0000810434801F07CF90921414801F069F900
:1041B0003B48B0F90A103E4801F072F909213C4829
:1041C00001F05FF93648B0F90C10394801F068F990
:1041D0000921374801F055F93148B0F90E1034483B
:1041E00001F05EF90921324801F04BF937A130485E
:1041F00001F00DFA2A4890F820102D4801F050F9EE
:1042000009212B4801F03DF932A1294801F0FFF9BD
:10421000234890F82110264801F042F90A21244849
:1042200001F02FF90A21224801F02BF92EA1204894
:1042300001F0EDF91A48B0F928101D4801F030F9E5
:1042400009211B4801F01DF92AA1194801F0DFF9E5
:104250001348B0F92A10164801F022F90921144830
:1042600001F00FF926A1124801F0D1F90C48B0F97C
:104270002C100F4801F014F909210D4801F001F943
:1042800022A10B4801F0C3F90548B0F92E100848E7
:1042900001F006F90A21064801F0F3F810BD00000C
:1042A00074010020444255533A20206368313A009B
:1042B000001401406368323A000000006368333A3A
:1042C000000000006368343A000000007377313A60
:1042D000000000007377323A00000000534255534B
:1042E0003A20206368313A006368315F6F66667315
:1042F00065743A006368325F6F66667365743A008E
:104300006368335F6F66667365743A006368345F31
:104310006F66667365743A0070B58448B0F9000042
:10432000B0F5617F05DB8148B0F90000B0F5966F0C
:1043300007DD7E48B0F900107DA002F029F80020CA
:1043400070BD7A48B0F90200B0F5617F05DB7748AF
:10435000B0F90200B0F5966F04DD81A002F018F804
:104360000020EDE77148B0F90400B0F5617F05DB8E
:104370006E48B0F90400B0F5966F04DD81A002F03C
:1043800007F80020DCE76948B0F90600B0F5617F66
:1043900005DB6648B0F90600B0F5966F04DD82A033
:1043A00001F0F6FF0020CBE78848007840B90020F4
:1043B000874908608749086087490860874908601D
:1043C0005A48B0F9000082490968084480490860E9
:1043D0005648B0F902007F49096808447D490860E1
:1043E0005248B0F904007C49096808447A490860D9
:1043F0004E48B0F9060079490968084477490860D1
:1044000072480078401C71490870084600780A28F4
:104410007EDB6F480068097890FBF1F000B24349F9
:1044200008856C4800686949097890FBF1F000B292
:104430003E494885684800686449097890FBF1F076
:1044400000B23A498885654800686049097890FB60
:10445000F1F000B23549C8850C46248D9CB30C465A
:10446000648D84B30C46A48D6CB30C46E48D54B3B8
:104470000C46B4F92830002B01DB1C4600E05C42FE
:1044800040F6C415AC4224DC284CB4F92A20002A9A
:1044900001DB144600E0544240F6C415AC4218DC7F
:1044A000224CB4F92C10002901DB0C4600E04C42F0
:1044B00040F6C415AC420CDC1C4CB4F92E000028AC
:1044C00002DB044601E004E0444240F6C415AC427D
:1044D00017DDFFF7D7FD0020144981F834003B4970
:1044E00008703B4908603B4908603B4908603B490C
:1044F00008603BA001F04CFF012002F08CFAFFF7AE
:10450000A5F90120094981F834003048007800E01D
:1045100002E00863012013E70020044981F8340019
:104520002A480078086300200AE700007401002090
:1045300072632E636831203C2039303029207C7C26
:10454000202872632E636831203E203132303029BA
:1045500021202020646174613A25640A0000000073
:1045600072632E636832203C2039303029207C7CF5
:10457000202872632E636832203E20313230302989
:10458000210A000072632E636833203C20393030EA
:1045900029207C7C202872632E636833203E2031E2
:1045A00032303029210A000072632E636834203CC7
:1045B0002039303029207C7C202872632E636834B7
:1045C000203E203132303029210A000070000020C6
:1045D0006000002064000020680000206C000020C3
:1045E00072632E6368315F6F6666736574203D3D4C
:1045F0003020207265736574204D4355210A0000F8
:104600002DE9F0412DED0A8B9FEDB30A10EE104A13
:10461000002500270026B14890F8200001287DD011
:10462000AE4890F834000028F9D0042000F090F94A
:10463000002873D1A94890F82100012804D1B7EED1
:10464000000A10EE104A17E0A44890F82100032851
:1046500004D1B0EE000A10EE104A0DE09F4890F829
:104660002100022804D1B1EE000A10EE104A03E046
:104670009FED990A10EE104A9848B0F9000097494A
:10468000B1F92810451A9548B0F902009349B1F9DB
:104690002A10471A9148B0F904009049B1F92C103A
:1046A000461A281E01DB014600E04142052900DAD6
:1046B0000025381E01DB014600E041420A2900DAEC
:1046C0000027301E01DB014600E04142322900DABA
:1046D00000268348007800F00300E0BB2046FBF78B
:1046E00096FF41EC1A0B6842FBF754FF41EC1C0BA0
:1046F0009FED7C0B53EC102BFBF7DDFE41EC1B0B0D
:1047000053EC1A2BFBF765FE41EC190BFBF7C2FFCC
:1047100008EE100A2046FBF77AFF00E047E041EC84
:104720001A0B3846FBF736FF41EC1C0B9FED6D0B67
:1047300053EC102BFBF7BFFE41EC1B0B53EC1A2B79
:10474000FBF747FE41EC190BFBF7A4FF08EE900ABC
:10475000F0EE480A00E004E0B0EE680AFDF76EFCF7
:10476000B6E05F48007800F0030001281FD05C48E5
:10477000007800F0030002287ED1CEB17042FBF732
:1047800009FF41EC1A0B9FED570B53EC102BFBF775
:1047900092FE41EC190BFBF77DFF08EE100AB0EE1C
:1047A000481ADFED4D0A9FED4C0A01F017FC8FE02F
:1047B0004A4890F82000032840D12046FBF727FF05
:1047C00041EC1A0B6842FBF7E5FE41EC1C0B9FED38
:1047D000450B53EC102BFBF76EFE41EC1B0B53EC1F
:1047E0001A2BFBF7F6FD41EC190BFBF753FF08EE14
:1047F000100A2046FBF70BFF41EC1A0B3846FBF77B
:10480000C9FE41EC1C0B9FED370B53EC102BFBF753
:1048100052FE41EC1B0B53EC1A2BFBF7DAFD41EC7B
:10482000190BFBF737FF08EE900AB0EE481ADFEDE0
:104830002A0AB0EE680AFCF77FF949E0274890F8A9
:104840002000022844D12046FBF7E1FE41EC1A0B80
:104850006842FBF79FFE41EC1C0B9FED220B53ECD3
:10486000102BFBF728FE41EC1B0B53EC1A2BFBF72C
:10487000B0FD41EC190B00E028E0FBF70BFF08EE60
:10488000100A2046FBF7C3FE41EC1A0B3846FBF733
:1048900081FE41EC1C0B9FED130B53EC102BFBF72F
:1048A0000AFE41EC1B0B53EC1A2BFBF792FD41EC7B
:1048B000190BFBF7EFFE08EE900A9FED071AF0EEDA
:1048C000480AB0EE680A01F089FB01E0044800786C
:1048D000BDEC0A8BBDE8F0810000000074010020EF
:1048E000710000200000000000A0844010B50024EA
:1048F0004FF400611548FDF796FD10B944F0080427
:1049000001E004F0F7044FF480511048FDF78BFDEF
:1049100010B944F0040401E004F0FB044FF400512A
:104920000A48FDF780FD10B944F0020401E004F0EC
:10493000FD044FF480410548FDF775FD10B944F0C2
:10494000010401E004F0FE04204610BD0010024006
:1049500070B50446FF25012C08D120211448FDF72D
:1049600062FD08B9012521E000251FE0022C08D1D5
:1049700010210F48FDF757FD08B9012516E0002565
:1049800014E0032C08D108210948FDF74CFD08B9B3
:1049900001250BE0002509E0042C07D1042104487F
:1049A000FDF741FD08B9012500E00025284670BD4E
:1049B0000010024070B50446FF25012C08D10121EA
:1049C0000948FDF730FD08B901250BE0002509E095
:1049D000022C07D102210448FDF725FD08B9012565
:1049E00000E00025284670BD0010024000B587B0E9
:1049F00001210846FEF74CFF01210803FEF768FF7E
:104A000002208DF8180000208DF81A00E020059093
:104A100001208DF81B0003208DF8190005A92048FE
:104A2000FDF796FC052211461D48FDF7D9FC05222D
:104A300006211B48FDF7D4FC052207211848FDF785
:104A4000CFFC01210803FEF753FF00214FF48050F3
:104A5000FEF74EFF3820ADF80C000120ADF808003D
:104A60000220ADF806000720ADF810000020ADF8D8
:104A70000400ADF80000ADF80E004FF48270ADF800
:104A800002004FF40070ADF80A006946054800F0D6
:104A900055F80121034800F037F807B000BD0000C9
:104AA000000002400030014010B5044600BF022162
:104AB0000A4800F035F80028F9D02146074800F0F0
:104AC0003BF800BF0121054800F02AF80028F9D082
:104AD000024800F02EF8C0B210BD000000300140C6
:104AE00010B50446074800884FF6C77108400549CD
:104AF000088008460088204308800121014800F012
:104B000003F810BD0030014021B1028842F040029C
:104B1000028004E002884FF6BF731A40028070479B
:104B20000246002013890B400BB1012000E0002059
:104B300070470146888970478181704710B500220F
:104B4000028802F441520B884C8823438C8823430B
:104B5000CC8823430C8923434C8923438C892343EA
:104B6000CC8923431A430280838B4FF2FF74234086
:104B700083830B8A038210BD704700000CB50020B0
:104B8000019000903448006840F480303249086059
:104B900000BF3148006800F4003000900198401CCC
:104BA0000190009818B90198B0F5A04FF1D12A48AA
:104BB000006800F4003010B10120009001E00020F6
:104BC00000900098012846D123484030006840F00A
:104BD00080502149403108602048006840F440403E
:104BE0001E4908601C48083000681B4908310860ED
:104BF0000846006840F4004008600846006840F439
:104C0000A05008601648091F0860081F006840F09F
:104C10008070091F086000BF0F48006800F0007036
:104C20000028F9D040F205700E4908600A480830A3
:104C3000006820F003000849083108600846006851
:104C400040F00200086000BF03480830006800F030
:104C50000C000828F8D10CBD00380240007000405C
:104C600008544007003C024070B505460C46012D33
:104C700016D154B120213048FDF7E0FB2F480078D1
:104C800040F001002D49087054E020212A48FDF72A
:104C9000D3FB2A48007800F0FE002849087049E05C
:104CA000022D16D154B110212348FDF7C7FB23482C
:104CB000007840F00200214908703BE010211E48B6
:104CC000FDF7BAFB1D48007800F0FD001B49087095
:104CD00030E0032D16D154B108211748FDF7AEFB83
:104CE0001648007840F004001449087022E00821BA
:104CF0001148FDF7A1FB1148007800F0FB000F49B7
:104D0000087017E0042D15D154B104210A48FDF7AD
:104D100095FB0A48007840F008000849087009E04F
:104D200004210548FDF788FB0448007800F0F700EF
:104D30000249087070BD00000014024059000020B4
:104D40000448006820B103480068401E014908601B
:104D500070470000A000002030B519480068194ACB
:104D6000B0FBF2F1481EB0F1807F01D301201BE0BF
:104D7000481E4FF0E022506150170F22002807DA3A
:104D800013071D0E104B00F00F04241F1D5503E0E8
:104D900013071C0E0D4B1C5400BF00204FF0E022E7
:104DA000906107201061002008B100BFFEE74FF0BE
:104DB000E020006920F001004FF0E021086130BDE3
:104DC00000000020A086010018ED00E000E400E0F3
:104DD00010B51548006840F4700013490860134886
:104DE000006840F001001149086000200F490831B7
:104DF00008600E4800680E4908400C4908600D48DC
:104E0000091D0860081F006820F48020091F086041
:104E1000002006490C310860FFF7B0FE4FF000603B
:104E200001498039086010BD88ED00E0003802407B
:104E3000FFFFF6FE1030002410B50121880700F0B6
:104E400062F818B10121880700F05AF810BD00007F
:104E500010B501210E4800F056F8C0B10D480068A9
:104E6000401C0C4908600C480068401C0A49086056
:104E700008480068FCF724FF06480068042802D3AD
:104E80000020044908600121014800F039F810BDF4
:104E9000001000404C0000203800002010B5012117
:104EA000114800F030F8F0B110480068401C0F497C
:104EB00008600F480068401C0D4908600D480068F4
:104EC000401C0C4908600C480068401C0A490860F6
:104ED0000A480068401C09490860FCF75DFF012191
:104EE000014800F00DF810BD00140040240000201F
:104EF000280000202C00002030000020340000207A
:104F0000CA430282704730B50246002000230024C5
:104F1000158A05EA0103958905EA010413B10CB16C
:104F2000012000E0002030BD2DED0A8B002500247B
:104F300001219C48FDF79AFF9FED9B0AB0EE408A45
:104F40002FE1601CC4B299490888FBF734FB41EC9F
:104F50001C0B9FED970B53EC102BFBF73AFA41EC2F
:104F60001B0B9FED950B53EC102BFBF7A4FA41ECB8
:104F70001A0B9FED930B53EC102BFBF72AFA41EC25
:104F8000190BFBF787FB08EE100A8FA1904800F081
:104F90003EFBB0EE480A8E4800F0B0FAB3EE070AC6
:104FA000B4EEC08AF1EE10FA04D201218948FDF76F
:104FB00045FA03E001218748FDF73EFA012000EBA6
:104FC000E4701E2C01DA012100E00021084080B1CC
:104FD00000210120FFF748FE00210220FFF744FED8
:104FE00000210320FFF740FE01210420FFF73CFED3
:104FF00057E01E2C01DB012000E000203C2C01DAF0
:10500000012100E00021084080B100210120FFF7CC
:105010002BFE00210220FFF727FE01210320FFF7CE
:1050200023FE00210420FFF71FFE3AE03C2C01DBA9
:10503000012000E000205A2C01DA012100E00021CB
:10504000084080B100210120FFF70EFE012102205F
:10505000FFF70AFE00210320FFF706FE00210420CF
:10506000FFF702FE1DE05A2C01DB012000E00020CA
:10507000782C01DA012100E00021084080B10021F4
:105080000120FFF7F1FD00210220FFF7EDFD0021D7
:105090000320FFF7E9FD00210420FFF7E5FD00E014
:1050A00000244FF4FA70FDF7FDFF4FF4FA70FDF79E
:1050B000F9FF4FF400514848FDF746F94FF480419D
:1050C0004548FDF741F94FF400414348FDF73CF9ED
:1050D0000120FFF76FFC01280FD140A001F058F923
:1050E0003EA13B4800F093FA01210846FFF7BCFDC2
:1050F00001213848FDF7A2F907E000210120FFF760
:10510000B3FD01213348FDF797F90220FFF752FC68
:1051100001280BD135A001F03BF934A12C4800F057
:1051200076FA01210220FFF79FFD03E00021022013
:10513000FFF79AFDFFF7DAFB054629462FA001F09D
:1051400027F90120FFF704FC012806D132A001F065
:105150001FF931A11E4800F05AFA0220FFF7F8FBB0
:10516000012806D132A001F013F931A1184800F04E
:105170004EFA0320FFF7ECFB012806D132A001F024
:1051800007F931A1124800F042FA0420FFF7E0FBD2
:10519000012806D132A001F0FBF831A10C4800F043
:1051A00036FACEE60020014000000000A4000020F6
:1051B0006666666666660A40000000000000B04051
:1051C00000000000000035400A204144433A20001E
:1051D0000010014000000240001402406B6579316C
:1051E0002070726573736564200A00006B65793204
:1051F0002070726573736564200A000052656164F3
:105200005F436F64655F5377697463682020203063
:105210007825780A00000000526561645F49736F69
:105220006C617465645F496E7075742831290A0079
:10523000526561645F49736F6C617465645F496E48
:105240007075742832290A00526561645F49736F72
:105250006C617465645F496E7075742833290A0047
:10526000526561645F49736F6C617465645F496E18
:105270007075742834290A0030B587B005460C468D
:1052800001210420FEF704FB00208DF81A00012004
:105290008DF81B0002208DF819004FF44060059036
:1052A00002208DF8180005A91C48FDF751F80822C6
:1052B0000A211A48FDF794F808220B211748FDF738
:1052C0008FF80121C804FEF7F3FA01950020ADF82C
:1052D0000800ADF80A00ADF80C00ADF810000C2085
:1052E000ADF80E0001A90E4800F0B4FD012C08D164
:1052F00000F02AF8012240F22551094800F084FD0F
:1053000005E0002240F22551054800F07DFD012115
:10531000034800F036FD07B030BD00000008024031
:10532000004C004010B540F22551064800F042FD07
:1053300038B1044800F0F8FDC4B22146014800F03D
:10534000F8FD10BD004C004008B54FF4A060FEF71A
:1053500073FA34208DF8000001208DF8010003203D
:105360008DF8020001208DF803006846FEF728FA48
:1053700008BD000030B587B005460C4601210C2061
:10538000FEF786FA00208DF81A0001208DF81B0028
:1053900002208DF81900C002059002208DF8180037
:1053A00005A92148FCF7D4FF0420059002208DF8C0
:1053B000180005A91D48FCF7CBFF08220C211A484C
:1053C000FDF70EF8082202211848FDF709F801211F
:1053D0000805FEF76DFA01950020ADF80800ADF85C
:1053E0000A00ADF80C00ADF810000C20ADF80E006E
:1053F00001A90F4800F02EFD012C08D100F02CF877
:10540000012240F225510A4800F0FEFC05E000228E
:1054100040F22551064800F0F7FC0121044800F055
:10542000B0FC07B030BD000000080240000C024094
:105430000050004010B540F22551064800F0BAFC7B
:1054400038B1044800F070FDC4B22146014800F0B4
:1054500070FD10BD0050004008B54FF4A060FEF78D
:10546000EBF935208DF8000001208DF801000320B4
:105470008DF8020001208DF803006846FEF7A0F9C0
:1054800008BD70B504460D462946204600F051FD82
:1054900000BF8021204600F080FC0028F9D070BDBC
:1054A000FEB507460E46354600208DF80000012463
:1054B0000CE00A20B5FBF0F100FB115030300DF884
:1054C00004000A20B5FBF0F5601CC4B20A20B5FB4D
:1054D000F0F00028EDD10A20B5FBF0F100FB1150EF
:1054E00030300DF8040006E01DF804103846FFF7D0
:1054F000C8FF601EC4B2002CF6DCFEBD70B52DEDF9
:10550000028B0646B0EE408AF0EE488AB7EE000AFB
:10551000C8EE800ABDEEE00A10EE105A2946304669
:1055200000F040F82E213046FFF7ABFF00EE105A96
:10553000B8EEC00A38EEC00ADFED190A20EE200AE4
:10554000F7EE000A80EE201ABDEEC10A10EE104AF6
:10555000002C00DA64420A2C0CDA30213046FFF7C6
:1055600090FF30213046FFF78CFF21463046FFF791
:1055700097FF11E0642C08DA30213046FFF781FFF5
:1055800021463046FFF78CFF06E0B4F57A7F03DA58
:1055900021463046FFF784FFBDEC028B70BD000052
:1055A00000007A44FEB507460E46002E04DA764225
:1055B0002D213846FFF765FF354600208DF80000A5
:1055C00001240CE00A20B5FBF0F100FB1150303053
:1055D0000DF804000A20B5FBF0F5601CC4B20A20E7
:1055E000B5FBF0F00028EDD10A20B5FBF0F100FB8F
:1055F000115030300DF8040006E01DF80410384654
:10560000FFF73FFF601EC4B2002CF6DCFEBD70B594
:1056100005460C460BE014F8011B284600F089FCF7
:1056200000BF8021284600F0B8FB0028F9D0207880
:105630000028F0D170BD000030B587B005460C469B
:1056400001210846FEF724F900208DF81A000120F8
:105650008DF81B0002208DF8190000020590022031
:105660008DF8180005A92148FCF772FE4FF4806000
:10567000059002208DF8180005A91C48FCF768FE6B
:1056800007220A211948FCF7ABFE07220921174817
:10569000FCF7A6FE01211020FEF71AF90195002063
:1056A000ADF80800ADF80A00ADF80C00ADF8100038
:1056B0000C20ADF80E0001A90D4800F0CBFB012C29
:1056C00008D100F00FF9012240F22551084800F0FE
:1056D0009BFB05E0002240F22551054800F094FBB9
:1056E0000121034800F04DFB07B030BD000002402F
:1056F0000010014010B540F225516F4800F05AFBF0
:1057000000283AD020216C4800F023FB40F22551BC
:10571000694800F027FB684800F006FCC4B24FF46B
:1057200000516648FCF710FE65480078654908702E
:10573000634804700078EA2820D108460078AE2833
:105740001CD10020604908800120604908705D4834
:1057500001785D4802880088401C5B4B18805C48DB
:10576000815457480178184602880088401C1880E8
:105770005748815401205749087072E05348007817
:10578000012869D150480088022865DB4E4800880E
:1057900003280ADA4A4801784B4802880088401CEE
:1057A000494B18804A4881545BE049488078801C06
:1057B0004549098888420ADD414801784248028803
:1057C0000088401C404B18804148815449E04048C3
:1057D0008078801C3C49098888420ED1384800787E
:1057E000EF280AD136480178374802880088401CE3
:1057F000354B18803648815433E035488078C01CDA
:1058000031490988884221D12D480078FE281DD1D0
:105810002B4802782C4801880088401C2A4B1880AD
:105820002B484254184600882B49088001202B49F8
:105830000870184601882648FDF744FC10B1002086
:10584000274908600020214908700AE000201F490C
:1058500008701D49088004E000201B4908801B498E
:1058600008700121144800F0A5FA30B1124800F088
:105870005BFB0121104800F06CFA08210E4800F093
:1058800099FA30B10C4800F04FFB08210A4800F0AB
:1058900060FA0221084800F08DFA30B1064800F0A5
:1058A00043FB0221044800F054FA40F2255102481B
:1058B00000F058FA10BD0000001001400014024032
:1058C00057000020580000205400002056000020FF
:1058D000700200203C0000208C0000208E00002080
:1058E0002800002008B54FF4A060FDF7A5FF252093
:1058F0008DF8000001208DF801008DF802008DF870
:1059000003006846FDF75CFF08BD000030B587B0B6
:1059100005460C4601210846FDF7BAFF00208DF828
:105920001A0001208DF81B0002208DF819000C20B0
:10593000059002208DF8180005A91C48FCF708FD09
:10594000072203211948FCF74BFD072202211748C3
:10595000FCF746FD01214804FDF7AAFF0195002050
:10596000ADF80800ADF80A00ADF80C00ADF8100075
:105970000C20ADF80E0001A90D4800F06BFA012CC7
:1059800008D100F021F8012240F22551084800F02A
:105990003BFA05E0002240F22551054800F034FAB8
:1059A0000121034800F0EDF907B030BD00000240CE
:1059B0000044004010B540F22551024800F0FAF9C9
:1059C00010BD00000044004008B54FF4A060FDF792
:1059D00033FF26208DF8000001208DF80100032000
:1059E0008DF8020001208DF803006846FDF7E8FEFF
:1059F00008BD000030B587B005460C4601210220E5
:105A0000FDF746FF00208DF81A0001208DF81B00DD
:105A100002208DF819004FF44060059002208DF8A7
:105A2000180005A91C48FCF793FC07220A211A4814
:105A3000FCF7D6FC07220B211748FCF7D1FC01210B
:105A40008804FDF735FF01950020ADF80800ADF89A
:105A50000A00ADF80C00ADF810000C20ADF80E00F7
:105A600001A90E4800F0F6F9012C08D100F0C0F8A9
:105A7000012240F22551094800F0C6F905E0002254
:105A800040F22551054800F0BFF90121034800F01C
:105A900078F907B030BD0000000402400048004023
:105AA00010B540F225514C4800F084F9002869D027
:105AB000494800F039FAC4B248480078E0B948488B
:105AC000007801285CD1032C5AD100204549087088
:105AD00043490A7843490878411C424B19704249AE
