:020000040800F2
:10000000180A0020CD010008653A0008673A000888
:100010006B3A00086F3A0008733A000800000000CD
:10002000000000000000000000000000773A000817
:10003000793A0008000000007B3A0008B73C00084D
:10004000E7010008E7010008E7010008E7010008F0
:10005000E7010008E7010008C93C0008E7010008C3
:10006000E7010008E7010008E7010008E7010008D0
:10007000E7010008E7010008E7010008F33C000879
:10008000E7010008E7010008E7010008E7010008B0
:100090001D3D0008E7010008E7010008DB3C0008FF
:1000A000E7010008E7010008E7010008E701000890
:1000B0007D3A0008C93A0008E7010008E701000896
:1000C000E7010008E7010008E7010008E701000870
:1000D000E7010008DF3A0008093B0008E7010008D3
:1000E000E7010008E7010008E7010008E701000850
:1000F000E7010008E7010008E7010008E701000840
:10010000E7010008F13C0008E7010008E7010008EA
:10011000E7010008E7010008E7010008E70100081F
:10012000E7010008E7010008E7010008E70100080F
:1001300000F002F800F03AF80AA090E8000C8244BF
:100140008344AAF10107DA4501D100F02FF8AFF29C
:10015000090EBAE80F0013F0010F18BFFB1A43F0A5
:1001600001031847A06D0000C06D0000103A24BFC5
:1001700078C878C1FAD8520724BF30C830C144BF0C
:1001800004680C607047000000230024002500264E
:10019000103A28BF78C1FBD8520728BF30C148BFEA
:1001A0000B6070471FB51FBD10B510BD05F028FED0
:1001B0001146FFF7F7FF03F0CBF805F046FE03B456
:1001C000FFF7F2FF03BC05F049FE00000948804735
:1001D00009480047FEE7FEE7FEE7FEE7FEE7FEE729
:1001E000FEE7FEE7FEE7FEE704480549054A064B41
:1001F00070470000EB0200083101000818040020DD
:10020000180A002018060020180600200CB500204F
:10021000019000906C48006840F480306A490860A2
:1002200000BF6948006800F4003000900198401C4D
:100230000190009818B90198B0F5A06FF1D162480B
:10024000006800F4003010B10120009001E00020AF
:1002500000900098012843D15C48006840F01000ED
:100260005A4908600846006820F003000860084604
:10027000006840F0020008605348406852494860F6
:100280000846406848600846406840F4806048601E
:100290000846406820F47C1048600846406840F4F6
:1002A000E81048600846006840F08070086000BFB1
:1002B0004548006800F000700028F9D042484068C6
:1002C00020F00300404948600846406840F00200C2
:1002D000486000BF3C48406800F00C000828F9D195
:1002E0000CBD10B5FFF792FF10BD10B53648006881
:1002F00040F001003449086008464068344908402D
:100300003149486008460068324908402E49086073
:100310000846006820F4802008600846406820F401
:10032000FE0048604FF41F008860FFF7DAFF4FF0CF
:1003300000602949086010BD10B50021002000228E
:10034000214B5B6803F00C0121B1042906D0082978
:1003500028D107E0214B224C236027E01F4B204C83
:10036000236023E0184B5B6803F47010164B5B6846
:1003700003F48032022303EB904022B9194B43432C
:10038000174C23600DE0104B5B6803F4003323B17E
:10039000144B4343124C236003E0104B4343104C77
:1003A000236003E00D4B0E4C236000BF00BF064BE3
:1003B0005B68C3F303130C4CE15C094B1B68CB4037
:1003C000074C236010BD00000010024000200240D6
:1003D0000000FFF8FFFFF6FE08ED00E000127A00D3
:1003E0000000002000093D000400002031490143C5
:1003F000314A1160704770B5002100230F22C47884
:1004000004B32D4C246804F4E064C4F5E064210ACC
:10041000C1F10403CA40447804FA03F1847814401B
:1004200021430901254C0678A155047804F01F05E5
:100430000124AC4005786D11AD0005F1E025C5F84B
:10044000004109E0047804F01F050124AC401C4D74
:100450000678761145F8264070BD1A4A0A400243D4
:10046000154B1B1F1A60704739B1134A121D1268D1
:100470000243114B1B1D1A6006E00F4A121D126841
:1004800082430D4B1B1D1A607047042808D14FF0A2
:10049000E021096941F004014FF0E022116107E019
:1004A0004FF0E021096921F004014FF0E0221161D1
:1004B000704700000000FA050CED00E000E400E0E9
:1004C00080E100E080FFFF1F1AB143690B434361E5
:1004D00002E043698B434361704710B50021837A82
:1004E000012202FA03F1FB4A126842F00102F94BC1
:1004F0001A60F84A1C3212688A43F64B1C331A60A1
:10050000027BCAB9F34A0C3212688A43F14B0C33AE
:100510001A604288C38842EA0343EE4A4032847A32
:1005200042F834300288838842EA0343E94A403281
:10053000847A02EBC4025360027B012A19D1E54A96
:100540000C3212680A43E34B0C331A60428803886A
:1005500042EA0343DF4A4032847A42F83430C288A8
:10056000838842EA0343DB4A4032847A02EBC402C6
:100570005360C27A3AB9D74A121D12688A43D54BE2
:100580001B1D1A6006E0D34A121D12680A43D14BA4
:100590001B1D1A60028932B9CE4A143212688A438E
:1005A000CC4B14331A600289012A06D1C94A14328D
:1005B00012680A43C74B14331A60427B012A06D1E2
:1005C000C44A1C3212680A43C24B1C331A60C14A27
:1005D000126822F00102BF4B1A6010BD30B502460E
:1005E00000200023146824F002041460146844F00E
:1005F0000104146000E05B1C546804F001041CB9A1
:100600004FF6FF74A342F6D1546804F001040CB90C
:1006100000206CE08C79012C04D1146844F0800433
:10062000146003E0146824F080041460CC79012C79
:1006300004D1146844F04004146003E0146824F00A
:10064000400414600C7A012C04D1146844F0200496
:10065000146003E0146824F0200414604C7A012C28
:1006600004D1146844F01004146003E0146824F00A
:10067000100414608C7A012C04D1146844F008042E
:10068000146003E0146824F008041460CC7A012C90
:1006900004D1146844F00404146003E0146824F0E6
:1006A000040414608C78A407CD7844EA05640D79BD
:1006B00044EA05444D7944EA05540D886D1E2C43E7
:1006C000D461146824F001041460002300E05B1C72
:1006D000546804F001041CB14FF6FF74A342F6D134
:1006E000546804F001040CB1002000E0012030BD8A
:1006F00000218171C171017241728172C172817078
:10070000C1700321017102214171012101807047F3
:1007100010B504467048844209D10121480601F011
:10072000DCFA00214FF0007001F0D7FA08E0012157
:10073000880601F0D2FA00214FF0806001F0CDFA76
:1007400010BD10B58AB004460121092001F09EFABF
:100750000121480601F0A7FA01214FF4EA1001F047
:10076000DAF84FF48070ADF8240048208DF82700A7
:1007700003208DF8260009A9584800F00BFE4FF41D
:100780000070ADF8240018208DF8270003208DF8A4
:10079000260009A9514800F0FDFD4FF4E060FFF785
:1007A00025FE14208DF8200000208DF82100042063
:1007B0008DF8220001208DF8230008A8FFF71BFE0A
:1007C0004548FFF7A5FF05A8FFF792FF00208DF829
:1007D0001A0001208DF81B008DF81C0000208DF8F8
:1007E0001D008DF81E008DF81F008DF816000120E9
:1007F0008DF8170005208DF8180002208DF81900DB
:100800000420ADF8140005A93348FFF7E7FE0020E7
:100810008DF80E008DF80F0001208DF81000C4F344
:100820004F30ADF80400042000EBC40080B2ADF8F6
:1008300006004FF6FF70ADF80800ADF80A00002082
:10084000ADF80C0001208DF8110001A8FFF745FE5E
:10085000012202212048FFF737FE0AB010BD10B573
:1008600002460020936803F08063B3F1806F00D1EB
:1008700010E0936803F00063B3F1006F01D1012031
:1008800008E0936803F08053B3F1805F01D1022048
:1008900000E0042004287AD002F5C07303EB0013B3
:1008A0001B6803F0010402F5C07303EB00131C6026
:1008B0000B7AABB94B7A0C8843EA445302F5C07407
:1008C00004EB00142468234302F5C07404EB001405
:1008D000236016E00066004000640040000C014008
:1008E0000B7A4C6843EAC4034C7A234302F5C07484
:1008F00004EB00142468234302F5C07404EB0014D5
:1009000023608B7A03F00F038B7202F5C07303EB45
:1009100000135B6823F00F0402F5C07303EB0013B0
:100920005C6002F5C07303EB00135B688C7A2343B1
:1009300002F5C07404EB001463608B7B1C064B7BD8
:1009400044EA03440B7B44EA0323CC7A234302F5B5
:10095000C07404EB0014A3608B7C1C064B7C44EA3F
:1009600003440B7C44EA0323CC7B234302F5C0748D
:1009700004EB0014E36002F5C07303EB00131B6883
:1009800043F0010402F5C07303EB00131C6010BDBB
:100990002DE9F04185B080460F4614461D460026DD
:1009A000019704208DF8080000208DF809008DF8CB
:1009B0000A5000BF06E021780DF10B008155641C40
:1009C000701CC6B2AE42F6DB69464046FFF747FFF1
:1009D00005B0BDE8F081F749096841F00101F54A29
:1009E00011601146096843F60E729143F14A116095
:1009F0001146096841EA002111601146096821F099
:100A000001011160704721B1026842F48032026036
:100A100003E0026822F4803202607047E1B10268AC
:100A200042F0800202604FF4C272125842F48073A6
:100A30004FF4C27213504FF4CA72125842F48073CA
:100A40004FF4CA7213504FF4D272125842F48073AA
:100A50004FF4D27213501BE0026822F08002026051
:100A60004FF4C272125822F480734FF4C2721350C2
:100A70004FF4CA72125822F480734FF4CA721350A2
:100A80004FF4D272125822F480734FF4D272135082
:100A9000704710B50246002321B1012907D0022971
:100AA0000FD109E09068C44C00EA04030BE09068A1
:100AB000C24C00EA040306E09068C14C00EA04035B
:100AC00001E0002300BF00BFBE4C181BA34216D09C
:100AD00007DC83B16FF08060184470B1022818D130
:100AE00011E0B0F5007F10D0B74C204448B1B0F50C
:100AF000003F0ED10BE002230DE000230BE00023AA
:100B000009E0002307E0012305E0012303E00123BE
:100B100001E0002300BF00BFD8B210BD21B1012900
:100B200007D002290FD109E0826842F0800282607A
:100B30000AE0826842F40042826005E0826842F482
:100B40000002826000E000BF00BF704710B500F5F2
:100B5000D87303EB01131B6803F004031372137AB9
:100B600053B900F5D87303EB01131B6840F2FF740F
:100B700004EA5353136009E000F5D87303EB011343
:100B80001B686FF0604404EAD303536000F5D87328
:100B900003EB01131B6803F00203537200F5D873D3
:100BA00003EB01135B6803F00F03937200F5D87336
:100BB00003EB01135B681B0AD37400F5D87303EBD6
:100BC00001139B68D37200F5D87303EB01139B6884
:100BD0001C0A147300F5D87303EB01139B681C0CFB
:100BE000547300F5D87303EB01139B681B0E9373CA
:100BF00000F5D87303EB0113DB68D37300F5D873EA
:100C000003EB0113DB681C0A147400F5D87303EBC3
:100C10000113DB681C0C547400F5D87303EB01134B
:100C2000DB681B0E937421B9C36843F02003C360D3
:100C300003E0036943F02003036110BD21B9C268DA
:100C400042F02002C26003E0026942F02002026129
:100C500070470246002019B9D36803F0030006E08C
:100C6000012903D1136903F0030000E0002070475D
:100C700010B502460B4600204FF6FF71BBB9146851
:100C800024F0020444F00104146000E0491E54689A
:100C900004F00304012C01D00029F7D1546804F0BA
:100CA0000304012C01D0002032E0012030E0012BB0
:100CB00013D1146824F00304146000E0491E546842
:100CC00004F003040CB10029F8D1546804F00304C3
:100CD0000CB100201CE001201AE0022B17D114688F
:100CE00024F0010444F00204146000E0491E54683A
:100CF00004F00304022C01D00029F7D1546804F059
:100D00000304022C01D0002002E0012000E00020BA
:100D100010BD014600200A6822F0010242F00202E2
:100D20000A604A6802F00302022A00D101207047DB
:100D300001464FF6FF7200200B6823F002030B60A0
:100D400000E0521E4B6803F00203022B01D1002A7F
:100D5000F7D14B6803F00203022B00D0012070474B
:100D6000014600208A6902F07000704701460020A9
:100D70008A69100E7047014600208A69C2F3074055
:100D8000704710B50246002001F4700343B1936927
:100D9000C1F3130423400BB1012039E0002037E0F8
:100DA00001F08073A3B15368C1F3130423406BB106
:100DB00001202DE00066004003000004000300084D
:100DC00000000310000100080001FFF700201FE0F1
:100DD00001F0006343B19368C1F3130423400BB1E6
:100DE000012015E0002013E001F0007343B1D36847
:100DF000C1F3130423400BB1012009E0002007E0F8
:100E00001369C1F3130423400BB1012000E000205B
:100E100010BD0022804B994202D10023836111E072
:100E2000C1F3130201F000730BB1C2600AE001F0DC
:100E300080630BB1026105E001F000630BB18260D9
:100E400000E0426070470246002002EA01030BB155
:100E5000012000E00020704770B504460D460026D2
:100E600060692840002871D0B5F5807F5CD010DC27
:100E7000082D35D006DC012D20D0022D24D0042DE4
:100E800072D127E0102D31D0202D35D0402D6BD1DF
:100E900038E0B5F5004F60D009DCB5F5007F49D0EA
:100EA000B5F5806F4CD0B5F5006F5DD14FE0B5F56D
:100EB000803F2DD0B5F5003F56D12FE0A0685749AF
:100EC000FFF7C1FF064651E0E0680321FFF7BBFFD3
:100ED00006464BE0E0680821FFF7B5FF064645E00F
:100EE000E0681021FFF7AFFF06463FE020690321CD
:100EF000FFF7A9FF064639E020690821FFF7A3FFA5
:100F0000064633E020691021FFF79DFF06462DE0DD
:100F100060680821FFF797FF064627E06068102108
:100F2000FFF791FF064621E0A0690121FFF78BFF43
:100F300006461BE0A0690221FFF785FF064615E083
:100F4000A0690421FFF77FFF06460FE00FE0A069CC
:100F50007021FFF778FF064608E060680421FFF77C
:100F600072FF064602E0FFE7002600BF00E0002611
:100F7000304670BDB1F5007F3AD00FDC202928D073
:100F800006DC01291CD004291DD0082940D11DE010
:100F9000402921D0B1F5807F3AD126E0B1F5004F4C
:100FA00031D006DCB1F5806F25D0B1F5006F2FD1BF
:100FB00024E0B1F5803F12D0B1F5003F28D111E017
:100FC000164A826025E00822C26022E01022C26038
:100FD0001FE0082202611CE01022026119E00822D1
:100FE000426016E01022426013E00422426010E0EA
:100FF000042242600DE0042242600AE00022826185
:101000000422426005E0002282610422426000E086
:1010100000BF00BF704700007000F0300101010008
:1010200001684FF6FE7211400160002101604160CD
:101030008160C1608D49884208D18C49083949686E
:1010400041F00F01894A083A51608AE0874914311A
:10105000884208D185490839496841F0F001834A3E
:10106000083A51607DE081492831884208D17F49A2
:101070000839496841F470617C4A083A516070E06F
:101080007A493C31884208D178490839496841F4A5
:101090007041764A083A516063E0744950318842A1
:1010A00008D172490839496841F470216F4A083AF9
:1010B000516056E06D496431884208D16B49083966
:1010C000496841F47001694A083A516049E067494A
:1010D0007831884208D165490839496841F0706122
:1010E000624A083A51603CE06149884206D1011FDA
:1010F000096841F00F01021F116032E05C491431B0
:10110000884208D15A49091F096841F0F001584A3C
:10111000121F116025E056492831884208D15449F0
:10112000091F096841F47061514A121F116018E0EB
:101130004F493C31884208D14D49091F096841F4A3
:1011400070414B4A121F11600BE0494950318842EF
:1011500007D14749091F096841F47021444A121F09
:101160001160704710B50022026847F6F0739A4389
:101170000C6A8B6823430C6923434C6923438C69B5
:101180002343CC6923434C6A23438C6A23431A4389
:101190000260CB6843600B6883604B68C36010BD1E
:1011A0000021016041608160C16001614161816134
:1011B000C161016241628162704721B1026842F0FF
:1011C0000102026004E002684FF6FE731A400260FA
:1011D00070471AB103680B43036002E003688B4356
:1011E00003607047416070470146486880B27047AD
:1011F00001460020002201F080531BB11C4B083B2C
:101200001A6802E0194B083B1A6802EA01030BB1A5
:10121000012000E00020704700F0805119B114490E
:10122000091F086002E0114908394860704701460B
:101230000020002201F080531BB10D4B083B1A68BF
:1012400002E00A4B083B1A6802EA01030BB10120D5
:1012500000E00020704700F0805119B10449091FD7
:10126000086002E001490839486070470800024000
:1012700008040240002044490860091D0860091D57
:101280000860091D086041483F49143108607047F3
:1012900000213D498279002A3AD00A461268036843
:1012A0009A430B461A600A1D126803689A430B1D85
:1012B0001A60027911440A6803681A430A60324AC4
:1012C0000832126803689A432F4B08331A601A1DBC
:1012D000126803689A432C4B0C331A604279102A27
:1012E0000ED11A1F126803681A43274B08331A607D
:1012F0001A1D126803681A43234B0C331A600DE061
:101300002149427911440A6803681A430A6005E0DA
:10131000027911440A6803689A430A607047002101
:10132000016001710C2141710021817170471649E2
:10133000103109680143144A1032116070470146A8
:101340000020114A143212680A400AB1012000E05C
:10135000002070470C491431086070470146002096
:101360000022094B1B6803EA0102074B14331B6878
:101370000B4013B10AB1012000E000207047024980
:10138000143108607047000000040140FFFF0F00A7
:10139000016170472DE9F04102460025002600203A
:1013A00000230024002791F803C00CF00F0591F8EA
:1013B00003C00CF0100CBCF1000F03D091F802C078
:1013C0004CEA050591F800C0BCF1000F31D014685B
:1013D00000202BE04FF0010C0CFA00F3B1F800C034
:1013E0000CEA03069E4220D183004FF00F0C0CFA4A
:1013F00003F7BC4305FA03FC4CEA040491F803C06C
:10140000BCF1280F06D14FF0010C0CFA00FCC2F819
:1014100014C00AE091F803C0BCF1480F05D14FF0A9
:10142000010C0CFA00FCC2F810C0401C0828D1D3F3
:101430001460B1F800C0BCF1FF0F34DD5468002027
:101440002EE000F1080C4FF0010808FA0CF3B1F897
:1014500000C00CEA03069E4221D183004FF00F0C1E
:101460000CFA03F7BC4305FA03FC4CEA040491F8B8
:1014700003C0BCF1280F05D100F1080C08FA0CF8E4
:10148000C2F8148091F803C0BCF1480F07D100F1F5
:10149000080C4FF0010808FA0CF8C2F81080401C44
:1014A0000828CED35460BDE8F0812DE9F843054605
:1014B0000F4614469846F848854201D104261CE0A0
:1014C000F648854201D1082617E0F548854201D14A
:1014D000102612E0F348854201D120260DE0F248A3
:1014E000854201D1402608E0F048854201D180269E
:1014F00003E0EF48854200D186150121304600F017
:10150000C5FBADF800708DF80340142C05D0102CED
:1015100003D01C2C01D0182C01D18DF80280694613
:101520002846FFF737FF142C05D0102C03D01C2CB5
:1015300001D0182C03D139462846FFF729FFBDE812
:10154000F883C2684A40C260704730B500228B07FA
:101550001C0F0F2303FA04F2D64B8C1053F82430DF
:101560009343D44C8D1044F8253023468C1053F807
:1015700024308C07240F00FA04F42343CD4C8D1043
:1015800044F8253030BD2DE9FF4706460C4691460C
:10159000C148864203D104274FF0000828E0BF4825
:1015A000864203D108274FF0010821E0BC4886425B
:1015B00003D110274FF002081AE0BA48864203D13F
:1015C00020274FF0030813E0B748864203D1402795
:1015D0004FF004080CE0B548864203D180274FF055
:1015E000050805E0B248864202D187154FF006088B
:1015F00047F00100012100F049FB012C06D1062033
:101600008DF8000000250120019094E0022C06D105
:1016100007208DF800000125022001908BE0042CAA
:1016200006D108208DF8000002250420019082E0F8
:10163000082C06D109208DF8000003250820019010
:1016400079E0102C06D10A208DF800000425102026
:10165000019070E0202C06D117208DF800000525A0
:101660002020019067E0402C06D117208DF8000063
:101670000625402001905EE0802C06D117208DF8D1
:10168000000007258020019055E0B4F5807F06D149
:1016900017208DF800000825680101904BE0B4F593
:1016A000007F07D117208DF8000009254FF4007046
:1016B000019040E0B4F5806F07D128208DF800003C
:1016C0000A254FF48060019035E0B4F5006F07D132
:1016D00028208DF800000B254FF4006001902AE0CF
:1016E000B4F5805F07D128208DF800000C254FF459
:1016F000805001901FE0B4F5005F07D128208DF8DD
:1017000000000D254FF40050019014E0B4F5804F17
:1017100007D128208DF800000E254FF4804001905D
:1017200009E0B4F5004F06D128208DF800000F2500
:101730004FF4004001904FF4C060FEF757FE0020C8
:101740008DF801008DF8020001208DF80300684635
:10175000FEF751FEADF80C4048208DF80F0003A9AC
:101760004D48FFF717FE29464046FFF7EEFEB9F158
:10177000000F03D108208DF809000CE0B9F1010F2A
:1017800003D10C208DF8090005E0B9F1020F02D158
:1017900010208DF8090000208DF8080001208DF838
:1017A0000A0001A8FFF774FDBDE8FF8710B50446E5
:1017B0003948844208D10121042000F081FA002137
:1017C000042000F07DFA46E03448844208D101212B
:1017D000082000F075FA0021082000F071FA3AE0C4
:1017E0002F48844208D10121102000F069FA00211D
:1017F000102000F065FA2EE02A48844208D1012129
:10180000202000F05DFA0021202000F059FA22E0AB
:101810002548844208D10121402000F051FA0021DE
:10182000402000F04DFA16E02048844208D1012102
:10183000802000F045FA0021802000F041FA0AE003
:101840001B48844207D10121801500F039FA00219C
:10185000A01500F035FA10BD10B50121084600F0C2
:101860002FFA0021012000F02BFA10BD4FF6FF7176
:101870000180022181700421C1707047024600205E
:1018800093680B400BB1012000E000207047014637
:10189000886880B27047000000080140000C0140D9
:1018A000001001400014014000180140001C0140DC
:1018B000002001400800014002460020D3680B4090
:1018C0000BB1012000E0002070470146C86880B2DB
:1018D0007047416170470AB1016100E041617047A2
:1018E000C16070474FF480320A4382618161826136
:1018F000826982697047024600202B4B18684FF6B8
:101900008073184040EA02100843274B1860704764
:101910002649C8617047F0B50A460023002400211B
:10192000002500F00046B6F1004F02D11E4EF169CD
:1019300001E01D4E7168C0F3034583B200F4401608
:10194000B6F5401F08D121F07061174E766826F079
:101950007066154F7E6012E000F48016B6F5801FA9
:1019600006D1032606FA05F4A14341F0706106E0B2
:10197000460D360103FA06F6B14341F0706122B11B
:10198000460D360103FA06F6314300F00046B6F183
:10199000004F02D1044EF16101E0034E7160F0BDD1
:1019A0000249DC310860704700000140000020421D
:1019B000DF48006840F00100DD49086008464068E3
:1019C000DC490840DA49486008460068DA490840BE
:1019D000D74908600846006820F48020086008465F
:1019E000406820F4FE0048604FF41F008860704794
:1019F000CF49096821F48031CD4A11601146096848
:101A000021F480211160B0F5803F03D0B0F5802F24
:101A10000ED106E0C649096841F48031C44A11601C
:101A200007E0C349096841F4A021C14A116000E000
:101A300000BF00BF704710B5014600220023002000
:101A40004A11012A02D1BA4C236806E0022A02D1C7
:101A5000B74C236A01E0B64C636A01F01F0201240F
:101A600094401C400CB1012000E0002010BD38B5AE
:101A7000002000900024002500BF3120FFF7DBFF8D
:101A800005460098401C00900098B0F5A06F01D06A
:101A9000002DF2D03120FFF7CEFF08B1012400E085
:101AA0000024204638BD01460020A14A106820F0DD
:101AB000F80040EAC10010607047A0490860704714
:101AC000024600209A4B586820F47C1042EA010339
:101AD0001843974B5860704798490866704701460D
:101AE0000020934A506820F003000843506070477C
:101AF0008F48406800F00C007047014600208C4A77
:101B0000506820F0F0000843506070470146002004
:101B1000874A506820F4E0600843506070470146EF
:101B20000020834A506820F4605040EAC1005060B1
:101B3000704729B17E4A527A02437D4B5A7204E0C3
:101B40007B4A527A82437A4B5A7270477B49D8312A
:101B50000860704701460020754A506820F44040F4
:101B60000843506070470021714A20321170704A5A
:101B700082F82010012802D004280AD104E00121B3
:101B80006B4A2032117005E00521694A203211703C
:101B900000E000BF00BF70476949086070476449B2
:101BA000096A0143624A1162704765494439086015
:101BB000704730B500210022002400235C4D6D6881
:101BC00005F00C0121B1042905D0082923D105E035
:101BD0005C4D056022E05B4D05601FE0544D6D6873
:101BE00005F47012524D6D6805F48034022505EB42
:101BF00092421CB9544D554305600BE04C4D6D6845
:101C000005F400351DB1504D5543056002E04D4DC2
:101C10005543056002E04B4D056000BF00BF444DD9
:101C20006D6805F0F0010909484D6B5C0568DD4001
:101C300045603F4D6D6805F4E061090A434D6B5CFA
:101C40004568DD4085603A4D6D6805F46051C90A0C
:101C50003E4D6B5C4568DD40C560354D6D6805F4F3
:101C60004041890B3A4D6B5CC568B5FBF3F50561E6
:101C700030BD29B12E4A526902432D4B5A6104E00E
:101C80002B4A526982432A4B5A61704729B1284A2C
:101C900092690243264B9A6104E0254A9269824385
:101CA000234B9A61704729B1214AD2690243204BE4
:101CB000DA6104E01E4AD26982431D4BDA61704743
:101CC00029B11B4AD2680243194BDA6004E0184A72
:101CD000D2688243164BDA60704729B1144A126900
:101CE0000243134B1A6104E0114A12698243104BFC
:101CF0001A61704712494039086070470F49C8643B
:101D000070470B49C87170470948406A40F08070BD
:101D100007494862704701460020054A92680A4018
:101D20000AB1012000E00020704701498872704725
:101D3000001002400000FFF8FFFFF6FE00004242E4
:101D40008004424200127A0000093D001400002085
:101D50002400002021B1028842F00102028004E048
:101D600002884FF6FE731A40028070471AB18389C9
:101D70000B43838102E083898B4383817047CA438D
:101D80000282704700220288F84B98420ED0F84B2E
:101D900098420BD0B0F1804F08D0F64B984205D056
:101DA000F54B984202D0F54B984204D14FF68F7311
:101DB0001A404B881A43F24B984207D0F14B984295
:101DC00004D04FF6FF431A40CB881A4302808B8819
:101DD00083850B880385E54B98420BD0E44B9842F2
:101DE00008D0E94B984205D0E84B984202D0E84B26
:101DF000984201D10B7A03860123838270477FB515
:101E000004460D46B4F1804F39D14FF4E060FEF73F
:101E1000EDFA1C208DF8000000208DF80100022052
:101E20008DF8020001208DF803006846FEF7E3FA02
:101E300001210846FFF737FF681E80B2ADF80800A1
:101E40004720ADF804000020ADF80A00ADF8060008
:101E500001A94FF08040FFF795FF01218807FFF7A8
:101E60008EFF012211469007FFF780FF01218807AE
:101E7000FFF770FF00210120FFF715FF2DE1BD489E
:101E8000844238D14FF4E060FEF7B0FA1D208DF89F
:101E9000000000208DF8010003208DF802000120D1
:101EA0008DF803006846FEF7A6FA01210220FFF72D
:101EB000FAFE681E80B2ADF808004720ADF80400B5
:101EC0000020ADF80A00ADF8060001A92046FFF792
:101ED00059FF01212046FFF752FF012211462046FB
:101EE000FFF744FF01212046FFF734FF00210220C5
:101EF000FFF7D9FEF1E0A048844238D14FF4E0600A
:101F0000FEF774FA1E208DF8000000208DF8010005
:101F100003208DF8020001208DF803006846FEF7CB
:101F20006AFA01210420FFF7BEFE681E80B2ADF8F8
:101F300008004720ADF804000020ADF80A00ADF815
:101F4000060001A92046FFF71DFF01212046FFF7EB
:101F500016FF012211462046FFF708FF0121204607
:101F6000FFF7F8FE00210420FFF79DFEB5E083484F
:101F7000844238D14FF4E060FEF738FA32208DF811
:101F8000000000208DF8010003208DF802000120E0
:101F90008DF803006846FEF72EFA01210820FFF7AE
:101FA00082FE681E80B2ADF808004720ADF804003C
:101FB0000020ADF80A00ADF8060001A92046FFF7A1
:101FC000E1FE01212046FFF7DAFE012211462046FC
:101FD000FFF7CCFE01212046FFF7BCFE00210820C0
:101FE000FFF761FE79E06648844238D14FF4E06043
:101FF000FEF7FCF936208DF8000000208DF8010076
:1020000003208DF8020001208DF803006846FEF7DA
:10201000F2F901211020FFF746FE681E80B2ADF8EC
:1020200008004720ADF804000020ADF80A00ADF824
:10203000060001A92046FFF7A5FE01212046FFF773
:102040009EFE012211462046FFF790FE0121204608
:10205000FFF780FE00211020FFF725FE3DE04948F4
:10206000844238D14FF4E060FEF7C0F937208DF894
:10207000000000208DF8010003208DF802000120EF
:102080008DF803006846FEF7B6F901212020FFF71E
:102090000AFE681E80B2ADF808004720ADF80400C3
:1020A0000020ADF80A00ADF8060001A92046FFF7B0
:1020B00069FE01212046FFF762FE012211462046FB
:1020C000FFF754FE01212046FFF744FE00212020A7
:1020D000FFF7E9FD01E000BFFEE77FBD10B5044654
:1020E000B4F1804F04D101210846FFF7DCFD29E05F
:1020F0002048844204D101210220FFF7D4FD21E0D1
:102100001D48844204D101210420FFF7CCFD19E0D1
:102110001A48844204D101210820FFF7C4FD11E0D0
:102120001748844204D101211020FFF7BCFD09E0CB
:102130001448844204D101212020FFF7B4FD01E0BE
:1021400000BFFEE710BD10B50446B4F1804F04D1C6
:1021500000210120FFF7A7FD3EE00648844219D187
:1021600000210220FFF79FFD36E00000002C014017
:10217000003401400004004000080040000C004012
:1021800000100040001400400040014000440140A5
:1021900000480140FE48844204D100210420FFF79A
:1021A00082FD19E0FB48844204D100210820FFF79A
:1021B0007AFD11E0F848844204D100211020FFF795
:1021C00072FD09E0F548844204D100212020FFF788
:1021D0006AFD01E000BFFEE710BD10B50446F048FF
:1021E000844208D10121C014FFF76AFD0021E014E8
:1021F000FFF766FDC4E0B4F1804F08D10121084625
:10220000FFF76BFD00210120FFF767FDB8E0E5480F
:10221000844208D101210220FFF75FFD0021022046
:10222000FFF75BFDACE0DA48844208D101210420CD
:10223000FFF753FD00210420FFF74FFDA0E0D54834
:10224000844208D101210820FFF747FD0021082022
:10225000FFF743FD94E0D048844208D101211020CB
:10226000FFF73BFD00211020FFF737FD88E0CB484A
:10227000844208D101212020FFF72FFD00212020DA
:10228000FFF72BFD7CE0C848844208D101214014AF
:10229000FFF716FD00216014FFF712FD70E0C34840
:1022A000844209D10121C804FFF70AFD00214FF43F
:1022B0000020FFF705FD63E0BD48844209D10121FC
:1022C0000805FFF7FDFC00214FF48010FFF7F8FC34
:1022D00056E0B848844209D101214805FFF7F0FCD7
:1022E00000214FF40010FFF7EBFC49E0B2488442B4
:1022F00008D101214020FFF7F0FC00214020FFF72A
:10230000ECFC3DE0AD48844208D101218020FFF77C
:10231000E4FC00218020FFF7E0FC31E0A848844283
:1023200008D101218015FFF7D8FC0021A015FFF787
:10233000D4FC25E0A348844209D101210804FFF719
:10234000BFFC00214FF48030FFF7BAFC18E09E4834
:10235000844209D101214804FFF7B2FC00214FF467
:102360000030FFF7ADFC0BE09848844208D1012112
:102370008804FFF7A5FC00214FF48020FFF7A0FCA4
:1023800010BD70B5002400220023058C4FF6FE76A8
:1023900035400584028C8388048B4FF68F752C4062
:1023A000B51E2C400D882C43751E2A400D892A43EA
:1023B0004D882A437A4DA8420BD07B4DA84208D0C5
:1023C000804DA84205D0804DA84202D07F4DA84242
:1023D00013D14FF6F7752A404D892A434FF6FB7506
:1023E0002A408D882A434FF6FF652B404FF6FF5554
:1023F0002B408D892B43CD892B4383800483CD884B
:102400008586028470BD70B5002400220023058CEF
:102410004FF6EF7635400584028C8388048B48F6AE
:10242000FF752C404FF6FF452C400D884FF6FF7688
:1024300006EA05252C434FF6DF752A400D8906EA8A
:1024400005152A434D8806EA05152A43544DA8422E
:1024500002D0554DA8421DD14FF67F752A404D89B7
:102460004FF6FF7606EA05152A434FF6BF752A4058
:102470008D8806EA05152A434FF6FF352B404FF2AB
:10248000FF752B408D8906EA85052B43CD8906EA29
:1024900085052B4383800483CD880587028470BD26
:1024A00070B5002400220023058C4FF6FF663540EE
:1024B0000584028C8388848B4FF68F752C404FF6F1
:1024C000FC752C400D882C434FF6FF552A400D8992
:1024D0004FF6FF7606EA05252A434D8806EA0525CC
:1024E0002A432F4DA84202D02F4DA8421DD14FF2B2
:1024F000FF752A404D894FF6FF7606EA05252A43E7
:102500004FF6FF352A408D8806EA05252A434EF608
:10251000FF752B404DF6FF752B408D8906EA05159A
:102520002B43CD8906EA05152B4383808483CD8810
:102530008587028470BD70B5002200230024058CBD
:102540004EF6FF7635400584038C8488828B48F6EE
:10255000FF752A404FF6FF452A400D884FF6FF765B
:1025600006EA05252A434DF6FF752B400D8906EA3C
:1025700005352B434D8806EA05352B43084DA84207
:1025800002D0094DA84229D14BF6FF752C401FE01F
:1025900000080040000C0040001000400014004003
:1025A000002C01400004004000340140004C014078
:1025B000005001400054014000180040001C004041
:1025C000002000400040014000440140004801401C
:1025D0008D894FF6FF7606EA85152C438480828329
:1025E000CD88A0F84050038470BD828B4FF2FF333A
:1025F0001A408283828B4FF6FF7303EA01231A434A
:1026000082837047F0B50C46154600220021002653
:10261000078C4EF6FF7C07EA0C070784828B018C3F
:102620004FF6FF7707EA043640F6FF473A404FF689
:10263000FF7707EA05273A434FF6FF7707EA0337A4
:102640003A43F64FB8420ED0F54FB8420BD0B0F136
:10265000804F08D0F34FB84205D0F34FB84202D0B4
:10266000F24FB84206D14DF6FF77394046F4805715
:10267000394305E047F6FF57394044F48057394362
:1026800082830184F0BD828B4FF6F3731A408283FC
:10269000828B0A4382837047F0B50C4615460022B0
:1026A00000210026078C4FF6FF6C07EA0C07078411
:1026B000828B018C4FF6FF7707EA04264FF60C77E2
:1026C0003A404FF6FF7707EA03172F433A43D34FB9
:1026D000B8420ED0D24FB8420BD0B0F1804F08D0E4
:1026E000D04FB84205D0D04FB84202D0CF4FB842F9
:1026F00006D14FF6FF57394046F48077394305E05D
:102700004FF2FF57394044F4807739438283018484
:10271000F0BD028B4FF2FF331A400283028B4FF65B
:10272000FF7303EA01231A4302837047F0B50C4696
:102730001546002200210026078C4FF6EF7C07EAA1
:102740000C070784028B018C4FF6FF7707EA04160B
:1027500040F6FF473A404FF6FF7707EA03373A4320
:102760004FF6FF7707EA05273A43AC4FB8420ED041
:10277000AB4FB8420BD0B0F1804F08D0A94FB84250
:1027800005D0A94FB84202D0A84FB84206D14FF6A3
:10279000DF77394046F01007394305E04FF65F77A1
:1027A000394044F01007394302830184F0BD028BA5
:1027B0004FF6F3731A400283028B0A430283704779
:1027C000F0B50C46154600220021068C4FF6FE7728
:1027D0003E400684028B018C4FF60C7632407E1C04
:1027E00006EA03162E4332438C4EB0420ED08C4E76
:1027F000B0420BD0B0F1804F08D08A4EB04205D025
:10280000894EB04202D0894EB04206D14FF6FD76D5
:10281000314044F00106314305E04FF6F576314092
:1028200044F00106314302830184F0BD70B50546D2
:102830000C467A4885420ED0794885420BD0B5F1D6
:10284000804F08D07748854205D07748854202D02E
:102850007648854200D100E000BF208850B9238926
:10286000A28861882846FFF7ABFFE1882846FFF77A
:102870009EFF25E0208804280AD12389A288618848
:102880002846FFF753FFE1882846FFF742FF17E08D
:10289000208808280AD12389A28861882846FFF762
:1028A000FBFEE1882846FFF7EEFE09E02389A288B7
:1028B00061882846FFF7A6FEE1882846FFF795FEC7
:1028C00070BD2DE9F04105460C46002601276088C1
:1028D00008B9022600E00026A088012801D10227BD
:1028E00000E001272088A0B92389A28861882846B2
:1028F000FFF766FFE1882846FFF759FF23893A462C
:1029000031462846FFF712FFE1882846FFF701FF0E
:1029100013E02389A28861882846FFF707FFE18832
:102920002846FFF7F6FE23893A4631462846FFF748
:1029300047FFE1882846FFF73AFFBDE8F0810A88A3
:102940004B881A438B881A43CB881A430B891A4346
:102950004B891A438B891A43A0F8442070474FF6DD
:10296000FF71818000210180C18041800172704728
:102970000021018041808180C1800181418181816C
:10298000C1817047002101804180012181800021A7
:10299000C180018170470021018041808180C18018
:1029A000018141818181704731B1B0F8442042F406
:1029B0000042A0F8442005E0B0F84420C2F30E0223
:1029C000A0F8442070478182704741EA0203A0F8D2
:1029D000483070471AB183890B43838102E08389B1
:1029E0008B438381704701894FF6F8721140018152
:1029F00070470A46002101894FF68F731940114331
:102A00000181704730B504460D4629462046FFF740
:102A1000F0FF208940F00700208130BD002C0140EC
:102A2000003401400004004000080040000C004059
:102A30002DE9F04104460D4616461F46602D06D18D
:102A40003B46012231462046FFF770FE05E03B463B
:102A5000012231462046FFF7B3FE29462046FFF704
:102A6000C8FF208940F007002081BDE8F08130B523
:102A70000C4600210189C9B24FF6FF7505EA03250E
:102A8000154325432943018130BD2DE9F041054619
:102A90000E4617469846002443463A463146284695
:102AA000FFF7E5FF2C894FF6F870044044F0070467
:102AB0004FF68F70044044F070042C81BDE8F08123
:102AC000F0B504460D4616461F463B46324629469B
:102AD0002046FFF7CCFF208940F480402081F0BDE4
:102AE0000185828270470A46002101884FF68F7364
:102AF0001940114301807047F0B50C4615461E463B
:102B00000021002200230189028B038C4FF6F87705
:102B1000394021434FF6FC473A4040F201173A430F
:102B20004FF6DD773B404FF6FF7707EA06172F4356
:102B30003B43018102830384F0BD0A460021018BDF
:102B40004FF68F7319401143018370470A460021E5
:102B5000018B48F6FF7319404FF6FF7303EA022317
:102B60001943018370470A460021818B4FF68F730A
:102B700019401143818370470A460021818B48F632
:102B8000FF7319404FF6FF7303EA02231943818351
:102B9000704721B1028842F08002028004E002887E
:102BA0004FF67F731A400280704721B1828842F04D
:102BB0000402828004E082884FF6FB731A40828010
:102BC000704721B1828842F00802828004E0828846
:102BD0004FF6F7731A408280704721B1828842F025
:102BE0000102828004E082884FF6FE731A408280E0
:102BF00070470A460021018B4FF6F77319401143C5
:102C0000018370470A460021018B4FF2FF73194080
:102C10004FF6FF7303EA02231943018370470A4604
:102C20000021818B4FF6F773194011438183704760
:102C30000A460021818B4FF2FF7319404FF6FF7354
:102C400003EA02231943818370470A460021018B5E
:102C50004FF6FB7319401143018370470A46002168
:102C6000018B4FF6FF3319404FF6FF7303EA02233F
:102C70001943018370470A460021818B4FF6FB738D
:102C800019401143818370470A460021818B4FF61A
:102C9000FF3319404FF6FF7303EA02231943818380
:102CA00070470A460021018B4FF67F73194011438C
:102CB000018370470A460021018BC1F30E014FF6D4
:102CC000FF7303EA02231943018370470A46002178
:102CD000818B4FF67F7319401143818370470A46F9
:102CE0000021818BC1F30E014FF6FF7303EA02232B
:102CF0001943818370470A460021018C4FF6FD730A
:102D000019401143018470470A460021018C4FF697
:102D1000F77319401143018470470A460021018C62
:102D20004FF6DF7319404FF6FF7303EA021319439E
:102D3000018470470A460021018C4FF67F731940C9
:102D40004FF6FF7303EA02131943018470470A46E2
:102D50000021018C4FF6FF5319404FF6FF7303EA31
:102D600002231943018470470A460021018C4FF267
:102D7000FF7319404FF6FF7303EA022319430184DE
:102D800070470A460021018C4DF6FF7319404FF63B
:102D9000FF7303EA023319430184704730B50023FF
:102DA00001248C40A3B2048C9C430484048C02FA5A
:102DB00001F5ADB22C43048430BD30B500230424AA
:102DC0008C40A3B2048C9C430484048C02FA01F569
:102DD000ADB22C43048430BD70B5034600200024FE
:102DE0001846183001258D40ACB21D8CA5431D84BA
:102DF00009B1082909D100EB6100056825F07005CB
:102E000005600568154305600EE00D1FC5F34E050E
:102E10002844056825F4E045056005684FF6FF760F
:102E200006EA02263543056070BD21B1028842F0F2
:102E30000202028004E002884FF6FD731A4002800D
:102E4000704721B1028842F00402028004E0028847
:102E50004FF6FB731A400280704721B1828842F01E
:102E60008002828004E082884FF67F731A4082805D
:102E7000704702884FF6F7731A40028002880A43AF
:102E80000280704782884FF68F731A408280828852
:102E90000A438280704702894FF6F8731A40028114
:102EA00002890A430281704702894FF67F731A40F4
:102EB000028102890A4302817047818470478185BB
:102EC0007047818670470187704781877047A0F8F7
:102ED0004010704702884FF6FF431A400280028874
:102EE0000A43028070470146888E70470146088F6A
:102EF00070470146888F70470146B1F8400070471F
:102F00000146888C70470146088D704702460020B4
:102F1000138A0B400BB1012000E00020704730B550
:102F20000246002000230024158A05EA0103958942
:102F300005EA010413B10CB1012000E0002030BD0E
:102F4000CA4302827047000010B50446FB48844221
:102F500009D101218803FEF7B3FE00214FF4804020
:102F6000FEF7AEFE32E0F648844209D10121480462
:102F7000FEF7B3FE00214FF40030FEF7AEFE25E071
:102F8000F048844209D101218804FEF7A6FE002101
:102F90004FF48020FEF7A1FE18E0EB48844209D1EF
:102FA0000121C804FEF799FE00214FF40020FEF72E
:102FB00094FE0BE0E548844208D101210805FEF7A4
:102FC0008CFE00214FF48010FEF787FE10BD2DE926
:102FD000F04786B005460E460024A24600BFA14633
:102FE0000027B08900B100BF2F462C8A4CF6FF7035
:102FF0000440F08804432C82AC894EF6F310044060
:10300000B08831890843718908430443AC81AC8A94
:103010004FF6FF400440B0890443AC8201A8FEF79C
:10302000C8FDC648874202D1DDF810A001E0DDF8F6
:103030000CA0A88900F4004040B10AEBCA0000EBE4
:103040000A1031684900B0FBF1F807E00AEBCA004A
:1030500000EB0A1031688900B0FBF1F86420B8FB7E
:10306000F0F004012009642101FB1089A88900F413
:10307000004040B1322000EBC900B0FBF1F000F09D
:103080000700044308E0322000EB09106421B0FB84
:10309000F1F000F00F0004432C8106B0BDE8F0878A
:1030A0004FF41651016000218180C18001810C2103
:1030B000418100218181704710B502460020108AAD
:1030C0004FF2FF0318400B884C8823438C8823431E
:1030D000CC8823431843108210BD00210180418019
:1030E0008180C180704721B1828942F4005282817F
:1030F00004E082894DF6FF731A4082817047F0B573
:103100000346002400260025002040F66A17B94235
:1031100000D100BF1846C1F3421401F01F06012779
:1031200007FA06F5012C01D10C3004E0022C01D184
:10313000103000E014301AB107682F43076002E036
:103140000768AF430760F0BD1AB1838A0B438382DF
:1031500002E0838A8B4383827047028A4FF6F073C2
:103160001A400282028A0A430282704782894FF221
:10317000FF731A40828182890A438281704721B19C
:10318000828942F00202828104E082894FF6FD7357
:103190001A4082817047028A4FF6DF731A4002821A
:1031A000028A0A430282704721B1028A42F48042B5
:1031B000028204E0028A4BF6FF731A4002827047D3
:1031C000C1F308028280704701468888C0F3080076
:1031D0007047818941F0010181817047028BD2B231
:1031E0000283028B42EA012202837047028B02F4BF
:1031F0007F420283028B0A430283704721B1828A95
:1032000042F02002828204E0828A4FF6DF731A4085
:103210008282704721B1828A42F01002828204E0E9
:10322000828A4FF6EF731A408282704721B1828AF8
:1032300042F00802828204E0828A4FF6F7731A4055
:103240008282704721B1828942F40042828103E088
:103250008289C2F30E028281704721B1828A42F4D0
:103260000062828204E0828A4FF2FF731A408282F7
:103270007047828A4FF6FB731A408282828A0A4321
:103280008282704721B1828A42F00202828204E087
:10329000828A4FF6FD731A408282704702460020F0
:1032A000B1F5007F00D100BF13880B400BB10120A6
:1032B00000E00020704701F40072B2F5007F00D1F9
:1032C00000BFCA430280704770B502460024002345
:1032D0000025002040F66A16B14200D100BFC1F3BC
:1032E000421501F01F03012606FA03F3012D02D156
:1032F0009689334006E0022D02D1168A334001E060
:10330000968A33400C12012606FA04F416883440DB
:1033100013B10CB1012000E0002070BD10B50022F7
:10332000002340F66A14A14200D100BF0A12012412
:103330009440A3B2DC43048010BD0000003801407B
:103340000044004000480040004C00400050004055
:1033500000F024FD012314222021FE48FEF7A5F8E9
:10336000012314224021FB48FEF79FF801224FF46D
:10337000E131F94800F07FFFF8A1F74801F0AFF91B
:10338000FB49FC4801F044F801F06AFA01F03CFD09
:1033900000221146104601F01BFE4FF47A71C80658
:1033A000FEF72DFD4FF08040FEF798FEF2A1EA48AF
:1033B00001F095F93EE1F648007800287ED0002023
:1033C000F3490870F3490860F3490860F348007A4C
:1033D00001282ED0F148007F0028FAD0EF48407A2B
:1033E000012827D1ED49B1F91010EC4AB2F90020BB
:1033F000881A02F079FF0746E94AEA4B02F0DAFF41
:10340000054602F033FD0446E449B1F90210E34AEF
:10341000B2F91220881A02F067FF0746E04AE14B32
:1034200002F0C8FF054602F021FD8146214601F069
:1034300056FD5DE0D948407A032827D1D749B1F934
:103440001010D64AB2F90020881A02F04DFF074644
:10345000D34AD54B02F0AEFF054602F007FD044605
:10346000CE49B1F90210CD4AB2F91220881A02F001
:103470003BFF0746CA4ACC4B02F09CFF054602F0D0
:10348000F5FC8146214601F02AFD31E0C348407A2F
:10349000022829D1C149B1F91010C04AB2F900205F
:1034A000881A02F021FF0746C04AC14B02F082FF92
:1034B000054602F0DBFC0446B84900E01CE0B1F927
:1034C0000210B64AB2F91220881A02F00DFF074620
:1034D000B64AB74B02F06EFF054602F0C7FC8146C4
:1034E000214601F0FCFC03E00021084601F0F7FC56
:1034F00020219848FEF725F8AE480078002859D0DA
:103500000020A4490860A4490860AA490870A3489B
:10351000007A01284ED1A148007F00284AD0A64851
:1035200090F82500002840D0A3480078F1280ED15B
:10353000A14C248A23B2A04CA48922B29E4C248997
:1035400021B29D4CA48820B201F082FC28E09A4868
:103550000078F22814D19849086A03F0D9FA04B225
:103560009549C86903F0D4FA05B29349886903F014
:10357000CFFA06B222462946304601F029FD0FE077
:103580008D480078F32805D18B4A116A906901F0C3
:10359000A6FC05E088480078E12801D102F001FB93
:1035A0000020854981F8250004E0002211461046DC
:1035B00001F00EFD81480078B8B100207F49087005
:1035C0007F480068142809D140216248FDF7B9FFFF
:1035D00000207B49086002F0C8F906E078480068DE
:1035E000142802D90020764908606B480068B0F5BD
:1035F0007A7F0BD90020704981F825006649086060
:1036000000231A461946184601F022FC614800685A
:10361000B0F57A7F0ED96148007F58B905205F491F
:10362000087200205B49086000231A4619461846B4
:1036300001F00EFCBFE606E041F2883100BF0A1E31
:10364000A1F10101FBD1021EA0F10100F4D17047EC
:1036500000BF011EA0F10100FBD170472DE9F04F22
:103660009BB00125002400BF002008906E1C05F1CE
:10367000020805F1030905F1040A05F1050BA81D6F
:103680000790E81D069005F10800059005F1090076
:10369000049005F10A00039005F10B00029005F17A
:1036A0000C0001906421039848430390029848431A
:1036B0000290019848430190AE222146641C09A85B
:1036C0004254EA222146641C425401222146641CD1
:1036D000425410222146641C42543A480068020EAB
:1036E0002146641C09A8425436480068C0F30742CA
:1036F0002146641C09A8425432480088C0F30722BE
:103700002146641C09A842542E4802782046611CB8
:10371000CCB209A90A54320A2046611CCCB209A9CC
:103720000A542046611CCCB209A90E54320A204624
:10373000611CCCB209A90A542046611CCCB209A96B
:103740000E544FEA18222046611CCCB209A90A5433
:10375000204639E000180140004400404D69636B89
:10376000583420524F5320436172200A0000000059
:10377000A086010000380140496E697420537563CA
:103780006365737366756C202E2E2E2E0A00000062
:103790002E00002034000020380000208E00002081
:1037A0009E0C8E9257E7583F57E7683FA167B3EAF0
:1037B00073B5753F2F000020280300203000002043
:1037C0003C00002048000020611CCCB209A901F88F
:1037D00000804FEA19222046611CCCB209A90A5484
:1037E0002046611CCCB209A901F800904FEA1A22C8
:1037F0002046611CCCB209A90A542046611CCCB2F7
:1038000009A901F800A04FEA1B222046611CCCB296
:1038100009A90A542046611CCCB209A901F800B0DC
:103820000798020A2046611CCCB209A90A54214615
:10383000621CD4B209AA079850540698020A20467E
:10384000611CCCB209A90A542146621CD4B209AA4F
:10385000069850540598020A2046611CCCB209A96A
:103860000A542146621CD4B209AA059850540498FF
:10387000020A2046611CCCB209A90A542146621CE6
:10388000D4B209AA049850540398020A2046611C35
:10389000CCB209A90A540398C2B22046611CCCB22A
:1038A00009A90A540298020A2046611CCCB209A94F
:1038B0000A540298C2B22046611CCCB209A90A542B
:1038C0000198020A2046611CCCB209A90A54019849
:1038D000C2B22046611CCCB209A90A54601EC0B213
:1038E0008DF82600022706E009A8C15D0898084463
:1038F0000890781CC7B2A742F6DB0898C2B22046EF
:10390000611CCCB209A90A54EF222046611CCCB23A
:1039100009A90A54FE222046611CCCB209A90A5406
:1039200022464D4800F0EFFE4C480068401C4B49D1
:1039300008601BB0BDE8F08F2DE9F04198B04FF062
:1039400001080024002500271821684602F02AFA01
:10395000002606E008F1020080B22DF81600701C67
:10396000C6B20C2EF6DBAE222046611CCCB206A9F4
:103970000A54EA222046611CCCB206A90A5401224C
:103980002046611CCCB206A90A5411222046611CB3
:10399000CCB206A90A5432480068020E2046611CC7
:1039A000CCB206A90A542E480068C0F3074220464C
:1039B000611CCCB206A90A5429480088C0F307222A
:1039C0002046611CCCB206A90A542548027820463C
:1039D000611CCCB206A90A54002510E03DF8150080
:1039E00002122046611CCCB206A90A541DF815200B
:1039F0002046611CCCB206A90A54681CC5B20C2D25
:103A0000ECDB601EC0B28DF81A00022504E006A8A7
:103A1000405D0744681CC5B2A542F8DB2046611C26
:103A2000CCB206A90F54EF222046611CCCB206A9E5
:103A30000A54FE222046611CCCB206A90A54224632
:103A4000054800F060FE06480068401C0449086014
:103A500018B0BDE8F081000000440040480000209C
:103A60004C000020704700BFFEE700BFFEE700BF2C
:103A7000FEE700BFFEE770477047704710B50121B1
:103A80008807FFF74CFAF0B1AE480068401CAD491A
:103A90000860AD480068401CAB490860AB4800684E
:103AA000401CAA490860AA480068401CA849086050
:103AB000A8480068401CA749086001F082FC012169
:103AC0008807FFF73DFA10BD10B50121A248FFF7A6
:103AD00026FA18B10121A048FFF732FA10BD10B53F
:103AE00040F225519D48FFF7EFFB38B19B48FFF7A7
:103AF0006BFBC4B22146994800F02FFD40F22551DE
:103B00009648FFF70BFC10BD10B595480078954915
:103B1000087040F225519448FFF7D6FB60B1202190
:103B20009148FFF7C8FB40F225518F48FFF7F6FB9D
:103B30008D48FFF749FBC4B2894804700078EA2831
:103B400020D188480078AE281CD100208749088001
:103B500001208749087083480178844802880088DA
:103B6000401C824B1880834881547D480278184657
:103B700001880088401C18807E48425401207E49FC
:103B800008706EE07A480078012865D1774800888F
:103B9000022861DB7548008803280ADA704801783A
:103BA000724802880088401C704B1880714881540C
:103BB00057E070488078801C6C49098888420ADD8B
:103BC00067480178694802880088401C674B188064
:103BD0006848815445E067488078801C63490988BB
:103BE00088420ED15E480078EF280AD15C480278FE
:103BF0005E4801880088401C5C4B18805D48425438
:103C00002FE05C488078C01C5849098888421DD143
:103C100053480078FE2819D151480178534802884A
:103C20000088401C514B1880524881541846008827
:103C300052490880012052490870184601884D48B1
:103C400001F0C1FC00204A4908700AE00020484900
:103C500008704649088004E000204449088044492F
:103C6000087001214048FFF72FFB30B13E48FFF7B5
:103C7000ABFA01213C48FFF71EFB08213A48FFF749
:103C800023FB30B13848FFF79FFA08213648FFF789
:103C900012FB02213448FFF717FB30B13248FFF71F
:103CA00093FA02213048FFF706FB40F225512E48D7
:103CB000FFF734FB10BD3348006820B1314800687D
:103CC000401E30490860704710B50120FDF746FBE3
:103CD00010B10120FDF753FB10BD10B54FF400707B
:103CE000FDF73CFB18B14FF40070FDF748FB10BD29
:103CF000704710B54FF40030FDF77AFA01280CD167
:103D00004004FDF789FA204800F080FE01201F4999
:103D1000087080211E48FDF714FC10BD00B585B069
:103D20006A4600211B48FCF711FF684601F0F6FBCC
:103D30004FF480711648FDF704FC01201649087005
:103D400005B000BD34000020380000203C000020F9
:103D500040000020440000200004004000380140E2
:103D60005300002054000020004400405000002078
:103D700052000020500300202F0000207800002077
:103D80007A000020280000207C0000202E00002067
:103D9000001C0140006400403000002030B54FF4AA
:103DA0003471B1F1807F01D301201DE021F07F400B
:103DB000401E4FF0E022506150170F22002807DA12
:103DC00013071D0E354B00F00F04241F1D5503E093
:103DD00013071C0E324B1C5400BF00204FF0E02292
:103DE000906107201061002008B100BFFEE74FF08E
:103DF000E020006920F001004FF0E021086130BDB3
:103E0000284908604FF0E021096941F001014FF0B5
:103E1000E022116100BF234909680029FBD17047E6
:103E200010B501210320FDF73EFF8020C105088069
:103E30004FF6FF7088850020088501208882A72022
:103E400008818420184908802020091D08804FF629
:103E5000FF7015492C3108804720091F0880012078
:103E600011491431088080200F49083108800E481C
:103E7000008840F001000C4908800805008840F0E7
:103E800001000905088010BD00204FF08041888C9A
:103E900000040549243109880844704718ED00E002
:103EA00000E400E0280000200004004008B54FF4C2
:103EB000E060FCF79BFA35208DF8000001208DF8BA
:103EC000010005208DF8020001208DF803006846EE
:103ED000FCF791FA08BD30B585B005460C460121C6
:103EE0002020FDF7D3FE01211020FDF7CFFE012198
:103EF0000805FDF7D8FE4FF48050ADF810001820EB
:103F00008DF8130003208DF8120004A9FD48FDF779
:103F100041FA0420ADF810008DF8130004A9FA4806
:103F2000FDF738FA00950020ADF80400ADF8060062
:103F3000ADF80800ADF80C000C20ADF80A00694699
:103F4000F248FFF744F8012C08D1FFF7AFFF012238
:103F500040F22551ED48FFF7D2F805E0002240F28B
:103F60002551EA48FFF7CBF80121E848FFF7BBF8F5
:103F700005B030BD08B54FF4E060FCF737FA3420E7
:103F80008DF8000001208DF8010004208DF802005A
:103F900001208DF803006846FCF72DFA08BD30B506
:103FA00085B005460C4601211020FDF76FFE01216A
:103FB000C804FDF778FE4FF48060ADF810001820BB
:103FC0008DF8130003208DF8120004A9CD48FDF7E9
:103FD000E1F94FF40060ADF8100004208DF81300F3
:103FE00004A9C848FDF7D6F900950020ADF80400F3
:103FF000ADF80600ADF80800ADF80C000C20ADF8E7
:104000000A006946C248FEF7E2FF012C08D1FFF71B
:10401000B1FF012240F22551BD48FFF770F805E0DD
:10402000002240F22551BA48FFF769F80121B8484B
:10403000FFF759F805B030BD08B54FF4E060FCF764
:10404000D5F927208DF8000001208DF8010003200C
:104050008DF8020001208DF803006846FCF7CBF9CB
:1040600008BD30B585B005460C4601210820FDF796
:104070000DFE01218804FDF716FE4FF48060ADF8B7
:10408000100018208DF8130003208DF8120004A9E9
:10409000A048FDF77FF94FF40060ADF81000042050
:1040A0008DF8130004A99B48FDF774F900950020D2
:1040B000ADF80400ADF80600ADF80800ADF80C004E
:1040C0000C20ADF80A0069469348FEF780FF012CEA
:1040D00008D1FFF7B1FF012240F225518E48FFF7CA
:1040E0000EF805E0002240F225518B48FFF707F853
:1040F00001218948FEF7F7FF05B030BD08B54FF440
:10410000E060FCF773F926208DF8000001208DF89F
:10411000010002208DF8020001208DF8030068469E
:10412000FCF769F908BD30B585B005460C4601219C
:104130000420FDF7ABFD01214804FDF7B4FD042088
:10414000ADF8100018208DF8130003208DF8120030
:1041500004A97248FDF71EF90820ADF810000420EC
:104160008DF8130004A96D48FDF714F9009500209F
:10417000ADF80400ADF80600ADF80800ADF80C008D
:104180000C20ADF80A0069466548FEF720FF012CB7
:1041900008D1FFF7B3FF012240F225516048FEF736
:1041A000AEFF05E0002240F225515D48FEF7A7FF73
:1041B00001215B48FEF797FF05B030BD08B54FF40D
:1041C000E060FCF713F925208DF8000001208DF840
:1041D00001008DF802008DF803006846FCF70BF92A
:1041E00008BD30B585B005460C46012144F20400F7
:1041F000FDF74CFD4FF40070ADF8100018208DF85D
:10420000130003208DF8120004A94448FDF7C2F8FA
:104210004FF48060ADF8100004208DF8130004A95D
:104220003E48FDF7B7F800950020ADF80400ADF862
:104230000600ADF80800ADF80C000C20ADF80A003F
:1042400069463848FEF7C3FE012C08D1FFF7B6FFD8
:10425000012240F225513348FEF751FF05E00022CC
:1042600040F225512F48FEF74AFF01212D48FEF765
:104270003AFF05B030BD70B504460D4616462948D4
:10428000844204D131462846FFF7ABFF21E02448A1
:10429000844204D131462846FFF745FF19E01E4805
:1042A000844204D131462846FFF7DBFE11E018486E
:1042B000844204D131462846FFF771FE09E01348D5
:1042C000844204D131462846FFF705FE01E000BFD5
:1042D000FEE770BDF0B58DB004460F4616461D468C
:1042E00003971020049005960020069080200790E8
:1042F0000020089009900A90B5B94FF440500B90F7
:1043000020E0000000100140001401400050004077
:10431000004C0040000C01400048004000080140F3
:104320000044004000380140012D02D168030B9089
:1043300008E0022D02D1E8020B9003E0032D01D129
:1043400000200B9000200C90FB48844225D1001DDA
:10435000029001210846FDF78CFC4FF4C060FCF789
:1043600045F80E208DF8040000208DF8050001208E
:104370008DF806008DF8070001A8FCF73CF8012233
:104380000221EE48FCF725FF02A9EC48FCF7EAFE03
:104390000121EA48FCF711FF38E0E948844210D1D6
:1043A000001D029001210846FDF763FC02A9E348C5
:1043B0003C30FCF7D7FE0121E0483C30FCF7FDFE25
:1043C00024E0E048844210D1001D029001210846FB
:1043D000FDF74FFC02A9D9482838FCF7C3FE01219C
:1043E000D6482838FCF7E9FE10E0D74884420DD1C2
:1043F000001D029001210220FDF73BFC02A9D348D9
:10440000FCF7B0FE0121D148FCF7D7FE0DB0F0BD9E
:1044100030B58DB005460C4600212046FFF7E1FE81
:104420000021C548FEF75FFE002240F22441C24849
:10443000FEF765FE01224021BF48FEF785FE0121FF
:10444000BD48FEF750FE01210846FDF712FCBB48AF
:104450001430FCF7E5FDB848001D0290BC480390FD
:1044600000200490122005900020069080200790E4
:1044700000200890099020200A90C0010B90002095
:104480000C9002A9AD481430FCF76CFE0121AB483A
:104490001430FCF792FE0F208DF8040002208DF8F6
:1044A000050003208DF8060001208DF8070001A803
:1044B000FBF7A1FF01220221A0481430FCF789FE7E
:1044C0000DB030BD10B586B00446012144F20400A1
:1044D000FDF7DCFB4FF40070ADF8140003208DF8FD
:1044E000160018208DF8170005A99A48FCF752FF0E
:1044F0004FF48060ADF8140004208DF8170005A972
:104500009448FCF747FF25208DF8000003208DF824
:1045100001008DF8020001208DF803006846FBF7CA
:104520006AFF01940020ADF80800ADF80A00ADF86C
:104530000C00ADF810000C20ADF80E0001A97E486B
:10454000FEF745FD012240217B48FEF7FDFD0121DC
:104550007948FEF7C8FD06B010BD70B504460D469B
:1045600029462046FEF72CFE00BF80212046FEF79C
:1045700095FE0028F9D070BDFEB507460E463546BB
:1045800000208DF8000001240CE00A20B5FBF0F1BA
:1045900000FB115030300DF804000A20B5FBF0F597
:1045A000601CC4B20A20B5FBF0F00028EDD10A204F
:1045B000B5FBF0F100FB115030300DF8040006E0BF
:1045C0001DF804103846FFF7C8FF601EC4B2002C67
:1045D000F6DCFEBDFEB507460E46002E04DA764236
:1045E0002D213846FFF7B9FF354600208DF8000031
:1045F00001240CE00A20B5FBF0F100FB1150303033
:104600000DF804000A20B5FBF0F5601CC4B20A20C6
:10461000B5FBF0F00028EDD10A20B5FBF0F100FB6E
:10462000115030300DF8040006E01DF80410384633
:10463000FFF793FF601EC4B2002CF6DCFEBD2DE92F
:10464000F84F80460D462F464FF07E51384602F017
:1046500069F9814602F05CFA064631464046FFF7AA
:10466000B9FF2E214046FFF778FF304602F06CFA82
:104670003946009002F0C5FB8346374902F0C4FA80
:1046800082464FF07E5102F04DF9814602F040FA29
:104690000446002C00DA64420A2C0CDA3021404631
:1046A000FFF75BFF30214046FFF757FF21464046AA
:1046B000FFF762FF11E0642C08DA30214046FFF773
:1046C0004CFF21464046FFF757FF06E0B4F57A7FDE
:1046D00003DA21464046FFF74FFFBDE8F88F70B57B
:1046E00005460C460BE014F8011B2846FEF768FD52
:1046F00000BF80212846FEF7D1FD0028F9D02078A0
:104700000028F0D170BD2DE9F04107460C46154652
:10471000002600BF0CE014F8011B3846FEF750FDE0
:1047200000BF80213846FEF7B9FD0028F9D0761C7D
:10473000AE42F0D3BDE8F0810038014044000240B1
:104740000044004000480040004C00405804024033
:104750007C0000200008014000007A4408B50121D7
:104760000920FDF793FA01214806FDF79CFA012183
:104770000420FDF78BFA4FF48050ADF800000320C1
:104780008DF8020018208DF8030069464448FCF7B4
:1047900001FE4FF40060ADF8000048208DF80300E2
:1047A00069463F48FCF7F6FD08BD08B54FF4C06008
:1047B000FBF71CFE14208DF8000000208DF801008E
:1047C0008DF8020001208DF803006846FBF713FE08
:1047D00008BD0EB53348FBF79BFF6846FBF788FF23
:1047E00000208DF806008DF807008DF808000120E4
:1047F0008DF8090000208DF80A008DF80B008DF867
:1048000002008DF8030002208DF8040004208DF8CA
:104810000500ADF8000069462248FBF7DFFE0EBD3B
:104820001FB500208DF80A008DF80B0001208DF8CF
:104830000C000020ADF80000ADF80200ADF8040057
:10484000ADF80600ADF8080001208DF80D006846AF
:10485000FBF743FE012202211248FBF735FE1FBD84
:1048600010B5FFF77BFFFFF7B4FFFFF7D9FFFFF7A6
:104870009CFF10BD85B041F21430019004208DF8EA
:10488000080000208DF8090002208DF80A00AB20F6
:104890008DF80B00CD218DF80C1005B0704700008D
:1048A0000008014000640040FE48B0F90000B0F587
:1048B0007A7F4CDDFB48B0F9000040F21A41884293
:1048C00045DAF848B0F90200B0F57A7F3FDDF548E7
:1048D000B0F9020088423ADAF248B0F90400B0F5C3
:1048E0007A7F34DDEF48B0F9040088422FDAED48D2
:1048F000B0F90600B0F57A7F29DDEA48B0F9060084
:10490000884224DAE748B0F90000E749096808441A
:10491000E5490860E348B0F90200E4490968084441
:10492000E2490860DF48B0F90400E1490968084439
:10493000DF490860DB48B0F90600DE490968084431
:10494000DC490860DC480068401CDB490860DA4844
:1049500000680A2852D9D4480068D7490968B0FBD2
:10496000F1F0D1490860D1480068D3490968B0FB2B
:10497000F1F0CE490860CE480068CF490968B0FB25
:10498000F1F0CB490860CB480068CB490968B0FB1F
:10499000F1F0C8490860C448008800B2C1490882E3
:1049A000C248008800B24882C148008800B28882AC
:1049B000C048008800B2C8820846008A40B1084654
:1049C000408A28B10846808A10B10846C08A68B972
:1049D0000020B4490877B8490860B3490860B34972
:1049E0000860B3490860B349086070470120AD49C9
:1049F0000877B148006888610120F6E70020A949DE
:104A00000877AD48006888610020EEE700B50246EF
:104A100002B900BD1078517840EA0120C0F30A00C5
:104A2000A04908805078C010917840EA4110C0F346
:104A30000A009C49488090788011D17840EA810032
:104A4000117940EA8120C0F30A00964988801079E4
:104A50004010517940EAC110C0F30A009149C88062
:104A600050790011800808725079C0F30110487223
:104A70009079D17940EA01208A498872107A517A76
:104A800040EA01208749C872907AD17A40EA012031
:104A900084490873107B4873507B8873907BC8737C
:104AA0008648007860B900200877FFF7FDFE18B14E
:104AB00001208249087035E000208049087031E00B
:104AC0007848B0F90000B0F5FA6F1FDC7548B0F90E
:104AD000000064281ADB7348B0F90400B0F5FA6FDF
:104AE00014DC7048B0F9040064280FDB6D48007ACC
:104AF00003280BDC6B48007A012807DB6948407A01
:104B0000032803DC6748407A012803DA002065495E
:104B1000087702E00120634908776248C07B401CA7
:104B20006049886100BF74E710B565A16748FFF769
:104B3000D6FD5C48B0F900106448FFF71DFD09215F
:104B40006248FFF70AFD62A16048FFF7C8FD5548BB
:104B5000B0F902105D48FFF70FFD09215B48FFF730
:104B6000FCFC5DA15948FFF7BAFD4E48B0F90410AE
:104B70005648FFF701FD09215448FFF7EEFC58A104
:104B80005248FFF7ACFD4748B0F906104F48FFF711
:104B9000F3FC09214D48FFF7E0FC53A14B48FFF718
:104BA0009EFD4048017A4948FFF7E6FC0921474845
:104BB000FFF7D3FC4EA14548FFF791FD3948417AF4
:104BC0004248FFF7D9FC0A214048FFF7C6FC4AA13A
:104BD0003E48FFF784FD3348B0F910103B48FFF71B
:104BE000CBFC09213948FFF7B8FC46A13748FFF74D
:104BF00076FD2C48B0F912103448FFF7BDFC0921AE
:104C00003248FFF7AAFC42A13048FFF768FD25486B
:104C1000B0F914102D48FFF7AFFC09212B48FFF71E
:104C20009CFC3EA12948FFF75AFD1E48B0F916101A
:104C30002648FFF7A1FC0A212448FFF78EFC0A2131
:104C40002248FFF78AFC10BDF0B58DB00024002586
:104C500003270026AE222146641C0DF80120EA221B
:104C60002146641C0DF8012000222146641C0DF829
:104C700001202146641C0DF801700A480088C0F329
:104C800007222146641C0DF80120064802782146BF
:104C9000641C0DF801204088C0F307222146641CE3
:104CA00042E000008E0000205C0000206000002038
:104CB00064000020680000206C00002058000020E4
:104CC000534255533A20206368313A000044004073
:104CD0006368323A000000006368333A0000000065
:104CE0006368343A000000007377313A0000000036
:104CF0007377323A000000006368315F6F66667355
:104D000065743A006368325F6F66667365743A0073
:104D10006368335F6F66667365743A006368345F17
:104D20006F66667365743A000DF801202F4882782B
:104D30002046611CCCB20DF800202C488088C0F3BE
:104D400007222046611CCCB20DF8002027480279CA
:104D50002046611CCCB20DF800202448C088C0F366
:104D600007222046611CCCB20DF800201F48827932
:104D70002046611CCCB20DF800201C48027A204667
:104D8000611CCCB20DF800201848027A2046611C44
:104D9000CCB20DF80020022504E01DF80500064401
:104DA000681CC5B2A542F8DBF2B22046611CCCB249
:104DB0000DF80020A01EC0B28DF80200EF222046A0
:104DC000611CCCB20DF80020FE222046611CCCB242
:104DD0000DF8002000222046611CCCB20DF8002006
:104DE00069460348FFF77BFC0DB0F0BD8E00002044
:104DF0000044004070B504AC70CC0366C2658165A8
:104E000004604560866070BD1EB5002400BF14E0DC
:104E10000020F749F74ACDE90021029004EBC401D4
:104E200001EB0411F44A02EB810041F288339A004D
:104E30000321FFF7DFFF601CC4B2042CE8DB002075
:104E4000EE49C860886048600860ED4908601EBD92
:104E500010B542F2C634A04201DD204603E0E94C21
:104E6000A04200DA204610F1050F02DD052800DA25
:104E7000002042F2C634A14201DD214603E0E14CAC
:104E8000A14200DA214611F1050F02DD052900DA01
:104E9000002142F2C634A24201DD224603E0D94C91
:104EA000A24200DA224612F1050F02DD052A00DADD
:104EB000002242F2C634A34201DD234603E0D14C76
:104EC000A34200DA234613F1050F02DD052B00DAB9
:104ED0000023CA4C20606160A260E36010BD2DE930
:104EE000F04F85B0044689464FF0000A0020049038
:104EF00003908346C4480290C449204601F050FE06
:104F000004D3C349204601F04BFF00D20024BF491F
:104F1000484601F045FE04D3BD49484601F040FF34
:104F200001D24FF000094846029901F06DFE054696
:104F3000214601F089FC82464846029901F064FE50
:104F40000546214601F05DFF80F0004B504601F020
:104F50004FFC0746AF4AB04B01F02CFA0546002241
:104F6000AE4B01F027FACDE9000100F07FFF824649
:104F7000584601F03DFC0546A64AA74B01F01AFA37
:104F80000022A64BCDE9000101F014FA074600F01B
:104F90006DFF8346CDF810A0CDF80CB0584601F057
:104FA000B7FD05B2039801F0B3FD06B2049801F015
:104FB000AFFD07B2504601F0ABFD0FFA80F82B466B
:104FC000324639464046FFF743FF05B0BDE8F08F53
:104FD0002DE9F04F87B00446894692464FF0000B0A
:104FE00000200590049003908D48029014F1050F65
:104FF00001DB052C00DD002419F1050F02DBB9F1FE
:10500000050F00DD00241AF1050F02DBBAF1050FD0
:1050100001DD4FF0000A504601F096FD0746029967
:1050200001F0F2FD0546A4EB090001F08DFD0646F6
:10503000294601F0F1FE8346504601F085FD074602
:10504000029901F0E1FD054604EB090001F07CFD49
:105050000646294601F0E0FE0590504601F074FD39
:105060000746029901F0D0FD0546A4EB090001F0C6
:105070006BFD0646294601F0E7FB80F000400490F6
:10508000504601F061FD0746029901F0BDFD05465D
:1050900004EB090001F058FD0646294601F0D4FB57
:1050A00080F000400390584601F0A2FB5D4A5E4B41
:1050B000CDE9000101F07EF907460022574B01F0CF
:1050C00079F9054600F0D2FE8346059801F090FB81
:1050D0000746544A544B01F06DF900224F4BCDE97D
:1050E000000101F067F9054600F0C0FE0590049844
:1050F00001F07EFB05464B4A4B4B01F05BF9002269
:10510000464BCDE9000101F055F9074600F0AEFE2F
:105110000490039801F06CFB0746424A424B01F0B1
:1051200049F900223D4BCDE9000101F043F9054664
:1051300000F09CFE0390039801F0EAFC05B204988D
:1051400001F0E6FC06B2059801F0E2FC07B2584611
:1051500001F0DEFC0FFA80F82B4632463946404615
:10516000FFF776FE07B0BDE8F08FF0B585B00446D6
:105170000D4616461F464FF40070009000208DF833
:1051800008008DF8090008208DF80A00200A8DF823
:105190000B00E1B28DF80C10290A8DF80D10E9B260
:1051A0008DF80E10310A8DF80F10F1B28DF8101035
:1051B000390A8DF81110F9B28DF8121069461B48A2
:1051C000FBF74DFB05B0F0BD70B504460D46294612
:1051D000206801F0E5FD00D2256085F000463046EC
:1051E000216801F0DDFD02D285F00040206070BD35
:1051F000E3A59B3CCDCC7C4198010020AC00002075
:10520000740000203ADCFFFF7B142E3F0000A0C09A
:105210000000A0402D93E1783ECC52400000334086
:10522000EC51B83E82E7DEC3254F5F40006400408A
:105230002DE9F04704460E46154626626561314663
:10524000284601F0E9FDE0620021206D01F02CFC10
:1052500011D00021E06A01F0A3FD01D2E06A02E072
:10526000E06A80F000400746216D01F099FD02D20E
:105270000020BDE8F0870021606D01F015FC10D022
:105280000021E06A01F08CFD01D2E06A02E0E06AF0
:1052900080F000400746616D01F082FC01D20020E1
:1052A000E7E7A06D032834D1E16A206801F0ACFC87
:1052B0002063E16A606801F0A7FC0746616B01F0BA
:1052C000C3FA6063D4E90A1001F0A6FD0746A1689D
:1052D00001F09AFCA063206E01F04EFC07463946AF
:1052E00004F13400FFF770FFD4E90C0101F0ACFACF
:1052F0000746A16B01F0A8FAE063E06D01F03CFC09
:105300000746394604F13C00FFF75EFFE06B20647E
:1053100044E0A06D042841D1D4E90A1001F07CFDDD
:105320000746216801F070FC2063E16A606801F0C3
:105330006BFC60634FF08040A16A01F065FC814620
:10534000E16A01F05EFD8046616A01F07DFA074680
:10535000A16801F059FCA063206E01F00DFC074626
:10536000394604F13400FFF72FFFD4E90C0101F0B6
:105370006BFA0746A16B01F067FA6064616CE06C40
:1053800001F062FAA064E06D01F0F6FB07463946D1
:1053900004F14800FFF718FFA06CE064A06A6062A7
:1053A000E16AA162E069A061216AE1612069E060CF
:1053B00061692161A06D032801D1E06B59E7A06C00
:1053C00057E72DE9F041002400BF1EE0F94951F8EC
:1053D000240001F0B9FB054604EB440101EBC401D4
:1053E000F54A02EB8101B1F9040001F0ADFB06467C
:1053F00004EBC40101EB0411F04A02EB81002A46E0
:105400003146FFF715FF601CC4B2042CDEDBEB490C
:10541000D1F8680101F07CFB05B2E849D1F804013C
:1054200001F076FB06B2E549D1F8A00001F070FB6F
:1054300007B2E249C86B01F06BFB0FFA80F82B460C
:10544000324639464046FFF790FEBDE8F08110B580
:105450000022038843800B7BCC7A43EA0423038039
:105460008C7B4B7B44EA03231BB2C380C3888380BD
:105470000C7CCB7B44EA03231BB2541F93FBF4F355
:105480001BB203814B7C8372B0F904300A2B17DD09
:10549000038844881B1B322B03DB038844881A1BB8
:1054A0002CE0038844881B1B13F1320F26DC038891
:1054B00003F5005344881A1B03695B1C03611DE05C
:1054C000B0F9043013F10A0F17DA038844881B1B64
:1054D00013F1320F03DC038844881A1B0EE00388A3
:1054E00044881B1B322B09DB0388A3F50053448837
:1054F0001A1B03695B1E036100E000220488036934
:1055000004EB433384891B1B436110BD0A7BCB7AB8
:1055100042EA0322028002888281704710B5044665
:105520002068A0F2012030B1012805D0022804D063
:10553000032846D102E000BF00BF00BF2078401E14
:105540009F4908700846007800EB400101EBC0005D
:10555000994901EB8000816A9948007800EB40028C
:1055600002EBC000944A02EB8000806A401C944A1F
:10557000127802EB420303EBC2028F4B03EB820271
:10558000906232290CD88E49097801EB410202EB76
:10559000C1011A4602EB81002146FFF7B7FF0BE07D
:1055A0008749097801EB410202EBC101824A02EB13
:1055B00081002146FFF74BFF21468248FFF747FF56
:1055C00000BF00BF10BD2DE9F04F85B005460E4667
:1055D0004FF0000942F210740A20049000BF08E066
:1055E0002878794901F809006D1C09F101001FFABA
:1055F00080F9B145F4DB75480680012074490870D4
:105600007148C0787349087008460078F12825D1A0
:105610006D484179007901EB0020001B6D4948601D
:105620006948C179807901EB0020001B69498860D5
:105630006548417A007A01EB0020001B6549C8608B
:105640006148C17A807A01EB0020001B6149086142
:1056500001200875002081F824005FE05D48007893
:10566000F2285BD1049800F056FE0746884656495A
:105670004A79097902EB012000F036FE82460022C9
:10568000554B00F0D9FC3A464346CDE9000100F005
:10569000C5FFCDE9020100F0E9FB4E49886104989D
:1056A00000F039FE82468B464749CA79897902EB78
:1056B000012000F019FE07460022474B00F0BCFC19
:1056C00052465B46CDE9000100F0A8FFCDE902019A
:1056D00000F0CCFB3F49C861049800F01CFE8246F4
:1056E0008B4639494A7A097A02EB012000F0FCFD29
:1056F00007460022384B00F09FFC52465B46CDE93E
:10570000000100F08BFFCDE9020100F0AFFB314951
:10571000086200200875012081F8240001202D492D
:1057200081F8250005B0BDE8F08F70B50024294848
:1057300090F8250000283BD026480078F1286DD14C
:1057400026A12948FEF7CBFF28A12748FEF7C7FF6F
:10575000204841682448FEF70FFF09212248FEF740
:10576000FCFE25A12048FEF7BAFF1A4881681E48B2
:10577000FEF702FF09211C48FEF7EFFE21A11A489F
:10578000FEF7ADFF1348C1681748FEF7F5FE092183
:105790001548FEF7E2FE1EA11348FEF7A0FF0D48D4
:1057A00001691148FEF7E8FE0A210F48FEF7D5FE11
:1057B00064E033E0AC000020BC0000209801002031
:1057C0007B0000206C0100205003002078000020A6
:1057D0007A0000202803002000005940444A495F15
:1057E0004D6F746F723A0000004400407461675F4F
:1057F00072706D313A0000007461675F72706D32D3
:105800003A0000007461675F72706D333A00000007
:105810007461675F72706D343A000000FE48007872
:10582000F2282BD1AFF24C01FC48FEF758FFFCA147
:10583000FA48FEF754FFF8488169F848FEF7FFFE82
:105840000921F648FEF789FEF9A1F448FEF747FF63
:10585000F148C169F148FEF7F2FE0921EF48FEF771
:105860007CFEF7A1ED48FEF73AFFEB48016AEB48F2
:10587000FEF7E5FE0A21E948FEF76FFE002469E025
:10588000F3A1E648FEF72BFF2146E448FEF774FE3D
:10589000F0A1E248FEF723FFEFA1E048FEF71FFF6B
:1058A00004EB440101EBC401EC4A02EB8101B1F9C4
:1058B000040001F049F905462946D848FEF7BFFE25
:1058C0000921D648FEF749FEE5A1D448FEF707FFB7
:1058D00004EB440101EBC401E04A02EB8101486999
:1058E00001F032F905462946CC48FEF7A8FE092109
:1058F000CA48FEF732FEDCA1C848FEF7F0FE04EB12
:10590000440101EBC401D54A02EB8101086901F0B1
:105910001BF905462946C148FEF791FE0921BF48FB
:10592000FEF71BFED1A1BD48FEF7D9FE04EB4401F2
:1059300001EBC401C94A32F8210001F01DF9054606
:105940002946B648FEF77BFE0A21B448FEF705FE5D
:10595000601CC4B2042C93DB0A21B048FEF7FDFDA5
:105960000A21AE48FEF7F9FD70BD70B592B0002473
:1059700000250026AE222146641C0DF80120EA22F3
:105980002146641C0DF8012001222146641C0DF8FB
:1059900001202146641C0DF80120B5480068020E64
:1059A0002146641C0DF80120B1480068C0F307428D
:1059B0002146641C0DF80120AD480088C0F3072281
:1059C0002146641C0DF80120A94802782046611C7C
:1059D000CCB20DF8002000BFB5E005EB450000EBB0
:1059E000C5009E4901EB80008088C0F30722204655
:1059F000611CCCB20DF8002005EB450000EBC500A2
:105A0000964901EB800002792046611CCCB20DF86A
:105A1000002005EB450000EBC500904901EB80003C
:105A20004069020E2046611CCCB20DF8002005EB47
:105A3000450000EBC500894901EB80004069C0F3D7
:105A400007422046611CCCB20DF8002005EB450052
:105A500000EBC500814901EB8000808AC0F307227A
:105A60002046611CCCB20DF8002005EB450000EB90
:105A7000C5007A4901EB8000027D2046611CCCB252
:105A80000DF8002005EB450000EBC500734901EB64
:105A900080000069020E2046611CCCB20DF8002087
:105AA00005EB450000EBC5006C4901EB8000006987
:105AB000C0F307422046611CCCB20DF8002005EB74
:105AC000450000EBC500654901EB8000008AC0F38A
:105AD00007222046611CCCB20DF8002005EB4500E2
