:020000040800F2
:10000000C80B00200D020008094000080B40000842
:100010000F400008134000081740000800000000CF
:100020000000000000000000000000001B4000086D
:100030001D400008000000001F4000083543000874
:1000400027020008270200082702000827020008EC
:10005000270200082702000847430008270200087B
:1000600027020008270200082702000827020008CC
:100070002702000827020008270200087143000831
:1000800027020008270200082702000827020008AC
:10009000B54300082702000827020008594300085A
:1000A000270200082702000827020008270200088C
:1000B00021400008B140000827020008270200087C
:1000C000270200082702000827020008270200086C
:1000D00027020008D1400008FB400008B142000898
:1000E000270200082702000827020008270200084C
:1000F000270200082702000827020008270200083C
:10010000270200086F4300082702000827020008A2
:10011000270200082702000827020008270200081B
:10012000270200082702000827020008270200080B
:1001300000F002F800F05AF80AA090E8000C82449F
:100140008344AAF10107DA4501D100F04FF8AFF27C
:10015000090EBAE80F0013F0010F18BFFB1A43F0A5
:10016000010318479CAA0000BCAA00000A444FF0F3
:10017000000C10F8013B13F0070408BF10F8014B06
:100180001D1108BF10F8015B641E05D010F8016B4B
:10019000641E01F8016BF9D113F0080F1EBF10F8AF
:1001A000014BAD1C0C1B09D16D1E58BF01F801CBD2
:1001B000FAD505E014F8016B01F8016B6D1EF9D555
:1001C0009142D6D37047000000230024002500266A
:1001D000103A28BF78C1FBD8520728BF30C148BFAA
:1001E0000B6070471FB51FBD10B510BD08F0C2FEF3
:1001F0001146FFF7F7FF03F071FC08F0E0FE03B4CF
:10020000FFF7F2FF03BC08F0E3FE00000948804757
:1002100009480047FEE7FEE7FEE7FEE7FEE7FEE7E8
:10022000FEE7FEE7FEE7FEE704480549054A064B00
:10023000704700002B03000831010008C8050020AA
:10024000C80B0020C8070020C80700200CB50020FC
:10025000019000906C48006840F480306A49086062
:1002600000BF6948006800F4003000900198401C0D
:100270000190009818B90198B0F5A06FF1D16248CB
:10028000006800F4003010B10120009001E000206F
:1002900000900098012843D15C48006840F01000AD
:1002A0005A4908600846006820F0030008600846C4
:1002B000006840F0020008605348406852494860B6
:1002C0000846406848600846406840F480604860DE
:1002D0000846406820F47C1048600846406840F4B6
:1002E000E81048600846006840F08070086000BF71
:1002F0004548006800F000700028F9D04248406886
:1003000020F00300404948600846406840F0020081
:10031000486000BF3C48406800F00C000828F9D154
:100320000CBD10B5FFF792FF10BD10B53648006840
:1003300040F00100344908600846406834490840EC
:100340003149486008460068324908402E49086033
:100350000846006820F4802008600846406820F4C1
:10036000FE0048604FF41F008860FFF7DAFF4FF08F
:1003700000602949086010BD10B50021002000224E
:10038000214B5B6803F00C0121B1042906D0082938
:1003900028D107E0214B224C236027E01F4B204C43
:1003A000236023E0184B5B6803F47010164B5B6806
:1003B00003F48032022303EB904022B9194B4343EC
:1003C000174C23600DE0104B5B6803F4003323B13E
:1003D000144B4343124C236003E0104B4343104C37
:1003E000236003E00D4B0E4C236000BF00BF064BA3
:1003F0005B68C3F303130C4CE15C094B1B68CB40F7
:10040000074C236010BD0000001002400020024095
:100410000000FFF8FFFFF6FE08ED00E000127A0092
:100420000000002000093D00040000203149014384
:10043000314A1160704770B5002100230F22C47843
:1004400004B32D4C246804F4E064C4F5E064210A8C
:10045000C1F10403CA40447804FA03F184781440DB
:1004600021430901254C0678A155047804F01F05A5
:100470000124AC4005786D11AD0005F1E025C5F80B
:10048000004109E0047804F01F050124AC401C4D34
:100490000678761145F8264070BD1A4A0A40024394
:1004A000154B1B1F1A60704739B1134A121D126891
:1004B0000243114B1B1D1A6006E00F4A121D126801
:1004C00082430D4B1B1D1A607047042808D14FF062
:1004D000E021096941F004014FF0E022116107E0D9
:1004E0004FF0E021096921F004014FF0E022116191
:1004F000704700000000FA050CED00E000E400E0A9
:1005000080E100E080FFFF1F1AB143690B434361A4
:1005100002E043698B434361704710B50021837A41
:10052000012202FA03F1FB4A126842F00102F94B80
:100530001A60F84A1C3212688A43F64B1C331A6060
:10054000027BCAB9F34A0C3212688A43F14B0C336E
:100550001A604288C38842EA0343EE4A4032847AF2
:1005600042F834300288838842EA0343E94A403241
:10057000847A02EBC4025360027B012A19D1E54A56
:100580000C3212680A43E34B0C331A60428803882A
:1005900042EA0343DF4A4032847A42F83430C28868
:1005A000838842EA0343DB4A4032847A02EBC40286
:1005B0005360C27A3AB9D74A121D12688A43D54BA2
:1005C0001B1D1A6006E0D34A121D12680A43D14B64
:1005D0001B1D1A60028932B9CE4A143212688A434E
:1005E000CC4B14331A600289012A06D1C94A14324D
:1005F00012680A43C74B14331A60427B012A06D1A2
:10060000C44A1C3212680A43C24B1C331A60C14AE6
:10061000126822F00102BF4B1A6010BD30B50246CD
:1006200000200023146824F002041460146844F0CD
:100630000104146000E05B1C546804F001041CB960
:100640004FF6FF74A342F6D1546804F001040CB9CC
:1006500000206CE08C79012C04D1146844F08004F3
:10066000146003E0146824F080041460CC79012C39
:1006700004D1146844F04004146003E0146824F0CA
:10068000400414600C7A012C04D1146844F0200456
:10069000146003E0146824F0200414604C7A012CE8
:1006A00004D1146844F01004146003E0146824F0CA
:1006B000100414608C7A012C04D1146844F00804EE
:1006C000146003E0146824F008041460CC7A012C50
:1006D00004D1146844F00404146003E0146824F0A6
:1006E000040414608C78A407CD7844EA05640D797D
:1006F00044EA05444D7944EA05540D886D1E2C43A7
:10070000D461146824F001041460002300E05B1C31
:10071000546804F001041CB14FF6FF74A342F6D1F3
:10072000546804F001040CB1002000E0012030BD49
:1007300000218171C171017241728172C172817037
:10074000C1700321017102214171012101807047B3
:1007500010B504467048844209D10121480601F0D1
:100760008CFE00214FF0007001F087FE08E00121AF
:10077000880601F082FE00214FF0806001F07DFECE
:1007800010BD10B58AB004460121092001F04EFECB
:100790000121480601F057FE01214FF4EA1001F053
:1007A000DAF84FF48070ADF8240048208DF8270067
:1007B00003208DF8260009A9584800F00BFE4FF4DD
:1007C0000070ADF8240018208DF8270003208DF864
:1007D000260009A9514800F0FDFD4FF4E060FFF745
:1007E00025FE14208DF8200000208DF82100042023
:1007F0008DF8220001208DF8230008A8FFF71BFECA
:100800004548FFF7A5FF05A8FFF792FF00208DF8E8
:100810001A0001208DF81B008DF81C0000208DF8B7
:100820001D008DF81E008DF81F008DF816000120A8
:100830008DF8170005208DF8180002208DF819009A
:100840000420ADF8140005A93348FFF7E7FE0020A7
:100850008DF80E008DF80F0001208DF81000C4F304
:100860004F30ADF80400042000EBC40080B2ADF8B6
:1008700006004FF6FF70ADF80800ADF80A00002042
:10088000ADF80C0001208DF8110001A8FFF745FE1E
:10089000012202212048FFF737FE0AB010BD10B533
:1008A00002460020936803F08063B3F1806F00D1AB
:1008B00010E0936803F00063B3F1006F01D10120F1
:1008C00008E0936803F08053B3F1805F01D1022008
:1008D00000E0042004287AD002F5C07303EB001373
:1008E0001B6803F0010402F5C07303EB00131C60E6
:1008F0000B7AABB94B7A0C8843EA445302F5C074C7
:1009000004EB00142468234302F5C07404EB0014C4
:10091000236016E00066004000640040000C0140C7
:100920000B7A4C6843EAC4034C7A234302F5C07443
:1009300004EB00142468234302F5C07404EB001494
:1009400023608B7A03F00F038B7202F5C07303EB05
:1009500000135B6823F00F0402F5C07303EB001370
:100960005C6002F5C07303EB00135B688C7A234371
:1009700002F5C07404EB001463608B7B1C064B7B98
:1009800044EA03440B7B44EA0323CC7A234302F575
:10099000C07404EB0014A3608B7C1C064B7C44EAFF
:1009A00003440B7C44EA0323CC7B234302F5C0744D
:1009B00004EB0014E36002F5C07303EB00131B6843
:1009C00043F0010402F5C07303EB00131C6010BD7B
:1009D0002DE9F04185B080460F4614461D4600269D
:1009E000019704208DF8080000208DF809008DF88B
:1009F0000A5000BF06E021780DF10B008155641C00
:100A0000701CC6B2AE42F6DB69464046FFF747FFB0
:100A100005B0BDE8F081F749096841F00101F54AE8
:100A200011601146096843F60E729143F14A116054
:100A30001146096841EA002111601146096821F058
:100A400001011160704721B1026842F480320260F6
:100A500003E0026822F4803202607047E1B102686C
:100A600042F0800202604FF4C272125842F4807366
:100A70004FF4C27213504FF4CA72125842F480738A
:100A80004FF4CA7213504FF4D272125842F480736A
:100A90004FF4D27213501BE0026822F08002026011
:100AA0004FF4C272125822F480734FF4C272135082
:100AB0004FF4CA72125822F480734FF4CA72135062
:100AC0004FF4D272125822F480734FF4D272135042
:100AD000704710B50246002321B1012907D0022931
:100AE0000FD109E09068C44C00EA04030BE0906861
:100AF000C24C00EA040306E09068C14C00EA04031B
:100B000001E0002300BF00BFBE4C181BA34216D05B
:100B100007DC83B16FF08060184470B1022818D1EF
:100B200011E0B0F5007F10D0B74C204448B1B0F5CB
:100B3000003F0ED10BE002230DE000230BE0002369
:100B400009E0002307E0012305E0012303E001237E
:100B500001E0002300BF00BFD8B210BD21B10129C0
:100B600007D002290FD109E0826842F0800282603A
:100B70000AE0826842F40042826005E0826842F442
:100B80000002826000E000BF00BF704710B500F5B2
:100B9000D87303EB01131B6803F004031372137A79
:100BA00053B900F5D87303EB01131B6840F2FF74CF
:100BB00004EA5353136009E000F5D87303EB011303
:100BC0001B686FF0604404EAD303536000F5D873E8
:100BD00003EB01131B6803F00203537200F5D87393
:100BE00003EB01135B6803F00F03937200F5D873F6
:100BF00003EB01135B681B0AD37400F5D87303EB96
:100C000001139B68D37200F5D87303EB01139B6843
:100C10001C0A147300F5D87303EB01139B681C0CBA
:100C2000547300F5D87303EB01139B681B0E937389
:100C300000F5D87303EB0113DB68D37300F5D873A9
:100C400003EB0113DB681C0A147400F5D87303EB83
:100C50000113DB681C0C547400F5D87303EB01130B
:100C6000DB681B0E937421B9C36843F02003C36093
:100C700003E0036943F02003036110BD21B9C2689A
:100C800042F02002C26003E0026942F020020261E9
:100C900070470246002019B9D36803F0030006E04C
:100CA000012903D1136903F0030000E0002070471D
:100CB00010B502460B4600204FF6FF71BBB9146811
:100CC00024F0020444F00104146000E0491E54685A
:100CD00004F00304012C01D00029F7D1546804F07A
:100CE0000304012C01D0002032E0012030E0012B70
:100CF00013D1146824F00304146000E0491E546802
:100D000004F003040CB10029F8D1546804F0030482
:100D10000CB100201CE001201AE0022B17D114684E
:100D200024F0010444F00204146000E0491E5468F9
:100D300004F00304022C01D00029F7D1546804F018
:100D40000304022C01D0002002E0012000E000207A
:100D500010BD014600200A6822F0010242F00202A2
:100D60000A604A6802F00302022A00D1012070479B
:100D700001464FF6FF7200200B6823F002030B6060
:100D800000E0521E4B6803F00203022B01D1002A3F
:100D9000F7D14B6803F00203022B00D0012070470B
:100DA000014600208A6902F0700070470146002069
:100DB0008A69100E7047014600208A69C2F3074015
:100DC000704710B50246002001F4700343B19369E7
:100DD000C1F3130423400BB1012039E0002037E0B8
:100DE00001F08073A3B15368C1F3130423406BB1C6
:100DF00001202DE00066004003000004000300080D
:100E000000000310000100080001FFF700201FE0B0
:100E100001F0006343B19368C1F3130423400BB1A5
:100E2000012015E0002013E001F0007343B1D36806
:100E3000C1F3130423400BB1012009E0002007E0B7
:100E40001369C1F3130423400BB1012000E000201B
:100E500010BD0022804B994202D10023836111E032
:100E6000C1F3130201F000730BB1C2600AE001F09C
:100E700080630BB1026105E001F000630BB1826099
:100E800000E0426070470246002002EA01030BB115
:100E9000012000E00020704770B504460D46002692
:100EA00060692840002871D0B5F5807F5CD010DCE7
:100EB000082D35D006DC012D20D0022D24D0042DA4
:100EC00072D127E0102D31D0202D35D0402D6BD19F
:100ED00038E0B5F5004F60D009DCB5F5007F49D0AA
:100EE000B5F5806F4CD0B5F5006F5DD14FE0B5F52D
:100EF000803F2DD0B5F5003F56D12FE0A06857496F
:100F0000FFF7C1FF064651E0E0680321FFF7BBFF92
:100F100006464BE0E0680821FFF7B5FF064645E0CE
:100F2000E0681021FFF7AFFF06463FE0206903218C
:100F3000FFF7A9FF064639E020690821FFF7A3FF64
:100F4000064633E020691021FFF79DFF06462DE09D
:100F500060680821FFF797FF064627E060681021C8
:100F6000FFF791FF064621E0A0690121FFF78BFF03
:100F700006461BE0A0690221FFF785FF064615E043
:100F8000A0690421FFF77FFF06460FE00FE0A0698C
:100F90007021FFF778FF064608E060680421FFF73C
:100FA00072FF064602E0FFE7002600BF00E00026D1
:100FB000304670BDB1F5007F3AD00FDC202928D033
:100FC00006DC01291CD004291DD0082940D11DE0D0
:100FD000402921D0B1F5807F3AD126E0B1F5004F0C
:100FE00031D006DCB1F5806F25D0B1F5006F2FD17F
:100FF00024E0B1F5803F12D0B1F5003F28D111E0D7
:10100000164A826025E00822C26022E01022C260F7
:101010001FE0082202611CE01022026119E0082290
:10102000426016E01022426013E00422426010E0A9
:10103000042242600DE0042242600AE00022826144
:101040000422426005E0002282610422426000E046
:1010500000BF00BF704700007000F03001010100C8
:1010600001684FF6FE72114001600021016041608D
:101070008160C1608D49884208D18C49083949682E
:1010800041F00F01894A083A51608AE087491431DA
:10109000884208D185490839496841F0F001834AFE
:1010A000083A51607DE081492831884208D17F4962
:1010B0000839496841F470617C4A083A516070E02F
:1010C0007A493C31884208D178490839496841F465
:1010D0007041764A083A516063E074495031884261
:1010E00008D172490839496841F470216F4A083AB9
:1010F000516056E06D496431884208D16B49083926
:10110000496841F47001694A083A516049E0674909
:101110007831884208D165490839496841F07061E1
:10112000624A083A51603CE06149884206D1011F99
:10113000096841F00F01021F116032E05C4914316F
:10114000884208D15A49091F096841F0F001584AFC
:10115000121F116025E056492831884208D15449B0
:10116000091F096841F47061514A121F116018E0AB
:101170004F493C31884208D14D49091F096841F463
:1011800070414B4A121F11600BE0494950318842AF
:1011900007D14749091F096841F47021444A121FC9
:1011A0001160704710B50022026847F6F0739A4349
:1011B0000C6A8B6823430C6923434C6923438C6975
:1011C0002343CC6923434C6A23438C6A23431A4349
:1011D0000260CB6843600B6883604B68C36010BDDE
:1011E0000021016041608160C160016141618161F4
:1011F000C161016241628162704721B1026842F0BF
:101200000102026004E002684FF6FE731A400260B9
:1012100070471AB103680B43036002E003688B4315
:1012200003607047416070470146486880B270476C
:1012300001460020002201F080531BB11C4B083BEB
:101240001A6802E0194B083B1A6802EA01030BB165
:10125000012000E00020704700F0805119B11449CE
:10126000091F086002E011490839486070470146CB
:101270000020002201F080531BB10D4B083B1A687F
:1012800002E00A4B083B1A6802EA01030BB1012095
:1012900000E00020704700F0805119B10449091F97
:1012A000086002E0014908394860704708000240C0
:1012B00008040240002044490860091D0860091D17
:1012C0000860091D086041483F49143108607047B3
:1012D00000213D498279002A3AD00A461268036803
:1012E0009A430B461A600A1D126803689A430B1D45
:1012F0001A60027911440A6803681A430A60324A84
:101300000832126803689A432F4B08331A601A1D7B
:10131000126803689A432C4B0C331A604279102AE6
:101320000ED11A1F126803681A43274B08331A603C
:101330001A1D126803681A43234B0C331A600DE020
:101340002149427911440A6803681A430A6005E09A
:10135000027911440A6803689A430A6070470021C1
:10136000016001710C2141710021817170471649A2
:10137000103109680143144A103211607047014668
:101380000020114A143212680A400AB1012000E01C
:10139000002070470C491431086070470146002056
:1013A0000022094B1B6803EA0102074B14331B6838
:1013B0000B4013B10AB1012000E000207047024940
:1013C000143108607047000000040140FFFF0F0067
:1013D000016170472DE9F0410246002500260020FA
:1013E00000230024002791F803C00CF00F0591F8AA
:1013F00003C00CF0100CBCF1000F03D091F802C038
:101400004CEA050591F800C0BCF1000F31D014681A
:1014100000202BE04FF0010C0CFA00F3B1F800C0F3
:101420000CEA03069E4220D183004FF00F0C0CFA09
:1014300003F7BC4305FA03FC4CEA040491F803C02B
:10144000BCF1280F06D14FF0010C0CFA00FCC2F8D9
:1014500014C00AE091F803C0BCF1480F05D14FF069
:10146000010C0CFA00FCC2F810C0401C0828D1D3B3
:101470001460B1F800C0BCF1FF0F34DD54680020E7
:101480002EE000F1080C4FF0010808FA0CF3B1F857
:1014900000C00CEA03069E4221D183004FF00F0CDE
:1014A0000CFA03F7BC4305FA03FC4CEA040491F878
:1014B00003C0BCF1280F05D100F1080C08FA0CF8A4
:1014C000C2F8148091F803C0BCF1480F07D100F1B5
:1014D000080C4FF0010808FA0CF8C2F81080401C04
:1014E0000828CED35460BDE8F0812DE9F8430546C5
:1014F0000F4614469846F848854201D104261CE060
:10150000F648854201D1082617E0F548854201D109
:10151000102612E0F348854201D120260DE0F24862
:10152000854201D1402608E0F048854201D180265D
:1015300003E0EF48854200D186150121304600F0D6
:1015400075FFADF800708DF80340142C05D0102CF9
:1015500003D01C2C01D0182C01D18DF802806946D3
:101560002846FFF737FF142C05D0102C03D01C2C75
:1015700001D0182C03D139462846FFF729FFBDE8D2
:10158000F883C2684A40C260704730B500228B07BA
:101590001C0F0F2303FA04F2D64B8C1053F824309F
:1015A0009343D44C8D1044F8253023468C1053F8C7
:1015B00024308C07240F00FA04F42343CD4C8D1003
:1015C00044F8253030BD2DE9FF4706460C469146CC
:1015D000C148864203D104274FF0000828E0BF48E5
:1015E000864203D108274FF0010821E0BC4886421B
:1015F00003D110274FF002081AE0BA48864203D1FF
:1016000020274FF0030813E0B748864203D1402754
:101610004FF004080CE0B548864203D180274FF014
:10162000050805E0B248864202D187154FF006084A
:1016300047F00100012100F0F9FE012C06D106203F
:101640008DF8000000250120019094E0022C06D1C5
:1016500007208DF800000125022001908BE0042C6A
:1016600006D108208DF8000002250420019082E0B8
:10167000082C06D109208DF80000032508200190D0
:1016800079E0102C06D10A208DF8000004251020E6
:10169000019070E0202C06D117208DF80000052560
:1016A0002020019067E0402C06D117208DF8000023
:1016B0000625402001905EE0802C06D117208DF891
:1016C000000007258020019055E0B4F5807F06D109
:1016D00017208DF800000825680101904BE0B4F553
:1016E000007F07D117208DF8000009254FF4007006
:1016F000019040E0B4F5806F07D128208DF80000FC
:101700000A254FF48060019035E0B4F5006F07D1F1
:1017100028208DF800000B254FF4006001902AE08E
:10172000B4F5805F07D128208DF800000C254FF418
:10173000805001901FE0B4F5005F07D128208DF89C
:1017400000000D254FF40050019014E0B4F5804FD7
:1017500007D128208DF800000E254FF4804001901D
:1017600009E0B4F5004F06D128208DF800000F25C0
:101770004FF4004001904FF4C060FEF757FE002088
:101780008DF801008DF8020001208DF803006846F5
:10179000FEF751FEADF80C4048208DF80F0003A96C
:1017A0004D48FFF717FE29464046FFF7EEFEB9F118
:1017B000000F03D108208DF809000CE0B9F1010FEA
:1017C00003D10C208DF8090005E0B9F1020F02D118
:1017D00010208DF8090000208DF8080001208DF8F8
:1017E0000A0001A8FFF774FDBDE8FF8710B50446A5
:1017F0003948844208D10121042000F031FE002143
:10180000042000F02DFE46E03448844208D1012136
:10181000082000F025FE0021082000F021FE3AE01B
:101820002F48844208D10121102000F019FE002128
:10183000102000F015FE2EE02A48844208D1012134
:10184000202000F00DFE0021202000F009FE22E003
:101850002548844208D10121402000F001FE0021EA
:10186000402000F0FDFD16E02048844208D101210F
:10187000802000F0F5FD0021802000F0F1FD0AE05D
:101880001B48844207D10121801500F0E9FD0021A9
:10189000A01500F0E5FD10BD10B50121084600F0CF
:1018A000DFFD0021012000F0DBFD10BD4FF6FF71D0
:1018B0000180022181700421C1707047024600201E
:1018C00093680B400BB1012000E0002070470146F7
:1018D000886880B27047000000080140000C014099
:1018E000001001400014014000180140001C01409C
:1018F000002001400800014002460020D3680B4050
:101900000BB1012000E0002070470146C86880B29A
:101910007047416170470AB1016100E04161704761
:10192000C16070474FF480320A43826181618261F5
:10193000826982697047024600202B4B18684FF677
:101940008073184040EA02100843274B1860704724
:101950002649C8617047F0B50A46002300240021DB
:10196000002500F00046B6F1004F02D11E4EF1698D
:1019700001E01D4E7168C0F3034583B200F44016C8
:10198000B6F5401F08D121F07061174E766826F039
:101990007066154F7E6012E000F48016B6F5801F69
:1019A00006D1032606FA05F4A14341F0706106E072
:1019B000460D360103FA06F6B14341F0706122B1DB
:1019C000460D360103FA06F6314300F00046B6F143
:1019D000004F02D1044EF16101E0034E7160F0BD91
:1019E0000249DC31086070470000014000002042DD
:1019F0001AB183880B43838002E083888B43838002
:101A0000704721B1028842F00102028004E002889E
:101A10004FF6FE731A40028070472DE9F04385B0FF
:101A200004460D460026B1460427DFF8F083A68859
:101A30004FF6C0700640684600F08BFCDDF8088069
:101A4000F748B8FBF0F01FFA80F946EA0906A680CD
:101A500020884FF6FE71084020800026F149286852
:101A600088420CD828684000B8FBF0F087B2042FF9
:101A700000DA04273E4309F10100208427E0E888CA
:101A80004BF6FF71884206D1286800EB4000B8FB96
:101A9000F0F087B209E0286800EBC00101EB00100C
:101AA000B8FBF0F087B247F48047C7F30B0008B9E2
:101AB00047F0010747F4004006434FF4967009FBD6
:101AC00000F04FF47A7190FBF1F0401C2084A68363
:101AD000208840F00100208026884FF6F53006402F
:101AE000A8886989084306432680A889298908436C
:101AF000208105B0BDE8F08330B585B005460C46C1
:101B0000C948854234D10121082000F08FFC012111
:101B1000480500F098FCC020ADF8100003208DF8B7
:101B200012001C208DF8130004A9C048FFF752FCD6
:101B30000020ADF804004BF6FF70ADF80600A020C1
:101B4000ADF808002815ADF80A000001ADF80C004A
:101B5000009469462846FFF760FF01212846FFF7F9
:101B600050FF00224FF4E0612846FFF741FF01E0FB
:101B700000BFFEE705B030BD21B1028842F400721B
:101B8000028004E002884FF6FF531A40028070473B
:101B9000002221F07F42D3438382704770B5024612
:101BA0000024002500230020958A138B1B0445EA9E
:101BB000030626F07F4404EA01068E4201D101208B
:101BC00000E0002070BD0182704712B141F00101B8
:101BD00002E04FF6FE7319400182704721B102887E
:101BE00042F48072028004E002884FF6FF631A40DC
:101BF000028070470CB50246002000230193009339
:101C000000920B0F019321F07F41019B1BB1009BC0
:101C10001433009303E0090C009B18330093009BDE
:101C20001B680B400BB1012000E000200CBDF0B59B
:101C300006460F4614461D4600BF4FF4003130469D
:101C4000FFF7D8FF0028F8D101213046FFF7C6FF83
:101C500000BF77493046FFF7A1FF0028F9D00022E6
:101C600039463046FFF7B1FF00BF72493046FFF7F3
:101C700095FF0028F9D021463046FFF7A4FF00BFAA
:101C80006C49891C3046FFF789FF0028F8D02946A7
:101C90003046FFF798FF00BF6649891C3046FFF7C2
:101CA0007DFF0028F8D001213046FFF765FF62492B
:101CB0005D48FFF76DFF01215B48FFF75DFFF0BD59
:101CC0002DE9F04106460F4615461C46DDF8188002
:101CD00000BF4FF400313046FFF78CFF0028F8D1E9
:101CE00001213046FFF77AFF00BF51493046FFF728
:101CF00055FF0028F9D0002239463046FFF765FF2E
:101D000000BF4C493046FFF749FF0028F9D029466B
:101D10003046FFF758FF00BF4649891C3046FFF7A1
:101D20003DFF0028F8D00CE021783046FFF74BFF4C
:101D3000641C00BF3F49891C3046FFF72FFF002875
:101D4000F8D0B8F10000A8F1010101F0FF08EBD1D3
:101D500001213046FFF710FFBDE8F08121B1028874
:101D600042F48062028004E002884FF6FF331A409A
:101D7000028070470146088AC0B270472DE9F041E1
:101D80000746884616461C46069D00BF4FF40031A4
:101D90003846FFF72FFF0028F8D101213846FFF71A
:101DA0001DFF00BF22493846FFF7F8FE0028F9D092
:101DB000002241463846FFF708FF00BF1D4938465C
:101DC000FFF7ECFE0028F9D001213846FFF719FE95
:101DD00031463846FFF7F7FE00BF1649891C3846E2
:101DE000FFF7DCFE0028F8D001213846FFF7F6FEA9
:101DF00000BF0F493846FFF7D1FE0028F9D0012275
:101E000041463846FFF7E1FE00BF0949491C384604
:101E1000FFF7C4FE0028F8D026E0000000127A0088
:101E200040420F00A086010000540040000C014019
:101E3000010003008200070000040010012D07D1FB
:101E400000213846FFF78AFF01213846FFF794FE4C
:101E5000BC493846FFF7A2FE30B13846FFF78AFF8B
:101E60002070641C681E85B2002DE7D10121384620
:101E7000FFF774FFBDE8F081F0B505460E46144645
:101E8000002701212846FFF7A9FE00BFAD493F39D1
:101E90002846FFF783FE0028F8D000223146284666
:101EA000FFF793FE00BFA8492846FFF777FE0028FA
:101EB000F9D001212846FFF7A4FD21462846FFF767
:101EC00082FE00BFA049891C2846FFF767FE002854
:101ED000F8D001212846FFF781FE00BF99493F391C
:101EE0002846FFF75BFE0028F8D00122314628463D
:101EF000FFF76BFE00BF93493E392846FFF74EFEC1
:101F00000028F8D000212846FFF728FF01212846A5
:101F1000FFF732FE00BF8B492846FFF73FFE00283F
:101F2000F9D02846FFF726FF07463846F0BD10B522
:101F300004468648844209D10121480500F09DFAF3
:101F400000214FF4001000F098FA08E00121880504
:101F500000F093FA00214FF4800000F08EFA10BDDB
:101F600041F288310160002181804BF6FF71C18010
:101F70000021018141814FF480418181704721B16D
:101F8000828842F40062828004E082884FF2FF730C
:101F90001A408280704721B1828842F48052828048
:101FA00004E082884EF6FF731A40828070470A462A
:101FB000002181894FF60173194002F0FE03194395
:101FC0008181704721B1828942F00102828104E05F
:101FD00082894FF6FE731A408281704721B10288D0
:101FE00042F04002028004E002884FF6BF731A40BC
:101FF0000280704708B502460020009000920098C9
:10200000084400900098008808BD21B1028842F47D
:102010000042028003E00288C2F30E020280704791
:10202000B1F5006F04D1028842F40062028004E03E
:1020300002884FF2FF731A4002807047B1F5005FCB
:1020400004D1028842F40052028004E002884DF676
:10205000FF731A400280704721B1028842F4805217
:10206000028004E002884EF6FF731A400280704737
:10207000B1F5006F04D1028842F40062028004E0EE
:1020800002884FF2FF731A400280704721B1028824
:1020900042F02002028004E002884FF6DF731A400B
:1020A000028070470146088B0012704721B10288F8
:1020B00042F01002028004E002884FF6EF731A40EB
:1020C0000280704721B9028842F08002028004E059
:1020D00002884FF67F731A4002807047B1F5804F37
:1020E00005D0828B4BF6FF731A40828303E0828B0C
:1020F00042F480428283704710B5014600200023DD
:1021000000228B8A0A8B120443EA020424F07F40E7
:1021100010BD30B5024600200023948801F0E06530
:1021200004EA154321F07F41948A0C4014B10BB1AD
:10213000012000E0002030BD002221F07F42D34387
:102140008382704740000300820007000054004073
:10215000DF48006840F00100DD490860084640683B
:10216000DC490840DA49486008460068DA49084016
:10217000D74908600846006820F4802008600846B7
:10218000406820F4FE0048604FF41F0088607047EC
:10219000CF49096821F48031CD4A116011460968A0
:1021A00021F480211160B0F5803F03D0B0F5802F7D
:1021B0000ED106E0C649096841F48031C44A116075
:1021C00007E0C349096841F4A021C14A116000E059
:1021D00000BF00BF704710B5014600220023002059
:1021E0004A11012A02D1BA4C236806E0022A02D120
:1021F000B74C236A01E0B64C636A01F01F02012468
:1022000094401C400CB1012000E0002010BD38B506
:10221000002000900024002500BF3120FFF7DBFFE5
:1022200005460098401C00900098B0F5A06F01D0C2
:10223000002DF2D03120FFF7CEFF08B1012400E0DD
:102240000024204638BD01460020A14A106820F035
:10225000F80040EAC10010607047A049086070476C
:10226000024600209A4B586820F47C1042EA010391
:102270001843974B58607047984908667047014665
:102280000020934A506820F00300084350607047D4
:102290008F48406800F00C007047014600208C4ACF
:1022A000506820F0F000084350607047014600205D
:1022B000874A506820F4E060084350607047014648
:1022C0000020834A506820F4605040EAC10050600A
:1022D000704729B17E4A527A02437D4B5A7204E01C
:1022E0007B4A527A82437A4B5A7270477B49D83183
:1022F0000860704701460020754A506820F440404D
:102300000843506070470021714A20321170704AB2
:1023100082F82010012802D004280AD104E001210B
:102320006B4A2032117005E00521694A2032117094
:1023300000E000BF00BF704769490860704764490A
:10234000096A0143624A116270476549443908606D
:10235000704730B500210022002400235C4D6D68D9
:1023600005F00C0121B1042905D0082923D105E08D
:102370005C4D056022E05B4D05601FE0544D6D68CB
:1023800005F47012524D6D6805F48034022505EB9A
:1023900092421CB9544D554305600BE04C4D6D689D
:1023A00005F400351DB1504D5543056002E04D4D1B
:1023B0005543056002E04B4D056000BF00BF444D32
:1023C0006D6805F0F0010909484D6B5C0568DD405A
:1023D00045603F4D6D6805F4E061090A434D6B5C53
:1023E0004568DD4085603A4D6D6805F46051C90A65
:1023F0003E4D6B5C4568DD40C560354D6D6805F44C
:102400004041890B3A4D6B5CC568B5FBF3F505613E
:1024100030BD29B12E4A526902432D4B5A6104E066
:102420002B4A526982432A4B5A61704729B1284A84
:1024300092690243264B9A6104E0254A92698243DD
:10244000234B9A61704729B1214AD2690243204B3C
:10245000DA6104E01E4AD26982431D4BDA6170479B
:1024600029B11B4AD2680243194BDA6004E0184ACA
:10247000D2688243164BDA60704729B1144A126958
:102480000243134B1A6104E0114A12698243104B54
:102490001A61704712494039086070470F49C86493
:1024A00070470B49C87170470948406A40F0807016
:1024B00007494862704701460020054A92680A4071
:1024C0000AB1012000E0002070470149887270477E
:1024D000001002400000FFF8FFFFF6FE000042423D
:1024E0008004424200127A0000093D0014000020DE
:1024F0002400002021B1028842F00102028004E0A1
:1025000002884FF6FE731A40028070471AB1838921
:102510000B43838102E083898B4383817047CA43E5
:102520000282704700220288F74B98420ED0F74B88
:1025300098420BD0B0F1804F08D0F54B984205D0AF
:10254000F44B984202D0F44B984204D14FF68F736B
:102550001A404B881A43F14B984207D0F04B9842EF
:1025600004D04FF6FF431A40CB881A4302808B8871
:1025700083850B880385E44B98420BD0E34B98424C
:1025800008D0E84B984205D0E74B984202D0E74B81
:10259000984201D10B7A03860123838270477FB56D
:1025A00004460D46B4F1804F39D14FF4E060FDF799
:1025B0003DFF1C208DF8000000208DF80100022056
:1025C0008DF8020001208DF803006846FDF733FF07
:1025D00001210846FFF737FF681E80B2ADF80800FA
:1025E0004720ADF804000020ADF80A00ADF8060061
:1025F00001A94FF08040FFF795FF01218807FFF701
:102600008EFF012211469007FFF780FF0121880706
:10261000FFF770FF00210120FFF715FF24E1BC4800
:10262000844238D14FF4E060FDF700FF1D208DF8A3
:10263000000000208DF8010003208DF80200012029
:102640008DF803006846FDF7F6FE01210220FFF732
:10265000FAFE681E80B2ADF808004720ADF804000D
:102660000020ADF80A00ADF8060001A92046FFF7EA
:1026700059FF01212046FFF752FF01221146204653
:10268000FFF744FF01212046FFF734FF002102201D
:10269000FFF7D9FEE8E09F48844238D14FF4E0606C
:1026A000FDF7C4FE1E208DF8000000208DF801000B
:1026B00003208DF8020001208DF803006846FDF725
:1026C000BAFE01210420FFF7BEFE681E80B2ADF8FD
:1026D00008004720ADF804000020ADF80A00ADF86E
:1026E000060001A92046FFF71DFF01212046FFF744
:1026F00016FF012211462046FFF708FF0121204660
:10270000FFF7F8FE00210420FFF79DFEACE08248B1
:10271000844235D14FF4E060FDF788FE00208DF84B
:10272000010003208DF8020001208DF803006846A7
:10273000FDF781FE01210820FFF785FE681E80B2AB
:10274000ADF808004720ADF804000020ADF80A00FD
:10275000ADF8060001A92046FFF7E4FE012120465E
:10276000FFF7DDFE012211462046FFF7CFFE0121D3
:102770002046FFF7BFFE00210820FFF764FE73E04C
:102780006648844235D14FF4E060FDF74FFE0020EB
:102790008DF8010003208DF8020001208DF8030060
:1027A0006846FDF748FE01211020FFF74CFE681E29
:1027B00080B2ADF808004720ADF804000020ADF865
:1027C0000A00ADF8060001A92046FFF7ABFE012183
:1027D0002046FFF7A4FE012211462046FFF796FE91
:1027E00001212046FFF786FE00211020FFF72BFE77
:1027F0003AE04B48844235D14FF4E060FDF716FED5
:1028000000208DF8010003208DF8020001208DF8D2
:1028100003006846FDF70FFE01212020FFF713FE9D
:10282000681E80B2ADF808004720ADF80400002013
:10283000ADF80A00ADF8060001A92046FFF772FEC8
:1028400001212046FFF76BFE012211462046FFF7CB
:102850005DFE01212046FFF74DFE00212020FFF7FD
:10286000F2FD01E000BFFEE77FBD10B50446B4F104
:10287000804F04D101210846FFF7E5FD29E02448F7
:10288000844204D101210220FFF7DDFD21E021482F
:10289000844204D101210420FFF7D5FD19E01E4830
:1028A000844204D101210820FFF7CDFD11E01B482F
:1028B000844204D101211020FFF7C5FD09E018482A
:1028C000844204D101212020FFF7BDFD01E000BFBB
:1028D000FEE710BD10B50446B4F1804F04D10021CD
:1028E0000120FFF7B0FD3DE00948844204D10021FA
:1028F0000220FFF7A8FD35E00648844218D10021E8
:102900000420FFF7A0FD2DE0002C01400034014021
:102910000004004000080040000C0040001000408F
:1029200000140040004001400044014000480140C4
:10293000FE48844204D100210820FFF784FD11E005
:10294000FB48844204D100211020FFF77CFD09E000
:10295000F848844204D100212020FFF774FD01E0F3
:1029600000BFFEE710BD10B50446F348844208D10D
:102970000121C014FFF774FD0021E014FFF770FD82
:10298000C4E0B4F1804F08D101210846FFF775FD7E
:1029900000210120FFF771FDB8E0E848844208D12A
:1029A00001210220FFF769FD00210220FFF765FDEC
:1029B000ACE0E348844208D101210420FFF75DFD2B
:1029C00000210420FFF759FDA0E0D848844208D137
:1029D00001210820FFF751FD00210820FFF74DFDE0
:1029E00094E0D348844208D101211020FFF745FD2F
:1029F00000211020FFF741FD88E0CE48844208D135
:102A000001212020FFF739FD00212020FFF735FDAF
:102A10007CE0CC48844208D101214014FFF720FD1E
:102A200000216014FFF71CFD70E0C748844209D103
:102A30000121C804FFF714FD00214FF40020FFF727
:102A40000FFD63E0C148844209D101210805FFF769
:102A500007FD00214FF48010FFF702FD56E0BC484F
:102A6000844209D101214805FFF7FAFC00214FF407
:102A70000010FFF7F5FC49E0B648844208D1012177
:102A80004020FFF7FAFC00214020FFF7F6FC3DE074
:102A9000B148844208D101218020FFF7EEFC0021DB
:102AA0008020FFF7EAFC31E0AC48844208D10121E4
:102AB0008015FFF7E2FC0021A015FFF7DEFC25E002
:102AC000A748844209D101210804FFF7C9FC00216D
:102AD0004FF48030FFF7C4FC18E0A248844209D1CB
:102AE00001214804FFF7BCFC00214FF40030FFF740
:102AF000B7FC0BE09C48844208D101218804FFF711
:102B0000AFFC00214FF48020FFF7AAFC10BD70B588
:102B1000002400220023058C4FF6FE763540058404
:102B2000028C8388048B4FF68F752C40B51E2C4089
:102B30000D882C43751E2A400D892A434D882A434F
:102B40007D4DA8420BD07F4DA84208D0844DA842AD
:102B500005D0844DA84202D0834DA84213D14FF630
:102B6000F7752A404D892A434FF6FB752A408D8818
:102B70002A434FF6FF652B404FF6FF552B408D89BA
:102B80002B43CD892B4383800483CD8885860284A3
:102B900070BD70B5002400220023058C4FF6EF763F
:102BA00035400584028C8388048B48F6FF752C40E1
:102BB0004FF6FF452C400D884FF6FF7606EA0525B7
:102BC0002C434FF6DF752A400D8906EA05152A4386
:102BD0004D8806EA05152A43574DA84202D0594DA3
:102BE000A8421DD14FF67F752A404D894FF6FF76DA
:102BF00006EA05152A434FF6BF752A408D8806EA76
:102C000005152A434FF6FF352B404FF2FF752B4039
:102C10008D8906EA85052B43CD8906EA85052B4378
:102C200083800483CD880587028470BD70B500243D
:102C300000220023058C4FF6FF6635400584028C88
:102C40008388848B4FF68F752C404FF6FC752C4093
:102C50000D882C434FF6FF552A400D894FF6FF761D
:102C600006EA05252A434D8806EA05252A43324D02
:102C7000A84202D0334DA8421DD14FF2FF752A4021
:102C80004D894FF6FF7606EA05252A434FF6FF35B4
:102C90002A408D8806EA05252A434EF6FF752B400B
:102CA0004DF6FF752B408D8906EA05152B43CD891E
:102CB00006EA05152B4383808483CD8885870284AB
:102CC00070BD70B5002200230024058C4EF6FF76FF
:102CD00035400584038C8488828B48F6FF752A4032
:102CE0004FF6FF452A400D884FF6FF7606EA052588
:102CF0002A434DF6FF752B400D8906EA05352B4317
:102D00004D8806EA05352B430B4DA84202D00D4DE8
:102D1000A84208D14BF6FF752C408D894FF6FF76FF
:102D200006EA85152C43848082831FE0000C004056
:102D30000010004000140040002C0140000400403E
:102D40000008004000340140004C014000500140A8
:102D50000054014000180040001C004000200040CA
:102D6000004001400044014000480140CD88A0F8E7
:102D70004050038470BD828B4FF2FF331A40828330
:102D8000828B4FF6FF7303EA01231A438283704755
:102D9000F0B50C461546002200210026078C4EF6A1
:102DA000FF7C07EA0C070784828B018C4FF6FF77C4
:102DB00007EA043640F6FF473A404FF6FF7707EA46
:102DC00005273A434FF6FF7707EA03373A43F64FB2
:102DD000B8420ED0F54FB8420BD0B0F1804F08D0BA
:102DE000F34FB84205D0F34FB84202D0F24FB84289
:102DF00006D14DF6FF77394046F48057394305E058
:102E000047F6FF57394044F48057394382830184A1
:102E1000F0BD828B4FF6F3731A408283828B0A4394
:102E200082837047F0B50C4615460022002100262B
:102E3000078C4FF6FF6C07EA0C070784828B018C26
:102E40004FF6FF7707EA04264FF60C773A404FF625
:102E5000FF7707EA03172F433A43D34FB8420ED008
:102E6000D24FB8420BD0B0F1804F08D0D04FB8420B
:102E700005D0D04FB84202D0CF4FB84206D14FF65E
:102E8000FF57394046F48077394305E04FF2FF574A
:102E9000394044F48077394382830184F0BD028B4A
:102EA0004FF2FF331A400283028B4FF6FF7303EA9F
:102EB00001231A4302837047F0B50C4615460022E1
:102EC00000210026078C4FF6EF7C07EA0C070784E9
:102ED000028B018C4FF6FF7707EA041640F6FF4796
:102EE0003A404FF6FF7707EA03373A434FF6FF774A
:102EF00007EA05273A43AC4FB8420ED0AB4FB84271
:102F00000BD0B0F1804F08D0A94FB84205D0A94FDF
:102F1000B84202D0A84FB84206D14FF6DF77394009
:102F200046F01007394305E04FF65F77394044F02B
:102F30001007394302830184F0BD028B4FF6F3730F
:102F40001A400283028B0A4302837047F0B50C4695
:102F5000154600220021068C4FF6FE773E4006847F
:102F6000028B018C4FF60C7632407E1C06EA03166B
:102F70002E4332438C4EB0420ED08C4EB0420BD01A
:102F8000B0F1804F08D08A4EB04205D0894EB04291
:102F900002D0894EB04206D14FF6FD76314044F062
:102FA0000106314305E04FF6F576314044F0010665
:102FB000314302830184F0BD70B505460C467A4862
:102FC00085420ED0794885420BD0B5F1804F08D0AC
:102FD0007748854205D07748854202D076488542B9
:102FE00000D100E000BF208850B92389A288618801
:102FF0002846FFF7ABFFE1882846FFF79EFF25E054
:10300000208804280AD12389A28861882846FFF7EE
:1030100053FFE1882846FFF742FF17E02088082881
:103020000AD12389A28861882846FFF7FBFEE18840
:103030002846FFF7EEFE09E02389A288618828462A
:10304000FFF7A6FEE1882846FFF795FE70BD2DE943
:10305000F04105460C4600260127608808B9022683
:1030600000E00026A088012801D1022700E0012706
:103070002088A0B92389A28861882846FFF766FFC7
:10308000E1882846FFF759FF23893A46314628460A
:10309000FFF712FFE1882846FFF701FF13E02389BD
:1030A000A28861882846FFF707FFE1882846FFF7D6
:1030B000F6FE23893A4631462846FFF747FFE18866
:1030C0002846FFF73AFFBDE8F0810A884B881A438B
:1030D0008B881A43CB881A430B891A434B891A43AE
:1030E0008B891A43A0F8442070474FF6FF71818006
:1030F00000210180C1804180017270470021018060
:1031000041808180C180018141818181C18170477D
:10311000002101804180012181800021C180018145
:1031200070470021018041808180C18001814181FF
:103130008181704731B1B0F8442042F40042A0F8D8
:10314000442005E0B0F84420C2F30E02A0F8442069
:1031500070478182704741EA0203A0F84830704707
:103160001AB183890B43838102E083898B43838176
:10317000704701894FF6F8721140018170470A4685
:10318000002101894FF68F73194011430181704767
:1031900030B504460D4629462046FFF7F0FF20894A
:1031A00040F00700208130BD002C01400034014078
:1031B0000004004000080040000C00402DE9F041F0
:1031C00004460D4616461F46602D06D13B46012299
:1031D00031462046FFF770FE05E03B4601223146AE
:1031E0002046FFF7B3FE29462046FFF7C8FF208997
:1031F00040F007002081BDE8F08130B50C46002189
:103200000189C9B24FF6FF7505EA03251543254329
:103210002943018130BD2DE9F04105460E46174690
:103220009846002443463A4631462846FFF7E5FFD4
:103230002C894FF6F870044044F007044FF68F7065
:10324000044044F070042C81BDE8F081F0B50446E0
:103250000D4616461F463B46324629462046FFF796
:10326000CCFF208940F480402081F0BD018582821E
:1032700070470A46002101884FF68F7319401143A9
:1032800001807047F0B50C4615461E46002100220D
:1032900000230189028B038C4FF6F87739402143D4
:1032A0004FF6FC473A4040F201173A434FF6DD77BC
:1032B0003B404FF6FF7707EA06172F433B43018158
:1032C00002830384F0BD0A460021018B4FF68F7301
:1032D00019401143018370470A460021018B48F6CB
:1032E000FF7319404FF6FF7303EA0223194301836A
:1032F00070470A460021818B4FF68F7319401143A6
:10330000818370470A460021818B48F6FF7319407C
:103310004FF6FF7303EA022319438183704721B1FB
:10332000028842F08002028004E002884FF67F7338
:103330001A400280704721B1828842F004028280E4
:1033400004E082884FF6FB731A408280704721B1F7
:10335000828842F00802828004E082884FF6F77388
:103360001A408280704721B1828842F00102828037
:1033700004E082884FF6FE731A40828070470A4646
:103380000021018B4FF6F7731940114301837047F9
:103390000A460021018B4FF2FF7319404FF6FF736D
:1033A00003EA02231943018370470A460021818BF7
:1033B0004FF6F77319401143818370470A46002185
:1033C000818B4FF2FF7319404FF6FF7303EA02231C
:1033D0001943818370470A460021018B4FF6FB7326
:1033E00019401143018370470A460021018B4FF6B3
:1033F000FF3319404FF6FF7303EA02231943018399
:1034000070470A460021818B4FF6FB731940114328
:10341000818370470A460021818B4FF6FF331940A4
:103420004FF6FF7303EA02231943818370470A466C
:103430000021018B4FF67F731940114301837047C0
:103440000A460021018BC1F30E014FF6FF7303EA18
:1034500002231943018370470A460021818B4FF6EE
:103460007F7319401143818370470A460021818B85
:10347000C1F30E014FF6FF7303EA02231943818360
:1034800070470A460021018C4FF6FD731940114325
:10349000018470470A460021018C4FF6F7731940EA
:1034A0001143018470470A460021018C4FF6DF73F7
:1034B00019404FF6FF7303EA021319430184704762
:1034C0000A460021018C4FF67F7319404FF6FF73B7
:1034D00003EA02131943018470470A460021018C54
:1034E0004FF6FF5319404FF6FF7303EA02231943C7
:1034F000018470470A460021018C4FF2FF73194086
:103500004FF6FF7303EA02231943018470470A460A
:103510000021018C4DF6FF7319404FF6FF7303EA4B
:10352000023319430184704730B5002301248C40D5
:10353000A3B2048C9C430484048C02FA01F5ADB25E
:103540002C43048430BD30B5002304248C40A3B246
:10355000048C9C430484048C02FA01F5ADB22C4324
:10356000048430BD70B5034600200024184618308E
:1035700001258D40ACB21D8CA5431D8409B10829DD
:1035800009D100EB6100056825F07005056005684C
:10359000154305600EE00D1FC5F34E052844056870
:1035A00025F4E045056005684FF6FF7606EA022639
:1035B0003543056070BD21B1028842F002020280ED
:1035C00004E002884FF6FD731A400280704721B173
:1035D000028842F00402028004E002884FF6FB7386
:1035E0001A400280704721B1828842F080028280B6
:1035F00004E082884FF67F731A4082807047028809
:103600004FF6F7731A40028002880A43028070471F
:1036100082884FF68F731A40828082880A438280A4
:10362000704702894FF6F8731A40028102890A43F3
:103630000281704702894FF67F731A400281028926
:103640000A43028170478184704781857047818673
:1036500070470187704781877047A0F84010704716
:1036600002884FF6FF431A40028002880A43028014
:1036700070470146888E70470146088F70470146A3
:10368000888F70470146B1F8400070470146888C2A
:1036900070470146088D704702460020138A0B4090
:1036A0000BB1012000E00020704730B50246002039
:1036B00000230024158A05EA0103958905EA01041F
:1036C00013B10CB1012000E0002030BDCA430282DA
:1036D0007047000010B50446FB48844209D101211F
:1036E0008803FEF7BDFE00214FF48040FEF7B8FED0
:1036F00032E0F648844209D101214804FEF7BDFEBC
:1037000000214FF40030FEF7B8FE25E0F048844277
:1037100009D101218804FEF7B0FE00214FF480207A
:10372000FEF7ABFE18E0EB48844209D10121C80442
:10373000FEF7A3FE00214FF40020FEF79EFE0BE0F3
:10374000E548844208D101210805FEF796FE0021D4
:103750004FF48010FEF791FE10BD2DE9F04786B0C2
:1037600005460E460024A24600BFA1460027B089A8
:1037700000B100BF2F462C8A4CF6FF700440F08841
:1037800004432C82AC894EF6F3100440B088318992
:103790000843718908430443AC81AC8A4FF6FF406B
:1037A0000440B0890443AC8201A8FEF7D2FDC648AC
:1037B000874202D1DDF810A001E0DDF80CA0A88955
:1037C00000F4004040B10AEBCA0000EB0A10316877
:1037D0004900B0FBF1F807E00AEBCA0000EB0A1061
:1037E00031688900B0FBF1F86420B8FBF0F0040107
:1037F0002009642101FB1089A88900F4004040B130
:10380000322000EBC900B0FBF1F000F007000443E8
:1038100008E0322000EB09106421B0FBF1F000F069
:103820000F0004432C8106B0BDE8F0874FF4165119
:10383000016000218180C18001810C214181002132
:103840008181704710B502460020108A4FF2FF03B5
:1038500018400B884C8823438C882343CC8823430F
:103860001843108210BD0021018041808180C180F9
:10387000704721B1828942F40052828104E082893A
:103880004DF6FF731A4082817047F0B5034600245D
:1038900000260025002040F66A17B94200D100BF7B
:1038A0001846C1F3421401F01F06012707FA06F576
:1038B000012C01D10C3004E0022C01D1103000E0C9
:1038C00014301AB107682F43076002E00768AF435E
:1038D0000760F0BD1AB1838A0B43838202E0838ABA
:1038E0008B4383827047028A4FF6F0731A4002823C
:1038F000028A0A430282704782894FF2FF731A409C
:10390000828182890A438281704721B1828942F093
:103910000202828104E082894FF6FD731A4082819F
:103920007047028A4FF6DF731A400282028A0A4306
:103930000282704721B1028A42F48042028204E08E
:10394000028A4BF6FF731A4002827047C1F30802E5
:103950008280704701468888C0F3080070478189DB
:1039600041F0010181817047028BD2B20283028B48
:1039700042EA012202837047028B02F47F420283F3
:10398000028B0A430283704721B1828A42F02002EF
:10399000828204E0828A4FF6DF731A408282704787
:1039A00021B1828A42F01002828204E0828A4FF6BC
:1039B000EF731A408282704721B1828A42F0080276
:1039C000828204E0828A4FF6F7731A40828270473F
:1039D00021B1828942F40042828103E08289C2F3EC
:1039E0000E028281704721B1828A42F40062828293
:1039F00004E0828A4FF2FF731A4082827047828A03
:103A00004FF6FB731A408282828A0A438282704791
:103A100021B1828A42F00202828204E0828A4FF659
:103A2000FD731A408282704702460020B1F5007F84
:103A300000D100BF13880B400BB1012000E0002033
:103A4000704701F40072B2F5007F00D100BFCA4395
:103A50000280704770B50246002400230025002034
:103A600040F66A16B14200D100BFC1F3421501F021
:103A70001F03012606FA03F3012D02D19689334074
:103A800006E0022D02D1168A334001E0968A3340C7
:103A90000C12012606FA04F41688344013B10CB156
:103AA000012000E0002070BD10B50022002340F688
:103AB0006A14A14200D100BF0A1201249440A3B2AB
:103AC000DC43048010BD0000003801400044004089
:103AD00000480040004C004000500040122400F01C
:103AE000B7FC01210520FEF7A1FC0121BC48FDF730
:103AF00032FF04F0E3FF0021012005F0BFF80021B0
:103B0000022005F0BBF80021032005F0B7F80021E2
:103B1000042005F0B3F801224FF4E131B14800F080
:103B2000FEFE01224FF4E131AF4800F0F8FEAFA1F4
:103B3000AC4801F027F9ADA1AB4801F023F9B0A1E1
:103B4000A84801F01FF903F061F9B4A1A54801F0FC
:103B500019F901F0D9F902F007F8002211461046D0
:103B600002F0F2F805F012F8B34908700846007840
:103B700000F0030020B9B1A19A4801F003F91FE059
:103B8000AD48007800F00300012804D1B4A19548A5
:103B900001F0F8F814E0A848007800F003000228CB
:103BA00004D1B7A18F4801F0EDF809E0A2480078F0
:103BB00000F00300032803D1B8A18A4801F0E2F81D
:103BC00000209D49087004F0E1FF9B4908700846F9
:103BD000007800F0040048B9B7A1824801F0D2F89B
:103BE0000120BB4981F83500122408E0B9A17D48C5
:103BF00001F0C8F80220B64981F8350019242246A0
:103C0000BA49BB4800F058FF4FF47A71C806FEF776
:103C1000C6FC4FF08040FEF728FEB6A1714801F0C7
:103C2000B1F852E0B9480068642806D94021B84884
:103C3000FDF7A7FC0020B5490860B648007810B130
:103C40000020B4490870B4480078A0B1B3480078A7
:103C5000401CB249087008460078032808DD20217E
:103C6000AB48FDF78EFC01F0C2FE0020AB490870A6
:103C70000020A9490870AA48007848B1A94890F8DE
:103C8000250028B10020A74981F82500A449087023
:103C9000A5480068082804D90020A349086002F05C
:103CA000E5FCA24800680A2806D904F09BFD04F050
:103CB0009DFD00209D4908609D480068642804D946
:103CC00005F016F800209A490860ABE706E041F2DB
:103CD000883100BF0A1EA1F10101FBD1021EA0F133
:103CE0000100F4D1704700BF011EA0F10100FBD11B
:103CF0007047002472E0012004F075FF60B18DA1CF
:103D0000384801F03FF80121084604F0B7FF0121CF
:103D1000022004F0B3FF07E00021012004F0AEFF11
:103D20000021022004F0AAFF022004F05CFF60B131
:103D300085A12C4801F026F80121032004F09EFF04
:103D40000121042004F09AFF07E00021032004F081
:103D500095FF0021042004F091FF002404F016FFD9
:103D600004465CB17DA11F4801F00CF821461D48B6
:103D700000F055FF7EA11B4801F004F8012004F07B
:103D80004CFF18B17BA1174800F0FCFF022004F0A3
:103D900044FF18B180A1134800F0F4FF032004F0A1
:103DA0003CFF18B185A10F4800F0ECFF042004F09F
:103DB00034FF18B18AA10B4800F0E4FF40215448B9
:103DC000FDF7DFFB20215248FDF7DBFB4FF40051EC
:103DD0008C48FDF7D6FBC820FFF778FF8BE7000083
:103DE0000002300000440040004800404D69636B11
:103DF000583420524F5320436172200A00000000C3
:103E0000537461727420496E6974204D5055393273
:103E10003530202E2E2E200A0000000053756363DB
:103E2000657373656420496E6974204D505539324D
:103E3000353020210A0000009001002054686520E0
:103E4000646966666572656E7469616C206D6F6425
:103E5000656C20697320757365642E200A0000006C
:103E6000546865206D6563616E756D206D6F646566
:103E70006C20697320757365642E200A00000000B1
:103E800054686520345753345744206D6F64656C13
:103E900020697320757365642E200A0054686520BC
:103EA000636172206D6F64656C2069732065727246
:103EB0006F722E200A00000044425553206D6F643B
:103EC000656C20697320757365642E200A000000FC
:103ED000B101002053425553206D6F64656C206919
:103EE0007320757365642E200A000000A08601000F
:103EF00000380140496E69742053756363657373BC
:103F000066756C202E2E2E2E0A0000003800002030
:103F100000080140310000202E0000202F0000206A
:103F200030000020640400203C00002040000020FD
:103F3000440000206B65793120707265737365648D
:103F4000202E2E2E0A0000006B65793220707265DB
:103F500073736564202E2E2E0A000000436F646583
:103F6000205377697463682076616C75653A200028
:103F7000200A000049736F6C617465642063686196
:103F80006E6E656C203120696E70757420564343E7
:103F9000202E2E2E0A00000049736F6C6174656438
:103FA000206368616E6E656C203220696E70757476
:103FB00020564343202E2E2E0A00000049736F6CBA
:103FC00061746564206368616E6E656C203320697E
:103FD0006E70757420564343202E2E2E0A0000006A
:103FE00049736F6C61746564206368616E6E656CA3
:103FF000203420696E70757420564343202E2E2E77
:104000000A00000000100140704700BFFEE700BF3B
:10401000FEE700BFFEE700BFFEE77047704770474E
:1040200010B501218807FFF740FB00283FD0EB487F
:104030000068401CE9490860E9480068401CE849FC
:104040000860E8480068401CE6490860E6480068E7
:10405000401CE5490860E5480068401CE3490860E9
:10406000DE480068B0F57A7F1BD9E14890F834004B
:1040700050B90520DE4981F8200000231A46194670
:10408000184601F095FD09E0DA4890F8250028B9B6
:1040900000231A461946184601F08AFD0020CF4930
:1040A000086001F04DFF01218807FFF70FFB10BDED
:1040B00010B50121D048FFF7F8FA40B104F092FBA7
:1040C0000120CE4908700121CB48FFF7FFFA10BD4F
:1040D00010B540F22551CA48FFF7BCFC38B1C848BA
:1040E000FFF738FCC4B22146C54800F089FD40F214
:1040F0002551C348FFF7D8FC10BD10B5C148007862
:10410000C149087040F22551C048FFF7A3FC60B1D7
:104110002021BE48FFF795FC40F22551BB48FFF730
:10412000C3FCBA48FFF716FCC4B2B6480470007866
:10413000EA2820D1B4480078AE281CD10020B44928
:1041400008800120B3490870AF480178B048028860
:104150000088401CAE4B1880AF488154A9480178B4
:10416000184602880088401C1880AB488154012002
:10417000AA49087072E0A7480078012869D1A448CC
:104180000088022865DBA248008803280ADA9D48D7
:1041900001789F4802880088401C9D4B18809E48EB
:1041A00081545BE09C488078801C9949098888424A
:1041B0000ADD94480178964802880088401C944B98
:1041C00018809548815449E093488078801C904934
:1041D000098888420ED18B480078EF280AD1894897
:1041E00001788B4802880088401C894B18808A48D7
:1041F000815433E088488078C01C8549098888420A
:1042000021D180480078FE281DD17E480278804860
:1042100001880088401C7E4B18807F484254184615
:1042200000887F49088001207E490870184601886F
:10423000794801F0F8FF10B10020684908600020BB
:10424000744908700AE000207249087070490880BB
:1042500004E000206E4908806E49087001216B4817
:10426000FFF7F8FB30B16948FFF774FB012167489D
:10427000FFF7E7FB08216548FFF7ECFB30B1634827
:10428000FFF768FB08216148FFF7DBFB02215F486D
:10429000FFF7E0FB30B15D48FFF75CFB02215B48B4
:1042A000FFF7CFFB40F225515848FFF7FDFB10BD4B
:1042B00010B540215C48FDF764F940F225515B4898
:1042C000FFF7C8FB60B15948FFF744FBC4B240F2A6
:1042D00025515648FFF7E8FB2146544800F090FC72
:1042E00001215248FFF7B6FB30B15048FFF732FBCF
:1042F00001214E48FFF7A5FB08214C48FFF7AAFB18
:1043000030B14A48FFF726FB08214848FFF799FBE0
:1043100002214648FFF79EFB30B14448FFF71AFBE5
:1043200002214248FFF78DFB40F225513F48FFF73D
:10433000BBFB10BD3E48006820B13D480068401EF0
:104340003B490860704710B50120FDF727F810B110
:104350000120FDF734F810BD10B54FF40070FDF7E3
:104360001DF818B14FF40070FDF729F810BD704723
:1043700010B54FF40030FCF75BFF012819D1002184
:104380002C48FCF73AFF4FF40030FCF765FF2A4851
:1043900000F02CFF2949087008460078012804D154
:1043A0002749087000200D49086001212148FCF7C9
:1043B00024FF10BD00B585B06A4600212148FCF7F6
:1043C000E5FB684601F08DFE01201F49087041039E
:1043D0001E48FDF7D6F805B000BD000034000020EF
:1043E000380000203C000020400000204400002055
:1043F000B1010020640400200004004032000020CD
:10440000003801404B0000204C00002000440040D8
:10441000480000204A0000208C04002030000020CA
:104420007000002072000020000801400048004099
:104430002800002058000240980100204D00002074
:104440002E000020006400403100002000100140D8
:1044500030B54FF43471B1F1807F01D301201DE0FC
:1044600021F07F40401E4FF0E022506150170F2294
:10447000002807DA13071D0E354B00F00F04241F28
:104480001D5503E013071C0E324B1C5400BF0020C7
:104490004FF0E022906107201061002008B100BFBA
:1044A000FEE74FF0E020006920F001004FF0E0212E
:1044B000086130BD284908604FF0E021096941F0EA
:1044C00001014FF0E022116100BF23490968002972
:1044D000FBD1704710B501210320FDF7B4FF802008
:1044E000C10508804FF6FF708885002008850120EF
:1044F0008882A72008818420184908802020091D6F
:1045000008804FF6FF7015492C3108804720091F9D
:104510000880012011491431088080200F4908319A
:1045200008800E48008840F001000C49088008050A
:10453000008840F001000905088010BD00204FF000
:104540008041888C0004054924310988084470475B
:1045500018ED00E000E400E0280000200004004026
:1045600008B54FF4E060FBF761FF01208DF8010012
:1045700005208DF8020001208DF803006846FBF746
:104580005AFF08BD30B585B005460C4601212020F4
:10459000FDF74CFF01211020FDF748FF0121080520
:1045A000FDF751FF4FF48050ADF8100018208DF842
:1045B000130003208DF8120004A9FC48FCF70AFF41
:1045C0000420ADF810008DF8130004A9F848FCF79A
:1045D00001FF00950020ADF80400ADF80600ADF82D
:1045E0000800ADF80C000C20ADF80A006946F1484F
:1045F000FFF7B3F8012C08D1FFF7B2FF012240F218
:104600002551EC48FFF741F905E0002240F2255121
:10461000E848FFF73AF90121E648FFF72AF905B023
:1046200030BD08B54FF4E060FBF700FF01208DF8C6
:10463000010004208DF8020001208DF80300684677
:10464000FBF7F9FE08BD30B585B005460C460121E3
:104650001020FDF7EBFE0121C804FDF7F4FE4FF436
:104660008060ADF8100018208DF8130003208DF83D
:10467000120004A9CD48FCF7ADFE4FF40060ADF880
:10468000100004208DF8130004A9C848FCF7A2FE0E
:1046900000950020ADF80400ADF80600ADF8080064
:1046A000ADF80C000C20ADF80A006946C248FFF7CF
:1046B00054F8012C08D1FFF7B4FF012240F2255134
:1046C000BD48FFF7E2F805E0002240F22551BA4864
:1046D000FFF7DBF80121B848FFF7CBF805B030BD94
:1046E00008B54FF4E060FBF7A1FE27208DF800002D
:1046F00001208DF8010003208DF8020001208DF8C3
:1047000003006846FBF797FE08BD30B585B0054647
:104710000C4601210820FDF789FE01218804FDF7E0
:1047200092FE4FF48060ADF8100018208DF8130051
:1047300003208DF8120004A9A048FCF74BFE4FF4AB
:104740000060ADF8100004208DF8130004A99B4808
:10475000FCF740FE00950020ADF80400ADF806001F
:10476000ADF80800ADF80C000C20ADF80A00694661
:104770009348FEF7F2FF012C08D1FFF7B1FF0122A9
:1047800040F225518E48FFF780F805E0002240F204
:1047900025518B48FFF779F801218948FFF769F81F
:1047A00005B030BD08B54FF4E060FBF73FFE2620B2
:1047B0008DF8000001208DF8010002208DF8020024
:1047C00001208DF803006846FBF735FE08BD30B5C3
:1047D00085B005460C4601210420FDF727FE012186
:1047E0004804FDF730FE0420ADF8100018208DF8C5
:1047F000130003208DF8120004A97248FCF7EAFDAB
:104800000820ADF8100004208DF8130004A96D48AD
:10481000FCF7E0FD00950020ADF80400ADF80600BF
:10482000ADF80800ADF80C000C20ADF80A006946A0
:104830006548FEF792FF012C08D1FFF7B3FF012274
:1048400040F225516048FFF720F805E0002240F2D1
:1048500025515D48FFF719F801215B48FFF709F87A
:1048600005B030BD08B54FF4E060FBF7DFFD252053
:104870008DF8000001208DF801008DF802008DF800
:1048800003006846FBF7D7FD08BD30B585B0054687
:104890000C46012144F20400FDF7C8FD4FF40070FE
:1048A000ADF8100018208DF8130003208DF81200C9
:1048B00004A94448FCF78EFD4FF48060ADF8100069
:1048C00004208DF8130004A93E48FCF783FD0095F1
:1048D0000020ADF80400ADF80600ADF80800ADF812
:1048E0000C000C20ADF80A0069463848FEF735FF89
:1048F000012C08D1FFF7B6FF012240F225513348C1
:10490000FEF7C3FF05E0002240F225512F48FEF7D5
:10491000BCFF01212D48FEF7ACFF05B030BD70B5DE
:1049200004460D4616462948844204D1314628469D
:10493000FFF7ABFF21E02448844204D131462846EA
:10494000FFF745FF19E01E48844204D1314628464E
:10495000FFF7DBFE11E01848844204D131462846B7
:10496000FFF771FE09E01348844204D1314628461E
:10497000FFF708FE01E000BFFEE770BDF0B58DB0A7
:1049800004460F4616461D460397102004900596D0
:1049900000200690802007900020089009900A903F
:1049A000B5B94FF440500B9020E0000000100140DA
:1049B0000014014000500040004C0040000C014039
:1049C0000048004000080140004400400038014019
:1049D000012D02D168030B9008E0022D02D1E802FC
:1049E0000B9003E0032D01D100200B9000200C90D0
:1049F000FB48844225D1001D029001210846FDF7A5
:104A000008FD4FF4C060FBF711FD0E208DF8040087
:104A100000208DF8050001208DF806008DF80700B4
:104A200001A8FBF708FD01220221EE48FCF7F1FB8B
:104A300002A9EC48FCF7B6FB0121EA48FCF7DDFBD4
:104A400038E0E948844210D1001D02900121084657
:104A5000FDF7DFFC02A9E3483C30FCF7A3FB012192
:104A6000E0483C30FCF7C9FB24E0E048844210D128
:104A7000001D029001210846FDF7CBFC02A9D94890
:104A80002838FCF78FFB0121D6482838FCF7B5FB06
:104A900010E0D74884420DD1001D02900121022070
:104AA000FDF7B7FC02A9D348FCF77CFB0121D148F4
:104AB000FCF7A3FB0DB0F0BD70B58CB006460C46FC
:104AC000154600212046FFF7E0FE0021C448FEF70E
:104AD000D0FE002240F22441C148FEF7D6FE01225A
:104AE0004021BF48FEF7F6FE0121BD48FEF7C1FE9A
:104AF00001210846FDF78DFCBA481430FCF7B0FAE6
:104B0000B748001D0190BC48029000200390049516
:104B100005908020069000200790089020200990A2
:104B2000C0010A9000200B9001A9AE481430FCF798
:104B300039FB0121AB481430FCF75FFB0F208DF8E7
:104B4000000002208DF8010003208DF802000120F2
:104B50008DF803006846FBF76EFC01220221A14894
:104B60001430FCF756FB0CB070BD10B586B004468F
:104B7000012144F20400FDF759FC4FF40070ADF838
:104B8000140003208DF8160018208DF8170005A9D1
:104B90009A48FCF71FFC4FF48060ADF81400042025
:104BA0008DF8170005A99548FCF714FC25208DF811
:104BB000000003208DF801008DF8020001208DF81F
:104BC00003006846FBF737FC01940020ADF80800AD
:104BD000ADF80A00ADF80C00ADF810000C20ADF8EF
:104BE0000E0001A97E48FEF7B8FD012240217C4855
:104BF000FEF770FE01217A48FEF73BFE06B010BDBD
:104C000070B504460D4629462046FEF79FFE00BFBC
:104C100080212046FEF708FF0028F9D070BDFEB5C0
:104C200007460E46354600208DF8000001240CE0B2
:104C30000A20B5FBF0F100FB115030300DF80400F4
:104C40000A20B5FBF0F5601CC4B20A20B5FBF0F0F9
:104C50000028EDD10A20B5FBF0F100FB11503030F7
:104C60000DF8040006E01DF804103846FFF7C8FFF1
:104C7000601EC4B2002CF6DCFEBDFEB507460E4633
:104C8000002E04DA76422D213846FFF7B9FF35466B
:104C900000208DF8000001240CE00A20B5FBF0F1A3
:104CA00000FB115030300DF804000A20B5FBF0F580
:104CB000601CC4B20A20B5FBF0F00028EDD10A2038
:104CC000B5FBF0F100FB115030300DF8040006E0A8
:104CD0001DF804103846FFF793FF601EC4B2002C85
:104CE000F6DCFEBD2DE9F84F80460D462F464FF00D
:104CF0007E51384605F0A4FB814605F097FC064638
:104D000031464046FFF7B9FF2E214046FFF778FFB6
:104D1000304605F0A7FC3946009005F000FE8346BA
:104D2000374905F0FFFC82464FF07E5105F088FBC5
:104D3000814605F07BFC0446002C00DA64420A2C14
:104D40000CDA30214046FFF75BFF30214046FFF789
:104D500057FF21464046FFF762FF11E0642C08DA56
:104D600030214046FFF74CFF21464046FFF757FFF2
:104D700006E0B4F57A7F03DA21464046FFF74FFF9D
:104D8000BDE8F88F70B505460C460BE014F8011B22
:104D90002846FEF7DBFD00BF80212846FEF744FED3
:104DA0000028F9D020780028F0D170BD2DE9F0411D
:104DB00007460C461546002600BF0CE014F8011B00
:104DC0003846FEF7C3FD00BF80213846FEF72CFEB3
:104DD0000028F9D0761CAE42F0D3BDE8F081000087
:104DE00000380140440002400044004000480040B8
:104DF000004C004058040240980100200008014087
:104E000000007A4408B501210920FDF70FFB0121BC
:104E10004806FDF718FB01210420FDF707FB4FF4BE
:104E20008050ADF8000003208DF8020018208DF8A6
:104E3000030069464448FCF7CDFA4FF40060ADF832
:104E4000000048208DF8030069463F48FCF7C2FA8D
:104E500008BD08B54FF4C060FBF7E8FA14208DF8E0
:104E6000000000208DF801008DF8020001208DF86F
:104E700003006846FBF7DFFA08BD0EB53348FBF7C1
:104E800067FC6846FBF754FC00208DF806008DF89F
:104E900007008DF8080001208DF8090000208DF82A
:104EA0000A008DF80B008DF802008DF80300022037
:104EB0008DF8040004208DF80500ADF80000694667
:104EC0002248FBF7ABFB0EBD1FB500208DF80A0092
:104ED0008DF80B0001208DF80C000020ADF80000CB
:104EE000ADF80200ADF80400ADF80600ADF808001A
:104EF00001208DF80D006846FBF70FFB012202210F
:104F00001248FBF701FB1FBD10B5FFF77BFFFFF752
:104F1000B4FFFFF7D9FFFFF79CFF10BD85B041F24A
:104F20001430019004208DF8080000208DF809004D
:104F300002208DF80A00AB208DF80B00CD218DF8F2
:104F40000C1005B0704700000008014000640040EC
:104F50002DE9F047FE4890F82000012830D0FC48A9
:104F600090F834000028F9D0F94890F82100012881
:104F700027D1F749B1F90010F54AB2F92820881A6B
:104F800004F04DFE0746F34AF34B04F0AFFE05462E
:104F900004F0D0FB0446EE49B1F90210EC4AB2F934
:104FA0002A20881A04F03BFE0746EA4AEA4B04F03E
:104FB0009DFE054604F0BEFB8146214600F03FFE03
:104FC0005DE0E34890F82100032827D1E049B1F9DA
:104FD0000010DF4AB2F92820881A04F020FE0746A4
:104FE000DC4ADE4B04F082FE054604F0A3FB0446D7
:104FF000D749B1F90210D64AB2F92A20881A04F02A
:105000000EFE0746D34AD54B04F070FE054604F069
:1050100091FB8146214600F012FE30E0CC4890F82A
:105020002100022827D1CA49B1F90010C84AB2F9B3
:105030002820881A04F0F3FD0746C94AC94B04F03A
:1050400055FE054604F076FB0446C149B1F902104D
:10505000BF4AB2F92A20881A04F0E1FD0746C04A87
:10506000C04B04F043FE054604F064FB8146214634
:1050700000F0E5FD03E00021084600F0E0FDBDE89A
:10508000F087B348B0F90000B0F57A7F4CDDB04846
:10509000B0F9000040F21A41884245DAAC48B0F954
:1050A0000200B0F57A7F3FDDA948B0F902008842DE
:1050B0003ADAA748B0F90400B0F57A7F34DDA448A5
:1050C000B0F9040088422FDAA148B0F90600B0F523
:1050D0007A7F29DD9E48B0F90600884224DA9C4890
:1050E000B0F90000A049096808449F490860984841
:1050F000B0F902009D49096808449C490860944839
:10510000B0F904009A490968084499490860904830
:10511000B0F906009749096808449649086096481E
:105120000068401C94490860934800680A2854D9D4
:105130008D48006890490968B0FBF1F08A49086021
:105140008A4800688C490968B0FBF1F0874908601B
:105150008748006888490968B0FBF1F08449086015
:105160008448006884490968B0FBF1F0814908600F
:105170007D48008800B2764908857C48008800B2E6
:1051800048857B48008800B288857A48008800B24C
:10519000C8850846008D40B10846408D28B10846B4
:1051A000808D10B10846C08D70B90020684981F823
:1051B0003400714908606C4908606C4908606C49AA
:1051C00008606C49086070470120614981F834002B
:1051D0006948006808630120F5E700205C4981F810
:1051E00034006548006808630020ECE770B50446A9
:1051F00000250CB9002070BD554890F835000128F5
:105200004ED12078617840EA0120C0F30A0050496D
:1052100008806078C010A17840EA4110C0F30A000D
:105220004B494880A0788011E17840EA81002179DB
:1052300040EA8120C0F30A00454988802079401067
:10524000617940EAC110C0F30A004149C880607921
:105250000011800881F820006079C0F3011081F806
:105260002100A079E17940EA0120394981F8220042
:10527000207A617A40EA0120354981F82300A07A3A
:10528000E17A40EA0120324981F82400207B81F84C
:105290002500607B81F82600A07B81F82700D8E1FB
:1052A0002B4890F835000228F9D120780F2805D135
:1052B000207E18B9E07D08B9002519E0207830B9C2
:1052C00060780F2803D1207E08B9012510E002255F
:1052D0000BE0A81E205C30B9681E205C18B9605D28
:1052E0000F2800D103E0681CC5B2192DF1DB00BF07
:1052F000192D01D100207EE7681C192190FBF1F2E5
:1053000001FB1200215CA81C192290FBF2F302FBA6
:105310001300205C41EA0020C0F30A000C49088019
:10532000A81C192190FBF1F201FB1200205CC110B6
:10533000E81C192290FBF2F302FB1300205C41EA07
:105340004010C0F30A0002494880E81C192115E00A
:10535000B10100209E0C8E9257E7583F57E7683FF7
:10536000A167B3EA73B5753F5400002058000020D0
:105370005C000020600000206400002090FBF1F23F
:1053800001FB1200205C8111281D192290FBF2F311
:1053900002FB1300205C41EA8001681D90FBF2F3E0
:1053A00002FB1300205C41EA8020C0F30A00FE49A2
:1053B0008880681D192190FBF1F201FB1200205C2E
:1053C0004110A81D192290FBF2F302FB1300205C90
:1053D00041EAC010C0F30A00F349C880A81D192192
:1053E00090FBF1F201FB1200205C0111E81D192273
:1053F00090FBF2F302FB1300205C41EA0010C0F3C3
:105400000A00E9490881E81D192190FBF1F201FB2E
:105410001200205CC11105F10800192290FBF2F383
:1054200002FB1300205C41EA400105F1090090FBFA
:10543000F2F302FB1300205C41EA4020C0F30A00B3
:10544000D949488105F10900192190FBF1F201FBCE
:105450001200205C811005F10A00192290FBF2F382
:1054600002FB1300205C41EA8010C0F30A00CE4921
:10547000888105F10A00192190FBF1F201FB12006D
:10548000205C411105F10B00192290FBF2F302FBA5
:105490001300205C41EAC000C349C88105F10C003B
:1054A000192190FBF1F201FB1200215C05F10D00C6
:1054B000192290FBF2F302FB1300205C41EA00206A
:1054C000C0F30A00B849088205F10D00192190FBCC
:1054D000F1F201FB1200205CC11005F10E0019224F
:1054E00090FBF2F302FB1300205C41EA4010C0F392
:1054F0000A00AD49488205F10E00192190FBF1F236
:1055000001FB1200205C811105F10F00192290FBB4
:10551000F2F302FB1300205C41EA800105F1100068
:1055200090FBF2F302FB1300205C41EA8020C0F301
:105530000A009D49888205F11000192190FBF1F2C3
:1055400001FB1200205C411005F11100192290FBB3
:10555000F2F302FB1300205C41EAC010C0F30A0022
:105560009149C88205F11100192190FBF1F201FB6C
:105570001200205C011105F11200192290FBF2F3D8
:1055800002FB1300205C41EA0010C0F30A008649C8
:10559000088305F11200192190FBF1F201FB1200C2
:1055A000205CC11105F11300192290FBF2F302FBFC
:1055B0001300205C41EA400105F1140090FBF2F376
:1055C00002FB1300205C41EA4020C0F30A00764948
:1055D000488305F11400192190FBF1F201FB120040
:1055E000205C811005F11500192290FBF2F302FBFB
:1055F0001300205C41EA8010C0F30A006A498883E6
:1056000005F11500192190FBF1F201FB1200205C5D
:10561000411105F11600192290FBF2F302FB130071
:10562000205C41EAC0006049C8830846B0F9080020
:1056300040F2AA2190FBF1F05B4981F82000084676
:10564000B0F90A0040F2AA2190FBF1F0564981F826
:1056500021005648007870B90020534981F8340081
:10566000FFF70FFD18B101205049087041E00020FC
:105670004E4908703DE04C48B0F90000B0F5FA6FB3
:1056800023DC4948B0F9000064281EDB4648B0F925
:105690000400B0F5FA6F18DC4348B0F90400642840
:1056A00013DB414890F8200003280EDC3E4890F8B8
:1056B0002000012809DB3C4890F82100032804DC85
:1056C000394890F82100012808DA39A13948FFF754
:1056D00059FB0020344981F834008CE5012032491F
:1056E00081F83400FFF734FC2F48006B401C2E4932
:1056F000086301207FE510B52B4890F8350001289C
:1057000078D12DA12B48FFF73DFB2748B0F90010B9
:105710002848FFF784FA09212648FFF771FA29A1E2
:105720002448FFF72FFB2048B0F902102148FFF76B
:1057300076FA09211F48FFF763FA24A11D48FFF7F5
:1057400021FB1948B0F904101A48FFF768FA09213B
:105750001848FFF755FA1FA11648FFF713FB124828
:10576000B0F906101348FFF75AFA09211148FFF75C
:1057700047FA1AA10F48FFF705FB0B4890F82010D5
:105780000C48FFF74CFA09210A48FFF739FA15A12E
:105790000848FFF7F7FA044890F821100548FFF78A
:1057A0003EFA0A21034822E0B10100205000002007
:1057B000430A000000440040444255533A2020630D
:1057C00068313A006368323A000000006368333A97
:1057D000000000006368343A000000007377313A3B
:1057E000000000007377323A0000000002E0FFF78B
:1057F00007FAA8E0C64890F835000228F9D1C5A1FB
:10580000C748FFF7BFFAC248B0F90010C448FFF715
:1058100006FA0921C248FFF7F3F9BD48B0F90210B2
:10582000BF48FFF7FCF90921BD48FFF7E9F9B8487F
:10583000B0F90410BA48FFF7F2F90921B848FFF7A8
:10584000DFF9B348B0F90610B548FFF7E8F90921C8
:10585000B348FFF7D5F9AE48B0F90810B048FFF7E4
:10586000DEF90921AE48FFF7CBF9A948B0F90A10D3
:10587000AB48FFF7D4F90921A948FFF7C1F9A448BB
:10588000B0F90C10A648FFF7CAF90921A448FFF7A0
:10589000B7F99F48B0F90E10A148FFF7C0F90921E8
:1058A0009F48FFF7ADF99A48B0F910109C48FFF7F0
:1058B000B6F909219A48FFF7A3F99548B0F91210F3
:1058C0009748FFF7ACF909219548FFF799F99048F7
:1058D000B0F914109248FFF7A2F909219048FFF798
:1058E0008FF98B48B0F916108D48FFF798F9092108
:1058F0008B48FFF785F98648B0F918108848FFF7FC
:105900008EF909218648FFF77BF98148B0F91A1012
:105910008348FFF784F909218148FFF771F97C4832
:10592000B0F91C107E48FFF77AF909217C48FFF78F
:1059300067F97748B0F91E107948FFF770F90A2126
:105940007748FFF75DF977A17548FFF71BFA7048B4
:10595000016B7348FFF763F909217148FFF750F9AC
:1059600072A16F48FFF70EFA694890F834106C483E
:10597000FFF755F909216A48FFF742F96EA1684817
:10598000FFF700FA6248B0F928106548FFF747F9B9
:1059900009216348FFF734F96AA16148FFF7F2F97A
:1059A0005B48B0F92A105E48FFF739F909215C48D5
:1059B000FFF726F966A15A48FFF7E4F95448B0F911
:1059C0002C105748FFF72BF909215548FFF718F914
:1059D00062A15348FFF7D6F94D48B0F92E10504850
:1059E000FFF71DF90A214E48FFF70AF910BDF0B57F
:1059F0008DB00024002503270026AE222146641C1A
:105A00000DF80120EA222146641C0DF80120002235
:105A10002146641C0DF801202146641C0DF801701C
:105A20003B480088C0F307222146641C0DF8012082
:105A3000374802782146641C0DF801204088C0F3E5
:105A400007222146641C0DF8012031488278204647
:105A5000611CCCB20DF800202D488088C0F30722CD
:105A60002046611CCCB20DF800202948027920465E
:105A7000611CCCB20DF800202548C088C0F3072275
:105A80002046611CCCB20DF80020214882792046C6
:105A9000611CCCB20DF800201D4890F82020204653
:105AA000611CCCB20DF80020194890F82020204647
:105AB000611CCCB20DF80020022504E01DF80500A1
:105AC0000644681CC5B2A542F8DBF2B22046611C50
:105AD000CCB20DF80020A01EC0B28DF80200EF225B
